:100000000C9462030C947F030C947F030C947F0385
:100010000C947F030C947F030C947F030C941D04B9
:100020000C947F030C947F030C947F030C947F0348
:100030000C947F030C94CB030C947F030C947F03EC
:100040000C947F030C947F030C947F030C947F0328
:100050000C9481030C94A7030C947F030C947F03EE
:100060000C947F030C947F030C947F030C947F0308
:100070000C947F030C947F030C947F036E616E00DD
:10008000696E6600526563656976656420646972AD
:10009000656374206572726F72206E756D62657231
:1000A000206F6E206F70656E3A2025640A00464905
:1000B0004C45204E4F5420464F554E440A0044694B
:1000C00064206E6F742066696E64206368616E6E72
:1000D000656C210A0053657474696E672066696CEB
:1000E00065206E6F74206F70656E206F6E20736573
:1000F00063616464722025640A002323232058531B
:100100002D313534312F5844323033312076302E72
:1001100039202323230058532D313534312F5844AF
:10012000323033312056302E392E310080204F4B63
:10013000810253205343524154434845449A03504B
:10014000524F5445435420019C03019EA2A8A9A6E6
:100150000401A702200507BD02200506BF022045B5
:100160005849535453C0022054595045204D4953C7
:100170004D41544348C20805454D5459C3095045A3
:10018000524D495353494F4EC447454E4552414C39
:10019000204641554C54C6094348414E4E454CC734
:1001A0000801C84449534B2046554C4CCA44524957
:1001B00056452005524541445900536574207374D7
:1001C0006174757320746F3A2025730A008145525B
:1001D000524F528246494C458357524954452084D8
:1001E00053594E54415820854E4F5420864F504508
:1001F0004E87464F554E448844495220894E4F20E1
:1002000000434F4E46494755524154494F4E2045B1
:100210005854454E53494F4E00494E495449414C5C
:10022000495A4500494C4C4547414C20434F4D4DA0
:10023000414E442100545950453D004143434553EC
:10024000533D004E414D453D25730A0044524956E9
:10025000453D25630A00434D443D25730A00434F45
:100260004D4D414E443A2025730A00453D00464914
:100270004C45204F50454E204552524F52004E4162
:100280004D4520434F4E56455253494F4E204558F9
:1002900043454544532042554646455221004E4F62
:1002A000204F50454E20534C4F5420464F52204F24
:1002B00050454E2100494C4C4547414C2044524941
:1002C00056453A200066696C655F7375626D6974A6
:1002D0005F63616C6C3A207274636F6E6620697341
:1002E000206E756C6C0066696C655F7375626D6914
:1002F000745F63616C6C3A206572726F726D7367C4
:10030000206973206E756C6C005752495445205417
:100310004F204449524543544F52592100554E4BAA
:100320004F574E2046494C452041434345535320A7
:10033000545950452000554E4B4F574E2046494C7E
:100340004520545950453A20004E4F20434F5252B9
:1003500045435420434D443A2025730A004F5045ED
:100360004E2046494C453A20464F52204348414E84
:100370003A2025642057495448204E414D453A20A3
:1003800025730A0066696C655F6F70656E3A20625E
:100390007573206973206E756C6C006368616E6E96
:1003A000656C5F636C6F7365282570202D3E20257A
:1003B00064292C20707573685F73746174653D25C2
:1003C000640A00434F4E56455253494F4E204E4FFC
:1003D0005420504F535349424C452100502049531B
:1003E000204E554C4C210021212121207375626D36
:1003F00069742077697468207061636B65742D3E41
:100400006368616E3D25640A0021212121207375F6
:10041000626D69742077697468206368616E6E65C7
:100420006C6E6F3D25640A0052656769737465726E
:100430002070726F766964657220257020666F7215
:1004400020272573270A006E6F7420666F756E640F
:100450002C2072657475726E696E672064656661C2
:10046000756C740A00666F756E6420257020696E65
:1004700020736C6F74202564202864656661756C38
:10048000743D2570290A0070726F76696465725F29
:100490006C6F6F6B757020666F7220647269766521
:1004A0002025640A00526567697374657220707252
:1004B0006F7620257020666F7220647269766520E1
:1004C0002564207769746820646174612025702038
:1004D000696E20736C6F742025640A004465666140
:1004E000756C74206973206E6F7420726567697310
:1004F00074657265642C20666F7277617264696ED0
:100500006720746F207365727665720A00447269A1
:100510007665202564206E6F7420757365642C20C9
:1005200063616E6E6F7420646F2072656C617469B4
:1005300076652061737369676E210A0041535349E0
:10054000474E3A20647269766520256420746F20D6
:10055000272573270A0053455454494E47204452D7
:100560004956452320544F2025640A0053455454CE
:10057000494E4720554E49542320544F2025640AA4
:1005800000434D443A272573270A00737461743D74
:100590002530347800636D643D25640072656164C4
:1005A000696E6720627974652066726F6D2062756E
:1005B000733A20253032782C207365725F73746132
:1005C0007475733D253034780A0000407A10F35A70
:1005D00000A0724E18090010A5D4E80000E8764883
:1005E000170000E40B54020000CA9A3B000000E12F
:1005F000F505000080969800000040420F000000C2
:10060000A08601000000102700000000E8030000A1
:1006100000006400000000000A000000000001006B
:10062000000000002C76D888DC674F0823DFC1DF8C
:10063000AE59E1B1B796E5E3E453C63AE65199768F
:1006400096E8E6C28426EB898C9B62ED407C6FFCC9
:10065000EFBC9C9F40F2BAA56FA5F490055A2AF70B
:100660005C936B6CF9676DC11BFCE0E40D47FEF514
:1006700020E6B500D0ED902E03009435770500807C
:10068000841E080000204E0A000000C80C333333DB
:10069000330F986E12831141EF8D2114893BE6557B
:1006A00016CFFEE6DB18D1844B381BF77C1D901D5E
:1006B000A4BBE424203284725E228100C9F124ECC0
:1006C000A1E53D2711241FBECFEFD0E1DEBFCDBF96
:1006D00011E0A0E0B1E0E6E0FAE402C005900D927E
:1006E000A23AB107D9F71AE0A2EAB1E001C01D921F
:1006F000A23BB107E1F70E94E8080C9401250C9495
:10070000B01E2F922FB60F930091C60078941F93BE
:10071000CF93DF9310912D0ACDEAD9E0C10F08F4F1
:10072000D3950883DF91CF9113951F770091B10A7C
:10073000101719F010932D0A29F40091B00A0395AF
:100740000093B00A1F910F912FBE2F9018952F92F2
:100750002FB60F93CF93DF9300912F0AC0912E0AEB
:100760000C1771F0C0E3DAE0C00F08F4D395C8812C
:10077000C093C60003950F7700932F0A789405C0A5
:100780000091C1000F7D0093C100DF91CF910F91C7
:100790002FBE2F9018952F922FB678940F931F93FA
:1007A000CF93DF930091C904003011F40C94160428
:1007B0000091CC04003029F50091CB040030C9F43D
:1007C0000091CA04C9E9D1E0C00F08F4D39519918A
:1007D000103021F40091C9040C94E2031093CB046F
:1007E00018811093CD04039503950093CA040C94CB
:1007F000FC030A950093CB040091CD040093CE0432
:1008000008E00A950093CC040091CE04079500936C
:10081000CE0438F4009128000160009328000C9465
:100820001604009128000E7F00932800DF91CF91DD
:100830001F910F912FBE2F9018952F922FB60F93C7
:1008400000912900047051F400912B000F7E009359
:100850002B0000912A00006100932A0000912900DA
:10086000087051F4009128000F7C0093280000913B
:1008700027000063009327000F912FBE2F9018953B
:100880008F929F92AF92BF92CF92DF92EF92FF92A0
:100890000F931F93DF93CF930F92CDB7DEB789B13C
:1008A00083FDA9C13E98469A3F98479A1092290223
:1008B00010922802FF24F39402EA11E044983C9A33
:1008C0001092D1048091D204882331F445983D9A46
:1008D0001092D204882321F444983C9A1092D104B7
:1008E000F092D004F89489B183FD04C08091D004C3
:1008F000882311F03D98459A7894F092D20489B1FA
:1009000083FD20C086B186FDFACF45983D9A1092AE
:10091000D20460B16095F89489B183FD04C08091E0
:10092000D004882311F03C98449A7894F092D10432
:10093000C8010E9451079093290280932802369B98
:10094000FECFBCCF80912802909129028070907FC9
:1009500020E28030920709F076C045983D9A1092C7
:10096000D2041092D004FF24F394CC24DD246894A4
:10097000C1F8AA24BB2402EA11E009C060954270C4
:10098000C8010E9449069093290280932802F89496
:1009900089B183FD04C08091D004882311F03D9873
:1009A000459A7894F092D2044B9B23C186B186FD80
:1009B000FBCF45983D9A1092D204379B02C0A50107
:1009C00001C0A60160B1F89489B183FD04C0809193
:1009D000D004882311F03C98449A7894F092D10482
:1009E0004B9B07C1369BFCCF44983C9A1092D10494
:1009F000CA0181709070009709F4C0CF4130510551
:100A000009F4F7C0F89489B183FD04C08091D00443
:100A1000882311F03D98459A789481E08093D20420
:100A2000F89489B183FD04C08091D004882311F02B
:100A30003C98449A789481E08093D1043E98469AF9
:100A40003F98479AD6C01092D004F89489B183FD9C
:100A500004C08091D004882311F03D98459A789481
:100A600081E08093D20480912802909129028070C5
:100A7000907F20E48030920709F0BBC0F89489B1E0
:100A800083FD04C08091D004882311F03D98459ADD
:100A9000789481E08093D204F89489B183FD04C0F6
:100AA0008091D004882311F03C98449A789481E096
:100AB0008093D1043E98469A3F98479A0F2EF2EAC7
:100AC000CF2EF1E0DF2EF02D8E010F5F1F4FEE24B1
:100AD000FF2488249924689481F84B9B69C0359B36
:100AE000FCCFC601B80141E00E947F068093280236
:100AF0009093290286FF04C047983F9A540101C091
:100B00005701898181B9809582B946983E9A4B9B5D
:100B10004FC086B184FF0CC086B185FF09C03F98E5
:100B2000479A3E98469AF89489B183FD4AC045C0D9
:100B300086B185FDECCF4B9B3BC0349BFCCF3E98F0
:100B4000469A3F98479AC601B80140E00E947F0646
:100B50008093280290932902882349F44B9B28C054
:100B600086B184FDFBCFA114B10409F4B6CFF8948B
:100B700089B183FD04C08091D004882311F03D9891
:100B8000459A789481E08093D204F89489B183FDEA
:100B900004C08091D004882311F03C98449A789442
:100BA00081E08093D1043E98469A3F98479A21C0AD
:100BB0003E98469A3F98479A1CC08091D00488235B
:100BC00011F03D98459A789481E08093D204F8948E
:100BD00089B183FD04C08091D004882311F03C9832
:100BE000449A789481E08093D1043E98469A3F9845
:100BF000479A0E94C51E0F90CF91DF911F910F91D0
:100C0000FF90EF90DF90CF90BF90AF909F908F902C
:100C100008950E94C51E82EA91E00E94320608955E
:100C2000E0912A02F0912B028783813051F4611503
:100C3000710531F0DB0111968C911197808701C00D
:100C40001086E0912A02F0912B0281E086830895BC
:100C500010925B028CE292E069E440E020E00E94A6
:100C60009A090895CF93DF93EC0180915B02898309
:100C7000805F80935B02198688E08883CE018C5761
:100C80009F4F68E00E94181B1B821A82DF91CF9150
:100C90000895CF93DF93EC018D8190E09C012F703C
:100CA00030702F30310529F0807F9070803F9105A2
:100CB00061F489858837A8F4FE01E80FF11D628789
:100CC0008F5F898720E030E011C08A819B8150E0EE
:100CD0000E9412149B838A83009731F020E030E059
:100CE00005C020E030E002C023E830E09C8180E0D5
:100CF000280F391F822F932FDF91CF910895CF9224
:100D0000DF92EF92FF920F931F93CF93DF938C01AB
:100D10006B01F42EDC0115962C9115970F2EFFE038
:100D2000EF2EF02DE2221296CD91DC911397BE2D7D
:100D3000BF3089F520915A028CE292E0FC01E20F6B
:100D4000F11D2081FB01208320915A02820F911D09
:100D5000DC0111968C911197882319F0CC24DD24A5
:100D600004C0CC24DD246894C6F8FF2009F087C0B5
:100D70002F5F20935A02ECE2F2E0E20FF11D808136
:100D8000882309F07CC08CE292E060E040E020E043
:100D90000E949A0974C0209711F500D000D0EDB7D9
:100DA000FEB7319685ED90E0ADB7BEB712969C9335
:100DB0008E931197228313820E94A40F0F900F909D
:100DC0000F900F908CE292E06DE340E020E00E94F3
:100DD0009A090F2EF3E8CF2EDD24F02D50C0CE015E
:100DE0000E949412CE010E949812F601808389819C
:100DF00090E0FC01EE0FFF1FEE0FFF1FEE0FFF1F35
:100E0000E81BF90BEC0FFD1F24852C3FB9F4FC0106
:100E1000EE0FFF1FEE0FFF1FEE0FFF1FE81BF90B7A
:100E2000EC0FFD1F208930E02F5F3F4F878590E05A
:100E30002817390734F4CC24DD2407C0CC24DD2462
:100E400004C0CC24DD246894C6F8FF20C1F4CE0190
:100E50000E94B512882399F4CE010E94ED128823D6
:100E600021F0CE010E949B130AC0EE2041F4D8016C
:100E700011968C910E941413F80113821282D801EA
:100E800014969C91149780E0C80ED91E8C2D9D2D30
:100E9000DF91CF911F910F91FF90EF90DF90CF9056
:100EA0000895EF92FF920F931F93DF93CF930F92CA
:100EB000CDB7DEB77C01162F6F3309F0B0C0FC014F
:100EC0001581812F90E09C01207F3070203F3105FB
:100ED00031F08F7090708F30910509F033C1F701B8
:100EE000248130E02F703070808190E0281739071E
:100EF00009F058C11F70F0922B02E0922A0216826C
:100F00008185E80FF11D12868F5FF70181871F3001
:100F100099F48181815FB7014CE252E020E136E033
:100F20000E94980AE0912A02F0912B02DF01AC574F
:100F3000BF4F9C9190830EC0F7018181810F01E02A
:100F4000113009F000E0B7014CE252E020E136E058
:100F50000E946E0D882344F0E0912A02F0912B024A
:100F600086818823F1F026C000D000D024E830E04C
:100F7000EDB7FEB732832183992787FD909594833F
:100F800083830E94A40F0F900F900F900F908CE21C
:100F900092E06AE440E020E00E949A0902E010E05A
:100FA00038C00E94E508E0912A02F0912B02868168
:100FB0008823B9F38781813041F4678140858CE2D1
:100FC00092E020E00E949A0907C067818CE292E0DB
:100FD00040E020E00E949A091F3029F4F701818146
:100FE000815F0E941413E0912A02F0912B02878105
:100FF000882341F0F7018181810F0E94141300E0E2
:1010000010E007C0F7018181810F0E948C1200E07F
:1010100010E0E0912A02F0912B0211869BC0262F4E
:1010200030E0C901807F907080369105F9F08136FB
:10103000910544F48032910571F08034910509F0F6
:1010400077C009C0803E910509F44BC0803F9105EF
:1010500009F06EC061C02F703070F701808190E0A0
:101060002817390709F066C0148364C0F70124818A
:1010700030E02F703070808190E02817390709F038
:1010800059C06583862F8F708F3081F09181890FD1
:101090000E944012F70193838283009751F48EEBF4
:1010A00090E00E94B00E80E490E005C080E090E007
:1010B00002C080E090E0F7012481207F2034D1F548
:1010C000009741F4C701BE016F5F7F4F41E00E946E
:1010D0007F0630C08EEA90E00E94B00EF7011482C5
:1010E00029C0F701248130E02F703070808190E0BA
:1010F00028173907F9F46583862F8F708F3031F404
:101100008181682F615F0E94921414C0F701918160
:10111000890F0E9414130EC0F701248130E02F7054
:101120003070808190E02817390721F4658302C070
:101130001F3359F01F3561F0107F103E91F400E02D
:1011400010E008C000E010E005C000E010E002C0C0
:1011500000E010E0F7011482158280E00E94641E16
:1011600012C0F701208130E0848190E08F70907090
:101170002817390731F483E00E94641E00E010E074
:1011800002C000E810E0F701948180E0082B192BE1
:10119000802F912F0F90CF91DF911F910F91FF9092
:1011A000EF90089500E010E0D5CF0E949D0E8AEFE9
:1011B00090E00E94B00E0E949D0E08952DB73EB79C
:1011C000225B3A40822F932F08950E94951608952E
:1011D000CF93DF930E94931E0E94561E0E94EB1A2B
:1011E0000E94C60F0E942E1E0E948F18EC01E881FB
:1011F000F98180E090E00995BC01D0935D02C09335
:101200005C0290935F0280935E02CE010E94E21A1C
:101210008CE592E00E94C10F0E940C0C0E94E71125
:101220000E9428060E94061F78940E94A2180E941D
:10123000D5080E94DE0800D000D020E031E0EDB7F4
:10124000FEB732832183948383830E94870F00D06B
:101250008FE091E0EDB7FEB79283818389E999E34E
:10126000A0E0B0E083839483A583B6830E94870FB8
:101270008DB79EB706960FB6F8949EBF0FBE8DBF72
:101280000E949D0E0E949D0E0E94E5080E9440044F
:101290000E94531CF9CF0F931F93CF93DF93DC0170
:1012A000FB018491882309F14068481729F1EB017B
:1012B0002196FE0184918823C1F04817C9F71DC00B
:1012C0002196FE0144914423DCF30DEC11E0403201
:1012D00030F4CD01B8010E944B09DC0101C04D93EF
:1012E0002196FE014491141694F38A2F9B2FDF91CF
:1012F000CF911F910F910895EB01FE01449144237A
:10130000FCF2E3CFFC01862F643630F064E60E94E5
:10131000AF22805D8193892F6AE00E94AF22805DB9
:10132000DF018D93905D91839D012F5F3F4F822F51
:10133000932F0895EF92FF920F931F93CF93DF9314
:10134000FC01C62FF42E022FD82F1F2F16A69F2F79
:101350000E9482092CE2DC012D93CD01C93481F475
:10136000E6E1F1E0E491EE2381F027E131E0ED9355
:10137000CD01F9012F5F3F4FE491EE23C1F742C049
:101380006CE271E04C2F0E944B090F2EFCE2EF2E15
:10139000F02DFC01E192CF016F2D0E948209DC014A
:1013A000ED92CD01602F0E948209FC018DE08083C7
:1013B0001182CC2341F0C93431F0C13021F084E0F6
:1013C0000E94641E03C081E00E94641E00D000D011
:1013D000EDB7FEB731968AEB91E0ADB7BEB7129686
:1013E0009C938E931197D28313830E94A40F0F9026
:1013F0000F900F900F90DF91CF911F910F91FF9061
:10140000EF900895CCE28A2FFC01C193CF016F2D9C
:101410000E948209DC01CD93CD01602F0E948209D8
:10142000FC018DE080831182CECFFC0180818D3460
:1014300039F18E3460F48334E1F0843428F484325A
:1014400069F0813419F51EC0893401F521C0833556
:1014500071F08835C9F08235C9F402C082E0089580
:1014600081818D34B9F08434B9F488E0089585E041
:1014700008958181843491F0883491F486E0089550
:1014800087E0089589E008958AE0089581E008954D
:1014900083E0089588E0089584E0089586E0089543
:1014A00081E00895853051F1863070F48230D9F1B1
:1014B000833028F48823B1F0813091F516C0833051
:1014C000B9F0843069F517C0883009F1893028F403
:1014D0008630B9F0873021F517C08930D9F08A30CD
:1014E000F9F41BC028E131E020C02CE131E01DC03F
:1014F0002EE131E01AC029E231E017C020E331E0EB
:1015000014C028E331E011C02BE331E00EC021E428
:1015100031E00BC027E431E008C02EE431E005C023
:1015200022E531E002C02AE131E0822F932F0895B5
:101530009F92AF92BF92CF92DF92EF92FF920F9362
:101540001F93CF93DF93982EEB016A0189010F2E31
:10155000F4E8AF2EBB24F02DA60EB71E0F2EFAE036
:10156000EF2EFF24F02DE60EF71E00D000D08EE502
:1015700092E0EDB7FEB792838183F482E3820E940A
:10158000A40F0F900F900F900F90CE01099666ED6B
:1015900074E041E00E94DD0F8091D704882319F0A8
:1015A0000E94520A02C088E191E000D000D026E5F6
:1015B00032E0EDB7FEB732832183948383830E94A8
:1015C000A40F8091D6040F900F900F900F908F3F33
:1015D00019F090E0C09602C08DE290E000D000D0FB
:1015E0002CE432E0EDB7FEB732832183948383830A
:1015F0000E94A40F83E492E0EDB7FEB7928381834B
:101600008091DA049091DB04948383830E94A40F79
:101610000F900F900F900F908BE392E00E94B00E0E
:10162000C091D9048C2F90E00E94D523009709F433
:10163000CDE28C2F0E94640E0E949D0E0E94550EDA
:1016400085E392E00E94B00EC091D8048C2F90E008
:101650000E94D523009709F4CDE28C2F0E94640EDE
:101660000E949D0E0E94550E8091D704982F945091
:10167000953048F5863061F0873028F48430D1F019
:10168000853061F419C0873029F0883039F404C0FE
:101690006EE013C06DE011C06CE00FC084E292E018
:1016A0000E94B00EC6016EE140E020E00E949A095F
:1016B00084E44DC067E001C068E0892DA601950172
:1016C0000E94120C44C0893021F58091D6048F3FCE
:1016D00041F4C6016AE440E020E00E949A098FEFDD
:1016E00036C06091DA047091DB046F5F7F4F0E9417
:1016F0001D1988233CF4892D6FE0A60195010E94F5
:10170000120C25C080E060E070E0F801099580E0EF
:101710001EC0833059F489E192E00E94B00E80E04F
:1017200060E070E0F801099580E011C08A3071F442
:1017300081E092E00E94B00EC501B7010E941C1B1F
:1017400060E070E0F801099580E001C08FEFDF9163
:10175000CF911F910F91FF90EF90DF90CF90BF90AE
:10176000AF909F900895CF93DF9390916002981768
:1017700041F090917302981709F04BC0C1E0D0E09E
:1017800002C0C0E0D0E06623C4F4CE01880F991FE8
:10179000FC01EE0FFF1FEE0FFF1FEE0FFF1FE80F04
:1017A000F91FEC0FFD1FE05AFD4F0188F289E02D73
:1017B0008AE460E070E009951AC0CE01880F991F95
:1017C000BC01660F771F660F771F660F771F680FC4
:1017D000791F6C0F7D1FDB01A05ABD4F5196ED9113
:1017E000FC9152971F968C9161597D4F0995CE01BE
:1017F000880F991F9C01220F331F220F331F220FC6
:10180000331F820F931FC80FD91FC05ADD4F8FEFB0
:101810008883DF91CF9108958FEF8093600280934A
:10182000730208954F925F926F927F928F929F9270
:10183000AF92BF92CF92DF92EF92FF920F931F93DE
:10184000CF93DF93C82ED62E5A01E90138014115F6
:10185000510521F486EE92E00E94B00E209721F40B
:1018600085EC92E00E94B00E8091D6048F3F41F447
:1018700089818093D604E091DA04F091DB048083BF
:101880008091D60489830E94AF187C010097A9F447
:1018900085EB92E00E94B00E8091D604805D0E949C
:1018A000640E0E949D0E0E94550EC5016AE440E040
:1018B00020E00E949A098FEF00C1DC018D909C907E
:1018C000119780916002882334F0809173028823FD
:1018D000ACF4C1E001C0C0E0D0E09E01220F331F94
:1018E000C901880F991F880F991F880F991F820FB0
:1018F000931F8C0F9D1F805A9D4F81F48EE992E0BB
:101900000E94B00E0E949D0E0E94550EC50166E415
:1019100040E020E00E949A098FEFCFC06091DC0484
:101920002091DA043091DB04CE01880F991FAC01BD
:10193000440F551F440F551F440F551FFC01E40F62
:10194000F51FEC0FFD1FE05AFD4F338322836683A2
:101950001582D182C7826483D4011A96ED91FC91DD
:101960001B973097E1F0CE01880F991F840F951FC8
:101970008C0F9D1F8F599D4F0995882384F48EE706
:1019800092E00E94B00E0E949D0E0E94550EC5016D
:1019900062E240E020E00E949A098FEF8EC0BD2DE8
:1019A000B23069F011E0B53009F010E0ED2DE6300D
:1019B00051F4D40118964D905C90199706C011E02F
:1019C0004424552402C0442455248C2D0E944012E6
:1019D000009799F08EE692E00E94B00E0E949D0E54
:1019E0000E94550EC50166E440E020E00E949A097D
:1019F0008C2D0E9414138FEF60C08C2D612FA701D6
:101A000092010091D6040E940512182F88230CF52C
:101A10008BE692E00E94B00E812F82958F70C3E515
:101A2000D1E0FE01E80FF11D80810E94640E1F705D
:101A3000C10FD11D88810E94640E0E949D0E0E94DC
:101A4000550EC50166E440E020E00E949A098FEF40
:101A500034C0CE01880F991F9C01220F331F220F23
:101A6000331F220F331F820F931FC80FD91FFE0190
:101A7000E05AFD4F728A618AC082CE0181599D4F22
:101A80009287818782E085878DEF8687148613860B
:101A9000AE014F595D4F9E0128593D4FD401169616
:101AA000ED91FC911797D70112968D919C91139708
:101AB0006C2D03EB1BE0099580E0DF91CF911F9126
:101AC0000F91FF90EF90DF90CF90BF90AF909F90DD
:101AD0008F907F906F905F904F900895CF92DF929C
:101AE000EF92FF920F931F93CF93DF93182FEB0189
:101AF0006A017901209721F484E893E00E94B00EF6
:101B000000D000D000D0EDB7FEB731968DE593E060
:101B1000ADB7BEB712969C938E9311971283138222
:101B2000CE010A96958384830E94A40FEDB7FEB779
:101B300036960FB6F894FEBF0FBEEDBFCE010996E4
:101B400066ED74E040E00E94DD0F8091D7048823A9
:101B5000D1F08230C1F00E94520A00D000D029E4B6
:101B600033E0ADB7BEB712963C932E9311971496FF
:101B70009C938E9313970E94A40F1092D7040F90FA
:101B80000F900F900F908091D8048823C1F0833577
:101B9000B1F08035A1F086E393E00E94B00E809111
:101BA000D8040E94640E0E949D0E0E94550EC6012C
:101BB00060E440E020E00E949A098FEF4EC08091DF
:101BC000D9048823D1F08735C1F08235B1F0813452
:101BD000A1F08DE193E00E94B00E8091D9040E94A3
:101BE000640E0E949D0E0E94550EC6016EE140E0FB
:101BF00020E00E949A098FEF30C09091D704923074
:101C0000A1F48823A1F0823591F089E093E00E944D
:101C1000B00E0E949D0E0E94550EC6016FE340E07B
:101C200020E00E949A098FEF18C0873541F0002309
:101C300011F461E001C062E0813421F402C062E08D
:101C400001C065E0923009F466E09E012C573F4FD9
:101C5000812FA60187010E94120CDF91CF911F9165
:101C60000F91FF90EF90DF90CF90089580918802C0
:101C7000109289029EEF90938F0280938C021092B3
:101C80008D02A0918602B0918702ED91FC9111978F
:101C90000480F581E02D12968D919C91139769E84F
:101CA00072E0099510928802089580918802882335
:101CB00041F08091860290918702009711F00E9476
:101CC000360E0E9484180895FF920F931F93CF93AE
:101CD000DF93F82E90918C0280918D02981789F0F5
:101CE000CCE8D2E08E010F5F1F4F0E94E50886E628
:101CF0009EE00197F1F700009881F8018081981724
:101D0000A1F780918802813850F4E0E9F2E0E80F11
:101D1000F11DF0828F5F80938802813840F08091BE
:101D2000860290918702009711F00E94360EDF9193
:101D3000CF911F910F91FF9008958DE00E94640E46
:101D40008AE00E94640E80918802882341F080918D
:101D5000860290918702009711F00E94360E089536
:101D6000CF92DF92FF920F931F93CF93DF936C017B
:101D700090918C0280918D02981789F0CCE8D2E086
:101D80008E010F5F1F4F0E94E50886E69EE00197D7
:101D9000F1F700009881F80180819817A1F7C6013A
:101DA0000E94E423F82E813820F00F2EF1E8FF2E58
:101DB000F02D8091880290E08F0D911D8138910562
:101DC00044F08091860290918702009741F10E9431
:101DD000360E90918C0280918D02981789F0CCE894
:101DE000D2E08E010F5F1F4F0E94E50886E69EE05D
:101DF0000197F1F700009881F80180819817A1F709
:101E00008091880290E080579D4FB6014F2D50E0A1
:101E10000E94DB2380918802F80EF0928802DF9105
:101E2000CF911F910F91FF90DF90CF900895DF9297
:101E3000EF92FF920F931F93CF93DF93F82ED92E3B
:101E400090918C0280918D02981789F0CCE8D2E0B5
:101E50008E010F5F1F4F0E94E50886E69EE0019706
:101E6000F1F700009881F80180819817A1F7EF2D14
:101E7000FD2DDF010D900020E9F71197EA2EEF18F4
:101E8000FE2DF13820F00F2EF1E8EF2EF02D80918D
:101E9000880290E08E0D911D8138910544F080916B
:101EA000860290918702009751F10E94360E909120
:101EB0008C0280918D02981789F0CCE8D2E08E01D7
:101EC0000F5F1F4F0E94E50886E69EE00197F1F73D
:101ED00000009881F80180819817A1F7C0918802CD
:101EE0002C2F30E020573D4F822F932F6F2D7D2DCB
:101EF0004E2D50E00E94F823EC0EE0928802DF9114
:101F0000CF911F910F91FF90EF90DF9008950F9365
:101F10001F93DF93CF93CDB7DEB7FE013796419184
:101F2000519101E113E0C80161E870E02E2F3F2FCD
:101F30000E944A2410929103C8010E94170FCF916A
:101F4000DF911F910F9108950F931F93DF93CF930C
:101F5000CDB7DEB7FE0137964191519101E113E013
:101F6000C80161E870E02E2F3F2F0E947524109267
:101F70009103C8010E94170FCF91DF911F910F911C
:101F800008959093870280938602089510928702A5
:101F9000109286021092880280E992E090938B0260
:101FA00080938A0281E880938E028DEF80938F0266
:101FB00010928D0210928C0208952F923F924F92B0
:101FC0005F926F927F928F929F92AF92BF92CF92C9
:101FD000DF92EF92FF920F931F93CF93DF934C0109
:101FE0008B01B42E3C010894611C711CDC01EC9047
:101FF0008FEFFB0180831182128282E58383442369
:1020000039F0158214821682FF246894F2F80CC00D
:10201000DB0115967C926E9214971696EC921697A9
:102020000F2EF6E0FF2EF02DEE2009F49EC0EA946C
:10203000CC24DD246894C1F8C80CD91CE301AA247F
:102040004424689441F8552453940F2EF5E03F2E14
:10205000F02D0F2EF3E02F2EF02DBF2DB33009F40D
:1020600074C0B43038F4B13009F453C0B23008F061
:102070005EC03AC0EF2DE530C1F0E53020F0E6302B
:1020800009F06BC026C0D80111968C911197882356
:1020900061F4888190E00E94CC23009731F0CE015A
:1020A0000E94150AF801818316822881822F90E010
:1020B000C0978A30910518F42053D8012C93888159
:1020C0008A3309F04AC0F801D582C482E682F52C31
:1020D00044C08881843241F4D80111964C92119702
:1020E00016961C921697F32C2881822F90E0C097A9
:1020F0008A30910528F40F2EF0EDAF2EF02DA20EB0
:102100002A3339F4F801A082D582C482E682F52C04
:1021100024C0BB2011F588818C32F9F4D8011496C3
:102120008C91BC2FB81BF801B683F42C16C0D801D3
:1021300012968C911297882321F4888112968C93A1
:10214000129788818C3249F407C0F8018381882373
:1021500021F48881838301C0F22C0894C11CD11C16
:10216000EE2019F02196EA9478CFD80114968D913B
:102170009C9115976816790669F416964C91C401DE
:102180000296B30150E00E940124F80186818F5F1E
:1021900086830DC0D80116962C9116972F5F169640
:1021A0002C931697019715969C938E931497D801AC
:1021B0001496ED91FC9115978C918083DF91CF91CE
:1021C0001F910F91FF90EF90DF90CF90BF90AF9055
:1021D0009F908F907F906F905F904F903F902F9047
:1021E00008950F931F93FC0170E0DB01AA0FBB1F42
:1021F000AA0FBB1FAA0FBB1FA61BB70B9D01245F15
:102200003F4F280F391F6081A80FB91F8FEF1C9611
:102210008C931C9752966C9352971F961C921F9703
:1022200050961C92A381B4818085882389F481E033
:102230008087ED91FC9111970680F781E02D129631
:102240008D919C911397A90108E712E1099515C09A
:10225000833099F48281882381F484E08087ED9132
:10226000FC9111970680F781E02D12968D919C913B
:102270001397A90108E712E109951F910F9108959D
:10228000FC018FEF808310861286CF014A969687D5
:10229000858730E4318B2DEF228B108A1786CF0192
:1022A000865A9F4F958B848B308F218F178A168A81
:1022B00008950F931F93CF93DF93EC01162F8A811C
:1022C000882309F07FC003E08885882329F41982D8
:1022D000CE0160E00E94F110112369F08885813001
:1022E00051F40E94E50886E69EE00197F1F70000B0
:1022F00088858130B1F388858230B9F5898190E095
:10230000FC01EE0FFF1FEE0FFF1FEE0FFF1FE81B7C
:10231000F90BEC0FFD1F30892785321780F0FC0187
:10232000EE0FFF1FEE0FFF1FEE0FFF1FE81BF90B55
:10233000EC0FFD1F24852C3F11F018863FC0EE8165
:10234000FF81309781F09C01220F331F220F331F32
:10235000220F331FA901481B590BCA010C968C0F81
:102360009D1F6D810995088729C0853039F58981C0
:1023700090E09C01220F331F220F331F220F331FC7
:10238000DC01A21BB30BAC0FBD1F539614969C919E
:10239000149713968C911397981730F08C918C3F6B
:1023A00019F083E088870EC0EE81FF81309719F025
:1023B000CD016D81099586E0888704C088858823D2
:1023C00009F482CFDF91CF911F910F9108950F9360
:1023D0001F93CF93DF93C7E0D0E00AE910E0C09FDE
:1023E000C001C19F900DD09F900D112483529B4F2F
:1023F00061E00E94401121978FEFCF3FD80779F716
:10240000DF91CF911F910F9108950F93CF93DF9399
:102410009091130999234CF0A9E7B8E0E6E0F0E0C9
:10242000EF019C91992304F502C0C7E0D0E0AAE92E
:10243000B0E0CA9FF001CB9FF00DDA9FF00D1124A0
:10244000E352FB4F8083118262835483438337833B
:102450002683058310861286108A1786828B178A38
:10246000168A818F80E008C03197AA59B0409FEF4B
:10247000EF3FF907A9F68FEFDF91CF910F91089504
:1024800090911309981739F0E9E7F8E046E0908158
:10249000981789F401C047E0552747FD50958AE910
:1024A00090E0489F9001499F300D589F300D1124B6
:1024B00023523B4F07C04150EA59F0404F3F39F794
:1024C00020E030E0822F932F0895CF93C62F0E94F3
:1024D0004012FC01009751F0C3878285823019F4C5
:1024E00081E0828703C0813009F41286CF9108957C
:1024F000CF93C62F0E944012FC01009759F0C1876C
:102500008085813019F482E0808704C0843011F422
:1025100085E08087CF9108950E944012009719F0BE
:1025200061E00E945911089561E00E9459110895D7
:10253000CF93DF93EC0161E00E945911898190E013
:102540009C01220F331F220F331F220F331FA901BB
:10255000481B590BC40FD51F8889ED85FE85E80FF0
:10256000F11D8081DF91CF910895CF93DF93EC012E
:1025700061E00E945911298188858330A9F4822F56
:1025800090E0FC01EE0FFF1FEE0FFF1FEE0FFF1F8D
:10259000E81BF90BEC0FFD1F84858C3F29F061E0EF
:1025A000621BCE010E94F110898190E09C01220FF4
:1025B000331F220F331F220F331FA901481B590B52
:1025C000C40FD51F98899F5F988B81E02F85921744
:1025D00008F080E0DF91CF910895CF93DF93EC0175
:1025E00061E00E945911898190E0FC01EE0FFF1F0C
:1025F000EE0FFF1FEE0FFF1FE81BF90BEC0FFD1F87
:1026000024852C3F49F421E030E090898785981794
:1026100028F420E030E002C020E030E081E0211129
:1026200080E0DF91CF9108950F931F93CF93DF93B5
:10263000182F0E944012EC018DB79EB708970FB675
:10264000F8949EBF0FBE8DBFEDB7FEB731968BE9F4
:1026500093E0ADB7BEB712969C938E931197D38338
:10266000C283812F992787FD9095958384838A85DE
:10267000992787FD9095978386830E94A40F8DB735
:102680009EB708960FB6F8949EBF0FBE8DBF0E94EE
:10269000550E209709F44AC08A85882309F442C060
:1026A000813051F00E94E508A6E6BEE01197F1F7EF
:1026B00000008A858130B1F7898190E0FC01EE0F3E
:1026C000FF1FEE0FFF1FEE0FFF1FE81BF90B9F010F
:1026D000245F3F4F2C0F3D1FEC0FFD1F87859CEFA4
:1026E0009487128B8787108AAB81BC81ED91FC9116
:1026F00011970680F781E02D12968D919C9113978A
:10270000612FA90105E612E109958A85813051F40E
:102710000E94E50886E69EE00197F1F700008A85B1
:102720008130B1F3CE0160E00E944011DF91CF9182
:102730001F910F910895EF92FF920F931F93CF93E4
:10274000DF93EC01F9808F2D90E0FC01EE0FFF1F6D
:10275000EE0FFF1FEE0FFF1FE81BF90BEC0FFD1F25
:1027600084858C3F09F44FC081E0E82EEF180E2DD0
:1027700010E08885843051F40E94E50886E69EE0EA
:102780000197F1F7000088858430B1F38530B1F40A
:10279000EE81FF81309781F0898190E09C01220FCA
:1027A000331F220F331F220F331F821B930B8C0FFB
:1027B0009D1F43966D81099586E08887F801EE0F8D
:1027C000FF1FEE0FFF1FEE0FFF1FE01BF10BEC0FC3
:1027D000FD1F908987859817B0F4E98283E0888788
:1027E000F801EE0FFF1FEE0FFF1FEE0FFF1FE01BA4
:1027F000F10BEC0FFD1F84858C3F59F0CE016F2D3E
:102800000E94F11006C0CE0160E00E944011C0E0BD
:10281000D0E08C2F9D2FDF91CF911F910F91FF90D2
:10282000EF900895FF920F931F93CF93DF93EC01E6
:102830008A85882311F481E08A87F880098110E075
:10284000F801EE0FFF1FEE0FFF1FEE0FFF1FE01B43
:10285000F10BEC0FFD1F8785A585B685A80FB11D6F
:102860006C938F5F87879189891721F041155105F6
:1028700009F450C0F801EE0FFF1FEE0FFF1FEE0F1F
:10288000FF1FE01BF10BEC0FFD1F9EEF9487F28AF8
:102890008787108A8A85823051F40E94E50886E68F
:1028A0009EE00197F1F700008A858230B1F382E063
:1028B0008A87AB81BC819801220F331F220F331FFF
:1028C000220F331F201B310B245F3F4F2C0F3D1F66
:1028D000ED91FC9111970680F781E02D12968D9174
:1028E0009C9113976F2DA90105E612E10995998135
:1028F00081E0891B898390E0FC01EE0FFF1FEE0F42
:10290000FF1FEE0FFF1FE81BF90BEC0FFD1F108AD6
:102910001786F28A8C2F9D2FDF91CF911F910F91F7
:10292000FF900895CF93DF93D62F681760F0C82FDC
:102930008C2F0E944012009719F061E00E94401114
:10294000CF5FDC17A8F7DF91CF91089580E090E08A
:1029500008950895DB012C912223A9F0E82FF92F87
:102960001196213448F02B3510F4205805C021363B
:1029700018F02B3708F4205221939F018E2F932FAC
:102980002D91222371F7E82FF92F11928E2F9F2F6F
:102990000895FC014181328193819923C9F0E42F8C
:1029A000F32FDF018081813478F08B3510F4805E65
:1029B0000BC0813648F08B3710F4805205C0813C43
:1029C00018F08B3D08F48F778C933196915049F72E
:1029D00080E00895FF920F931F93CF93DF93EC0154
:1029E000009731F48CED93E00E94B00E8FEFEDC0B4
:1029F00089819A81FC014285413071F421E0209364
:102A0000920334E03093930320939403209395032F
:102A100070E0A6E9B3E029C021E02093920320935F
:102A20009303FC012381222309F0E0C052815A3F25
:102A300008F0DCC0593F41F421812F3F29F4208167
:102A4000222309F0D3C0C7C0352F20E0FC016181EB
:102A500070E0622B732B2081222329F06F5F7F4F60
:102A6000A4E9B3E002C0A4E9B3E0FD0161931196CB
:102A70007C93DF0111966A30710518F420E22183FE
:102A80001196413019F422E12D9314C0423009F41B
:102A900051C06436710510F420E22D93F3E0683ED6
:102AA0007F0710F420E22D9327E26031720710F4C3
:102AB00020E22D9322E2FD012193BF01FC01338529
:102AC000332309F49EC0FB01DC011C962BE031345A
:102AD00048F03B3510F4305805C0313618F03B371C
:102AE00008F430523193CF012F5F3D91332319F019
:102AF0002B3169F78FC0AE2FB92F82E28D932C3125
:102B000008F485C005C08193DF012F5F2C31D8F315
:102B1000413039F4CD0163E671E00E94AA14DC0172
:102B20001EC0433039F4CD016AE671E00E94AA1458
:102B3000DC0115C0442339F4CD016EE671E00E943A
:102B4000AA14DC010CC0423051F4CD0162E771E0FF
:102B50000E94AA14DC011D92FC011182119682E9E7
:102B600093E0FA2EF81A0F2D10E08D81992787FD3A
:102B7000909580179107ECF483EC93E00E94B00EDF
:102B8000F694F694F694F694CAE8D1E0FE01EF0DBF
:102B9000F11D80810E94640E0F701070C00FD11F54
:102BA00088810E94640E0E949D0E0E94550E8FEF38
:102BB0000CC022E933E089819A81622F732F4F2D57
:102BC00050E00E94F823FB8280E0DF91CF911F91BB
:102BD0000F91FF9008952FEF2093940329EF2093F6
:102BE00095036FEF79EFA6E9B3E04BCF2FEF20937A
:102BF000940329EF209395036FEF79EFA6E9B3E0F3
:102C000045CF82E211968C93DB0111962BE0FD01FA
:102C100080E279CFAE2FB92F82E28D93F8CFAF92B9
:102C2000BF92CF92DF92EF92FF920F931F93CF93B9
:102C3000DF93C9EED3E0CC246894C1F8EE24EA9483
:102C4000FE2C0F2EF3E0AF2EF02DDD246894D2F889
:102C5000BB24B3948E010E5F1F4F53C0E881F981EE
:102C60008091E803813079F082301CF4882331F0C0
:102C70002AC0823071F0833031F516C0B092E8037B
:102C8000808190E021C0C092E803838190E00396A8
:102C90001BC0868190E02381222319F4D092E8039F
:102CA00013C0A092E80310C02481A181B281A20FB9
:102CB000B11D8C912F5F248390E03381231720F086
:102CC000D092E80301C0C70199231CF00E94011EA5
:102CD00018C02091D203822F81508093D203882381
:102CE00071F0FE01225030E0220F331F200F311F00
:102CF0008281938181939193E217F307C9F7109230
:102D0000E8038091D203882329F00E94F61D8823CE
:102D100009F0A4CFDF91CF911F910F91FF90EF9019
:102D2000DF90CF90BF90AF9008957F928F929F9247
:102D3000AF92BF92CF92DF92EF92FF920F931F93C9
:102D4000CF93DF930E94141E99230CF40BC1C3EDA3
:102D5000D3E0FF24FA94CC24C394EE246894E1F8E1
:102D6000DD246894D2F80F2EF3E07F2EF02D08EDCD
:102D700013E00F2EFDEDAF2EF3E0BF2EF02D0F2E42
:102D8000F2EE8F2EF3E09F2EF02D4091E7034230BC
:102D9000A9F1433034F4442359F0413009F0DDC047
:102DA00027C0433009F49AC0443009F0D6C0A2C00D
:102DB0008F3791F48091D203882331F00E940F164F
:102DC0008091D2038823D1F70E94F61D8823E1F376
:102DD0008FE70E94011EC1C0982F9D5F923018F0AE
:102DE0008C3F09F0BAC08093F103C092E703B5C0ED
:102DF00083508093F203E092E703AFC08093F30324
:102E0000D092E7039881891791F0F8019081891792
:102E100051F0F5019081891741F0F40190818917F3
:102E200049F5272D05C02C2D03C02E2D01C020E013
:102E30002093F403332727FD3095A901440F551F34
:102E4000440F551F240F351FFE01E20FF31F0180B1
:102E5000F281E02DF093F603E093F5033091F10356
:102E60002091F2039581921728F030838683138294
:102E70007092E7038091F203882309F06EC080917D
:102E8000F403992787FD90959C01220F331F220F91
:102E9000331F820F931FFE01E80FF91F0380F48197
:102EA000E02D8091F3039091E703943011F46F2D9E
:102EB00001C060E009958091F403992787FD909502
:102EC0009C01220F331F220F331F820F931FFE011D
:102ED000E80FF91FF0821092E7033FC0E091F5037D
:102EE000F091F6039381A181B281A90FB11D8C935A
:102EF0009F5F93838091F20381508093F2031816B1
:102F000064F18091F403992787FD90959C01220F2D
:102F1000331F220F331F820F931FFE01E80FF91F8B
:102F20000380F481E02D8091F303443011F46F2D80
:102F300001C060E009958091F403992787FD909581
:102F40009C01220F331F220F331F820F931FFE019C
:102F5000E80FF91FF0821092E7030E94141E9923D4
:102F60000CF013CF0E940F16DF91CF911F910F919C
:102F7000FF90EF90DF90CF90BF90AF909F908F9099
:102F80007F900895CF93DF93EB018091D20383303C
:102F900030F00E9495168091D2038330D0F7E82F4D
:102FA000F0E0EE0FFF1FE751FC4FD183C0838F5F2E
:102FB0008093D203813021F41092E8030E940F160F
:102FC000DF91CF9108952F923F924F925F926F922F
:102FD0007F928F929F92AF92BF92CF92DF92EF92A9
:102FE000FF920F931F93CF93DF931C01E62E4A01AC
:102FF000290138016623A4F400D000D089E094E0D0
:10300000EDB7FEB792838183862F992787FD909530
:10301000948383830E94A40F0F900F900F900F90C2
:10302000F401868188239CF400D000D027EE33E0A1
:10303000EDB7FEB732832183992787FD909594835E
:1030400083830E94A40F0F900F900F900F90FF2486
:10305000FA94C3EDD3E008ED13E00F2EFDEDCF2E73
:10306000F3E0DF2EF02D0F2EF2EEAF2EF3E0BF2EA9
:10307000F02D11C0FF24F3940AC0FF246894F1F8E6
:1030800006C00F2EF3E0FF2EF02D01C0FF240E949A
:103090009516FF2084F488818823C4F3F801808189
:1030A000882344F3F601808188233CF3F501808175
:1030B00088236CF7E6CF8F2D992787FD9095FC012B
:1030C000EE0FFF1FEE0FFF1FE80FF91FED52FC4F31
:1030D000E0825282418274826382C101B4010E9403
:1030E000C217DF91CF911F910F91FF90EF90DF906A
:1030F000CF90BF90AF909F908F907F906F905F9098
:103100004F903F902F9008958091D203882331F003
:103110000E9495168091D2038823D1F708951092CA
:10312000D2038FEF8093E2038093DD038093D80373
:103130008093D3031092E70384E08093E8038EE743
:1031400091E00895CF93C0E80E94F61D8823E1F333
:103150008FE70E94011EC150B9F7CF9108950F93D8
:103160001F93CF93DF93C82FD0E000D000D087E823
:1031700094E0ADB7BEB712969C938E9311971496B8
:10318000DC93CE9313970E94A40FE8E3F4E00F9032
:103190000F900F900F9089E090E08C0120813327F1
:1031A00027FD3095C217D307A1F521813281211562
:1031B000310579F1EDB7FEB738970FB6F894FEBF39
:1031C0000FBEEDBF319685E694E0ADB7BEB712965F
:1031D0009C938E931197338322831583048380916C
:1031E0003D0490913E04978386830E94A40FC801FA
:1031F000880F991F880F991F080F191F045F1B4F15
:10320000EDB7FEB738960FB6F894FEBF0FBEEDBF10
:103210000DC0359701972FEF8F3F920709F0BDCF73
:1032200087E494E00E94B00E0DE314E0802F912F0C
:10323000DF91CF911F910F9108954F925F926F92FE
:103240007F928F929F92AF92BF92CF92DF92EF9236
:10325000FF920F931F93CF93DF93E82E8B01C82E1D
:10326000DD2400D000D000D0EDB7FEB731968CE35E
:1032700095E0ADB7BEB712969C938E931197D3820B
:10328000C282758364830E94A40FEDB7FEB73696A1
:103290000FB6F894FEBF0FBEEDBFFE2DFB3008F059
:1032A0001BC1D8012C91222309F42AC12A3309F425
:1032B0002BC1FF24F394CF2DD0E0F801EC0FFD1FBC
:1032C0008081882311F08A33A9F7822F90E0C0977C
:1032D0008A30910508F01BC1BF2DB13009F017C12C
:1032E0000F2EFFE0AF2EF02DA2228A2D0E94AF18E4
:1032F0000097B9F400D000D0EDB7FEB731968DE05D
:1033000095E0ADB7BEB712969C938E931197A282AB
:1033100013820E94A40F0F900F900F900F908FEFC9
:10332000DEC0B4E08D339B0731F48CED94E00E9455
:10333000B00E8FEFD4C0FC01A080B180D501ED911B
:10334000FC91C8010995BC01A114B10409F047C062
:1033500046E054E083E090E058010894A11CB11CC1
:1033600044244C01FA01208131812115310571F18C
:10337000FF20A1F0D901FC91D801EC91FE1731F5A5
:10338000D9011196F501742C04C05D90619056141A
:1033900019F473947F14C8F37F14C1F42C0F3D1FEC
:1033A000F9012081222391F4F401EE0FFF1FEE0FAB
:1033B000FF1FE80DF91DE950FC4FA280B380D50135
:1033C000ED91FC91C8010995BC0109C045505040E0
:1033D0000197BFEF8F3F9B0721F6AA24BB24809162
:1033E0003804992787FD9095C816D90669F0E3E35C
:1033F000F4E088E090E0AC012081332727FD309590
:10340000C216D30691F402C049E050E0FA01EE0F73
:10341000FF1FEE0FFF1F4E0F5F1FFA01E55FFB4F0F
:103420008FEF80831282118206C0019735972FEFAC
:103430008F3F920701F7A114B10409F44FC08091A6
:1034400038048F3F49F0E3E3F4E088E090E09C012A
:1034500040814F3FC1F502C029E030E0F901EE0F95
:10346000FF1FEE0FFF1FE20FF31FE55FFB4FE08230
:10347000B282A182748363838DB79EB70A970FB619
:10348000F8949EBF0FBE8DBFEDB7FEB7319685EAAB
:1034900094E0ADB7BEB712969C938E931197B3820A
:1034A000A282D582C48277836683318720870E9477
:1034B000A40FEDB7FEB73A960FB6F894FEBF0FBE55
:1034C000EDBF80E00CC0019735972FEF8F3F92073B
:1034D00009F0BDCF8FEF03C08FEF01C08FEFDF91F9
:1034E000CF911F910F91FF90EF90DF90CF90BF9001
:1034F000AF909F908F907F906F905F904F900895C6
:10350000C0E0D0E0FF2403C0C0E0D0E0FF2460E0D2
:1035100070E01ECF0F931F93CF93DF93EC018B01CD
:1035200000D000D000D0EDB7FEB7319688E294E02D
:10353000ADB7BEB712969C938E9311977383628337
:10354000D583C4830E94A40F8DB79EB706960FB68D
:10355000F8949EBF0FBE8DBF809106049091070422
:103560000097D9F08091010490910204009779F0BE
:103570008091FC039091FD03009761F08091F70327
:103580009091F8030097C1F480E090E008C082E0D9
:1035900090E005C081E090E002C083E090E0FC0193
:1035A000EE0FFF1FEE0FFF1FE80FF91FE950FC4F52
:1035B000D183C0831383028380E0DF91CF911F9179
:1035C0000F91089590933E0480933D0470934004BE
:1035D00060933F0408951092090410920804109219
:1035E000070410920604109204041092030410922F
:1035F0000204109201041092FF031092FE03109235
:10360000FD031092FC031092FA031092F90310923A
:10361000F8031092F703E8E3F4E0CF01C2972FEF2D
:103620001282118220833597E817F907C9F70895A8
:10363000FC016083118208950F931F93CF93DF9352
:103640008C01EB0100D000D081E895E0ADB7BEB7AA
:1036500012969C938E93119714967C936E93139766
:103660000E94A40F88810F900F900F900F908823D5
:1036700051F0883551F02196CE012991222331F065
:103680002835D1F703C0CE0101C0CE01EC0121964F
:10369000FE0189918032E1F3843491F1853509F09E
:1036A00057C0DF01119681818D3309F053C0119607
:1036B0002C911197822F90E0C0978A30910508F0E5
:1036C0004BC02F70822F84508B3008F047C0F80118
:1036D000208300D000D0EDB7FEB731968CE695E0A0
:1036E000ADB7BEB712969C938E9311972283138227
:1036F0000E94A40F0F900F900F900F9080E033C0A6
:10370000DF01119681818D3359F511962C91119716
:10371000822F90E0C0978A30910520F52F70F80134
:10372000218300D000D0EDB7FEB7319686E595E055
:10373000ADB7BEB712969C938E93119722831382D6
:103740000E94A40F0F900F900F900F9080E00BC07D
:103750008EE109C08EE107C08EE105C08EE103C095
:103760008EE101C08EE1DF91CF911F910F910895FD
:10377000882319F089B18470089581E04A9980E026
:1037800008950F931F93CF93DF93C82F8C2F0E9420
:10379000B81B882309F075C089B199B18917E1F781
:1037A0008823A4F7F89489B182FD04C08091D304E2
:1037B000882311F054985C9A789481E08093D40423
:1037C00080E487BD16BC85B3836085BB8C2F0E94C7
:1037D000B81B882309F058C085B381FF23C05C98CB
:1037E000549A1092D40486EF8A95F1F7F89489B12F
:1037F00082FD04C08091D304882311F054985C9A10
:10380000789481E08093D4048C2F0E94B81B882385
:1038100009F03DC089B199B18917E1F78823A4F374
:1038200001E007C089B199B18917E1F7882374F2E3
:1038300000E018E0D0E089B199B18917E1F7882359
:10384000D4F7D69584FDD0688C2F0E94B81B8823AE
:1038500009F589B199B18917E1F78823ACF31150C3
:1038600051F75C98549A1092D4042D2F30E0002325
:1038700019F080E090E402C080E090E0282B392B22
:103880000BC02FEF3FEF08C02FEF3FEF05C02FEF2A
:103890003FEF02C02FEF3FEF822F932FDF91CF91A9
:1038A0001F910F9108953F924F925F926F927F9276
:1038B0008F929F92AF92BF92CF92DF92EF92FF9240
:1038C0000F931F93DF93CF930F92CDB7DEB7109274
:1038D000C8041092C70489B182FD6EC157985F9ADF
:1038E0005C98549A1092D4045C98549A81E0809326
:1038F000D30422E62A95F1F7000001E414E0F894DD
:1039000081E00E94C11BBC0178949923ACF400D0E3
:1039100000D085E995E0ADB7BEB712969C938E9323
:10392000119714967C936E9313970E94A40F0F9097
:103930000F900F900F9009C0C8010E9451079093FB
:10394000C8048093C7044A9BDACF00D000D08BE82C
:1039500095E0EDB7FEB7928381838091C704909183
:10396000C804948383830E94A40F0F900F900F903C
:103970000F900E949D0E0E94550E1092D3048091CC
:10398000C7049091C8048070907FF0E280309F0758
:10399000D9F48CE40E94640E01E414E0EE24E39474
:1039A000F89480E00E94C11BBC01789499230CF428
:1039B000FCC04E2D96FF40E0C8010E94490690933E
:1039C000C8048093C704ECCF20E48030920709F04C
:1039D000ECC0F89489B182FD04C08091D30488239F
:1039E00011F054985C9A789481E08093D4045F98A5
:1039F000579A0F2EF1E4EF2EF4E0FF2EF02D8E01FA
:103A00000F5F1F4FCC24C3940F2EFCE9AF2EF5E0BF
:103A1000BF2EF02D88248A94982C3324689433F890
:103A20006C2C44245524C701B8014C2D0E947F06FC
:103A30009093C8048093C70400D000D000D0EDB7A5
:103A4000FEB73196ADB7BEB71296BC92AE92119743
:103A5000298122831382958384830E94A40FEDB76A
:103A6000FEB736960FB6F894FEBF0FBEEDBF0E94AC
:103A7000550EF894D9807090C70480E00E94B81B5E
:103A8000882309F07AC099B189B19817E1F757985E
:103A90005F9A80E00E94B81B882309F070C089B14A
:103AA00099B18917E1F784FFF4CF76FE18C080E062
:103AB0000E94B81B882309F064C089B199B18917A5
:103AC000E1F784FDF4CF80E00E94B81B882309F061
:103AD0005AC089B199B18917E1F784FFF4CF5F9893
:103AE000579AF4ECFA95F1F700C0232D82E091E0AB
:103AF0000197F1F789B199B18917E1F784FF45C0C2
:103B0000D0FE0EC0F89489B182FD04C08091D30428
:103B1000882311F054985C9A78946092D40404C07D
:103B20005C98549A1092D40457985F9AA2E0B1E03E
:103B30001197F1F75F98579AF89489B182FD04C004
:103B40008091D304882311F054985C9A7894609201
:103B5000D404215011F0D694C9CF80E00E94B81B44
:103B60008823A9F489B199B18917E1F784FDF5CFCC
:103B700082E00E94641EC2010BC0C40109C0C401DE
:103B800007C0C40105C0C40103C0C40101C0C40111
:103B90007894992354F0C701B80140E00E947F0651
:103BA0009093C8048093C7043ECF0E94EE1E88E520
:103BB0000E94640E0E94550E0F90CF91DF911F91CD
:103BC0000F91FF90EF90DF90CF90BF90AF909F90BC
:103BD0008F907F906F905F904F903F9008950E94DC
:103BE000EE1E81E494E00E943206089520912E0A90
:103BF00090912F0A2F5F2F7781E0291709F480E039
:103C0000089590912E0AE0E3FAE0E90FF11D808318
:103C100080912E0A8F5F8F7780932E0AE1ECF0E07F
:103C2000808180628083089590912D0A8091B10AED
:103C3000981779F08091B10AEDEAF9E0E80FF11DEB
:103C4000208130E08091B10A8F5F8F778093B10A35
:103C500002C02FEF3FEF822F932F089510922E0A6C
:103C600010922F0A10922D0A1092B10AE1ECF0E0A6
:103C700088E0808380818061808387E08093C400B6
:103C80001092C5008081806880830895F894109216
:103C9000CE041092CC041092CD041092CB048F5F0E
:103CA0008093CA048093C90478940895389A409800
:103CB0001092C9041092CA041092CF04089598B1CA
:103CC00081E0892788B90895843038F48230E0F49F
:103CD000882341F0813019F511C08430E9F0853036
:103CE000F1F416C08091CF04882321F080E00E9477
:103CF000461E08951092C904409808951092CF046A
:103D00001092C904409808951092C904409A0895E9
:103D100085E00E94461E089581E08093CF0480E0F4
:103D20000E94461E08958FEF98E09093890080933B
:103D3000880010928000E1E8F0E08081807F8B6055
:103D400080831092850010928400EFE6F0E080817D
:103D50008260808314BC83E085BD10926E0008955C
:103D60001F920F920FB60F9211242F933F934F93F0
:103D70005F936F937F938F939F93AF93BF93EF93D3
:103D8000FF9385E00E94641EFFCF1092D00411B80B
:103D90008FEF82B93E98469AF89489B183FD04C0AA
:103DA0008091D004882311F03D98459A789481E061
:103DB0008093D204F89489B183FD04C08091D0042B
:103DC000882311F03C98449A789481E08093D10440
:103DD0003F98479A08950E94C51E089552985A9A8E
:103DE0001092D304F89489B182FD04C08091D30469
:103DF000882311F054985C9A789481E08093D404DD
:103E000057985F9A08950E94EE1E0895CF93DF930E
:103E1000C3E7D0E08881877F888388818B7F888310
:103E20000E94EB1E88E00E9409060E94031F88E0A2
:103E30000E94EF1DDB9A8881886088838881846076
:103E40008883E8E6F0E0808188608083DF91CF910D
:103E50000895A3E1B0E0EFE2FFE10C94BB226C0116
:103E60007F876E87FC0117821682838181FD04C0E3
:103E70006FC34C855D8504C01E010894211C311C54
:103E8000F6019381EE85FF8593FD859193FF8191E6
:103E9000FF87EE87882309F457C3853241F493FDE9
:103EA000859193FF8191FF87EE87853259F490E0E9
:103EB000B6014A8B5B8B0E941E244A895B895D8711
:103EC0004C87D7CF10E0FF2400E00032B0F48B32F3
:103ED00069F08C3228F4803251F0833271F40BC0D7
:103EE0008D3239F0803349F401602CC002600460E7
:103EF00029C0086027C0006125C007FD2EC0282FFB
:103F000020532A3098F406FF08C0812F880F182FFD
:103F1000110F110F180F120F15C08F2D880FF82ECB
:103F2000FF0CFF0CF80EF20E00620CC08E3221F472
:103F300006FD0AC3006406C08C3611F4006802C096
:103F4000883659F4EE85FF8593FD859193FF819125
:103F5000FF87EE87882309F0B8CF982F95549330C8
:103F600018F40061805E06C0982F9556933008F0D3
:103F70009BC10F7E06FF16E06FE3E62EE02285363A
:103F800019F4F0E4EF2A07C0863619F420E8E22A93
:103F900002C011111150E7FE06C01C3340F4912EEF
:103FA000939427E00BC0183030F4212F06C027E08F
:103FB0003CE3932E03C027E017E09924CA0104963E
:103FC0009D878C87FA016081718182819381A10133
:103FD000092D0E94F2225C016980262D30E0398B88
:103FE000288B60FE03C0388933FF06C0E1FC06C0A1
:103FF000E2FE06C000E205C00DE203C00BE201C014
:1040000000E0888999898C7090700097C1F1002335
:1040100011F084E001C083E08F1558F4F81AE3FC36
:1040200009C080E290E0B6010E941E24FA94C9F70C
:1040300001C0FF24002329F0802F90E0B6010E94E8
:104040001E24888983FD03C000E810E00EC00CE741
:1040500010E00BC0A114B10409F0805290E0B60149
:104060000E941E240F5F1F4F05C0AE2CBB2490E1A1
:10407000A922BB24F8018491882361F762C2E7FE7C
:104080000EC09A0CF889F4FF04C08A81813309F4C8
:104090009A94191454F5292D293050F52DC0E6FCB9
:1040A0002BC0812F90E08A159B054CF03CEFA316A6
:1040B0003FEFB30624F080E8E82A01C01150112335
:1040C00049F0E2E0F0E0EC0FFD1FE10FF11D80810F
:1040D0008033A1F3E7FE10C0912E9394812F90E0DE
:1040E000A816B90644F41A1907C09924939404C079
:1040F00098E0992E01C010E0E7FE07C01A141B04D7
:104100003CF495012F5F3F4F05C025E030E002C031
:1041100021E030E0002311F02F5F3F4F112329F001
:10412000812F90E00196280F391F8F2D90E02817DE
:10413000390714F4F21A01C0FF244E2C5524C20191
:1041400089709070009749F406C080E290E0B60153
:104150000E941E24FA94FF20C1F7002329F0802F2B
:1041600090E0B6010E941E2443FC09C006C080E313
:1041700090E0B6010E941E24FA94FF20C1F7E7FEEA
:1041800046C03501B7FE02C0662477242501089495
:10419000411C511C46185708420C531CF501E919E3
:1041A000F1094F01812F90E000271127081B190BFF
:1041B000FFEF6F16FFEF7F0629F48EE290E0B60165
:1041C0000E941E24A614B70434F0861497041CF42D
:1041D000F201808101C080E30894610871080894AD
:1041E000411C511C601671062CF090E0B6010E9433
:1041F0001E24DECF6A147B0441F49A81963320F4A6
:10420000953319F4F889F4FF81E390E049C08A817D
:10421000813311F02FEE622290E0B6010E941E243D
:10422000112389F08EE290E0B6010E941E2402E084
:10423000F101E00FF11D0F5F808190E0B6010E9457
:104240001E241150A9F744FE03C085E490E002C08B
:1042500085E690E0B6010E941E24B7FC05C0A114BB
:10426000B10441F464FE06C0B094A194B108B394C3
:104270008DE201C08BE290E0B6010E941E2480E333
:1042800005C08F5FE6EFFFEFAE0EBF1EFAE0AF1680
:10429000B104BCF790E0B6010E941E24C501C0968F
:1042A000B6010E941E244DC1833631F0833789F058
:1042B000833509F059C022C09A012E5F3F4F3D87D8
:1042C0002C87FA0180818983310181E0A82EB12CED
:1042D00013C09A012E5F3F4F3D872C87FA01608003
:1042E000718006FF03C0612F70E002C06FEF7FEFA7
:1042F000C3010E9413245C010F7714C09A012E5F42
:104300003F4F3D872C87FA016080718006FF03C014
:10431000612F70E002C06FEF7FEFC3010E94ED23B9
:104320005C01006803FD1CC006C080E290E0B6019D
:104330000E941E24FA948F2D90E0A816B906A8F3C7
:104340000FC0F30107FD859107FF81913F0190E0C8
:10435000B6010E941E24F110FA940894A108B10835
:10436000A114B10471F7EDC0843611F0893661F5FE
:1043700007FF0BC09A012C5F3F4F3D872C87FA0146
:1043800060817181828193810CC09A012E5F3F4FC1
:104390003D872C87FA0160817181882777FD8095A0
:1043A000982F0F7697FF08C090958095709561952E
:1043B0007F4F8F4F9F4F0068A1012AE030E00E949D
:1043C000A024982E921841C0853721F40F7E2AE050
:1043D00030E020C0097F8F36A9F0803720F488357F
:1043E00009F0B2C00BC0803721F0883709F0ACC0AB
:1043F00001C0006104FF09C0046007C004FF08C0D9
:10440000066006C028E030E005C020E130E002C0D0
:1044100020E132E007FF0AC0CA0104969D878C871D
:10442000FA01608171818281938109C0CA0102967B
:104430009D878C87FA016081718180E090E0A10105
:104440000E94A024982E92180F7706FF09C00E7FB5
:10445000911630F404FF06C002FD04C00F7E02C0B6
:10446000E92C01C0E12E802F90E004FF0CC0FE017A
:10447000E90DF11D2081203311F4097E09C0E39478
:1044800002FF06C004C086789070009709F0E3949C
:10449000A02EBB2403FD14C000FF0FC0EF1428F4AE
:1044A000192D1F0D1E19EF2C08C0192D06C080E212
:1044B00090E0B6010E941E24E394EF14C0F304C000
:1044C000EF1410F4FE1801C0FF24A4FE0FC080E317
:1044D00090E0B6010E941E24A2FE1FC0A1FE03C0F0
:1044E00088E590E010C088E790E00DC0C5018678AF
:1044F0009070009791F0A1FC02C080E201C08BE2B5
:1045000007FD8DE290E0B6010E941E2406C080E304
:1045100090E0B6010E941E2411509116C0F39A94A7
:10452000F101E90DF11D808190E0B6010E941E2489
:104530009920A9F706C080E290E0B6010E941E24EF
:10454000FA94FF20C1F795CCF6012681378102C08D
:104550002FEF3FEFC9016396E2E10C94D722991B3C
:1045600079E004C0991F961708F0961B881F7A956A
:10457000C9F7809508952F923F924F925F926F9264
:104580007F928F929F92AF92BF92CF92DF92EF92E3
:10459000FF920F931F93CF93DF93CDB7DEB7CA1B64
:1045A000DB0B0FB6F894DEBF0FBECDBF09942A888F
:1045B000398848885F846E847D848C849B84AA8437
:1045C000B984C884DF80EE80FD800C811B81AA81C4
:1045D000B981CE0FD11D0FB6F894DEBF0FBECDBF8F
:1045E000ED010895283008F027E03327DA01990F0C
:1045F000311D87FD916000966105710539F43260C7
:104600002E5F3D9330E32A95E1F708959F3F30F008
:1046100080387105610509F03C5F3C5F3D93913046
:1046200008F08068911DDF93CF931F930F93FF9243
:10463000EF92192F987F9695E92F96959695E90F09
:10464000FF27EC5DF94F99273327EE24FF24A701BC
:10465000E70105900894079428F4360FE71EF81E2A
:10466000491F511D660F771F881F991F0694A1F7D8
:104670000590079428F4E70EF81E491F561FC11D28
:10468000770F881F991F661F0694A1F7059007945E
:1046900028F4F80E491F561FC71FD11D880F991FF8
:1046A000661F771F0694A1F70590079420F4490F21
:1046B000561FC71FD81F990F661F771F881F0694A4
:1046C000A9F784911095177041F0D695C795579525
:1046D0004795F794E7941A95C1F7EAECF5E06894EA
:1046E0001590159135916591959105907FE273959F
:1046F000E118F10A430B560BC90BD009C0F7E10CC6
:10470000F11E431F561FC91FD01D7EF4703311F4D4
:104710008A95E6CFE894015030F0080F0AF400279C
:10472000021708F4202F2395022F7A3328F079E31B
:104730007D932A95E9F710C07D932A9589F6069412
:1047400097956795379517951794E118F10A430BDC
:10475000560BC90BD00998F023957E9173957A3347
:1047600008F070E37C932013B8F77E9170617D931D
:1047700030F0839571E37D9370E32A95E1F711247E
:10478000EF90FF900F911F91CF91DF91992787FDB7
:104790009095089585FD32C1806291112FC1815697
:1047A0008A51E0F70895803209F0911127C18052B3
:1047B0008F55E0F70895FB01DC0102C005900D92D2
:1047C00041505040D8F70895FC0105900020E9F7CA
:1047D000809590958E0F9F1F0895FC010590615064
:1047E00070400110D8F7809590958E0F9F1F089507
:1047F000FB01DC0102C001900D9241505040D8F7FE
:1048000008956817790768F4FB01DC01E40FF51FD0
:10481000A40FB51F02C002900E9241505040D8F72D
:1048200008950C94F823FC01615070400190011030
:10483000D8F7809590958E0F9F1F08950F931F9323
:10484000CF93DF938C01EB018B8181FF1BC082FF33
:104850000DC02E813F818C819D812817390764F41A
:10486000E881F9810193F983E88306C0E885F98539
:10487000802F0995009731F48E819F8101969F8347
:104880008E8302C00FEF1FEFC801DF91CF911F9100
:104890000F910895AEE0B0E0E0E5F4E20C94C92297
:1048A0008C01CB01BA0146E04C831A83098397FF40
:1048B00002C080E090E801979E838D83CE0101962F
:1048C000A9010E94291F4D815E8157FD0AC02F81D9
:1048D0003885421753070CF49A01020F131FF80191
:1048E00010822E96E4E00C94E522AEE0B0E0EBE717
:1048F000F4E20C94C9228C01CB01BA014EE04C8346
:104900001A83098397FF02C080E090E801979E8395
:104910008D83CE010196A9010E94291F4D815E81E0
:1049200057FD0AC02F813885421753070CF49A01AE
:10493000020F131FF80110822E96E4E00C94E5227A
:10494000FA01AA27283051F1203181F1E8946F93C0
:104950006E7F6E5F7F4F8F4F9F4FAF4FB1E03ED066
:10496000B4E03CD0670F781F891F9A1FA11D680F04
:10497000791F8A1F911DA11D6A0F711D811D911D37
:10498000A11D20D009F468943F912AE0269F1124AC
:104990003019305D3193DEF6CF010895462F477010
:1049A000405D4193B3E00FD0C9F7F6CF462F4F706B
:1049B000405D4A3318F0495D31FD4052419302D0C9
:1049C000A9F7EACFB4E0A69597958795779567956F
:1049D000BA95C9F700976105710508959B01AC016F
:1049E0000A2E06945795479537952795BA95C9F796
:1049F000620F731F841F951FA01D08959927882794
:064A00000895F894FFCFB9
:104A06002025752042797465732066726565002CD1
:104A1600202564206B487A002D0024003F00494E73
:104A2600495449414C495A450052454E414D45006D
:104A360053435241544348004344004D4B4449526A
:104A460000524D4449520041535349474E00455880
:104A560054000030313233343536373839616263C9
:104A6600646566786432303331006469720070724E
:104A76006700626C6F636B73206672656500A614CF
:104A8600A914C217E317EA14C91430313233343586
:104A960036373839616263646566020002FF0001D9
:024AA6000F00FF
:00000001FF
