:100000000C944D000C946A000C946A000C946A00E5
:100010000C946A000C946A000C946A000C94B6006C
:100020000C946A000C946A000C946A000C946A00A8
:100030000C946A000C94500B0C946A000C946A00A7
:100040000C946A000C946A000C946A000C946A0088
:100050000C943E0C0C941A0C0C946A000C946A00DC
:100060000C946A000C946A000C946A000C946A0068
:100070000C946A000C946A000C946A0058532D3159
:100080003534312F5844323033312056302E310040
:10009000302E31414C504841000011241FBECFEF9B
:1000A000D0E1DEBFCDBF14E0A0E0B1E0EEE7F4E2C6
:1000B00002C005900D92AA3EB107D9F71AE0AAEE48
:1000C000B4E001C01D92A93DB107E1F70E9403040D
:1000D0000C943E120C940000882319F03F98479A24
:1000E000089547983F9A0895882319F03C98449AB8
:1000F000089544983C9A0895882319F03D98459AAC
:10010000089545983D9A0895882319F03E98469A97
:10011000089546983E9A089511B88FEF82B93E9897
:10012000469A3F98479A3C98449A3D98459A5398E6
:100130005B9A08950E948C00DB9AE3E7F0E08081EF
:1001400088608083E8E6F0E080818860808386E6CE
:100150009EE00197F1F788E08093070610929901DD
:10016000809108068E7F8093080608951F920F9253
:100170000FB60F9211242F933F934F935F936F937A
:100180007F938F939F93AF93BF93EF93FF934B997D
:1001900006C080E00E94740080E00E947C00FF9115
:1001A000EF91BF91AF919F918F917F916F915F91EF
:1001B0004F913F912F910F900FBE0F901F90189568
:1001C000882361F089B1992723E0969587952A9530
:1001D000E1F78095909581709070089589B1992785
:1001E0008870907008950F931F93CF93DF93EC0165
:1001F000209711F44B9B27C0369BFACF80E00E94DA
:10020000740081E00E947C0005C08C2F0E94E000F9
:100210008823C9F0359BF9CF8C2F0E94E0008823FA
:1002200091F03699F9CF80E00E947C0080B18095F2
:10023000082F1127379B116081E00E947400CD2B9D
:1002400051F44B9903C00DEF1FEF05C0369BF9CF5A
:1002500080E00E947400C801DF91CF911F910F913F
:10026000089594E09093090680930A0608950E94E9
:100270008C001092090608950E947B070E9488074F
:1002800008950E9463070895FF920F931F93CF93E1
:10029000DF93F82E8F7080930C0680910C060E94DD
:1002A000BE088C01009739F0FC018281813069F031
:1002B0008281823051F08F2D807F803F31F083E644
:1002C0000E944101CFEFDFEF47C080E090E00E9445
:1002D000F300EC0197FD40C08CE30E944101D0FF88
:1002E00004C080910806816003C0809108068E7F5B
:1002F00080930806BE0170702F2D3327C9018F70BF
:1003000090700F9729F0207F3070203F3105B1F4B5
:1003100080919901883740F4E82FFF27E756FE4F78
:1003200061838F5F809399018091080680FFCDCF14
:1003300080910806826080930806C7CF4091080626
:10034000552741705070C8010E94EF0A8C01892B1B
:1003500009F0BBCFCEEFDFEFCE01DF91CF911F9140
:100360000F91FF900895E82FFF27EF70F070EA5E7D
:10037000FD4F80810E94410108951F93182F80E056
:1003800091E00E940607812F82958F700E94B30131
:10039000812F0E94B3010E943C01112321F0809122
:1003A0007300886003C080917300877F809373001F
:1003B0001F91089581E00E94BD010E9437010895B8
:1003C0008091080681FF24C080910C068F3029F4AB
:1003D00089E991E00E94170514C083E08093090623
:1003E00080910C0620E0813009F421E041E351E0E6
:1003F00069E971E00E949D0587FF03C082E0809358
:10040000090610929901809108068D7F8093080655
:10041000089520E040E00E94A204089580E00E9438
:10042000BD010E948C0060E081E691E00E9409021B
:1004300085E08093090608951092EB041092EA0477
:1004400069E481E691E00E94090210920906109287
:100450000B06089560E081E691E00E94090208958C
:10046000EF92FF921F93CF93DF9380910906813023
:1004700069F0813030F08230C1F0843009F04BC136
:100480002BC14B9948C181E08093090682E080939B
:10049000090681E090E00E94F30099230CF439C131
:1004A00090709093EB048093EA044091EA04509199
:1004B000EB044F33510531F480910B06813009F084
:1004C0001EC108C04F35510541F480910B068230A2
:1004D00009F015C110920B0612C180910706282F52
:1004E0003327C901805C9F4F4817590711F482E0F8
:1004F00006C0205E3F4F4217530721F481E08093EE
:100500000B06FDC09A01207F30702036310509F0BE
:10051000BDC04B9BFECF10910B06113051F4842FC0
:100520000E9444018D5F9F4F09F0F5C010930906AA
:10053000D0C080910B06823009F0EBC0842F8F7001
:1005400080930C064B9BFECF0E948C0080910C0682
:100550000E94BE08EC01892B09F091C080910C0625
:100560008F3009F0D6C020E030E041E951E060E092
:100570000E949E08992787FD90959F938F9389E00D
:1005800091E09F938F930E94390780910C060E94FF
:10059000BE08EC010F900F900F900F906DC0CE0130
:1005A0000E945609182F89819927FC0133E0EE0F2C
:1005B000FF1F3A95E1F7E81BF90B3B96EC0FFD1F87
:1005C00080818C3F19F0EE24FF240EC084812381AA
:1005D00040E0992701963327821793070CF441E0F6
:1005E00081E04827E42EFF2481E00E94840081E01E
:1005F0000E946C0011B9109512B94B9B8AC086E31A
:100600008A95F1F74B9B85C04B9B83C0359BFCCFF4
:1006100080E0EF2809F481E00E946C0080E00E94F5
:10062000840086E38A95F1F7CE010E9452094B9B24
:1006300070C0349BFCCF81E00E94840081E00E9466
:100640006C0086E38A95F1F74B9B63C0349B5AC0DC
:10065000FBCFCE010E94B109882351F480910C0692
:100660008F3009F056C080910C060E94A20A51C03A
:10067000CE010E942D0AEC01209709F44AC0CE0158
:100680000E94B109882309F08ACF43C080910B06EC
:10069000882309F43EC0203E310569F4842F8F7011
:1006A00080930C0680910C068F3001F56FE080E09E
:1006B0000E941A0A24C0203F310509F54B9BFECF4A
:1006C000842F0E9444018D5F9F4F29F581E0809324
:1006D00009060E94E0011FC080910A06882359F094
:1006E00060910A0681E691E00E94090280910C0661
:1006F0000E94A20A04C080910C060E944A0910922E
:10070000090609C0CE010E947409882309F4A1CF0B
:1007100046CF0E943701DF91CF911F91FF90EF905C
:100720000895AF92BF92DF92EF92FF920F931F93C3
:10073000CF93DF93D82EEB017A01590184E291E047
:100740000E9406070E943C0188818F3FA9F08881A2
:10075000992787FD90959F938F9387E391E09F93CF
:100760008F930E94390766E48D2DF50109950F904E
:100770000F900F900F9027C0E70109811A814D81DA
:10078000C42FDD27AE0163E671E0C8010E94290F86
:10079000C00FD11F21971882F80101900020E9F7BE
:1007A0003197E01BF10B8CEFD7018C93E701DE82D0
:1007B000EB831C8260E081E691E00E94090260E028
:1007C0008D2DF5010995DF91CF911F910F91FF902C
:1007D000EF90DF90BF90AF9008958DB79EB7895D81
:1007E0009A40089510920D0608950E947B078EE2AC
:1007F0000E9463070E947B0786E292E00E94060740
:100800000E947B07089510920D06389A40980E9426
:100810007F0D0E94E1060E9432050E94ED090E94B0
:100820009A0078940E94F5038DB79EB7895D9A402F
:100830009F938F938FE392E09F938F930E9439074A
:1008400089E999E3A0E0B0E0BF93AF939F938F93C2
:100850008EE492E09F938F930E9439070E947B075A
:100860000E947B070E941C028DB79EB70A960FB6A6
:10087000F8949EBF0FBE8DBF0E943002FDCF0F9334
:100880001F93CF93DF93DC01EB0100E05527405825
:100890005F4FFE01E00FF11D0F5FC895202D822FE5
:1008A00099278417950719F02F3F19F0F2CF2F3FA2
:1008B00021F48FE38D931EC00F5FFE01E00FF11D49
:1008C000C895E02DE7FDF8CFFE01E00FF11D0F5FA9
:1008D000C895102D103250F4412F62E573E0CD0120
:1008E0000E943F04DC0117FFEFCF04C017FD02C0D8
:1008F0001D93EACFCD01DF91CF911F910F91089504
:10090000CF93DF93DC01262F643650F0862F64E608
:100910000E94E711805D8D93822F0E94E711292F9D
:10092000822F6AE00E94E711805DFD018193822F92
:100930000E94E711905DED019983CF010196DF914F
:10094000CF910895DF92EF92FF920F931F93CF9371
:10095000DF93F62ED42EE22EFC0132968EE2DF01DA
:100960001D928A95E9F7CF010E948004DC01FC0109
:100970008CE2819383E0F81669F49F012F5F3F4F6B
:1009800091E0E91611F085E401C084E4FD01818362
:10099000F90136C089E0F81611F4ED0104C099E4BC
:1009A000F91639F5FACFCE018A1BE82FFF27E45854
:1009B000FF4FC895E02DE9832196EE23A1F78E0124
:1009C0000F5F1F4F99E0F91689F48E01E02FEC1BA1
:1009D000FF27E057FF4FC895E02D8E2F99270E94E3
:1009E000FC11D8018D938D01882381F7F80131978F
:1009F00007C04F2D67E572E0CF010E943F04FC0164
:100A00001CE211936D2DCF010E948004FC01119313
:100A10006E2DCF010E948004FC018DE08083DF9168
:100A2000CF911F910F91FF90EF90DF9008950F935A
:100A30001F938C0188EA93E00E940607C801019683
:100A40000E9406070E947B070E9488071F910F9152
:100A50000895FC015283418365838FEF868314825E
:100A6000138208958FEF8093EC048093FF04089520
:100A7000CF93DF93982F8091EC04891719F4C0E08D
:100A8000D0E006C08091FF04891791F5C1E0D0E065
:100A900067FF11C083E190E0C89FF001C99FF00D8E
:100AA000D89FF00D1124E451FB4F0188F289E02D0D
:100AB0008AE4099510C083E190E0C89FF001C99FC6
:100AC000F00DD89FF00D1124E451FB4F218932899C
:100AD0008785F901099583E190E0C89FF001C99FDE
:100AE000F00DD89FF00D1124E451FB4F8FEF808360
:100AF000DF91CF9108950E9463070895E82FFF27A3
:100B0000EF70F070E159FB4F80810E947B050895E2
:100B10001F93182F82958F700E947E05812F0E944F
:100B20007E051F9108950E947B070E948807089503
:100B300020E040E00E94A20408958F929F92BF920D
:100B4000CF92DF92EF92FF920F931F93CF93DF9399
:100B5000B82EEB014A01022F82EB93E00E940607B8
:100B60008B2D0E94880587EC93E00E940607CE013A
:100B700001960E9406070E94930540E062E175E03D
:100B8000CE010E948B07809112058F3F11F41092C5
:100B9000120580911305882371F0843261F084ED91
:100BA00093E00E940607809113050E947B050E9436
:100BB00093051092130580911205882379F085EE34
:100BC00093E00E94060780911205805D0E947B05DC
:100BD0000E949305C558DF4F6AE4B0C080911405A8
:100BE000882391F0833581F0803571F085EF93E0B3
:100BF0000E940607809114050E947B050E949305C0
:100C0000C558DF4F60E49AC0909115059923A1F073
:100C1000973591F0923581F0913471F088E094E04D
:100C20000E940607809115050E947B050E9493058E
:100C3000C558DF4F6EE182C020911305243221F4A4
:100C4000992311F0923549F48091EC0487FD9AC004
:100C50008091FF04882384F40AC081E294E00E941A
:100C600006070E949305C558DF4F6FE367C03FEF4B
:100C7000C32E34E0D32E05C085E394E00E9406071E
:100C800058C0973509F483C0002311F002E001C079
:100C900001E0913409F405E0243209F406E076011C
:100CA0000894E11CF11C40911605509117056091C4
:100CB0001805C7010E94290580911805F6010183D6
:100CC000F701B68283831482E091D704F091D804AF
:100CD000309771F0C701099587FF0AC08CE494E052
:100CE0000E9406070E949305C558DF4F62E226C0A6
:100CF000023069F0053059F0063019F020E030E09C
:100D000004C02091D5043091D60460E003C020E0F7
:100D100030E061E041ED54E08B2D0E949E08082FE9
:100D200087FF13C08CE694E00E940607802F0E9484
:100D300088050E949305C558DF4F66E48881998134
:100D40000E9498058FEF9FEF24C0F601928A818A56
:100D5000B0828601085F1F4F8FE090E0C80ED91E59
:100D6000A60162E0C8010E942905E091D304F09138
:100D7000D40428E335E0A801B7018B2D099580E064
:100D800090E007C08CEEC82E84E0D82E7ACF02E027
:100D900083CFDF91CF911F910F91FF90EF90DF9064
:100DA000CF90BF909F908F900895FC01A6E6BEE083
:100DB00003C0CD010197F1F7938184819817C9F79A
:100DC000089510929A0589E195E090939D0580938E
:100DD0009C0581E88093A0058FEF8093A105109278
:100DE0009F0510929E05089590919A0510929B057B
:100DF0008FEF8093A10590939E0510929F058BE93C
:100E000095E00E941A0D10929A0508951F93CF93B2
:100E1000DF93EC018BE995E00E94D506FE0101907D
:100E20000020E9F731971E2F1C1B80919A05810F36
:100E3000912D911D8138910514F00E94F4068BE9E3
:100E400095E00E94D506113808F011E880919A05C6
:100E50009927412F5527BE01875E9A4F0E94200F88
:100E600080919A05810F80939A05DF91CF911F9110
:100E700008950F931F93CF93DF93CDB7DEB7C35879
:100E8000D0400FB6F894DEBF0FBECDBFFE01E657CF
:100E9000FF4F61917191FA83E9838E010D5F1F4FBE
:100EA000AF01C8010E94380FC8010E940607CD5744
:100EB000DF4F0FB6F894DEBF0FBECDBFDF91CF91ED
:100EC0001F910F9108951F93182F8BE995E00E94B1
:100ED000D50680919A05813850F4E82FFF27E75E08
:100EE000FA4F10838F5F80939A05813810F00E942B
:100EF000F4061F9108958DE00E9463078AE00E9426
:100F0000630780919A05882311F00E94F4060895E2
:100F10000E94BC0D08958F929F92BF92CF92DF9254
:100F2000EF92FF920F931F93CF93DF93CDB7DEB76E
:100F300021970FB6F894DEBF0FBECDBFFC014B0169
:100F40009C012F5F3F4F90818FEFFB0180831182C7
:100F5000128282E58383358324839683442319F0A8
:100F6000F4E0F98302C086E08983E92EEA946901FE
:100F70000894C11CD11C8901BB247CC09981933089
:100F800009F46AC0943038F4913009F44AC09230C0
:100F900008F054C032C0E981E530A9F0E53020F016
:100FA000E63009F061C020C0F4018181882359F442
:100FB000F801F0808F2D99270E94F511892B19F0E7
:100FC000F401F1821682F8012081822F9927C097BF
:100FD0000A9718F42053F4012083F80180818A33A2
:100FE00009F042C0F40117C0F8018081843229F46D
:100FF000F40181831682F5E0F983F8012081822FC4
:101000009927C0970A9718F480EDB82EB20E2A33AC
:1010100041F4F401B082D582C482E682F1E0F98322
:1010200023C0F80180818C32F9F4F4018481F02F1F
:10103000F81B8F2FF4018683F2E0F1CFF401828157
:10104000882321F4F8018081F4018283F8018081F2
:101050008C3251F4F3E0E3CFF4018381882321F44F
:10106000F8018081F40183830F5F1F4FEA94089495
:10107000C11CD11CFFEFEF1609F080CF21960FB6EF
:10108000F894DEBF0FBECDBFDF91CF911F910F91BE
:10109000FF90EF90DF90CF90BF909F908F9008953A
:1010A000FC015283418365838FEF86831482138210
:1010B0000895FC0180818C3F19F080E090E0089554
:1010C0009481838120E0981708F421E081E02827AB
:1010D000822F99270895CF93DF93DC017727EB01C7
:1010E00083E0CC0FDD1F8A95E1F7C61BD70B2B964B
:1010F000CA0FDB1F9C918FEF88839E831B821C820B
:10110000FD018781882311F481E008C0FD018781FA
:10111000833089F48281882371F484E0878323817A
:1011200034818C91F901A281B38122EE38E0AE01C5
:10113000BE01FD010995DF91CF910895982FA7E099
:10114000B0E0EDE3FAE0808187FF0EC0908311826A
:101150006283548343833683258317861686168AD3
:10116000158A80E090E008951197E959F0408FEFDB
:10117000AF3FB80741F78FEF9FEF0895982F47E0F3
:1011800050E0EDE3FAE0242F8081E959F04089171F
:1011900081F4332727FD309589E990E0AC01249F45
:1011A000C001259F900D349F900D1124825F994FAF
:1011B0000895415050408FEF4F3F580721F780E08E
:1011C00090E008951F93162F0E94BE08FC01892B02
:1011D00059F010878781813011F482E004C0878143
:1011E000843011F485E087831F9108951F93CF9376
:1011F000DF93EC01162F8A81882309F047C08F8185
:10120000882329F4198260E0CE010E946B08112323
:1012100029F407C086E69EE00197F1F78F818130BF
:10122000C9F38F818230B1F48D819E81892B81F049
:10123000ED81FE8129813327C90153E0880F991F71
:101240005A95E1F7821B930B0B968C0F9D1F099506
:1012500083E08F838F818530C9F48D819E81892BB6
:1012600099F0ED81FE81898121E030E0281B310970
:10127000C90143E0880F991F4A95E1F7821B930B40
:101280000B968C0F9D1F099586E08F83DF91CF9180
:101290001F9108950E94BE08009719F061E00E9416
:1012A000F608089561E00E94F60808950F931F93D1
:1012B0008C0161E00E94F608F80181819927FC0108
:1012C00063E0EE0FFF1F6A95E1F7E81BF90B3B9611
:1012D000E00FF11FA181B2818481A80FB11D8C9113
:1012E00099271F910F9108951F93CF93DF93EC01DE
:1012F00061E00E94F60819818F818330B1F4298161
:101300003327C901E3E0880F991FEA95E1F7821BB3
:10131000930B0B968C0F9D1F0E945908882329F46C
:1013200061E0611BCE010E946B0889819927FC0155
:1013300073E0EE0FFF1F7A95E1F7E81BF90B3B9680
:10134000EC0FFD1F84818F5F84839481838120E073
:10135000981708F421E0822F9927DF91CF911F91F0
:1013600008950F931F938C0161E00E94F608F80125
:1013700021813327C901F3E0880F991FFA95E1F71E
:10138000821B930B0B96800F911F0E94590820E03F
:1013900030E0882311F421E030E0C9011F910F9162
:1013A00008950F931F938C018FEFF80180831782AC
:1013B0001186A801475E5F4F60E4C8010B960E944A
:1013C0005008075A1F4FA80160E4C8018754904095
:1013D0000E9450081F910F9108950F931F93CF9370
:1013E000DF9300E010E0CDE3DAE061E0CE010E949F
:1013F000D10909591040C959D0408BEF083318075B
:10140000A1F7DF91CF911F910F9108951F93162F90
:101410000E94BE08FC01892B59F012878185823019
:1014200019F481E0818704C08185813009F4118637
:101430001F9108950F931F93062F182F09C0812F16
:101440000E94BE08009719F061E00E94D1091F5F59
:101450000117A8F71F910F9108950F931F93CF9332
:10146000DF93EC01198129813327C90143E0880FFB
:10147000991F4A95E1F7821B930B0B968C0F9D1FCA
:101480000E945908882329F051C086E69EE0019702
:10149000F1F78F818430C9F38F818530C9F48D8154
:1014A0009E81892B99F0ED81FE81898121E030E0D8
:1014B000281B3109C90103E0880F991F0A95E1F73C
:1014C000821B930B0B968C0F9D1F099586E08F83D3
:1014D00001E0802F811B182F9927FC01B3E0EE0F4C
:1014E000FF1FBA95E1F7E81BF90B3B96EC0FFD1FC8
:1014F000948183819817D0F4198383E08F832981A5
:101500003327C901A3E0880F991FAA95E1F7821B31
:10151000930B0B968C0F9D1F0E945908882361F432
:10152000011B602FCE010E946B0806C060E0CE0157
:101530000E94D109C0E0D0E0CE01DF91CF911F9190
:101540000F910895EF92FF921F93CF93DF93182F7F
:101550000E94BE087C01EC018985882329F435C0EE
:1015600086E69EE00197F1F7F70181858130C1F7AA
:1015700081819927FC0153E0EE0FFF1F5A95E1F797
:10158000E81BF90B3B96EE0DFF1D8381992787FD24
:1015900090952CEF2083168383831482E701AB811F
:1015A000BC81ED01AA81BB8126E03AE0AF01BF0119
:1015B000812FFD010995E6E6FEE003C0CF0101970A
:1015C000F1F7E70189858130C9F360E0C7010E9426
:1015D000D109DF91CF911F91FF90EF9008950F9364
:1015E0001F93CF93DF93EC018985882311F481E069
:1015F0008987088189819927DC0173E0AA0FBB1FC5
:101600007A95E1F7A81BB90B1B96AC0FBD1FFD0126
:10161000218132818381280F311DF90160838F5F21
:10162000FD01838393818581981711F0452B91F1FA
:10163000FD018381992787FD90952EEF2C930683DA
:1016400083831482E6E6FEE003C0CF010197F1F741
:1016500019851130D1F782E08987EB81FC81028006
:10166000F381E02D26E03AE0AD01BD01802F099520
:101670008981181B198389819927FC0163E0EE0F8A
:10168000FF1F6A95E1F7E81BF90B3B96EC0FFD1F76
:1016900014821382CE01DF91CF911F910F91089593
:1016A0001F920F920FB60F9211248F939F938091E8
:1016B000D70A9091D80A01969093D80A8093D70AB6
:1016C0009F918F910F900FBE0F901F90189582E001
:1016D00085BD8FEF98E090938900809388001092E9
:1016E000850010928400109280008BE0809381002E
:1016F000EFE6F0E08081826080830895813448F0D5
:101700008B3510F4805805C0813618F08B3718F4EB
:1017100080529927089599270895EF92FF920F9389
:101720001F93CF93DF93EC018B0106C00E947E0BC9
:101730008883E7010F5F1F4FF80180817E010894C5
:10174000E11CF11C882391F71882C701DF91CF912A
:101750001F910F91FF90EF900895CF93DF9344E096
:101760005CC0A091A305B091A4058091AB05813028
:1017700089F082301CF4882331F035C08230A1F02A
:101780008330E9F030C081E08093AB058C91282F45
:10179000332726C082E08093AB05ED018B81282F93
:1017A00033272D5F3F4F1CC0FD018681282F332733
:1017B0008381882399F083E08093AB0511C0ED010C
:1017C000E981FA818C81E80FF11D90818F5F8C8314
:1017D000292F33279C818B81981710F04093AB05FC
:1017E0002093C60024C08091A20581508093A20559
:1017F00020E030E009C0FF27EE0FFF1FED55FA4F44
:101800008281938191838083E22F8091A2052F5F53
:101810003F4FE81780F31092AB058091A205882313
:1018200009F09FCF8091C1008F7D8093C100DF912F
:10183000CF9108951F920F920FB60F9211242F93FC
:101840003F934F935F936F937F938F939F93AF9348
:10185000BF93EF93FF930E94AD0BFF91EF91BF9168
:10186000AF919F918F917F916F915F914F913F9138
:101870002F910F900FBE0F901F9018951F920F92EF
:101880000FB60F9211242F933F934F935F936F9353
:101890007F938F939F93AF93BF93EF93FF93409169
:1018A000C6002091C005223009F1233034F42223F0
:1018B00059F0213009F0ADC012C0233009F46BC0DB
:1018C000243009F0A6C073C0842F8D5F823018F0D9
:1018D0004C3F09F09EC04093C60581E004C04350D0
:1018E0004093C50582E08093C00593C04093C10535
:1018F00084E08093C00520E030E0ECEAF5E08081F0
:101900003596841721F52093C205822F992787FDEC
:101910009095FC01EE0FFF1FEE0FFF1FE80FF91F60
:10192000E455FA4F0180F281E02DF093C405E09375
:10193000C3052091C60595818091C505981760F073
:1019400020834683138283E08093C00505C02F5F08
:101950003F4F2430310599F68091C505882309F061
:1019600058C08091C205992787FD9095FC01EE0F24
:10197000FF1FEE0FFF1FE80FF91FE455FA4F03801A
:10198000F481E02D8091C005843011F46FEF01C027
:1019900060E0842F2BC0E091C305F091C405A181C4
:1019A000B2818381A80FB11D4C938F5F8383809197
:1019B000C50581508093C50518165CF18091C2055C
:1019C000992787FD9095FC01EE0FFF1FEE0FFF1F7B
:1019D000E80FF91FE455FA4F0380F481E02D24301D
:1019E00011F46FEF01C060E08091C105099580910D
:1019F000C205992787FD9095FC01EE0FFF1FEE0FA2
:101A0000FF1FE80FF91FE455FA4F8FEF8083109204
:101A1000C005FF91EF91BF91AF919F918F917F9101
:101A20006F915F914F913F912F910F900FBE0F904B
:101A30001F9018959C01E6E6FEE003C0CF010197D8
:101A4000F1F78091A2058330C8F7F894E091A205E0
:101A5000FF27EE0FFF1FED55FA4F31832083809152
:101A6000A2058F5F8093A2058091A205813049F481
:101A70008091C10080628093C1001092AB050E94EA
:101A8000AD0B789408951F93CF93DF93182FEB013C
:101A9000B9012FEF18C02A2F10C0FD01EE0FFF1F54
:101AA000EE0FFF1FEA0FFB1FE455FA4F80818823DA
:101AB00094F31196A430B10581F786E69EE0019774
:101AC000F1F727FF03C0A0E0B0E0E7CF822F99270E
:101AD00087FD9095FC01EE0FFF1FEE0FFF1FE80F33
:101AE000F91FE455FA4F1083528341837483638353
:101AF000CE010E941A0DDF91CF911F91089510928F
:101B0000A2058FEF8093BB058093B6058093B10546
:101B10008093AC051092C00584E08093AB05E1ECA6
:101B2000F0E088E0808380818061808387E080931B
:101B3000C4001092C50080818068808308950E944F
:101B400063070895E82FFF27EF70F070E752FB4F0F
:101B500080810E949F0D08951F93182F82958F708A
:101B60000E94A20D812F0E94A20D1F9108950E9434
:101B70007B070E9488070895E6E6FEE003C0CF01D8
:101B80000197F1F78091A2058823C9F70895AF92D4
:101B9000BF92CF92DF92FF920F931F93CF93DF9369
:101BA000CDB7DEB721970FB6F894DEBF0FBECDBF1D
:101BB0006C01009729F48FE794E00E940607D8C0D3
:101BC000FC01A180B280F501F284F1E0FF1619F06A
:101BD000A7ECB5E007C0F092C70584E08093C80584
:101BE000A9ECB5E081E0FD0181939F01FD018183B6
:101BF000B9016F5F7F4FF5018381882309F0E1C050
:101C0000D501129682818A3F08F0DBC08281893F2C
:101C100039F481818F3F21F48081882309F0D1C07C
:101C2000F50181812C91482F55273327322F222708
:101C3000422B532B8081882311F04F5F5F4FDB01D4
:101C40004D93852F9927FB0181838D010F5F1F4FD6
:101C50004A30510528F480E2FD0181830F5F1F4F58
:101C6000F1E0FF1629F482E1D8018D938D011CC0AB
:101C7000B2E0FB1609F454C04436510528F480E262
:101C8000F80181938F0104C0F3E0483E5F0728F418
:101C900080E2D8018D938D0103C04051574220F45A
:101CA00080E2F80181938F0182E2D8018D938D014A
:101CB000EBE0F0E0AE0EBF1E9BE009C0808199838F
:101CC0000E947E0BD8018D938D0199819F5FF50154
:101CD0008081882329F00894A11CB11C9B3171F7E5
:101CE00082E2F801808380E202C080839F5F3196A8
:101CF0009C31D8F38F01F1E0FF1619F46AE874E023
:101D000005C083E0F81639F461E974E0C8010E9467
:101D10008D0B8C0116C0FF2019F465E974E0F6CF35
:101D200092E0F91671F469E974E0C8010E948D0B24
:101D3000DC01FC011192CF01FD0111828C010F5FCA
:101D40001F4F87EC95E0102F181BF6018581212F7E
:101D50003327992787FD90958217930764F485EAC6
:101D600094E00E940607812F0E94AC0D0E94B70DDF
:101D70008FEF9FEF32C08EEB94E00E940607812F19
:101D80000E94AC0D00E00BC080E20E949F0DE02F8E
:101D9000FF27E953FA4F80810E94AC0D0F5F0117B6
:101DA00099F70E94B70DF60181819281412F552745
:101DB00067EC75E00E94200FF601138380E090E04D
:101DC0000CC0DB018FEF8D9389EFFB0181838D01C7
:101DD0000F5F1F4F4FEF59EF43CF21960FB6F89487
:101DE000DEBF0FBECDBFDF91CF911F910F91FF904E
:101DF000DF90CF90BF90AF900895FC01A181B28198
:101E0000838119C09C91913418F09B3520F4905E29
:101E1000292F33270EC09136D8F39B3710F49052F8
:101E2000F7CF913CA8F3292F33279B3D10F42F7750
:101E300030702D938150882329F780E090E0089539
:101E4000FB01DC0102C001900D9241505040D8F7D7
:101E50000895FB01DC014150504048F001900D9283
:101E60000020C9F701C01D9241505040E0F708958D
:101E7000AEE0B0E0EEE3FFE00C9415128C0186E0DA
:101E80008C831A8309838FEF9FE79E838D83CE0116
:101E900001960E94540FEF81F885E00FF11F108228
:101EA000E4E02E960C943112ABE0B0E0EAE5FFE0FE
:101EB0000C9409124C013B016A01FC011782168245
:101EC000838181FD03C08FEF9FEFDCC1F40123818B
:101ED000F30123FD859123FF81913F01882309F4BC
:101EE000CEC1853239F423FD859123FF81913F01D5
:101EF000853229F4B40199270E945C11E7CF00E0F4
:101F0000442455243AE00032B0F48B3269F08C322C
:101F100028F4803251F0833271F40BC08D3239F0E5
:101F2000803349F4016028C00260046025C0086065
:101F300023C0006121C007FD2BC0282F20532A3069
:101F400078F406FF06C0539EC0011124522E580E8D
:101F500013C0439EC0011124422E480E00620CC0E3
:101F60008E3221F406FD8BC1006406C08C3611F45C
:101F7000006802C0883661F4F4018381F30183FDB7
:101F8000859183FF81913F01882309F46FC0BBCF06
:101F9000982F8554833018F08052833038F424E031
:101FA00030E0C20ED31E8FE389830FC0933631F029
:101FB000933799F0933509F05BC023C0F601808117
:101FC000898322E030E0C20ED31E7E010894E11C1A
:101FD000F11C51E0A52EB12C12C0F601E080F18079
:101FE00006FD03C06FEF7FEF02C0652D772722E06B
:101FF00030E0C20ED31EC7010E9451115C010F7761
:1020000013C0F601E080F18006FD03C06FEF7FEFA3
:1020100002C0652D772722E030E0C20ED31EC70133
:102020000E9446115C01006803FF07C01BC0B40199
:1020300080E290E00E945C114A94842D9927A816B2
:10204000B906A8F30FC0F70107FD859107FF81913D
:102050007F01B40199270E945C1141104A940894B1
:10206000A108B108A114B10471F706C190E03EC007
:10207000943611F0993691F507FF0AC0F601608198
:1020800071818281938124E030E0C20ED31E0DC0A5
:10209000F601808191819C01B901882777FD8095A7
:1020A000982F42E050E0C40ED51E4FE6B42EB02269
:1020B00097FF09C090958095709561957F4F8F4FE0
:1020C0009F4F50E8B52A8E010F5F1F4F2AE030E086
:1020D000A8010E948911A82EA01A4DC0953731F48D
:1020E0003FEEF32EF0222AE030E023C029EFF22E5B
:1020F000F0229F3661F0903720F4983509F0BFC088
:1021000012C0903739F0983709F0B9C005C028E0FF
:1021100030E00FC080E1F82AF4FE02C094E0F92A12
:1021200020E130E006C0F4FE02C0E6E0FE2A20E135
:1021300032E0F7FE0AC0F6016081718182819381ED
:1021400044E050E0C40ED51E0BC0F60180819181A1
:10215000AC01BA0188279927E2E0F0E0CE0EDF1E3D
:102160008E010F5F1F4FA8010E948911A82EA01A8F
:102170008FE7B82EBF20B6FE10C0FEEFBF22A51419
:1021800060F42B2D332724FF1AC022FF02C0052D37
:1021900009C02FEEB222052D01C00A2D2B2D3327A9
:1021A00024FF0EC0FE01EA0DF11D8081803319F479
:1021B00039EEB32209C00F5F22FF06C004C0052D0F
:1021C000822F867809F00F5FEB2CFF24E3FC14C00C
:1021D000E0FE0FC0041510F05A2C0BC0542C501AFE
:1021E0005A0C042D06C0B40180E290E00E945C11FC
:1021F0000F5F0415C0F304C0041510F4401A01C0A9
:102200004424E4FE10C0B40180E390E00E945C111D
:10221000E2FE1EC0E1FE03C088E590E002C088E750
:1022200090E0B4010CC08E2D867891F0E1FE02C0E2
:102230008BE201C080E2B7FC8DE2B40199270E94D5
:102240005C1106C0B40180E390E00E945C115A94D6
:10225000A514C0F3AA94FE01EA0DF11D8181B40119
:1022600099270E945C11AA2039F0F4CFB40180E2D2
:1022700090E00E945C114A944420C1F727CEF401FB
:1022800086819781E0E12B960C942512FC01059044
:10229000615070400110D8F7809590958E0F9F1F68
:1022A0000895FC016150704001900110D8F78095AD
:1022B00090958E0F9F1F08950F931F93CF93DF93D9
:1022C0008C01EB018B81992781FF1BC082FF0DC020
:1022D0002E813F818C819D812817390764F4E88124
:1022E000F9810193F983E88306C0E885F985802F99
:1022F0000995892B31F48E819F8101969F838E836E
:1023000002C00FEF1FEFC801DF91CF911F910F9116
:102310000895FA01AA27283051F1203181F1E8947B
:102320006F936E7F6E5F7F4F8F4F9F4FAF4FB1E0C8
:102330003ED0B4E03CD0670F781F891F9A1FA11DC3
:10234000680F791F8A1F911DA11D6A0F711D811DC4
:10235000911DA11D20D009F468943F912AE0269F89
:1023600011243019305D3193DEF6CF010895462FE8
:102370004770405D4193B3E00FD0C9F7F6CF462FC9
:102380004F70405D4A3318F0495D31FD4052419332
:1023900002D0A9F7EACFB4E0A695979587957795EF
:1023A0006795BA95C9F700976105710508959B0176
:1023B000AC010A2E06945795479537952795BA95FF
:1023C000C9F7620F731F841F951FA01D0895991BE5
:1023D00079E004C0991F961708F0961B881F7A951C
:1023E000C9F78095089585FD0FC0806291110CC0DA
:1023F00081568A51E0F708959111089581568A51C6
:1024000008F48052855808959927882708952F92B7
:102410003F924F925F926F927F928F929F92AF9274
:10242000BF92CF92DF92EF92FF920F931F93CF93C1
:10243000DF93CDB7DEB7CA1BDB0B0FB6F894DEBF58
:102440000FBECDBF09942A88398848885F846E847E
:102450007D848C849B84AA84B984C884DF80EE80C8
:10246000FD800C811B81AA81B981CE0FD11D0FB6D1
:0E247000F894DEBF0FBECDBFED010895FFCF83
:10247E0041544E5F4952513A006F70656E2073742D
:10248E0061747573206368616E6E656C202D3E20DD
:10249E0025640A00494545452053746174757320BF
:1024AE00726566696C6C00534E483A207061636BBE
:1024BE0065742074797065206973206E6F74204680
:1024CE00535F524541442C206275743A2025640AAC
:1024DE00002A0200000000000000000000000000C2
:1024EE0000000000000000000000000000000000DE
:1024FE0000000000000000000000000000000000CE
:10250E000000009103000000000000000000000029
:10251E0000000000000000000000000000000000AD
:10252E00000000000000000000000000000000009D
:10253E00000000000000000000000000000000008D
:10254E00000000000000000000000000000000007D
:10255E00000000000000000000000000000000006D
:10256E00000000000000000000000000000000005D
:10257E00000000000000000000000000000000004D
:10258E0000000000610130313233343536373839CE
:10259E006162636465662323232058532D313534DD
:1025AE00312076302E30322E30312023232300205E
:1025BE0025752042797465732066726565002C203E
:1025CE002564206B487A0080204F4B8100532053A6
:1025DE00435241544348454482080994959697982E
:1025EE009B0103999C02039A022050524F5445437B
:1025FE0054204F4E9D054944204D49534D4154435F
:10260E00489E9FA0A1A253594E54415803A7BE0005
:10261E0004464F554E44B2070450524553454E544E
:10262E00B34F564552464C4F5720494E2007B400E3
:10263E000B4C41524745BC0220002006BD0004064B
:10264E00BF0020455849535453C00020545950459B
:10265E00204D49534D41544348C10C424C4F434BBE
:10266E00C2C30A20545241434B204F52205345437C
:10267E00544F52C60C4348414E4E454CC7444952E6
:10268E0003C80546554C4CCA445249564504015997
:10269E00CD0920080ACE4255464645520B534D41B0
:1026AE004C4CCF494D414745200020494E56414C98
:1026BE004944E3434C4F434B20554E535441424CF7
:1026CE0045FF8046494C4581524541448257524907
:1026DE00544583204552524F5284204E4F542085EC
:1026EE004449534B20864F50454E875245434F52D7
:1026FE004488504152544954494F4E208953454CB9
:10270E0045435445448A494C4C4547414C8B2054D3
:10271E004F4F208C4E4F20FF434F4D4D414E443A6C
:10272E0020004F50454E2046494C453A20464F52C8
:10273E00204348414E3A002057495448204E414DBF
:10274E00453A20004E4F20434F52524543542043AA
:10275E004D443A2000494C4C4547414C2044524987
:10276E0056453A2000554E4B4F574E2046494C4544
:10277E0020545950453A2000554E4B4F574E204647
:10278E00494C45204143434553532054595045200D
:10279E0000575249544520544F2044495245435402
:1027AE004F525921004E4F204F50454E20534C4F03
:1027BE005420464F52204F50454E21004E414D451C
:1027CE0020434F4E56455253494F4E204558434590
:1027DE00454453204255464645522100453D003062
:1027EE003132333435363738396162636465665059
:1027FE00204953204E554C4C2100786432303331F1
:10280E00006469720070726700626C6F636B732094
:10281E006672656500434F4E56455253494F4E20E2
:10282E004E4F5420504F535349424C452100434F75
:10283E004E56455254454420544F3A204C454E3D39
:10284E00001A0D430DC70DFD0E30313233343536BF
:0A285E003738396162636465660073
:00000001FF
