:100000000C9459020C9476020C9476020C947602AD
:100010000C9476020C9476020C9476020C941403E1
:100020000C9476020C9476020C9476020C94760270
:100030000C9476020C94C2020C9476020C94760214
:100040000C9476020C9476020C9476020C94760250
:100050000C9478020C949E020C9476020C94760216
:100060000C9476020C9476020C9476020C94760230
:100070000C9476020C9476020C94760252656365B9
:100080006976656420646972656374206572726F55
:1000900072206E756D626572206F6E206F70656E76
:1000A0003A2025640A0046494C45204E4F542046CC
:1000B0004F554E440A00446964206E6F742066698F
:1000C0006E64206368616E6E656C210A005365740E
:1000D00074696E672066696C65206E6F74206F703E
:1000E000656E206F6E2073656361646472202564A1
:1000F0000A002323232058532D313534312F5844FF
:10010000323033312076302E3120232323005853D0
:100110002D313534312F5844323033312056302E82
:10012000310080204F4B81025320534352415443AE
:100130004845449A0350524F5445435420019C0370
:10014000019EA2A8A9A60401A702200507BD0220BE
:100150000506BF0220455849535453C00220545944
:100160005045204D49534D41544348C20805454D23
:100170005459C3095045524D495353494F4EC447F2
:10018000454E4552414C204641554C54C6094348C2
:10019000414E4E454CC70801C84449534B20465573
:1001A0004C4CCA44524956452005524541445900D9
:1001B0005365742073746174757320746F3A2025CD
:1001C000730A00814552524F528246494C4583572B
:1001D00052495445208453594E54415820854E4F1E
:1001E0005420864F50454E87464F554E44884449CB
:1001F0005220894E4F2000494E495449414C495A9A
:100200004500494C4C4547414C20434F4D4D414ED4
:10021000442100545950453D004143434553533D0B
:10022000004E414D453D25730A0044524956453D17
:1002300025630A00434D443D25730A00434F4D4D4D
:10024000414E443A2025730A00453D0046494C453D
:10025000204F50454E204552524F52004E414D4581
:1002600020434F4E56455253494F4E204558434523
:100270004544532042554646455221004E4F204F9B
:1002800050454E20534C4F5420464F52204F50451E
:100290004E2100494C4C4547414C2044524956455B
:1002A0003A2000575249544520544F204449524562
:1002B00043544F52592100554E4B4F574E204649FB
:1002C0004C45204143434553532054595045200049
:1002D000554E4B4F574E2046494C4520545950459A
:1002E0003A20004E4F20434F525245435420434D35
:1002F000443A2025730A004F50454E2046494C454C
:100300003A20464F52204348414E3A202564205718
:10031000495448204E414D453A2025730A00434F29
:100320004E56455253494F4E204E4F5420504F5336
:100330005349424C45210050204953204E554C4CC6
:10034000210021212121207375626D697420776954
:100350007468207061636B65742D3E6368616E3DE7
:1003600025640A0021212121207375626D697420A2
:1003700077697468206368616E6E656C6E6F3D2589
:10038000640A0052656769737465722070726F76D3
:100390006964657220257020666F72202725732797
:1003A0000A006E6F7420666F756E642C207265741F
:1003B00075726E696E672064656661756C740A009B
:1003C000666F756E6420257020696E20736C6F7483
:1003D000202564202864656661756C743D2570294C
:1003E0000A0070726F76696465725F6C6F6F6B750F
:1003F0007020666F722064726976652025640A0039
:1004000052656769737465722070726F762025700B
:1004100020666F7220647269766520256420776992
:100420007468206461746120257020696E20736C8B
:100430006F742025640A0044656661756C742069D8
:1004400073206E6F7420726567697374657265647A
:100450002C20666F7277617264696E6720746F20FA
:100460007365727665720A00447269766520256448
:10047000206E6F7420757365642C2063616E6E6FDF
:100480007420646F2072656C617469766520617395
:100490007369676E210A0041535349474E3A2064FD
:1004A0007269766520256420746F20272573270ADA
:1004B000000011241FBECFEFD0E1DEBFCDBF11E0A1
:1004C000A0E0B1E0E2E8F7E302C005900D92AC399C
:1004D000B107D9F719E0ACE9B1E001C01D92A53927
:1004E000B107E1F70E9481070C94C01B0C94000037
:1004F0002F922FB60F930091C60078941F93CF933D
:10050000DF9310911009C0E9D8E0C10F08F4D3952A
:100510000883DF91CF9113951F77009194091017ED
:1005200019F01093100929F4009193090395009391
:1005300093091F910F912FBE2F9018952F922FB6D0
:100540000F93CF93DF9300911209C09111090C17FB
:1005500071F0C3E1D9E0C00F08F4D395C881C0930E
:10056000C60003950F7700931209789405C0009197
:10057000C1000F7D0093C100DF91CF910F912FBE7D
:100580002F9018952F922FB678940F931F93CF9397
:10059000DF930091B803003011F40C940D03009127
:1005A000BB03003029F50091BA030030C9F4009173
:1005B000B903C5E9D1E0C00F08F4D3951991103003
:1005C00021F40091B8030C94D9021093BA03188156
:1005D0001093BC03039503950093B9030C94F302A5
:1005E0000A950093BA030091BC030093BD0308E091
:1005F0000A950093BB030091BD0307950093BD03CB
:1006000038F4009128000160009328000C940D0339
:10061000009128000E7F00932800DF91CF911F9159
:100620000F912FBE2F9018952F922FB60F930091F8
:100630002900087051F4009128000F7C00932800D5
:10064000009127000063009327000F912FBE2F9089
:100650001895FC01F8944B9904C08091BE0388233F
:1006600011F03D98459A789481E08093C0034B9BAC
:1006700028C03699FCCF45983D9A1092C00337990F
:1006800003C022E030E002C020E030E080B180957D
:10069000992791838083F8944B9904C08091BE037D
:1006A000882311F03C98449A789481E08093BF03AA
:1006B0004B9B07C0369BFCCF44983C9A1092BF03DB
:1006C00002C021E030E0C90108950E943E188EE981
:1006D00091E00E94F0040895EF92FF920F931F9310
:1006E000CF93DF93CDB7DEB722970FB6F894DEBF76
:1006F0000FBECDBF8E010F5F1F4F0F2EFEE9EF2EF5
:10070000F1E0FF2EF02D0AC0482F42706981C70129
:100710000E943F0790939D0180939C01C8010E9415
:10072000290380FFF1CF0197F1F0F8944B9904C0B1
:100730008091BE03882311F03D98459A789481E01A
:100740008093C003F8944B9904C08091BE03882322
:1007500011F03C98449A789481E08093BF033E98CE
:10076000469A3F98479A22960FB6F894DEBF0FBE7E
:10077000CDBFDF91CF911F910F91FF90EF90089522
:10078000EF92FF920F931F93CF93DF93CDB7DEB716
:1007900021970FB6F894DEBF0FBECDBFF8944B99EA
:1007A00004C08091BE03882311F03D98459A789447
:1007B00081E08093C003F8944B9904C08091BE03FC
:1007C000882311F03C98449A789481E08093BF0389
:1007D0003E98469A3F98479A0EE911E04B9B69C0B4
:1007E000359BFCCF41E0BE016F5F7F4FC8010E9487
:1007F0001D0590939D0180939C0186FD03C0EE240E
:10080000FF2406C047983F9AEE24FF246894E1F83D
:10081000898181B9809582B946983E9A4B9B49C09F
:10082000349B0AC0359B08C03F98479A3E98469A29
:10083000F8944B9947C042C03599F0CF4B9B39C0D3
:10084000349BFCCF3E98469A3F98479A40E0BE01C1
:100850006F5F7F4FC8010E941D0590939D0180939B
:100860009C01882339F44B9B24C03499FCCFEF289A
:1008700009F4B4CFF8944B9904C08091BE03882347
:1008800011F03D98459A789481E08093C003F894E4
:100890004B9904C08091BE03882311F03C98449A80
:1008A000789481E08093BF033E98469A3F98479A98
:1008B00020C03E98469A3F98479A1BC08091BE033D
:1008C000882311F03D98459A789481E08093C00385
:1008D000F8944B9904C08091BE03882311F03C9892
:1008E000449A789481E08093BF033E98469A3F985B
:1008F000479A21960FB6F894DEBF0FBECDBFDF91A9
:10090000CF911F910F91FF90EF9008951F934B99F6
:1009100065C03E98469A3F98479A10929D01109262
:100920009C0111E044983C9A1092BF038091C0034F
:10093000882321F445983D9A1092C00344983C9A2C
:100940001092BF031093BE03F89489B13D98459A65
:1009500078941093C0034B991BC03699FCCF4598EF
:100960003D9A1092C00360B1F89489B13C98449AC2
:1009700078941093BF03609577278EE991E00E94E9
:10098000C60590939D0180939C01369BFECFCACFF4
:1009900080919C0190919D019C012070307F80E2AC
:1009A0002030380749F445983D9A1092C0031092C0
:1009B000BE030E946C0310C01092BE03F8944B9BC0
:1009C00002C03D98459A789481E08093C0032050FE
:1009D000304411F40E94C0030E943E181F910895F4
:1009E000FC01809151028183805F8093510288E0F5
:1009F00080831186138212820895CF93DF93E09152
:100A00005202F09153028783813041F461157105E0
:100A100021F0EB018981808701C0108681E0868307
:100A2000DF91CF9108951092510220E040E069E4F7
:100A300082E292E00E9435080895CF92DF92EF9211
:100A4000FF920F931F93CF93DF937C018B01C42EF2
:100A5000FC0185810F2EFFE0DF2EF02DD822C28110
:100A6000D381FFE0DF1671F580915002A2E2B2E07F
:100A7000FD01E80FF11D8081FB0180839091500200
:100A8000A90FB11DFD018181882319F400E410E054
:100A900002C000E010E0CC2009F068C0892F8F5F11
:100AA00080935002A2E2B2E0FD01E80FF11D8081C7
:100AB000882309F05BC020E040E060E0CD010E94A7
:100AC000350854C02097B9F499279F938F938DECE4
:100AD00090E09F938F930E94220D20E040E06DE311
:100AE00082E292E00E94350803E810E00F900F9038
:100AF0000F900F903BC0CE010E94B410CE010E9417
:100B00009510F8018083898127E0829FC00111241C
:100B10000B96FE01E80FF91F80818C3F61F4248160
:100B200033272F5F3F4F83819927281739071CF000
:100B300000E410E002C000E010E0CC20B9F4CE01E7
:100B40000E94C010882391F4CE010E946D1088236A
:100B500021F0CE010E946D1109C0DD2039F4F701AA
:100B600081810E94F411F70113821282F7018481BE
:100B70009927982F8827800F911FDF91CF911F9180
:100B80000F91FF90EF90DF90CF900895DF92EF925A
:100B9000FF920F931F93CF93DF93CDB7DEB72197CB
:100BA0000FB6F894DEBF0FBECDBF7C01D62E8FE30B
:100BB000681709F0AAC0F7018581282F3327C901DA
:100BC000807F9070803F910531F0C9018F709070E7
:100BD0000F9709F026C1F7018481208199278F7032
:100BE000907033278217930709F031C116828581EF
:100BF000182F1F70F0925302E092520216828185E4
:100C0000E80FF11D12868F5FF70181871F3061F4B5
:100C1000B701675F7F4F81812DEF34E042E252E000
:100C2000815F0E94130910C0B701675F7F4FF70112
:100C3000818100E0113009F401E02DEF34E042E25F
:100C400052E0810F0E94880B882344F0E091520209
:100C5000F091530286818823D1F022C0992787FD25
:100C600090959F938F938CE790E09F938F930E9432
:100C7000220D20E040E06AE482E292E00E94350822
:100C800022E030E00F900F900F900F9038C00E943C
:100C9000FF12E0915202F091530286818823B9F34A
:100CA0008781813041F44085678120E082E292E0D3
:100CB0000E94350807C0678120E040E082E292E0B0
:100CC0000E9435081F3029F4F7018181815F0E945D
:100CD000F411E0915202F09153028781882341F090
:100CE000F7018181810F0E94F41120E030E007C0FC
:100CF000F7018181810F0E94B81020E030E0E0917F
:100D00005202F091530211868EC0262F332789019B
:100D1000007F107000361105F9F00136110544F41A
:100D20000032110571F00034110509F074C009C0DA
:100D3000003E110509F448C0003F110509F06BC0E1
:100D40005FC0F70180812F7030709927281739070D
:100D500009F061C0D4825FC0F701848120819927A6
:100D60008F70907033278217930709F054C0658302
:100D7000962F9F709F3081F08181890F0E945F0FB5
:100D8000F70193838283892B39F486EB90E00E94EC
:100D9000760D20E430E002C020E030E0F7018481ED
:100DA000807F8034C1F5232B41F441E0BE016F5FA9
:100DB0007F4FC7010E941D052EC086EA90E00E9469
:100DC000760DF701148227C0F701848120819927CD
:100DD0008F709070332782179307E9F46583962FFD
:100DE0009F709F3039F48181682F615F77270E945F
:100DF000D30F11C0F7018181890F0E94F4110BC03C
:100E0000F7018481208199278F7090703327821792
:100E1000930709F46583FFE5DF1619F0003E11051D
:100E200031F420E030E0F7011482158213C0F7019D
:100E300020818481332799278F7090702817390774
:100E400019F020E830E006C020E030E003C020E0E8
:100E500030E0E9CFF70184819927982F8827822BEA
:100E6000932B21960FB6F894DEBF0FBECDBFDF9156
:100E7000CF911F910F91FF90EF90DF900895CF9346
:100E8000DF93EC018D81282F3327C9018F7090707B
:100E90000F9731F0C901807F9070803F910561F418
:100EA00089858837A8F4FE01E80FF11D62878F5FFE
:100EB000898720E030E00EC055278A819B810E94FF
:100EC000F5109B838A83892B19F423E830E002C054
:100ED00020E030E08C819927982F8827820F931F7C
:100EE000DF91CF9108958DB79EB7855999400895A8
:100EF0000E94AF0C82EF90E00E94760D0E94AF0C32
:100F000008950F931F930E9427180E9403180E94B0
:100F1000CD150E94640C0E94EB170E9466128C0192
:100F2000DC01ED91FC9180E090E009951093550271
:100F3000009354029093570280935602BC01C8015B
:100F40000E94C41584E592E00E945F0C0E94070A8B
:100F50000E94AF0F0E9413050E945A1888E00E9459
:100F6000650378940E9479120E9478070E947307A3
:100F70009F938F9380E091E09F938F930E944C0DFD
:100F800089E999E3A0E0B0E0BF93AF939F938F937B
:100F90008FE091E09F938F930E944C0D0E94AF0CC5
:100FA0000E94AF0C8DB79EB70A960FB6F8949EBFFD
:100FB0000FBE8DBF0E94FF120E948604FBCFCF930D
:100FC000DF93DC01EB01FB01C895802D882339F10B
:100FD0004068481741F02196FE01C895802D88236E
:100FE000F1F04817C1F7FE01C895402D442334F4B1
:100FF0002196FE01C895402D4423D4F3403238F4A5
:1010000063EC71E0CD010E94DF07DC0101C04D936C
:101010002196FE01C895802D482F18167CF3CD012E
:10102000DF91CF910895CF93DF93DC01262F6436B3
:1010300050F0862F64E60E94691B805D8D93822F9D
:101040000E94691B292F822F6AE00E94691B805D24
:10105000FD018193822F0E94691B905DED019983B0
:10106000CF010196DF91CF910895EF92FF920F93F8
:101070001F93CF93DF93062FF42EE22EEC011EA6D2
:101080000E941308FC018CE28193DF01093491F482
:10109000EEE0F1E0C895802D882379F19F012F5F64
:1010A0003F4F8D93F9012F5F3F4FC895802D8823C7
:1010B000C1F723C0402F62E271E0CF010E94DF0739
:1010C000FC011CE211936F2DCF010E941308FC015B
:1010D00011936E2DCF010E941308FC018DE08083D7
:1010E0001182002331F0013021F084E00E940A18BF
:1010F00014C080E00E940A1810C06F2DCD010E941C
:101100001308FC018CE281936E2DCF010E9413081D
:10111000FC018DE080831182ECCFDF93CF9380EBD5
:1011200091E09F938F930E94220D0F900F900F904C
:101130000F90DF91CF911F910F91FF90EF90089545
:10114000FC0180818934B1F08A3438F4813461F053
:101150008334F9F0843249F50AC0823571F0833561
:10116000A9F08D3411F51BC089E090E0089582E06C
:1011700090E0089583E090E0089581818D3419F422
:1011800088E090E0089584E090E0089585E090E0A4
:1011900008958181843431F0883439F403C087E0C4
:1011A00090E0089586E090E0089581E090E0089551
:1011B000843051F1853048F4813001F18130C0F044
:1011C0008230C9F0833089F41CC0873031F1883017
:1011D00028F48530E1F0863041F41CC0883001F1FC
:1011E000893019F488E191E008958FE191E0089544
:1011F00080E291E0089582E291E0089584E291E036
:10120000089586E291E0089581E391E0089588E3EE
:1012100091E0089580E491E0089583E491E00895D9
:1012200089E491E00895DF92EF92FF920F931F936C
:10123000CF93DF93D82E8B01EA017901CB01019680
:101240009F938F938CE392E09F938F930E94220D44
:1012500041E061EC73E0C8010E94CF0D8091C203B0
:101260000F900F900F900F90882319F480E291E077
:1012700002C00E94D8089F938F9384E392E09F93CB
:101280008F930E94220D8091C1030F900F900F90B9
:101290000F908F3F19F48DE290E002C09927C0961D
:1012A0009F938F938AE292E09F938F930E94220DE7
:1012B0008091C5039091C6039F938F9381E292E042
:1012C0009F938F930E94220D89E192E00E94760DF8
:1012D0000091C403802F99270E94801B2DB73EB731
:1012E000285F3F4F0FB6F8943EBF0FBE2DBF892B2E
:1012F00011F0802F01C08DE20E947E0C0E94AF0C85
:101300000E947B0C83E192E00E94760D0091C30362
:10131000802F99270E94801B892B11F0802F01C0FC
:101320008DE20E947E0C0E94AF0C0E947B0C90917B
:10133000C203892F8450853068F5963081F097304C
:1013400028F4943041F0953071F407C0973049F09B
:10135000983049F415C067E014C068E012C06EE030
:1013600010C06DE00EC082E092E00E94760D20E099
:1013700040E06EE1CE010E9435088FEF9FEF3FC045
:101380006CE09701AE018D2D0E94690A992787FDB7
:10139000909535C0993019F58091C1038F3F19F4AC
:1013A00086EB9FEF2CC06091C5037091C6036F5F01
:1013B0007F4F0E947816882354F49701AE016FE0A6
:1013C0008D2D0E94690A992787FD909518C060E0CD
:1013D00070E080E0F701099580E090E010C0933064
:1013E00019F08FEF9FEF0BC087EF91E00E94760D11
:1013F00060E070E080E0F701099580E090E0DF9127
:10140000CF911F910F91FF90EF90DF9008958FEF94
:101410008093580280936B020895CF93DF93982FA7
:1014200080915802891719F4C0E0D0E007C080917C
:101430006B02891709F04AC0C1E0D0E06623C4F40A
:10144000FE01EE0FFF1FCF01880F991F880F991F14
:10145000880F991FE80FF91FEC0FFD1FE85AFD4F89
:101460000188F289E02D60E070E08AE409951CC0F3
:1014700028E532E0BE01660F771FCB01880F991F68
:10148000880F991F880F991F680F791F6C0F7D1F98
:10149000FB01E20FF31F41895289615F7F4F620FA9
:1014A000731F8785FA010995FE01EE0FFF1FCF011B
:1014B000880F991F880F991F880F991FE80FF91F30
:1014C000EC0FFD1FE85AFD4F8FEF8083DF91CF9126
:1014D00008952F923F924F925F927F928F929F92A8
:1014E000AF92BF92CF92DF92EF92FF920F931F9332
:1014F000CF93DF93082F162F7A0169018091C103E2
:101500008F3F39F41092C103E091C503F091C603F7
:1015100010828091C1030E942216EC01892BB1F444
:1015200083E992E00E94760D8091C103805D0E9464
:101530007E0C0E94AF0C0E947B0C20E040E06AE42D
:10154000C7010E9435088FEF90E0D0C08880998055
:101550008091580288230CF4C2C080916B028823CA
:101560002CF488E592E0DC01539611C08CE792E000
:101570000E94760D0E94AF0C0E947B0C20E040E0A0
:1015800066E4C7010E9435088FEF90E0AFC02D01DF
:101590002091C7035D010894A11CB11C8091C50373
:1015A0009091C603F501928381832583702EFD01FE
:1015B0001183F501068323831482F4012285338588
:1015C00021153105B1F0C501F901099588238CF485
:1015D0008CE592E00E94760D0E94AF0C0E947B0C7D
:1015E00020E040E062E2C7010E9435088FEF90E002
:1015F0007DC0123009F476C0153009F473C022247E
:101600003324163021F4F4010085118502C000E076
:1016100010E0872D0E945F0F892BA1F08CE492E0EF
:101620000E94760D0E94AF0C0E947B0C20E040E0EF
:1016300066E4C7010E943508872D0E94F4118FEFE0
:1016400090E054C09801AE01622D872D0E94200FBA
:10165000382E882324F589E492E00E94760D832DAC
:1016600082958F700FE411E0F801E80FF11D808181
:101670000E947E0C832D8F70080F111DF801808150
:101680000E947E0C0E94AF0C0E947B0C20E040E088
:1016900066E4C7010E9435088FEF90E027C0F20191
:1016A000D28AC18A70829201285F3F4FC2010F9691
:1016B000F9019283818382E085838DEF8683148292
:1016C0001382F401A681B7810DE01AE0A501672D10
:1016D0008A819B81FD01099580E090E007C0A8E523
:1016E000B2E055CF22243324239491CFDF91CF91C0
:1016F0001F910F91FF90EF90DF90CF90BF90AF9030
:101700009F908F907F905F904F903F902F90089583
:10171000CF92DF92EF92FF920F931F93CF93DF93BD
:10172000182F7B01EA016901CB0101969F938F93EA
:10173000812F99279F938F9387EF92E09F938F93A9
:101740000E94220D40E061EC73E0C7010E94CF0DC2
:101750008091C2032DB73EB72A5F3F4F0FB6F89472
:101760003EBF0FBE2DBF882391F0823081F00E94D2
:10177000D8089F938F9383EE92E09F938F930E945C
:10178000220D1092C2030F900F900F900F90809136
:10179000C3038823C9F08335B9F08035A9F080ED03
:1017A00092E00E94760D8091C3030E947E0C0E94FD
:1017B000AF0C0E947B0C20E040E060E4CE010E9470
:1017C00035088FEF9FEF50C08091C4038823D9F074
:1017D0008735C9F08235B9F08134A9F087EB92E002
:1017E0000E94760D8091C4030E947E0C0E94AF0C73
:1017F0000E947B0C20E040E06EE1CE010E943508A3
:101800008FEF9FEF31C09091C2039230A9F48823EB
:10181000A9F0823599F083EA92E00E94760D0E9449
:10182000AF0C0E947B0C20E040E06FE3CE010E94F1
:1018300035088FEF9FEF18C08735A1F0002311F016
:1018400062E001C061E0813409F465E0923009F49E
:1018500066E09601AE01812F0E94690A992787FDF3
:10186000909502C062E0F2CFDF91CF911F910F916E
:10187000FF90EF90DF90CF900895CF93DF939091FA
:10188000FF02109202038EEF8093080390930503EA
:1018900010920603A0910003B0910103ED91FC9119
:1018A00011970480F581E02D62E073E0ED018A81FB
:1018B0009B8109951092FF02DF91CF91089590933B
:1018C0000103809300030895109201031092000316
:1018D0001092FF028EE792E090930403809303033B
:1018E00081E8809307038DEF80930803109206032D
:1018F0001092050308950E94661408951F93CF93D4
:10190000DF93182F9091060380910503981769F0D3
:10191000C6E6DEE00E94FF12CE010197F1F790913A
:101920000503809106039817A9F78091FF0281387B
:1019300050F4EEE7F2E0E80FF11D10838F5F809323
:10194000FF02813840F08091000390910103892BC0
:1019500011F00E943D0CDF91CF911F9108958DE011
:101960000E947E0C8AE00E947E0C8091FF028823F8
:1019700041F08091000390910103892B11F00E94A6
:101980003D0C0895FF920F931F93CF93DF938C012B
:101990009091050380910603981769F0C6E6DEE092
:1019A0000E94FF12CE010197F1F7909105038091FB
:1019B00006039817A9F7F80101900020E9F731977D
:1019C000FE2EF01A8091FF028F0D912D911D81380E
:1019D000910544F08091000390910103892B61F1FE
:1019E0000E943D0C9091050380910603981769F0C1
:1019F000C6E6DEE00E94FF12CE010197F1F790915A
:101A00000503809106039817A9F780E88F1520F445
:101A10000F2EF1E8FF2EF02D2091FF024F2D5527BC
:101A2000B8018EE792E0820F911D0E948318809189
:101A3000FF028F0D8093FF02DF91CF911F910F91D5
:101A4000FF9008950F931F93CF93DF93CDB7DEB729
:101A5000C358D0400FB6F894DEBF0FBECDBFFE0115
:101A6000E657FF4F61917191FA83E9838E010D5F13
:101A70001F4FAF01C8010E94BA18C8010E94C20CD2
:101A8000CD57DF4F0FB6F894DEBF0FBECDBFDF914D
:101A9000CF911F910F9108950F931F93CF93DF93D1
:101AA000CDB7DEB7C358D0400FB6F894DEBF0FBE37
:101AB000CDBFFE01E657FF4F61917191FA83E98333
:101AC0008E010D5F1F4FAF01C8010E949E18C80113
:101AD0000E94C20CCD57DF4F0FB6F894DEBF0FBE89
:101AE000CDBFDF91CF911F910F910895EF92FF929B
:101AF0001F93CF93DF937C019091050380910603A0
:101B0000981769F0C6E6DEE00E94FF12CE01019749
:101B1000F1F790910503809106039817A9F7C70183
:101B20000E947A18182F8091FF02810F912D911D2C
:101B30008138910544F08091000390910103892B35
:101B400041F10E943D0C9091050380910603981786
:101B500069F0C6E6DEE00E94FF12CE010197F1F7C0
:101B600090910503809106039817A9F7113808F0A2
:101B700011E8412F55272091FF02B7018EE792E02F
:101B8000820F911D0E9471188091FF02810F809336
:101B9000FF02DF91CF911F91FF90EF9008956F9218
:101BA0007F929F92AF92BF92CF92DF92EF92FF927D
:101BB0000F931F93CF93DF93CDB7DEB721970FB667
:101BC000F894DEBF0FBECDBFFC013B01C42E5C010B
:101BD0000894A11CB11C90818FEFFB0180831182BE
:101BE000128282E58383442331F0158214821682A7
:101BF000F4E0F98306C0FB01B582A4829683F6E087
:101C0000F983992309F497C0D92EDA9475010894C1
:101C1000E11CF11C850199248981833009F479C084
:101C2000843038F4813009F455C0823008F062C045
:101C30003BC099819530B9F0953020F0963009F08D
:101C400070C028C0F3018181882369F4F801808184
:101C500099270E94771B892B31F0C8010E94A008A8
:101C6000F30181831682F8012081822F9927C09782
:101C70000A9720F4822F8053F3018083F80180813A
:101C80008A3309F04EC0F301F582E482D682F1E096
:101C9000F98347C0F8018081843231F482E0F30196
:101CA00081831682F5E0F983F8012081822F99273C
:101CB000C0970A9728F40F2EF0ED9F2EF02D920E6C
:101CC0002A3341F4F3019082F582E482D682F1E076
:101CD000F98327C0CC2029F5F80180818C3209F5E1
:101CE000F3018481F02FF81B8F2FF3018683F2E03C
:101CF000F98317C0F3018281882321F4F8018081E0
:101D0000F3018283F80180818C3259F4F3E0F98386
:101D100008C0F3018381882321F4F8018081F30155
:101D20008383DA940894E11CF11CFFEFDF1619F0AD
:101D30000F5F1F4F71CFF30184819581A816B906FB
:101D400061F446815527B501C50101960E948C18A2
:101D5000F30186818F5F868309C0F30186818F5FDF
:101D6000868384819581019795838483F301A4817F
:101D7000B58180818C9321960FB6F894DEBF0FBE9B
:101D8000CDBFDF91CF911F910F91FF90EF90DF902A
:101D9000CF90BF90AF909F907F906F900895CF921B
:101DA000DF92EF92FF920F931F93CF93DF93EC019B
:101DB00087E0689FB0011124655F7F4FDE01A60FA9
:101DC000B71F98818FEF8C93FD0196831382148245
:101DD000EB80FC808F81882399F481E08F83F70169
:101DE00080819181FC01C680D7800FE71FE09D01B3
:101DF000AD016881E7018A819B81F601099517C0D1
:101E00008330A9F48A81882391F484E08F83F701D9
:101E100080819181FC01C680D7800FE71FE09D0182
:101E2000AD016881E7018A819B81F6010995DF9107
:101E3000CF911F910F91FF90EF90DF90CF90089579
:101E40000F931F93182F062FB901A7E0B0E0E7EF1B
:101E5000F7E028EC33E0808188232CF589E990E0D5
:101E6000FD01E89FD001E99FB00DF89FB00D11244E
:101E7000FD01E20FF31F1083118202835483438319
:101E800076836583FD013B96E20FF31F1482138274
:101E900016835296A20FB31FFD011482138216837C
:101EA00080E090E009C01197E959F0408FEFAF3F13
:101EB000B80789F68FEF9FEF1F910F910895282F94
:101EC00097E0E7EFF7E08081821789F4892F99275F
:101ED00087FD909529E930E0AC01429FC001439F06
:101EE000900D529F900D112488539C4F089591504E
:101EF000E959F0409F3F39F780E090E008951F9343
:101F0000162F0E945F0FFC01892B59F010878781E3
:101F1000813019F482E0878304C0843011F485E0B5
:101F200087831F910895DC018FEF8C93FD01178249
:101F300011863B96CD0149969283818390E49583E7
:101F40008DEF868314821382FD017296A75ABF4FCC
:101F5000B283A18395838683148213820895CF93DD
:101F6000DF93C7EFD7E061E0CE010E94930FC9591C
:101F7000D04083E0CF32D807B1F7DF91CF910895F9
:101F80001F93162F0E945F0FFC01892B51F01287BF
:101F90008185823019F481E0818703C0813009F4A2
:101FA00011861F9108950F931F93062F681760F0F5
:101FB000182F812F0E945F0F009719F061E00E9497
:101FC000930F1F5F0117A8F71F910F910895EF92CC
:101FD000FF920F931F93CF93DF938C01F62EEC01AA
:101FE0008A81882309F072C00F2EF3E0EF2EF02DC6
:101FF000F8018781882329F4118260E0C8010E94DA
:10200000CF0EFF2079F0E8018F81813059F4C6E6C8
:10201000DEE00E94FF12CE010197F1F7F8018781FF
:102020008130B9F3E8018F818230F9F4898127E0AA
:10203000829FC00111240B96F801E80FF91F9481CB
:102040008381981730F080818C3F19F0F801178256
:1020500038C0E8012D813E812115310519F0CF01ED
:10206000F9010995F801E7822CC0853051F5E801A6
:10207000898121E030E0281B3109C901880F991FAF
:10208000880F991F880F991F821B930B0B96F801DD
:10209000E80FF91F94818381981730F080818C3F7D
:1020A00019F0F801E78212C0E8012D813E81211567
:1020B000310519F0CF01F901099586E0F801878310
:1020C00005C0E8018F81882309F492CFDF91CF9179
:1020D0001F910F91FF90EF9008950F931F938C0124
:1020E00061E00E94E70FF801818127E0829FC00133
:1020F00011240B96E80FF91F80818C3F19F020E026
:1021000030E00AC020E094818381981708F421E030
:1021100081E08227282F332780E090E0232B11F4E1
:1021200081E090E01F910F9108950F931F93CF933B
:10213000DF938C0161E00E94E70FE801898127E0CD
:10214000829FC00111240B96080F191FF80184818A
:102150000180F281E02DE80FF11D80819927DF9148
:10216000CF911F910F91089561E00E94E70F0895AC
:102170000E945F0F009719F061E00E94E70F089539
:10218000CF93DF93EC0161E00E94E70F29818F81FB
:102190008330A9F4822F9927FC01EE0FFF1FEE0F69
:1021A000FF1FEE0FFF1FE81BF90BEC0FFD1F8385D0
:1021B0008C3F29F061E0621BCE010E94CF0E898125
:1021C00027E0829FC00111240B96FE01E80FF91F42
:1021D00084818F5F848320E09381891708F421E054
:1021E000822F9927DF91CF9108958F929F92BF926E
:1021F000CF92DF92EF92FF920F931F93CF93DF93D3
:102200007C01EC018985882311F481E08987F7013D
:1022100030810F2EFBE08F2E9924F02D8E0C9F1C09
:10222000818127E0829FC00111246401C80ED91E5C
:10223000E6018B81E981FA81E80FF11D6083982F17
:102240009F5F9B838D81981711F0452BC9F1B32EA9
:102250008EEFF6018083368393831482E7018985AC
:10226000823059F4C6E6DEE00E94FF12CE010197EB
:10227000F1F7F70181858230B9F382E0E7018987C0
:10228000AB81BC81ED91FC9111970680F781E02D27
:1022900000EC1FE09601A6016B2DED018A819B8168
:1022A0000995F701218181E0821B818327E0829FCC
:1022B000C0011124F401E80FF91F14821382B682C1
:1022C000C701DF91CF911F910F91FF90EF90DF90A9
:1022D000CF90BF909F908F900895BF92CF92DF9242
:1022E000EF92FF920F931F93CF93DF938C01EC013A
:1022F00029810F2EFBE0EF2EFF24F02DE80EF91EB2
:10230000822F9927FC01EE0FFF1FEE0FFF1FEE0F2C
:10231000FF1FE81BF90BEE0DFF1D80818C3F09F4B8
:1023200052C081E0B82EB21A87E0B89EC0011124D5
:102330006701C80ED91E8F81843059F4C6E6DEE0ED
:102340000E94FF12CE010197F1F7F80187818430D6
:10235000B9F38530C9F4E801ED81FE81309789F049
:10236000898121E030E0281B3109C901880F991FBC
:10237000880F991F880F991F821B930B8E0D9F1D2D
:10238000099586E0F8018783E6019C818B81981787
:10239000D0F4F801B18283E087838B2D9927FC016B
:1023A000EE0FFF1FEE0FFF1FEE0FFF1FE81BF90BD5
:1023B000EE0DFF1D80818C3F61F061E06B19C8015B
:1023C0000E94CF0E06C060E0C8010E94930F00E09B
:1023D00010E0C801DF91CF911F910F91FF90EF9016
:1023E000DF90CF90BF900895FF920F931F93CF93EC
:1023F000DF93F82E0E945F0FEC0189858823C1F1DD
:10240000813051F006E61EE00E94FF12C8010197DC
:10241000F1F789858130C1F7898127E0829FC0016A
:1024200011240B96AE01480F591FFA018CEF8083DF
:10243000F68214828B819C81DC012D913C91F90103
:10244000A681B78100EC1FE09A016F2DFC0182810B
:102450009381FD0109958985813051F406E61EE0DE
:102460000E94FF12C8010197F1F789858130C1F3FD
:1024700060E0CE010E94930FDF91CF911F910F91E9
:10248000FF90089580E090E008950895DC01FB013D
:1024900080818823C1F0813410F499270FC08B35D7
:1024A00018F4805899270AC0813610F4992706C07D
:1024B0008B3718F48052992701C099278D93319654
:1024C0008081882341F71D92CD0108951092090360
:1024D0008FEF8093220380931D03809318038093D2
:1024E00013031092270384E0809312038AE791E09C
:1024F00008951F9310E80E94B0178823E1F38FE737
:102500000E94D8171150B9F71F9108951F93CF93C8
:10251000DF9314E067C0A0910A03B0910B03809190
:102520001203813099F082301CF4882341F004C0FA
:102530008230B1F0833011F12FEF3FEF2FC081E0F7
:10254000809312038C91282F332728C082E0809338
:102550001203ED018B8199279C012D5F3F4F1EC017
:10256000FD018681282F33278381882319F4109356
:10257000120314C083E08093120310C0ED019C810C
:10258000E981FA81E90FF11D80819F5F9C83282FEB
:1025900033278B81981710F010931203332324F004
:1025A000822F0E94D8171EC050910903852F815099
:1025B000809309038823A1F020E030E041E06AE045
:1025C00073E0E22FFF27EE0FFF1FE60FF71F828158
:1025D0009381918380832F5F3F4F4F5F541789F71B
:1025E0001092120380910903882329F00E94B017EA
:1025F000882309F090CFDF91CF911F9108950E9419
:10260000BE1799230CF4D2C0482F20912703223003
:1026100011F1233034F4222359F0213009F0C1C0E4
:1026200013C0233009F47FC0243009F0BAC087C03A
:102630008D5F823018F04C3F09F0B3C040932D03FA
:1026400081E080932703ADC0835080932C0382E008
:1026500080932703A6C08093280384E080932703F8
:1026600020E030E0E3E1F3E08081481721F520939A
:102670002903822F992787FD9095FC01EE0FFF1FFC
:10268000EE0FFF1FE80FF91FED5EFC4F0180F28196
:10269000E02DF0932B03E0932A0320912D039091DA
:1026A0002C038581891768F020834683138283E099
:1026B0008093270306C02F5F3F4F359624303105A6
:1026C00099F680912C03882309F06BC0809129032F
:1026D000992787FD9095FC01EE0FFF1FEE0FFF1F5E
:1026E000E80FF91FED5EFC4F0380F481E02D80912F
:1026F0002703843011F46FEF01C060E0842F099547
:1027000080912903992787FD9095FC01EE0FFF1F0B
:10271000EE0FFF1FE80FF91FED5EFC4F8FEF808378
:10272000109227033EC0E0912A03F0912B0383818E
:10273000A181B281A80FB11D4C938F5F83838091DB
:102740002C03815080932C0318165CF1809129038F
:10275000992787FD9095FC01EE0FFF1FEE0FFF1FDD
:10276000E80FF91FED5EFC4F0380F481E02D24306B
:1027700011F46FEF01C060E080912803099580910A
:102780002903992787FD9095FC01EE0FFF1FEE0F9F
:10279000FF1FE80FF91FED5EFC4F8FEF8083109253
:1027A00027030E94BE1799230CF02ECF0E94861299
:1027B0000895CF93DF93EB0180910903833030F0CC
:1027C0000E94FF12809109038330D0F7E82FFF2782
:1027D000EE0FFF1FE65FFC4FD183C0838F5F8093B6
:1027E0000903813021F4109212030E948612DF91B6
:1027F000CF9108958F929F92AF92BF92CF92DF9226
:10280000FF920F931F93CF93DF934C01F62EEA01B3
:1028100069015801662384F4862F992787FD9095D6
:102820009F938F9384E693E09F938F930E94220D52
:102830000F900F900F900F908E8188237CF4992732
:1028400087FD90959F938F9382E493E09F938F935E
:102850000E94220D0F900F900F900F901FEF0FC04E
:10286000122F09C080818823DCF32F5F3F4F3596FC
:1028700024303105B9F70E94FF1211232CF420E017
:1028800030E0E3E1F3E0EECF812F992787FD9095CB
:10289000FC01EE0FFF1FEE0FFF1FE80FF91FED5EAB
:1028A000FC4FF082D282C182B482A382BE01C401F5
:1028B0000E94D913DF91CF911F910F91FF90DF906C
:1028C000CF90BF90AF909F908F9008958091090313
:1028D000882331F00E94FF12809109038823D1F7E9
:1028E0000895EF92FF920F931F93CF93DF937C0194
:1028F000009739F487E393E00E94760D8FEF9FEF06
:102900000CC1EC0109811A81F8016285613019F06E
:10291000AEE2B3E008C081E080932E0384E08093B0
:102920002F03A0E3B3E081E0ED018993FD018183F2
:10293000AE014F5F5F4FE8018B81882309F0DFC054
:102940002A812A3F08F0DBC0293F41F489818F3F6B
:1029500029F48881882309F0D2C0C7C0F801818199
:1029600099273327322F2227282B392B8081882340
:1029700011F02F5F3F4FDA012D93832F9927EA0142
:102980008983FD0131962A30310520F480E2ED0182
:1029900089833196613019F482E1819315C06230E8
:1029A00009F455C02436310518F480E2819304C03F
:1029B00083E0283E380718F480E2819303C0205159
:1029C000374210F480E2819382E28193E8018B85A3
:1029D000882309F49EC0D8012BE0813410F4992794
:1029E0000FC08B3518F4805899270AC0813610F42F
:1029F000992706C08B3718F48052992701C0992770
:102A000081932F5FED018C85882329F482E28193E5
:102A10002C3130F00AC011962B31F9F682E2819305
:102A200080E281932F5F2C31D8F3613039F46FE568
:102A300071E0CF010E944612FC011EC0633039F4E0
:102A400066E671E0CF010E944612FC0115C06623C4
:102A500039F46AE671E0CF010E944612FC010CC015
:102A6000623051F46EE671E0CF010E944612FC0123
:102A70001192EC01198231968EE293E00E2F081B21
:102A8000C02FDD27F7018581992787FD90958C1749
:102A90009D07F4F48EE193E00E94760D802F8295DD
:102AA0008F7006E811E0F801E80FF11D80810E94A7
:102AB0007E0CFE01EF70F070E00FF11F80810E942C
:102AC0007E0C0E94AF0C0E947B0C8FEF9FEF25C005
:102AD000402F55276EE273E0E70189819A810E94B9
:102AE00083180B8380E090E018C0FA018FEF819388
:102AF00089EFEA01898331962FEF39EF4BCFFA0145
:102B00008FEF819389EFEA01898331962FEF39EFB7
:102B100041CF82E281932BE083CFDF91CF911F9150
:102B20000F91FF90EF900895FC01A181B281838104
:102B3000992787FD9095882321F1282F8C91813446
:102B400010F4992719C08B3518F4805E992714C0AA
:102B5000813610F4992710C08B3718F480529927CA
:102B60000BC0813C10F4992707C08B3D20F49927B6
:102B70008F77907001C099278C93215011F0119696
:102B8000DDCF80E090E0089590936F0380936E0313
:102B900070937103609370030895E2E7F3E08EE5AC
:102BA00093E0128A118A108A17863597E817F90779
:102BB000C1F7E3EBF3E02FEF81E893E0128211829B
:102BC00020833597E817F907C9F708950F931F93E6
:102BD000CF93DF93EC018B019F938F937F936F9340
:102BE00083E893E09F938F930E94220D23E030E0CF
:102BF000E1E8F3E08DB79EB706960FB6F8949EBF56
:102C00000FBE8DBF80819181892B71F4F901EE0F88
:102C1000FF1FEE0FFF1FE20FF31FEE58FC4FD18393
:102C2000C0831383028307C02150304035979FEF44
:102C30002F3F390739F780E090E0DF91CF911F9166
:102C40000F9108950F931F93CF93DF93082F1127B0
:102C50001F930F9382EE93E09F938F930E94220D18
:102C6000E3EBF3E0C9E0D0E00F900F900F900F90EE
:102C70008081992787FD90950817190741F52181D3
:102C800032812115310519F180916E0390916F0306
:102C90009F938F93DF93CF933F932F9380EC93E099
:102CA0009F938F930E94220DCE01880F991F880F4A
:102CB000991F8C0F9D1F89579C4F2DB73EB7285FDA
:102CC0003F4F0FB6F8943EBF0FBE2DBF0CC03597D7
:102CD00021973FEFCF3FD30759F682EA93E00E9456
:102CE000760D8EE693E0DF91CF911F910F910895BD
:102CF0004F925F926F927F928F929F92AF92BF920C
:102D0000CF92DF92EF92FF920F931F93CF93DF93B7
:102D1000E82E8B01882E99247F936F939F928F9238
:102D200087E994E09F938F930E94220D2DB73EB7C1
:102D30002A5F3F4F0FB6F8943EBF0FBE2DBF3AE05B
:102D40003E1518F48FEF9FEFFAC0D8012C91222383
:102D500009F4E9C02A3309F4E6C0FF24F394CF2C28
:102D6000DD24F801EC0DFD1DE081EE2311F0EA33C6
:102D7000A9F7822F9927C0970A9708F0D7C0B1E02A
:102D8000FB1609F0D3C00F2EFFE0BF2EF02DB222AC
:102D90008B2D0E942216FC01009789F48B2D992718
:102DA0009F938F9388E694E09F938F930E94220DC8
:102DB0008FEF9FEF0F900F900F900F90C0C08E5627
:102DC000934039F487E394E00E94760D8FEF9FEFF4
:102DD000B6C060807180D301ED91FC91C801099566
:102DE0002C016114710409F074C0A4C0F501EE0F48
:102DF000FF1FEE0FFF1FEA0DFB1DEE58FC4F628018
:102E00007380D301ED91FC91C80109952C0161C03B
:102E1000F901EE0FFF1FEE0FFF1FE20FF31FEA573E
:102E2000FC4F8FEF80831282118266C0F901EE0F92
:102E3000FF1FEE0FFF1FE20FF31FEA57FC4FE08268
:102E400072826182548243823F932F935F924F92AA
:102E50009F928F927F926F9280E094E09F938F93E6
:102E60000E94220D80E0EDB7FEB73A960FB6F894B7
:102E7000FEBF0FBEEDBF53C05A01DB01CD91DC9107
:102E80002097F9F0FF20B1F09881F8018081981720
:102E9000C1F420E00CC0822F9927FE01E80FF91F32
:102EA000D801A80FB91F90818C91981751F42F5F0A
:102EB0002F1589F7FE01EC0DFD1D8081882309F493
:102EC00095CF6550704041505040FFEF4F3F5F0736
:102ED00099F629E030E0E3EBF3E08081992787FD64
:102EE00090958816990609F493CF21503040359774
:102EF0008FEF2F3F380789F76114710479F029E0CB
:102F000030E0E3EBF3E080818F3F09F48FCF215075
:102F1000304035979FEF2F3F3907A9F78FEF99275B
:102F200087FD90950CC0FF24CC24DD2466247724F3
:102F30004424552461E873E043E050E09DCFDF91E5
:102F4000CF911F910F91FF90EF90DF90CF90BF90A6
:102F5000AF909F908F907F906F905F904F9008956B
:102F6000809111099091120920E030E08F5F8F77F6
:102F7000891711F021E030E0C901089590911009FE
:102F800080919409981719F42FEF3FEF0FC08091AB
:102F90009409E0E9F8E0E80FF11D8081282F33273C
:102FA000809194098F5F8F7780939409C901089568
:102FB00090911109E3E1F9E0E90FF11D808380911F
:102FC00011098F5F8F7780931109E1ECF0E0808128
:102FD0008062808308951092110910921209109254
:102FE000100910929409E1ECF0E088E08083808180
:102FF0008061808387E08093C4001092C500808147
:10300000806880830895389A40981092B80310928F
:10301000B9030895823018F0843048F404C0109247
:10302000B803409808951092B803409A0895F89410
:103030001092BD031092BB031092BC031092BA030E
:1030400081E08093B9038093B8037894089582E077
:1030500085BD8FE794E0909389008093880010925B
:10306000850010928400109280008BE08093810094
:10307000EFE6F0E080818260808308951092BE03C5
:1030800011B88FEF82B93E98469AF8944B9B02C0D4
:103090003D98459A789481E08093C003F8944B9BC7
:1030A00002C03C98449A789481E08093BF033F9893
:1030B000479A08950F931F9303E710E0F80180816A
:1030C000877F80830E943E18DB9AF80180818860A8
:1030D0008083E8E6F0E08081886080831F910F9113
:1030E0000895FB01DC0102C005900D924150504053
:1030F000D8F70895FC0105900020E9F78095909598
:103100008E0F9F1F0895FB01DC0102C001900D92FC
:1031100041505040D8F708956817790768F4FB01CB
:10312000DC01E40FF51FA40FB51F02C002900E9240
:1031300041505040D8F708950C948318AEE0B0E0A9
:10314000E4EAF8E10C94971B8C0186E08C831A83E7
:1031500009838FEF9FE79E838D83CE0101960E94A6
:10316000D618EF81F885E00FF11F1082E4E02E966B
:103170000C94B31BAEE0B0E0E0ECF8E10C94971BCC
:103180008C018EE08C831A8309838FEF9FE79E83E7
:103190008D83CE0101960E94D618EF81F885E00F4D
:1031A000F11F1082E4E02E960C94B31BABE0B0E06C
:1031B000ECEDF8E10C948B1B4C013B016A01FC0126
:1031C00017821682838181FD03C08FEF9FEFDCC1E0
:1031D000F4012381F30123FD859123FF81913F01B8
:1031E000882309F4CEC1853239F423FD859123FF6C
:1031F00081913F01853229F4B40199270E94DE1A9A
:10320000E7CF00E0442455243AE00032B0F48B329A
:1032100069F08C3228F4803251F0833271F40BC0A3
:103220008D3239F0803349F4016028C002600460B7
:1032300025C0086023C0006121C007FD2BC0282FD6
:1032400020532A3078F406FF06C0539EC001112493
:10325000522E580E13C0439EC0011124422E480E18
:1032600000620CC08E3221F406FD8BC1006406C0E2
:103270008C3611F4006802C0883661F4F401838151
:10328000F30183FD859183FF81913F01882309F438
:103290006FC0BBCF982F8554833018F08052833095
:1032A00038F424E030E0C20ED31E8FE389830FC0D0
:1032B000933631F0933799F0933509F05BC023C012
:1032C000F6018081898322E030E0C20ED31E7E01A8
:1032D0000894E11CF11C51E0A52EB12C12C0F6019E
:1032E000E080F18006FD03C06FEF7FEF02C0652D27
:1032F000772722E030E0C20ED31EC7010E94D31A06
:103300005C010F7713C0F601E080F18006FD03C079
:103310006FEF7FEF02C0652D772722E030E0C20E0D
:10332000D31EC7010E94C81A5C01006803FF07C0D2
:103330001BC0B40180E290E00E94DE1A4A94842D02
:103340009927A816B906A8F30FC0F70107FD8591C4
:1033500007FF81917F01B40199270E94DE1A411075
:103360004A940894A108B108A114B10471F706C1E8
:1033700090E03EC0943611F0993691F507FF0AC0EF
:10338000F601608171818281938124E030E0C20E78
:10339000D31E0DC0F601808191819C01B90188275F
:1033A00077FD8095982F42E050E0C40ED51E4FE681
:1033B000B42EB02297FF09C09095809570956195C5
:1033C0007F4F8F4F9F4F50E8B52A8E010F5F1F4FE1
:1033D0002AE030E0A8010E940B1BA82EA01A4DC0C5
:1033E000953731F43FEEF32EF0222AE030E023C08F
:1033F00029EFF22EF0229F3661F0903720F49835B5
:1034000009F0BFC012C0903739F0983709F0B9C041
:1034100005C028E030E00FC080E1F82AF4FE02C0C9
:1034200094E0F92A20E130E006C0F4FE02C0E6E0B4
:10343000FE2A20E132E0F7FE0AC0F60160817181C8
:103440008281938144E050E0C40ED51E0BC0F6018A
:1034500080819181AC01BA0188279927E2E0F0E0F0
:10346000CE0EDF1E8E010F5F1F4FA8010E940B1BA7
:10347000A82EA01A8FE7B82EBF20B6FE10C0FEEF10
:10348000BF22A51460F42B2D332724FF1AC022FF7E
:1034900002C0052D09C02FEEB222052D01C00A2D54
:1034A0002B2D332724FF0EC0FE01EA0DF11D808174
:1034B000803319F439EEB32209C00F5F22FF06C032
:1034C00004C0052D822F867809F00F5FEB2CFF24B6
:1034D000E3FC14C0E0FE0FC0041510F05A2C0BC022
:1034E000542C501A5A0C042D06C0B40180E290E00E
:1034F0000E94DE1A0F5F0415C0F304C0041510F417
:10350000401A01C04424E4FE10C0B40180E390E0FE
:103510000E94DE1AE2FE1EC0E1FE03C088E590E0D4
:1035200002C088E790E0B4010CC08E2D867891F03F
:10353000E1FE02C08BE201C080E2B7FC8DE2B40183
:1035400099270E94DE1A06C0B40180E390E00E9431
:10355000DE1A5A94A514C0F3AA94FE01EA0DF11DD7
:103560008181B40199270E94DE1AAA2039F0F4CF94
:10357000B40180E290E00E94DE1A4A944420C1F730
:1035800027CEF40186819781E0E12B960C94A71B4E
:10359000FC010590615070400110D8F7809590951E
:1035A0008E0F9F1F0895FC01615070400190011023
:1035B000D8F7809590958E0F9F1F08950F931F93B6
:1035C000CF93DF938C01EB018B81992781FF1BC087
:1035D00082FF0DC02E813F818C819D812817390784
:1035E00064F4E881F9810193F983E88306C0E885F2
:1035F000F985802F0995892B31F48E819F81019661
:103600009F838E8302C00FEF1FEFC801DF91CF9120
:103610001F910F910895FA01AA27283051F1203106
:1036200081F1E8946F936E7F6E5F7F4F8F4F9F4F56
:10363000AF4FB1E03ED0B4E03CD0670F781F891F98
:103640009A1FA11D680F791F8A1F911DA11D6A0F66
:10365000711D811D911DA11D20D009F468943F9119
:103660002AE0269F11243019305D3193DEF6CF0118
:103670000895462F4770405D4193B3E00FD0C9F7DE
:10368000F6CF462F4F70405D4A3318F0495D31FD4B
:103690004052419302D0A9F7EACFB4E0A69597959E
:1036A000879577956795BA95C9F700976105710574
:1036B00008959B01AC010A2E0694579547953795BE
:1036C0002795BA95C9F7620F731F841F951FA01D18
:1036D0000895991B79E004C0991F961708F0961B6E
:1036E000881F7A95C9F78095089585FD0FC080627F
:1036F00091110CC081568A51E0F70895803209F08B
:10370000911104C080528F55E0F7089599278827BA
:1037100008952F923F924F925F926F927F928F9275
:103720009F92AF92BF92CF92DF92EF92FF920F9350
:103730001F93CF93DF93CDB7DEB7CA1BDB0B0FB65A
:10374000F894DEBF0FBECDBF09942A883988488817
:103750005F846E847D848C849B84AA84B984C884AD
:10376000DF80EE80FD800C811B81AA81B981CE0FA4
:10377000D11D0FB6F894DEBF0FBECDBFED01089589
:02378000FFCF79
:103782002025752042797465732066726565002C68
:10379200202564206B487A0041535349474E00006C
:1037A2002D0024003F00494E495449414C495A4595
:1037B2000052454E414D4500534352415443480047
:1037C2004344004D4B44495200524D44495200304B
:1037D200313233343536373839616263646566783D
:1037E2006432303331006469720070726700626C57
:1037F2006F636B7320667265650042124512D913BE
:10380200FA1371149415303132333435363738396E
:0C381200616263646566050005FF00004C
:00000001FF
