:100000000C944D000C946A000C946A000C946A00E5
:100010000C946A000C946A000C946A000C946C00B6
:100020000C946A000C946A000C946A000C946A00A8
:100030000C946A000C940A100C946A000C946A00E8
:100040000C946A000C946A000C946A000C946A0088
:100050000C94A6100C9473100C946A000C946A0013
:100060000C946A000C946A000C946A000C946A0068
:100070000C946A000C946A000C946A0058532D3159
:100080003534312F5844323033312056302E310040
:10009000302E31414C504841000011241FBECFEF9B
:1000A000D0E1DEBFCDBF14E0A0E0B1E0ECE0F8E2CB
:1000B00002C005900D92AC3EB107D9F71BE0ACEE43
:1000C000B4E001C01D92AF3DB107E1F70E941604F4
:1000D0000C9405140C9400001F920F920FB60F920F
:1000E00011244B9904C044983C9A45983D9A0F902E
:1000F0000FBE0F901F9018959C012115310529F412
:100100004B9903C08DEF9FEF0895369BF6CF44982F
:100110003C9A3D98459A41E050E018C0222369F08E
:1001200089B1992796958795969587959695879500
:10013000842795278170907004C089B199278870B1
:100140009070882319F48DEF9FEF0895359BE6CFCB
:1001500041E050E0222369F089B19927969587956F
:1001600096958795969587958427952781709070A9
:1001700004C089B1992788709070882319F48DEF95
:100180009FEF08953699E6CF45983D9A80B18095C6
:100190009927379B91603C98449A232B49F44B99BB
:1001A00003C08DEF9FEF0895369BF9CF44983C9A9A
:1001B000089594E090930F07809310070895EF92AD
:1001C000FF921F93CF93DF93182F8F7080931207A6
:1001D000809112070E9494097C01009739F0FC017C
:1001E0008281813069F08281823051F0812F807F5D
:1001F000803F31F083E60E949507CFEFDFEF4BC0E1
:1002000080E090E00E947C00EC0199230CF443C054
:100210008CE30E949507D0FF06C080910E07816095
:1002200080930E0705C080910E078E7F80930E0786
:10023000BE017070212F3327C9018F7090700F9706
:1002400031F0C901807F9070803F9105B1F48091B9
:100250009901883740F4E9E9F1E0E80FF11D618385
:100260008F5F8093990180910E0780FFC9CF8091A5
:100270000E07826080930E07C3CF40910E0755276B
:1002800041705070C7010E94760B7C01892B09F0E8
:10029000B7CFCEEFDFEFCE01DF91CF911F91FF906F
:1002A000EF90089580910E0781FF24C0809112077E
:1002B0008F3029F489E991E00E942E0514C083E073
:1002C00080930F078091120720E0813009F421E02C
:1002D00049ED50E069E971E00E94990588231CF41A
:1002E00082E080930F071092990180910E078D7F15
:1002F00080930E0708951092ED041092EC0420E014
:1003000040E069E481E691E00E94C10410920F0789
:100310001092110708956F927F929F92AF92BF92B1
:10032000CF92DF92EF92FF920F931F93CF93DF93C1
:10033000982EEB015A01390180E091E00E94C80734
:100340000E94BB070E94920788818F3FA9F0888195
:10035000992787FD90959F938F9383E191E09F93D9
:100360008F930E94170866E4892DF30109950F9079
:100370000F900F900F902CC0E501E980FA800D815D
:1003800011270F2EF3E6CF2EF1E0DF2EF02DA8017E
:10039000B601C7010E94F010F701E00FF11F31977D
:1003A0001082F70101900020E9F73197EE19FF095B
:1003B0008CEF88839E82EB831C8220E040E060E02B
:1003C000C60102970E94C10460E0892DF3010995DE
:1003D000DF91CF911F910F91FF90EF90DF90CF9021
:1003E000BF90AF909F907F906F90089520E040E085
:1003F00060E081E691E00E94C10408958DE391E000
:100400000E94C80780E30E94950780E30E94950739
:100410000E94BB070E949207E3E7F0E08081877F9C
:10042000808311B88FEF82B93E98469A3F98479AD9
:100430003C98449A3D98459A53985B9A20E040E056
:1004400060E081E691E00E94C10485E080930F079F
:10045000089511B88FEF82B93E98469A3F98479A0F
:100460003C98449A3D98459A53985B9A10920F078E
:10047000089511B88FEF82B93E98469A3F98479AEF
:100480003C98449A3D98459A53985B9ADB9AE3E7E7
:10049000F0E0808188608083E8E6F0E08081886019
:1004A00080830E94240D86E69EE00197F1F788E0A4
:1004B00080930D071092990180910E078E7F809393
:1004C0000E0708951F93CF93DF9380910F0781301C
:1004D00069F0813030F08230D1F0843009F076C19B
:1004E00054C14B9973C181E080930F0782E08093E0
:1004F0000F0781E090E00E947C0099231CF40E9489
:10050000290264C190709093ED048093EC042091D3
:10051000EC043091ED042F33310549F4809111073B
:10052000813011F41092110710920F074FC12F352F
:10053000310549F480911107823011F410921107AE
:1005400010920F0743C180910D07482F5527CA010C
:10055000805C9F4F2817390731F482E080931107A0
:1005600010920F0733C1CA0180962817390731F45A
:1005700081E08093110710920F0728C1A901407FE5
:1005800050704036510509F0D0C04B9BFECF109102
:100590001107113061F4822F0E94DF008D5F9F4FA1
:1005A00009F014C110930F070E9452010FC18091EE
:1005B0001107823009F0B6C0822F8F708093120726
:1005C0004B9BFECF11B88FEF82B93E98469A3F9869
:1005D000479A3C98449A3D98459A53985B9A8091E3
:1005E00012070E949409EC01892B09F092C08091B6
:1005F00012078F3009F093C020E030E041E951E06C
:1006000060E00E945509992787FD90959F938F93ED
:1006100086E491E09F938F930E94170880911207C0
:100620000E949409EC010F900F900F900F90892B6E
:1006300009F06FC074C0CE010E94F90A482F898169
:1006400099279C01220F331F220F331F220F331FC4
:10065000281B390B255F3F4FFE01E20FF31F8081FE
:100660008C3F19F020E030E00EC08481238150E0FF
:10067000992701963327821793070CF451E081E004
:100680008527282F33273E98469A3F98479A41B9A5
:10069000842F809582B94B9B42C086E38A95F1F7FF
:1006A0004B9B3DC04B9B3BC0359BFCCF232B19F490
:1006B0003F98479A02C047983F9A46983E9A86E3E9
:1006C0008A95F1F7CE010E941D0B4B9B28C0349BED
:1006D000FCCF3E98469A3F98479A86E38A95F1F771
:1006E0004B9B1DC0349B69C0FBCFCE010E94860A84
:1006F000882349F4809112078F3089F48091120782
:100700000E94290B0CC0CE010E94E90BEC01892B41
:1007100031F0CE010E94860A882309F08CCF0E9416
:10072000290254C00E94290251C0809111078823D8
:1007300009F44AC0403E5105A1F4822F8F70809386
:100740001207809112078F3029F46FE080E00E9439
:100750001A0A04C0809112070E94290B10920F07F9
:1007600035C0403F510571F44B9BFECF822F0E9454
:10077000DF008D5F9F4F51F581E080930F070E944E
:10078000520124C010920F0721C0809110078823C6
:1007900069F06091100720E040E081E691E00E945E
:1007A000C104809112070E94290B04C08091120796
:1007B0000E94210B10920F0709C0CE010E94B40ABB
:1007C000882309F492CF37CF0E942902DF91CF917D
:1007D0001F9108958DE391E00E94C80780E30E9475
:1007E000950781E30E9495070E94BB070E9492072C
:1007F000E3E7F0E08081886080830E942902089509
:100800008DB79EB78F5D9B40089510921307089592
:100810000E94BB078EE20E9495070E94BB0786E1FB
:1008200092E00E94C8070E94BB0708950E94050439
:10083000389A40980E94CF100E948D0C0E947F072A
:100840000E9440050E94F3090E94390278940E9498
:100850009E0C0E9408040E9400049F938F9382E3E1
:1008600092E09F938F930E94170889E999E3A0E093
:10087000B0E0BF93AF939F938F9381E492E09F93F7
:100880008F930E9417080E94BB070E94BB070E941B
:100890007B018DB79EB70A960FB6F8949EBF0FBE28
:1008A0008DBF0E94240D0E946202FBCF0F931F9305
:1008B000CF93DF93DC01EB0100E0552740585F4FF9
:1008C000FE01E00FF11D0F5FC895202D822F9927A3
:1008D0008417950719F02F3F59F0F2CF2F3F41F0C1
:1008E000FE01E00FF11DC895E02DEE2324F00BC0B2
:1008F0008FE38D931EC00F5FFE01E00FF11DC895C1
:10090000E02DEE23C4F3FE01E00FF11D0F5FC8954B
:10091000102D103250F4412F65E473E0CD010E9498
:100920005604DC0111237CF704C0112314F01D933D
:10093000EACFCD01DF91CF911F910F910895CF9311
:10094000DF93DC01262F643650F0862F64E60E9488
:10095000AE13805D8D93822F0E94AE13292F822FBC
:100960006AE00E94AE13805DFD018193822F0E9498
:10097000AE13905DED019983CF010196DF91CF9188
:100980000895EF92FF920F931F93CF93DF93162F4B
:10099000E42EF22EFC0132968EE2DF011D928A9542
:1009A000E9F7CF010E949F049C01FC018CE2819336
:1009B000133059F4B1E0FB1629F085E4E90189838D
:1009C000319636C084E4819333C0193011F4D901D3
:1009D00003C0193431F5FBCF8A2F821BECE7F0E01E
:1009E000E80FF11DC895E02DED01E9831196EE2386
:1009F00099F7ED012196193089F4ED018D01CE01B1
:100A0000801BE82FFF27E057FF4FC895E02D8E2F62
:100A100099270E94C3138993882389F7FE01319790
:100A200007C0412F6AE472E0CF010E945604FC0126
:100A30001CE211936E2DCF010E949F04FC011193C3
:100A40006F2DCF010E949F04FC018DE08083DF9118
:100A5000CF911F910F91FF90EF9008950F931F93E7
:100A60008C018BE993E00E94C807C80101960E949F
:100A7000C8070E94BB070E9492071F910F9108951B
:100A80008FEF8093EE04809301050895CF93DF9359
:100A9000982F8091EE04891719F4C0E0D0E007C0C8
:100AA00080910105891709F041C0C1E0D0E06623BB
:100AB000B4F4FE01EE0FFF1FCF01880F991F880FBE
:100AC000991F880F991FE80FF91FEC0FFD1FE251C6
:100AD000FB4F0188F289E02D8AE4099515C0FE01DB
:100AE000EE0FFF1FCF01880F991F880F991F880FE6
:100AF000991FE80FF91FEC0FFD1FE251FB4F2189F1
:100B000032898785F9010995FE01EE0FFF1FCF019C
:100B1000880F991F880F991F880F991FE80FF91FD9
:100B2000EC0FFD1FE251FB4F8FEF8083DF91CF91E0
:100B300008958F929F92AF92BF92CF92DF92EF92E1
:100B4000FF920F931F93CF93DF93F82EEB015A017F
:100B5000E22E85EA93E00E94C8078F2D82958F7060
:100B600002E714E0F801E80FF11D80810E9495076B
:100B70008F2D8F70080F111DF80180810E9495073D
:100B80008AEB93E00E94C807CE0101960E94C80735
:100B90000E94BB070E94920740E064E175E0CE012D
:100BA0000E944108809114058F3F11F410921405A2
:100BB00080911505882381F0843271F087EC93E0F1
:100BC0000E94C807809115050E9495070E94BB07E7
:100BD0000E94920710921505809114058823D1F088
:100BE00088ED93E00E94C80780911405805D0E9403
:100BF00095070E94BB070E949207FE01E558FF4F30
:100C000020E040E06AE4808191810E94C1048FEF7E
:100C10009FEF53C1809116058823E9F08335D9F001
:100C20008035C9F088EE93E00E94C80780911605D0
:100C30000E9495070E94BB070E949207FE01E5589B
:100C4000FF4F20E040E060E4808191810E94C10478
:100C50008FEF9FEF32C1909117059923F9F09735E7
:100C6000E9F09235D9F09134C9F08BEF93E00E940E
:100C7000C807809117050E9495070E94BB070E9434
:100C80009207FE01E558FF4F20E040E06EE18081D1
:100C900091810E94C1048FEF9FEF0FC12091150534
:100CA000243211F4992351F48091EE0488230CF43A
:100CB000FBC0809101058823DCF417C09235A1F3B5
:100CC00084E194E00E94C8070E94BB070E9492073B
:100CD000FE01E558FF4F20E040E06FE38081918105
:100CE0000E94C1048FEF9FEFE8C0A1E0B5E015C0FE
:100CF00088E294E00E94C8070E94BB070E94920706
:100D0000FE01E558FF4F20E040E066E480819181DC
:100D10000E94C1048FEF9FEFD0C0973509F4C7C080
:100D2000EE2011F012E001C011E0913409F415E059
:100D3000243209F416E06D0180911805909119058F
:100D400020911A05AD014F5F5F4FFA0192838183B5
:100D500025838FEF868314821382EF2CFD0111838C
:100D6000FA01F682238314822091DA043091DB04A5
:100D700021153105D1F0CA01F90109958823ACF498
:100D80008FE394E00E94C8070E94BB070E9492076D
:100D9000FE01E558FF4F20E040E062E28081918152
:100DA0000E94C1048FEF9FEF88C0123009F481C008
:100DB000153009F47EC088249924163029F4009156
:100DC000D8041091D90402C000E010E08E2D0E94DA
:100DD0009409892BC1F08FE594E00E94C8070E9416
:100DE000BB070E949207FE01E558FF4F20E040E05C
:100DF00066E4808191810E94C1048E2D0E94290B9E
:100E00008FEF9FEF5AC0980144ED54E0682D8E2D6E
:100E10000E945509F82E882344F58FE694E00E943D
:100E2000C8078F2D82958F7002E714E0F801E80F54
:100E3000F11D80810E9495078F2D8F70080F111D65
:100E4000F80180810E9495070E94BB070E949207CB
:100E5000FE01E558FF4F20E040E066E4808191818B
:100E60000E94C1048FEF9FEF28C0F601B28AA18AC9
:100E7000E0823896C6010F969283818382E0858353
:100E80008FEF868314821382B6016F5F7F4FA0912C
:100E9000D604B091D70426E435E0AF018E2DFD01D4
:100EA000099580E090E009C0AEEEB4E036CF12E0E4
:100EB0003FCF88249924839487CFDF91CF911F91CE
:100EC0000F91FF90EF90DF90CF90BF90AF909F90E9
:100ED0008F90089580919C0510929D059FEF9093AF
:100EE000A3058093A0051092A105E091D404F09190
:100EF000D5048DE995E0099510929C05089510920E
:100F00009C058BE195E090939F0580939E0581E879
:100F10008093A2058FEF8093A3051092A1051092F4
:100F2000A00508950E94720E08951F93CF93DF933A
:100F3000182FC6E6DEE005C00E94240DCE01019701
:100F4000F1F79091A0058091A1059817A9F78091DC
:100F50009C05813850F4EBE1F5E0E80FF11D1083BA
:100F60008F5F80939C05813810F00E946A07DF91A3
:100F7000CF911F9108958DE00E9495078AE00E940D
:100F8000950780919C05882311F00E946A070895B7
:100F9000FF920F931F93CF93DF938C01C6E6DEE0A1
:100FA00005C00E94240DCE010197F1F79091A00594
:100FB0008091A1059817A9F7F80101900020E9F7A1
:100FC0003197FE2EF01A80919C058F0D912D911D69
:100FD000813891054CF00E946A0706C00E94240DDA
:100FE00086E69EE00197F1F79091A0058091A1051A
:100FF0009817A1F780E88F1520F40F2EF1E8FF2E47
:10100000F02D20919C054F2D5527B8018BE195E0DF
:10101000820F911D0E94E71080919C058F0D809397
:101020009C05DF91CF911F910F91FF9008950F9331
:101030001F93CF93DF93CDB7DEB7C358D0400FB621
:10104000F894DEBF0FBECDBFFE01E657FF4F6191A2
:101050007191FA83E9838E010D5F1F4FAF01C801C3
:101060000E94FF10C8010E94C807CD57DF4F0FB67E
:10107000F894DEBF0FBECDBFDF91CF911F910F91CE
:1010800008958F929F92BF92CF92DF92EF92FF923C
:101090000F931F93CF93DF93CDB7DEB721970FB692
:1010A000F894DEBF0FBECDBFFC018B019C012F5F0A
:1010B0003F4F90818FEFDB018C93FB0111821282F5
:1010C00082E58383358324839683442319F0F4E0F7
:1010D000F98302C086E08983992309F48EC0D92E52
:1010E000DA9479010894E11CF11C4901BB2499812F
:1010F000933009F470C0943038F4913009F452C040
:10110000923008F05AC038C0A981A530A9F0A530A6
:1011100020F0A63009F066C026C0F801818188233E
:1011200059F4D401CC908C2D99270E94BC13892BA3
:1011300019F0F801C1821682D4012C91822F9927CF
:10114000C0970A9720F4822F8053F8018083D4013E
:101150008C918A3309F046C0F801F582E482D68288
:10116000F1E0F9833FC0D4018C91843229F4F80175
:1011700081831682F5E0F983D4012C91822F99277F
:10118000C0970A9728F40F2EF0EDBF2EF02DB20E67
:101190002A3341F4F801B082F582E482D682F1E08C
:1011A000F98320C0D4018C918C32E1F4F801848160
:1011B000A81BA683F2E0F98315C0F8018281882379
:1011C00019F4D4018C918283F40180818C3251F422
:1011D000F3E0F98307C0F8018381882319F4D4016F
:1011E0008C918383DA940894E11CF11CBFEFDB1629
:1011F00021F00894811C911C7ACF21960FB6F894A7
:10120000DEBF0FBECDBFDF91CF911F910F91FF9039
:10121000EF90DF90CF90BF909F908F9008950F93A5
:101220001F93CF93DF93DC017727CB01880F991FA2
:10123000880F991F880F991F861B970B0B96ED013E
:10124000C80FD91F9C918FEF88839E831B821C82BD
:10125000FD018781882379F481E0878383819481EC
:10126000FC01028113818C912FEB39E0AE01BE01AC
:10127000F801099515C0FD018781833089F48281C9
:10128000882371F484E0878383819481FC01028147
:1012900013818C912FEB39E0AE01BE01F801099565
:1012A000DF91CF911F910F910895FF920F931F939C
:1012B000CF93DF93982FF62EEA018901A7E0B0E0E3
:1012C00064E177E049E950E0A49F9001A59F300DCB
:1012D000B49F300D1124F901E60FF71F8081882398
:1012E000B4F490831182F282D483C383168305837E
:1012F000F9013B96E60FF71F14821382F9017296EB
:10130000E60FF71F1482138280E090E007C0119768
:101310008FEFAF3FB807C1F68FEF9FEFDF91CF910F
:101320001F910F91FF900895682F27E030E0A4E10E
:10133000B7E049E950E0249FF001259FF00D349F6C
:10134000F00D1124EA0FFB1F8081861779F4822F9C
:10135000992787FD90959C01249FC001259F900DA2
:10136000349F900D11248A0F9B1F08952150304007
:101370008FEF2F3F3807F9F680E090E008951F9334
:10138000162F0E949409FC01892B61F01087878138
:10139000813019F482E0878305C08781843011F49D
:1013A00085E087831F910895CF93DF93FC012FEF92
:1013B0002083178211864996DF011B96ED019A83DF
:1013C000898330E43D832E831C821B82CF01875AA0
:1013D0009F4F729692838183358326831482138272
:1013E000DF91CF910895CF93DF93C0E0D0E061E02B
:1013F000CE018D5B944F0E94D409C959D0408BEF28
:10140000C833D807A1F7DF91CF9108951F93162F06
:101410000E949409FC01892B59F012878185823042
:1014200019F481E0818704C08185813009F4118637
:101430001F9108950F931F93062F681760F0182FC0
:10144000812F0E949409009719F061E00E94D4094D
:101450001F5F0117A8F71F910F9108951F93CF9356
:10146000DF93EC01162F8A81882309F04BC08F810E
:10147000882329F4198260E0CE010E940F0911230C
:1014800039F409C00E94240D86E69EE00197F1F729
:101490008F818130B9F38F818230B9F48D819E8143
:1014A000892B89F0ED81FE8129813327C901880FBD
:1014B000991F880F991F880F991F821B930B0B96FA
:1014C0008C0F9D1F099583E08F838F818530D1F428
:1014D0008D819E81892BA1F0ED81FE81898121E0A2
:1014E00030E0281B3109C901880F991F880F991F07
:1014F000880F991F821B930B0B968C0F9D1F0995CC
:1015000086E08F83DF91CF911F9108950F931F93F2
:101510008C0161E00E942E0AF80121813327C90164
:10152000880F991F880F991F880F991F821B930B93
:101530000B96E80FF91F80818C3F19F020E030E016
:101540000AC09481838120E0981708F421E081E0AB
:101550008227282F332780E090E0232B11F481E0AD
:1015600090E01F910F910895CF93DF93EC0161E01C
:101570000E942E0A49818F818330B9F4898199278D
:101580009C01220F331F220F331F220F331F281BF2
:10159000390B255F3F4FFE01E20FF31F80818C3F27
:1015A000E9F4948183819817C8F029813327C90110
:1015B000880F991F880F991F880F991F821B930B03
:1015C0000B96FE01E80FF91F84818F5F848394815D
:1015D000838120E0981740F421E006C061E0641B9D
:1015E000CE010E940F09E1CF822F9927DF91CF9181
:1015F00008950F931F93CF93DF938C0161E00E94B6
:101600002E0AE80129813327C901880F991F880F05
:10161000991F880F991F821B930B0B96080F191F98
:10162000E801E981FA818C81E80FF11D8081992719
:10163000DF91CF911F910F91089561E00E942E0AD2
:1016400008950E949409009719F061E00E942E0A03
:1016500008950F931F93CF93DF93182F0E9494093F
:10166000EC018985882339F438C00E94240D86E670
:101670009EE00197F1F789858130B9F729813327F9
:10168000C901880F991F880F991F880F991F821B06
:10169000930B0B96BE01680F791FFB01838199277D
:1016A00087FD90952CEF2083168383831482AB8172
:1016B000BC81FD01A281B38126E03AE0AB01812F1C
:1016C000FD01099506E61EE005C00E94240DC80133
:1016D0000197F1F789858130C1F360E0CE010E9466
:1016E000D409DF91CF911F910F910895CF92DF928E
:1016F000EF92FF920F931F93CF93DF937C01EC0146
:101700008985882311F481E08987F701708121811F
:101710003327C901880F991F880F991F880F991FB8
:10172000821B930B0B968701080F191FE801E981B3
:10173000FA818B81E80FF11D60838F5F8B839B8122
:101740008D81981711F0452BD1F1F80183819927EC
:1017500087FD9095C72E2EEF208376838383148296
:10176000C6E6DEE005C00E94240DCE010197F1F728
:10177000F701D184F1E0DF16B1F782E0E701898754
:10178000EB81FC810280F381E02D26E03AE0A801A4
:10179000B8018C2D09958981D81AD98229813327DE
:1017A000C901880F991F880F991F880F991F821BE5
:1017B000930B0B96F701E80FF91F14821382C701F0
:1017C000DF91CF911F910F91FF90EF90DF90CF901D
:1017D00008951F93CF93DF93EC0119818981992795
:1017E0009C01220F331F220F331F220F331F281B90
:1017F000390B255F3F4FFE01E20FF31F80818C3FC5
:1018000059F494818381981738F056C00E94240DB2
:1018100086E69EE00197F1F78F818430B9F38F81DE
:101820008530D1F48D819E81892BA1F0ED81FE81DF
:10183000898121E030E0281B3109C901880F991FF7
:10184000880F991F880F991F821B930B0B968C0F83
:101850009D1F099586E08F8381E0482F411B242F2F
:101860003327C901880F991F880F991F880F991F67
:10187000821B930B0B96FE01E80FF91F9481838165
:101880009817D0F4498383E08F8329813327C901D6
:10189000880F991F880F991F880F991F821B930B20
:1018A0000B96FE01E80FF91F80818C3F61F4948153
:1018B0008381981740F00CC060E0CE010E94D409EB
:1018C000C0E0D0E005C061E0641BCE010E940F09BA
:1018D000CE01DF91CF911F910895DC01FB01808142
:1018E0008823C1F0813410F499270FC08B3518F488
:1018F000805899270AC0813610F4992706C08B3783
:1019000018F48052992701C099278D9331968081D0
:10191000882341F71D92CD0108951092A4058FEF01
:101920008093BD058093B8058093B3058093AE0581
:101930001092C20584E08093AD0508951F9310E8CE
:101940000E9438108823E1F38FE70E946010115045
:10195000B9F71F9108951F93CF93DF9314E067C0E9
:10196000A091A505B091A6058091AD05813099F0B3
:1019700082301CF4882341F004C08230B1F08330FF
:1019800011F12FEF3FEF30C081E08093AD058C91D6
:10199000282F332729C082E08093AD05ED018B818C
:1019A00099279C012D5F3F4F1FC0FD018681282F85
:1019B00033278381882319F41093AD0515C083E084
:1019C0008093AD0511C0ED01E981FA818C81E80FAA
:1019D000F11D90818F5F8C83292F33279C818B8110
:1019E000981710F01093AD05332324F0822F0E9436
:1019F00060101DC08091A40581508093A405809142
:101A0000A405882391F020E045EA55E0E22FFF2766
:101A1000EE0FFF1FE40FF51F828193819183808376
:101A20002F5F8091A405281788F31092AD0580914F
:101A3000A405882329F00E943810882309F090CF4C
:101A4000DF91CF911F9108950E94461099230CF4C5
:101A5000DAC0482F2091C205223011F1233034F42E
:101A6000222359F0213009F0C9C013C0233009F4F2
:101A700087C0243009F0C2C08FC08D5F823018F05B
:101A80004C3F09F0BBC04093C80581E08093C2057C
:101A9000B5C083508093C70582E08093C205AEC075
:101AA0008093C30584E08093C20520E030E06EEAB5
:101AB00075E0F901EE0FFF1FEE0FFF1FE20FF31F9E
:101AC000E60FF71F8081481721F52093C405822F68
:101AD000992787FD9095FC01EE0FFF1FEE0FFF1F6A
:101AE000E80FF91FE60FF71F0180F281E02DF09358
:101AF000C605E093C5052091C80595818091C7056D
:101B0000981760F020834683138283E08093C20598
:101B100005C02F5F3F4F2430310559F68091C7052E
:101B2000882309F06BC08091C405992787FD9095A3
:101B3000FC01EE0FFF1FEE0FFF1FE80FF91FE2552C
:101B4000FA4F0380F481E02D8091C205843011F4B6
:101B50006FEF01C060E0842F09958091C40599273B
:101B600087FD9095FC01EE0FFF1FEE0FFF1FE80FA2
:101B7000F91FE255FA4F8FEF80831092C2053EC0E5
:101B8000E091C505F091C605A181B2818381A80FBE
:101B9000B11D4C938F5F83838091C70581508093E3
:101BA000C70518165CF18091C405992787FD9095AB
:101BB000FC01EE0FFF1FEE0FFF1FE80FF91FE255AC
:101BC000FA4F0380F481E02D243011F46FEF01C04F
:101BD00060E08091C30509958091C405992787FD30
:101BE0009095FC01EE0FFF1FEE0FFF1FE80FF91F8E
:101BF000E255FA4F8FEF80831092C2050E94461083
:101C000099230CF026CF0E94AB0C0895CF93DF935D
:101C1000EC018091A405833030F00E94240D809166
:101C2000A4058330D0F7E091A405FF27EE0FFF1F36
:101C3000EB55FA4FD183C0838091A4058F5F8093C9
:101C4000A4058091A405813021F41092AD050E9475
:101C5000AB0CDF91CF910895CF92DF92EF92FF927C
:101C60000F931F93CF93DF93082F6B01EA01790144
:101C70001FEF17C0122F11C0F901EE0FFF1FEE0F5B
:101C8000FF1FE20FF31FE255FA4F8081882394F380
:101C90002F5F3F4F2430310579F70E94240D112327
:101CA0001CF420E030E0E8CF812F992787FD909544
:101CB000FC01EE0FFF1FEE0FFF1FE80FF91FE255AB
:101CC000FA4F0083D283C183F482E382C6010E946B
:101CD000060EDF91CF911F910F91FF90EF90DF9053
:101CE000CF9008958091A405882331F00E94240D9F
:101CF0008091A4058823D1F70895FC0121813281C8
:101D00008381992787FD9095882329F1F901282F50
:101D10008081813410F4992719C08B3518F4805EC6
:101D2000992714C0813610F4992710C08B3718F406
:101D3000805299270BC0813C10F4992707C08B3D36
:101D400020F499278F77907001C0992780832150C4
:101D500011F03196DDCF80E090E00895CF92DF92D0
:101D6000FF920F931F93CF93DF936C01009739F489
:101D700082E894E00E94C8078FEF9FEF43C1EC0117
:101D800049815A81FA016285613019F0A9ECB5E008
:101D900008C081E08093C90584E08093CA05ABEC5C
:101DA000B5E081E0FD018193ED018983EF0121968A
:101DB000FA018381882309F018C1DA011296828121
:101DC0008A3F08F012C18281893F39F481818F3FB7
:101DD00021F48081882309F008C1FA0181812C91C6
:101DE00099273327322F2227282B392B80818823CC
:101DF00011F02F5F3F4FDE012D93832F99278983A9
:101E0000FD0131962A30310520F480E2ED0189830D
:101E10003196613019F482E1819315C0623009F482
:101E20005BC02436310518F480E2819304C083E05E
:101E3000283E380718F480E2819303C020513742CE
:101E400010F480E2819382E281938A01055F1F4F43
:101E5000EA018B85882309F4D1C0DA011C962BE0B6
:101E6000E8018881813410F499270FC08B3518F46C
:101E7000805899270AC0813610F4992706C08B37FD
:101E800018F48052992701C0992781932F5F8D0103
:101E90008C91882329F482E281932C3130F00AC09E
:101EA00011962B31E9F682E2819380E281932F5FD4
:101EB0002C31D8F3613039F46DE874E0CF010E9421
:101EC0006D0CFC011EC0633039F464E974E0CF018D
:101ED0000E946D0CFC0115C0662339F468E974E0BA
:101EE000CF010E946D0CFC010CC0623051F46CE912
:101EF00074E0CF010E946D0CFC011192EC0119827B
:101F0000319689EC95E0FE2EF81ACF2DDD27F601EB
:101F10008581992787FD90958C179D07F4F488EAB1
:101F200094E00E94C8078F2D82958F700CED14E00D
:101F3000F801E80FF11D80810E949507FE01EF7006
:101F4000F070E00FF11F80810E9495070E94BB078F
:101F50000E9492078FEF9FEF55C081EC94E00E94A2
:101F6000C8078F2D82958F700CED14E0F801E80FF3
:101F7000F11D80810E949507FE01EF70F070E00F67
:101F8000F11F80810E949507FF20F1F000E0CCED69
:101F9000D4E080E20E949507E02FFF27E753FA4F35
:101FA0001081812F82958F70FE01E80FF11D8081D5
:101FB0000E9495071F70FE01E10FF11D80810E94B4
:101FC00095070F5FF01629F70E94BB070E94920742
:101FD000E60189819A814F2D552769EC75E00E94B1
:101FE000E710FB8280E090E00DC0FE018FEF81934F
:101FF00089EF898331962FEF39EF0BCF82E28193FE
:102000002BE053CFDF91CF911F910F91FF90DF9085
:10201000CF9008951F920F920FB60F9211248F93B5
:102020009F938091DD0B9091DE0B01969093DE0BD8
:102030008093DD0B9F918F910F900FBE0F901F909B
:10204000189582E085BD8FEF98E09093890080938A
:1020500088001092850010928400109280008BE01E
:1020600080938100EFE6F0E08081826080830895B4
:1020700080910B0790910C0720E030E08F5F8F7705
:10208000891711F021E030E0C90108959091890687
:1020900080918A06981719F42FEF3FEF0FC08091B7
:1020A0008A06E9E0F6E0E80FF11D8081282F33274A
:1020B00080918A068F5F8F7780938A06C901089581
:1020C00090910B07EBE8F6E0E90FF11D808380911A
:1020D0000B078F5F8F7780930B07E1ECF0E0808137
:1020E0008062808308951F920F920FB60F92112481
:1020F0008F939F93EF93FF9390910B0780910C0721
:10210000981781F080910C07EBE8F6E0E80FF11DDD
:1021100080818093C60080910C078F5F8F778093BA
:102120000C07789490910B0780910C07981729F46D
:10213000E1ECF0E080818F7D8083FF91EF919F91B2
:102140008F910F900FBE0F901F9018951F920F92B6
:102150000FB60F9211248F939F93EF93FF9380916B
:1021600089069091C600E9E0F6E0E80FF11D908342
:102170007894809189068F5F982F9F7780918A0647
:10218000981711F4409A02C090938906FF91EF913D
:102190009F918F910F900FBE0F901F9018951092E6
:1021A0000B0710920C071092890610928A06E1EC38
:1021B000F0E088E0808380818061808387E0809385
:1021C000C4001092C5008081806880830895FB015F
:1021D000DC0102C001900D9241505040D8F70895A3
:1021E000FB01DC014150504048F001900D9200206D
:1021F000C9F701C01D9241505040E0F70895AEE08C
:10220000B0E0E5E0F1E10C94DC138C0186E08C8316
:102210001A8309838FEF9FE79E838D83CE010196FA
:102220000E941B11EF81F885E00FF11F1082E4E09E
:102230002E960C94F813ABE0B0E0E1E2F1E10C94DF
:10224000D0134C013B016A01FC0117821682838185
:1022500081FD03C08FEF9FEFDCC1F4012381F30107
:1022600023FD859123FF81913F01882309F4CEC18D
:10227000853239F423FD859123FF81913F01853219
:1022800029F4B40199270E942313E7CF00E04424E6
:1022900055243AE00032B0F48B3269F08C3228F4E5
:1022A000803251F0833271F40BC08D3239F08033BB
:1022B00049F4016028C00260046025C0086023C0A2
:1022C000006121C007FD2BC0282F20532A3078F44D
:1022D00006FF06C0539EC0011124522E580E13C093
:1022E000439EC0011124422E480E00620CC08E3263
:1022F00021F406FD8BC1006406C08C3611F4006821
:1023000002C0883661F4F4018381F30183FD859175
:1023100083FF81913F01882309F46FC0BBCF982FC1
:102320008554833018F08052833038F424E030E054
:10233000C20ED31E8FE389830FC0933631F09337DB
:1023400099F0933509F05BC023C0F6018081898341
:1023500022E030E0C20ED31E7E010894E11CF11C85
:1023600051E0A52EB12C12C0F601E080F18006FDEF
:1023700003C06FEF7FEF02C0652D772722E030E0CA
:10238000C20ED31EC7010E9418135C010F7713C041
:10239000F601E080F18006FD03C06FEF7FEF02C021
:1023A000652D772722E030E0C20ED31EC7010E94C0
:1023B0000D135C01006803FF07C01BC0B40180E27D
:1023C00090E00E9423134A94842D9927A816B906F9
:1023D000A8F30FC0F70107FD859107FF81917F01E9
:1023E000B40199270E94231341104A940894A1082C
:1023F000B108A114B10471F706C190E03EC0943653
:1024000011F0993691F507FF0AC0F60160817181DC
:102410008281938124E030E0C20ED31E0DC0F6010C
:10242000808191819C01B901882777FD8095982F43
:1024300042E050E0C40ED51E4FE6B42EB02297FF06
:1024400009C090958095709561957F4F8F4F9F4FF4
:1024500050E8B52A8E010F5F1F4F2AE030E0A80137
:102460000E945013A82EA01A4DC0953731F43FEEAC
:10247000F32EF0222AE030E023C029EFF22EF022E2
:102480009F3661F0903720F4983509F0BFC012C034
:10249000903739F0983709F0B9C005C028E030E02E
:1024A0000FC080E1F82AF4FE02C094E0F92A20E18E
:1024B00030E006C0F4FE02C0E6E0FE2A20E132E091
:1024C000F7FE0AC0F601608171818281938144E048
:1024D00050E0C40ED51E0BC0F60180819181AC0185
:1024E000BA0188279927E2E0F0E0CE0EDF1E8E01C8
:1024F0000F5F1F4FA8010E945013A82EA01A8FE74C
:10250000B82EBF20B6FE10C0FEEFBF22A51460F4A7
:102510002B2D332724FF1AC022FF02C0052D09C02E
:102520002FEEB222052D01C00A2D2B2D332724FFBB
:102530000EC0FE01EA0DF11D8081803319F439EEE1
:10254000B32209C00F5F22FF06C004C0052D822FF1
:10255000867809F00F5FEB2CFF24E3FC14C0E0FE4B
:102560000FC0041510F05A2C0BC0542C501A5A0CE2
:10257000042D06C0B40180E290E00E9423130F5F97
:102580000415C0F304C0041510F4401A01C044241B
:10259000E4FE10C0B40180E390E00E942313E2FE49
:1025A0001EC0E1FE03C088E590E002C088E790E02D
:1025B000B4010CC08E2D867891F0E1FE02C08BE252
:1025C00001C080E2B7FC8DE2B40199270E94231379
:1025D00006C0B40180E390E00E9423135A94A5142E
:1025E000C0F3AA94FE01EA0DF11D8181B40199277F
:1025F0000E942313AA2039F0F4CFB40180E290E0C6
:102600000E9423134A944420C1F727CEF401868107
:102610009781E0E12B960C94EC13FC01059061503E
:1026200070400110D8F7809590958E0F9F1F0895E8
:10263000FC016150704001900110D8F78095909591
:102640008E0F9F1F08950F931F93CF93DF938C01DD
:10265000EB018B81992781FF1BC082FF0DC02E816A
:102660003F818C819D812817390764F4E881F981C5
:102670000193F983E88306C0E885F985802F0995E1
:10268000892B31F48E819F8101969F838E8302C0B6
:102690000FEF1FEFC801DF91CF911F910F910895A8
:1026A000FA01AA27283051F1203181F1E8946F9383
:1026B0006E7F6E5F7F4F8F4F9F4FAF4FB1E03ED029
:1026C000B4E03CD0670F781F891F9A1FA11D680FC7
:1026D000791F8A1F911DA11D6A0F711D811D911DFA
:1026E000A11D20D009F468943F912AE0269F11246F
:1026F0003019305D3193DEF6CF010895462F4770D3
:10270000405D4193B3E00FD0C9F7F6CF462F4F702D
:10271000405D4A3318F0495D31FD4052419302D08B
:10272000A9F7EACFB4E0A695979587957795679531
:10273000BA95C9F700976105710508959B01AC0131
:102740000A2E06945795479537952795BA95C9F758
:10275000620F731F841F951FA01D0895991B79E0B8
:1027600004C0991F961708F0961B881F7A95C9F721
:102770008095089585FD0FC0806291110CC081562F
:102780008A51E0F708959111089581568A5108F40D
:102790008052855808959927882708952F923F924F
:1027A0004F925F926F927F928F929F92AF92BF9261
:1027B000CF92DF92EF92FF920F931F93CF93DF930D
:1027C000CDB7DEB7CA1BDB0B0FB6F894DEBF0FBE6A
:1027D000CDBF09942A88398848885F846E847D84B7
:1027E0008C849B84AA84B984C884DF80EE80FD80B9
:1027F0000C811B81AA81B981CE0FD11D0FB6F8942F
:0C280000DEBF0FBECDBFED010895FFCF7D
:10280C00494545452053746174757320726566693A
:10281C006C6C00534E483A207061636B6574207485
:10282C00797065206973206E6F742046535F524532
:10283C0041442C206275743A2025640A0041544EA0
:10284C005F4952513A006F70656E207374617475F4
:10285C0073206368616E6E656C202D3E2025640AC2
:10286C0000F6010000000000000000000000000065
:10287C00000000000000000000000000000000004C
:10288C00000000000000000000000000000000003C
:10289C000000008B010000000000000000000000A0
:1028AC00000000000000000000000000000000001C
:1028BC00000000000000000000000000000000000C
:1028CC0000000000000000000000000000000000FC
:1028DC0000000000000000000000000000000000EC
:1028EC0000000000000000000000000000000000DC
:1028FC0000000000000000000000000000000000CC
:10290C0000000000000000000000000000000000BB
:10291C000000000061012323232058532D3135344E
:10292C00312F5844323033312076302E312023234E
:10293C0023002025752042797465732066726565C5
:10294C00002C202564206B487A0080204F4B81009E
:10295C0053205343524154434845448208099495AB
:10296C009697989B0103999C02039A022050524F10
:10297C0054454354204F4E9D054944204D49534DD9
:10298C00415443489E9FA0A1A253594E5441580311
:10299C00A7BE0004464F554E44B20704505245534F
:1029AC00454E54B34F564552464C4F5720494E2036
:1029BC0007B4000B4C41524745BC0220002006BD19
:1029CC00000406BF0020455849535453C0002054FE
:1029DC00595045204D49534D41544348C10C424C2C
:1029EC004F434BC2C30A20545241434B204F5220F9
:1029FC00534543544F52C60C4348414E4E454CC769
:102A0C0044495203C80546554C4CCA445249564594
:102A1C00040159CD0920080ACE4255464645520BB1
:102A2C00534D414C4CCF494D414745200020494E18
:102A3C0056414C4944E3434C4F434B20554E535461
:102A4C0041424C45FF8046494C45815245414482A8
:102A5C00575249544583204552524F5284204E4F71
:102A6C005420854449534B20864F50454E87524540
:102A7C00434F524488504152544954494F4E208937
:102A8C0053454C45435445448A494C4C4547414C6D
:102A9C008B20544F4F208C4E4F20FF434F4D4D41B8
:102AAC004E443A20004F50454E2046494C453A2062
:102ABC00464F52204348414E3A0020574954482033
:102ACC004E414D453A20004E4F20434F5252454304
:102ADC005420434D443A2000494C4C4547414C202E
:102AEC0044524956453A2000554E4B4F574E2046BE
:102AFC00494C4520545950453A2000554E4B4F57A0
:102B0C004E2046494C45204143434553532054598C
:102B1C0050452000575249544520544F20444952A7
:102B2C004543544F525921004E4F204F50454E2093
:102B3C00534C4F5420464F52204F50454E21004E7F
:102B4C00414D4520434F4E56455253494F4E20451B
:102B5C00584345454453204255464645522100466C
:102B6C00494C45204F50454E204552524F5200453E
:102B7C003D00303132333435363738396162636475
:102B8C00656650204953204E554C4C2100786432D8
:102B9C00303331006469720070726700626C6F636D
:102BAC006B73206672656500434F4E564552534910
:102BBC004F4E204E4F5420504F535349424C4521B9
:102BCC0000434F4E56455254454420544F3A204CE6
:102BDC00454E3D00060E2C0EAE0E7D0E30313233BE
:0C2BEC0034353637383961626364656641
:00000001FF
