:100000000C94F4000C9411010C9411010C94110146
:100010000C9411010C9411010C9411010C945D01CC
:100020000C9411010C9411010C9411010C94110108
:100030000C9411010C94B7130C9411010C94110140
:100040000C9411010C9411010C9411010C941101E8
:100050000C9413010C9439010C9411010C941101AE
:100060000C9411010C9411010C9411010C941101C8
:100070000C9411010C9411010C94110158532D3161
:100080003534312F5844323033312056302E310040
:100090002042455441350080204F4B81005320536E
:1000A0004352415443484544820809949596979891
:1000B0009B0103999C02039A022050524F544543DE
:1000C00054204F4E9D054944204D49534D415443C2
:1000D000489E9FA0A1A253594E54415803A7BE0069
:1000E00004464F554E44B2070450524553454E54B2
:1000F000B34F564552464C4F5720494E2007B40047
:100100000B4C41524745BC0220002006BD000406AE
:10011000BF0020455849535453C0002054595045FE
:10012000204D49534D41544348C10C424C4F434B21
:10013000C2C30A20545241434B204F5220534543DF
:10014000544F52C60C4348414E4E454CC744495249
:1001500003C80546554C4CCA4452495645040159FA
:10016000CD0920080ACE4255464645520B534D4113
:100170004C4CCF494D414745200020494E56414CFB
:100180004944E3434C4F434B20554E535441424C5A
:1001900045FF8046494C458152454144825752496A
:1001A000544583204552524F5284204E4F5420854F
:1001B0004449534B20864F50454E875245434F523A
:1001C0004488504152544954494F4E208953454C1C
:1001D00045435445448A494C4C4547414C8B205437
:1001E0004F4F208C4E4F20FF11241FBECFEFD0E188
:1001F000DEBFCDBF13E0A0E0B1E0E8E4FFE202C063
:1002000005900D92A23EB107D9F71BE0A2EEB3E034
:1002100001C01D92AD38B107E1F70E9419060C9498
:10022000A3170C9400002F922FB60F930091C600D5
:1002300078941F93CF93DF931091080BC8E8DAE00E
:10024000C10F08F4D3950883DF91CF9113951F77E1
:1002500000918C0B101719F01093080B29F40091E2
:100260008B0B039500938B0B1F910F912FBE2F903B
:1002700018952F922FB60F93CF93DF9300910A0B0F
:10028000C091090B0C1771F0CBE0DBE0C00F08F454
:10029000D395C881C093C60003950F7700930A0BCE
:1002A000789405C00091C1000F7D0093C100DF91DB
:1002B000CF910F912FBE2F9018952F922FB60F939D
:1002C00000912900087051F4009128000F7C0093E0
:1002D0002800009127000063009327000F912FBE94
:1002E0002F901895FC01F8944B9904C08091B305A8
:1002F000882311F03D98459A789481E08093B50564
:100300004B9B28C03699FCCF45983D9A1092B50575
:10031000379903C022E030E002C020E030E080B135
:100320008095992791838083F8944B9904C080919C
:10033000B305882311F03C98449A789481E0809327
:10034000B4054B9B07C0369BFCCF44983C9A109257
:10035000B40502C021E030E0C90108950E943814BC
:1003600084EE93E00E9439030895EF92FF920F9379
:100370001F93CF93DF93CDB7DEB722970FB6F894D4
:10038000DEBF0FBECDBF8E010F5F1F4F0F2EF4EEED
:10039000EF2EF3E0FF2EF02D0AC0482F4270698146
:1003A000C7010E9463059093E3038093E203C801B1
:1003B0000E94720180FFF1CF0197F1F0F8944B9900
:1003C00004C08091B305882311F03D98459A789434
:1003D00081E08093B505F8944B9904C08091B305F2
:1003E000882311F03C98449A789481E08093B40576
:1003F0003E98469A3F98479A22960FB6F894DEBFE9
:100400000FBECDBFDF91CF911F910F91FF90EF9065
:100410000895EF92FF920F931F93CF93DF93CDB781
:10042000DEB721970FB6F894DEBF0FBECDBFF894AC
:100430004B9904C08091B305882311F03D98459AEB
:10044000789481E08093B505F8944B9904C080912D
:10045000B305882311F03C98449A789481E0809306
:10046000B4053E98469A3F98479A04EE13E04B9B9A
:1004700069C0359BFCCF41E0BE016F5F7F4FC80173
:100480000E945C039093E3038093E20386FD03C024
:10049000EE24FF2406C047983F9AEE24FF24689478
:1004A000E1F8898181B9809582B946983E9A4B9B43
:1004B00049C0349B0AC0359B08C03F98479A3E9874
:1004C000469AF8944B9947C042C03599F0CF4B9B60
:1004D00039C0349BFCCF3E98469A3F98479A40E0FB
:1004E000BE016F5F7F4FC8010E945C039093E303DE
:1004F0008093E203882339F44B9B24C03499FCCFCA
:10050000EF2809F4B4CFF8944B9904C08091B30557
:10051000882311F03D98459A789481E08093B50541
:10052000F8944B9904C08091B305882311F03C984E
:10053000449A789481E08093B4053E98469A3F9817
:10054000479A20C03E98469A3F98479A1BC0809190
:10055000B305882311F03D98459A789481E0809303
:10056000B505F8944B9904C08091B305882311F028
:100570003C98449A789481E08093B4053E98469ADA
:100580003F98479A21960FB6F894DEBF0FBECDBFB5
:10059000DF91CF911F910F91FF90EF9008951F93DE
:1005A0004B9965C03E98469A3F98479A1092E3034C
:1005B0001092E20311E044983C9A1092B4058091A5
:1005C000B505882321F445983D9A1092B5054498C5
:1005D0003C9A1092B4051093B305F89489B13D98F4
:1005E000459A78941093B5054B991BC03699FCCF6A
:1005F00045983D9A1092B50560B1F89489B13C9840
:10060000449A78941093B4056095772784EE93E02C
:100610000E94F9049093E3038093E203369BFECF9C
:10062000CACF8091E2039091E3039C012070307F58
:1006300080E22030380749F445983D9A1092B5057C
:100640001092B3050E94B50110C01092B305F89442
:100650004B9B02C03D98459A789481E08093B50504
:100660002050304411F40E9409020E9438141F9156
:100670000895FC01809168048183805F8093680401
:1006800088E080831186138212820895CF93DF93CE
:10069000E0916904F0916A048783813041F4611527
:1006A000710521F0EB018981808701C0108681E00E
:1006B0008683DF91CF910895CF92DF92EF92FF92E0
:1006C0000F931F93CF93DF938C017B01C42EFC010A
:1006D00085810F2EFFE0DF2EF02DD822C281D3813D
:1006E000209729F5FFE0DF16A9F4F801818120E0C9
:1006F00030E042EC51E060E0815F0E94BD0CF80107
:100700008181815F0E94FC0CEC01F801938382835C
:10071000892B69F420E040E06DE382E991E00E94DA
:10072000C8060F2EF3E8EF2EFF24F02D41C0CE01B6
:100730000E94510ECE010E94320EF7018083898102
:1007400027E0829FC00111240B96FE01E80FF91FDC
:1007500080818C3F71F4248133272F5F3F4F838149
:100760009927281739072CF0EE24FF246894E6F81F
:1007700002C0EE24FF24CC20D9F4CE010E945D0EED
:100780008823B1F4CE010E940A0E882321F0CE0105
:100790000E94FF0E0DC0FFE0DF1611F0DD2041F4D6
:1007A000F80181818D0D0E94860FF801138212825B
:1007B000F80184819927982F88278E0D9F1DDF913E
:1007C000CF911F910F91FF90EF90DF90CF90089500
:1007D000EF92FF920F931F93CF93DF93CDB7DEB7C6
:1007E00021970FB6F894DEBF0FBECDBF7C01FC0190
:1007F0008481208199278F70907033278217930707
:1008000019F000E810E0E7C0F7018581382F3F704C
:100810009927807F9070803E9105E9F1803F910596
:1008200009F44DC08036910509F0C4C08181830F61
:100830000E94FC0CF70193838283892B19F000E05E
:1008400010E00AC080E091E09F938F930E945A0BC2
:1008500000E410E00F900F90F7018481807F8034D6
:1008600009F0B9C00115110559F441E0BE016F5FEF
:100870007F4FC7010E945C038C010F7B1070ABC0DF
:1008800087E191E09F938F930E945A0BF7011482A6
:100890000F900F90A0C03F3051F4F7018181682F75
:1008A000615F77270E94700D00E010E094C0F701AF
:1008B0008181830F0E94860F00E010E08CC0F70159
:1008C00016828581182F1F70F0926A04E0926904E5
:1008D00016821F3061F4B701675F7F4F818126E484
:1008E00033E042E951E0815F0E94BD0710C0B701CB
:1008F000675F7F4FF701818100E0113009F401E06B
:1009000026E433E042E951E0810F0E94040A882383
:1009100044F0E0916904F0916A0486818823D1F063
:1009200022C0992787FD90959F938F9387E291E04E
:100930009F938F930E945A0B20E040E06AE482E983
:1009400091E00E94C80602E010E00F900F900F9017
:100950000F902DC00E948C10E0916904F0916A0400
:1009600086818823B9F387818823D1F087818130FC
:1009700041F44085678120E082E991E00E94C80649
:1009800007C0678120E040E082E991E00E94C8064C
:10099000F7018181810F0E94860F00E010E007C0FF
:1009A000F7018181810F0E94550E00E010E0F701F0
:1009B000118611C0F701858199279F938F9381E557
:1009C00091E09F938F930E945A0B00E010E00F90EC
:1009D0000F900F900F90C80121960FB6F894DEBFCC
:1009E0000FBECDBFDF91CF911F910F91FF90EF9080
:1009F00008951F93CF93DF93EC01162F6F33B1F45B
:100A00008D81282F3327C901807F9070803F910509
:100A100041F0C9018F7090700F9719F040E050E0DD
:100A200037C0CE010E94E803AC0132C0262F332725
:100A3000C901807F907080369105E1F08136910583
:100A40003CF48032910559F080349105E9F407C0F7
:100A5000803E910579F0803F9105B1F411C02F706F
:100A60003070888199272817390701F51C8340E0E9
:100A700050E00CC01D83CE010E94E803AC0106C00B
:100A80006D8340E050E002C040E050E01F3519F4B3
:100A90001C821D820EC0288133278C8199278F707C
:100AA00090702817390729F0406803C040E050E0F3
:100AB000EDCF8C819927982F8827842B952BDF9158
:100AC000CF911F910895CF93DF93EC018D81282F53
:100AD0003327C9018F7090700F9731F0C901807F63
:100AE0009070803F910561F489858837A8F4FE01F4
:100AF000E80FF11D62878F5F898720E030E00EC02C
:100B000055278A819B810E94920E9B838A83892B21
:100B100019F423E830E002C020E030E08C8199270E
:100B2000982F8827820F931FDF91CF9108958F927E
:100B30009F92BF92CF92DF92EF92FF920F931F93FB
:100B4000CF93DF93B82EFB01EA01490180818F3FEB
:100B5000A1F0992787FD90959F938F9388E691E068
:100B60009F938F930E945A0B66E48B2DF401099595
:100B70000F900F900F900F902BC0E980FA800D819D
:100B800011270F2EF4E9CF2EF1E0DF2EF02DA80172
:100B9000B601C7010E948614F701E00FF11F3197DB
:100BA0001082F70101900020E9F73197EE19FF0953
:100BB0008CEF8883BE82EB831C8220E040E060E003
:100BC000C60102970E94C80660E08B2DF4010995CA
:100BD000DF91CF911F910F91FF90EF90DF90CF9019
:100BE000BF909F908F90089520E040E060E082E900
:100BF00091E00E94C80608951092680420E040E049
:100C000069E482E991E00E94C80608958DB79EB715
:100C10008D589B4008950E94F30A8EE20E94C80AF4
:100C20000E94F30A8AEC91E00E94000B0E94F30AF2
:100C30000895389A40980E949E130E94201481E0E3
:100C40000E9474100E94B20A0E9492080E944C0DE9
:100C50000E94FC050E94541488E00E94AE01789422
:100C60000E94EE0F0E940B060E9406069F938F9330
:100C700086EE91E09F938F930E945A0B89E999E346
:100C8000A0E0B0E0BF93AF939F938F9385EF91E087
:100C90009F938F930E945A0B0E94F30A0E94F30ABB
:100CA0008DB79EB70A960FB6F8949EBF0FBE8DBF44
:100CB0000E948C100E94CF02FBCF0F931F93CF9303
:100CC000DF93DC01EB0100E0552740585F4FFE0148
:100CD000E00FF11D0F5FC895202D822F99278417F3
:100CE000950719F02F3F59F0F2CF2F3F41F0FE0149
:100CF000E00FF11DC895E02DEE2324F00BC08FE32B
:100D00008D931EC00F5FFE01E00FF11DC895E02D11
:100D1000EE23C4F3FE01E00FF11D0F5FC895102D07
:100D2000103250F4412F62E971E0CD010E945D065E
:100D3000DC0111237CF704C0112314F01D93EACFCA
:100D4000CD01DF91CF911F910F910895CF93DF9344
:100D5000DC01262F643650F0862F64E60E9444178B
:100D6000805D8D93822F0E944417292F822F6AE085
:100D70000E944417805DFD018193822F0E944417D9
:100D8000905DED019983CF010196DF91CF91089598
:100D9000CF92DF92EF92FF920F931F93CF93DF9347
:100DA000162FC42ED22EEE24FF246894E1F8E80E0C
:100DB000F91E8EE2E70119928A95E9F7C7010E94B0
:100DC000A6069C01FC018CE28193133059F481E06A
:100DD000D81629F085E4E9018983319636C084E488
:100DE000819333C0193011F4D90103C0193431F59E
:100DF000FBCF8A2F821BECE7F0E0E80FF11DC895CE
:100E0000E02DED01E9831196EE2399F7ED0121968E
:100E1000193089F4ED018D01CE01801BE82FFF27E9
:100E2000E057FF4FC895E02D8E2F99270E9461173C
:100E30008993882389F7FE01319707C0412F67E91D
:100E400070E0CF010E945D06FC011CE211936C2D45
:100E5000CF010E94A606FC0111936D2DCF010E94C7
:100E6000A606FC018DE080831182FF92EF928EEF47
:100E700091E09F938F930E945A0B0F900F900F90C9
:100E80000F90DF91CF911F910F91FF90EF90DF9026
:100E9000CF900895FC0180818934B1F08A3438F410
:100EA000813461F08334F9F0843249F50AC0823527
:100EB00071F08335A9F08D3411F51BC089E090E005
:100EC000089582E090E0089583E090E008958181A4
:100ED0008D3419F488E090E0089584E090E008955E
:100EE00085E090E008958181843431F0883439F4CC
:100EF00003C087E090E0089586E090E0089581E0E7
:100F000090E00895843051F1853048F4813001F14A
:100F10008130C0F08230C9F0833089F41CC0873042
:100F200031F1883028F48530E1F0863041F41CC07E
:100F3000883001F1893019F481E192E0089588E167
:100F400092E0089589E192E008958BE192E008959E
:100F50008DE192E008958FE192E008958AE292E0B7
:100F6000089581E392E0089589E392E008958CE387
:100F700092E0089582E492E00895DF92EF92FF926A
:100F80000F931F93CF93DF93D82E8B01EA01790142
:100F900088E492E00E94000BC80101960E94000BB9
:100FA0000E94F30A0E94C50A41E066EB75E0C801A1
:100FB0000E94840B8091B705882319F489E192E09F
:100FC00002C00E9482079F938F9382E592E09F93D5
:100FD0008F930E945A0B8091B6050F900F900F903F
:100FE0000F908F3F19F48DE290E002C09927C096D0
:100FF0009F938F938AE592E09F938F930E945A0B61
:101000008091BA059091BB059F938F9384E692E0FF
:101010009F938F930E945A0B8DE692E00E94000BE3
:101020000091B905802F99270E945B172DB73EB715
:10103000285F3F4F0FB6F8943EBF0FBE2DBF892BE0
:1010400011F0802F01C08DE20E94C80A0E94F30AAD
:101050000E94C50A85E792E00E94000B0091B80546
:10106000802F99270E945B17892B11F0802F01C0D8
:101070008DE20E94C80A0E94F30A0E94C50A90915C
:10108000B705892F8450853068F5963081F0973008
:1010900028F4943041F0953071F407C0973049F04E
:1010A000983049F415C067E014C068E012C06EE0E3
:1010B00010C06DE00EC08BE792E00E94000B20E0B4
:1010C00040E06EE1CE010E94C8068FEF9FEF22C084
:1010D0006CE09701AE018D2D0E94F408992787FDE1
:1010E000909518C09930A1F46091BA057091BB0534
:1010F0008091B6050E944813882354F49701AE01ED
:101100006FE08D2D0E94F408992787FD909502C00D
:101110008FEF9FEFDF91CF911F910F91FF90EF9095
:10112000DF9008958FEF80936B0480937E04089581
:10113000CF93DF93982F80916B04891719F4C0E047
:10114000D0E007C080917E04891709F04AC0C1E051
:10115000D0E06623C4F4FE01EE0FFF1FCF01880F1D
:10116000991F880F991F880F991FE80FF91FEC0F1F
:10117000FD1FE559FB4F0188F289E02D60E070E02A
:101180008AE409951CC02BE634E0BE01660F771F88
:10119000CB01880F991F880F991F880F991F680F1F
:1011A000791F6C0F7D1FFB01E20FF31F41895289EC
:1011B000615F7F4F620F731F8785FA010995FE01FA
:1011C000EE0FFF1FCF01880F991F880F991F880FFF
:1011D000991FE80FF91FEC0FFD1FE559FB4F8FEF2B
:1011E0008083DF91CF9108954F925F926F927F92AB
:1011F0009F92AF92BF92CF92DF92EF92FF920F93A6
:101200001F93CF93DF93182F062F7A0169018091E6
:10121000B6058F3F39F41092B605E091BA05F0910A
:10122000BB0510828091B6050E944B13EC01892BFF
:10123000B1F48CE892E00E94000B8091B605805DCD
:101240000E94C80A0E94F30A0E94C50A20E040E0FA
:101250006AE4C7010E94C8068FEF90E0C5C0809184
:101260006B0488230CF4B9C080917E0488232CF48D
:101270008BE694E0DC01539611C08CE992E00E9469
:10128000000B0E94F30A0E94C50A20E040E066E4D9
:10129000C7010E94C8068FEF90E0A6C03D012091D3
:1012A000BC055D010894A11CB11C8091BA05909108
:1012B000BB05F501928381832583912EFD01018376
:1012C000F501168323831482EE81FF813097A9F004
:1012D000C501099588238CF483EB92E00E94000BF2
:1012E0000E94F30A0E94C50A20E040E062E2C701C2
:1012F0000E94C8068FEF90E077C0023009F470C0FA
:10130000053009F46DC044245524063019F40C81CD
:101310001D8102C000E010E0892D0E94FC0C892B89
:10132000A1F083ED92E00E94000B0E94F30A0E945C
:10133000C50A20E040E066E4C7010E94C806892D86
:101340000E94860F8FEF90E04FC09801AE01642D90
:10135000892D0E94BD0C582E882324F583EE92E03F
:101360000E94000B852D82958F7007E313E0F80132
:10137000E80FF11D80810E94C80A852D8F70080F2B
:10138000111DF80180810E94C80A0E94F30A0E9480
:10139000C50A20E040E066E4C7010E94C8068FEF5E
:1013A00090E022C0F301D28AC18A90823896C301AC
:1013B0000F969283818382E085838DEF86831482EA
:1013C0001382AA81BB8128E938E0AF01B501892DDC
:1013D000FD01099580E090E007C0ABE6B4E05ECF88
:1013E00044245524439496CFDF91CF911F910F91C0
:1013F000FF90EF90DF90CF90BF90AF909F907F9045
:101400006F905F904F900895EF92FF920F931F930C
:10141000CF93DF93182FCB01EA01790140E066EB0F
:1014200075E00E94840B8091B705882391F082308B
:1014300081F086EE92E00E94000B8091B7050E9439
:1014400082070E94000B0E94F30A0E94C50A1092B4
:10145000B7058091B8058823C9F08335B9F0803588
:10146000A9F087EF92E00E94000B8091B8050E94DE
:10147000C80A0E94F30A0E94C50A20E040E060E426
:10148000CE010E94C8068FEF9FEF50C08091B90532
:101490008823D9F08735C9F08235B9F08134A9F0B5
:1014A0008AE093E00E94000B8091B9050E94C80A6F
:1014B0000E94F30A0E94C50A20E040E06EE1CE01DE
:1014C0000E94C8068FEF9FEF31C09091B705923010
:1014D000A9F48823A9F0823599F083E293E00E9471
:1014E000000B0E94F30A0E94C50A20E040E06FE36F
:1014F000CE010E94C8068FEF9FEF18C08735A1F07C
:10150000002311F062E001C061E0813409F465E07C
:10151000923009F466E09701AE01812F0E94F40831
:10152000992787FD909502C062E0F2CFDF91CF91BD
:101530001F910F91FF90EF900895809112051092E6
:1015400013059EEF909319058093160510921705C9
:10155000E091CA03F091CB0383E195E009951092E5
:10156000120508951092120581E994E090931505F3
:101570008093140581E8809318058DEF80931905F9
:10158000109217051092160508950E94EA11089509
:101590001F93CF93DF93182F909117058091160515
:1015A000981769F0C6E6DEE00E948C10CE01019724
:1015B000F1F790911605809117059817A9F780917A
:1015C0001205813850F4E1E9F4E0E80FF11D1083D1
:1015D0008F5F80931205813810F00E949D0ADF9181
:1015E000CF911F9108958DE00E94C80A8AE00E9461
:1015F000C80A80911205882311F00E949D0A08955F
:10160000FF920F931F93CF93DF938C019091160558
:1016100080911705981769F0C6E6DEE00E948C10ED
:10162000CE010197F1F79091160580911705981753
:10163000A9F7F80101900020E9F73197FE2EF01A82
:10164000809112058F0D912D911D8138910514F017
:101650000E949D0A9091170580911605981769F0D0
:10166000C6E6DEE00E948C10CE010197F1F7909162
:101670001605809117059817A9F780E88F1520F4B3
:101680000F2EF1E8FF2EF02D209112054F2D55273A
:10169000B80181E994E0820F911D0E946B14809142
:1016A00012058F0D80931205DF91CF911F910F913D
:1016B000FF9008950F931F93CF93DF93CDB7DEB7BD
:1016C000C358D0400FB6F894DEBF0FBECDBFFE01A9
:1016D000E657FF4F61917191FA83E9838E010D5FA7
:1016E0001F4FAF01C8010E949514C8010E94000B52
:1016F000CD57DF4F0FB6F894DEBF0FBECDBFDF91E1
:10170000CF911F910F9108956F927F929F92AF9208
:10171000BF92CF92DF92EF92FF920F931F93CF93DE
:10172000DF93CDB7DEB721970FB6F894DEBF0FBEBB
:10173000CDBFFC013B01C42E5C010894A11CB11C6F
:1017400090818FEFFB0180831182128282E5838377
:10175000442331F0158214821682F4E0F98306C026
:10176000FB01B582A4829683F6E0F983992309F4FC
:1017700097C0D92EDA9475010894E11CF11C8501FB
:1017800099248981833009F479C0843038F4813018
:1017900009F455C0823008F062C03BC09981953091
:1017A000B9F0953020F0963009F070C028C0F301F0
:1017B0008181882369F4F801808199270E9452175A
:1017C000892B31F0C8010E944A07F30181831682F8
:1017D000F8012081822F9927C0970A9720F4822F41
:1017E0008053F3018083F80180818A3309F04EC071
:1017F000F301F582E482D682F1E0F98347C0F80173
:101800008081843231F482E0F30181831682F5E035
:10181000F983F8012081822F9927C0970A9728F42D
:101820000F2EF0ED9F2EF02D920E2A3341F4F3018E
:101830009082F582E482D682F1E0F98327C0CC2041
:1018400029F5F80180818C3209F5F3018481F02FAC
:10185000F81B8F2FF3018683F2E0F98317C0F301A1
:101860008281882321F4F8018081F3018283F801C9
:1018700080818C3259F4F3E0F98308C0F30183814D
:10188000882321F4F8018081F3018383DA9408949A
:10189000E11CF11CFFEFDF1619F00F5F1F4F71CF36
:1018A000F30184819581A816B90661F44681552714
:1018B000B501C50101960E947414F30186818F5F02
:1018C000868309C0F30186818F5F86838481958139
:1018D000019795838483F301A481B58180818C93E2
:1018E00021960FB6F894DEBF0FBECDBFDF91CF912A
:1018F0001F910F91FF90EF90DF90CF90BF90AF902E
:101900009F907F906F900895CF93DF93EC0187E0D5
:10191000689FB0011124655F7F4FDE01A60FB71FDE
:1019200098818FEF8C93FD019683138214828F81AF
:10193000882371F481E08F83EB81FC810280F38145
:10194000E02D2CE13DE0AD01BD018881099512C07B
:10195000833081F48A81882369F484E08F83EB816A
:10196000FC810280F381E02D2CE13DE0AD01BD0161
:1019700088810995DF91CF9108950F931F93182FB8
:10198000062FB901A7E0B0E0ECEEF9E02DEB35E071
:10199000808188232CF589E990E0FD01E89FD00142
:1019A000E99FB00DF89FB00D1124FD01E20FF31F68
:1019B0001083118202835483438376836583FD0100
:1019C0003B96E20FF31F1482138216835296A20FE6
:1019D000B31FFD0114821382168380E090E009C0DA
:1019E0001197E959F0408FEFAF3FB80789F68FEFB5
:1019F0009FEF1F910F910895282F97E0ECEEF9E0EB
:101A00008081821789F4892F992787FD909529E98C
:101A100030E0AC01429FC001439F900D529F900D5A
:101A2000112483549A4F08959150E959F0409F3FF3
:101A300039F780E090E008951F93162F0E94FC0C68
:101A4000FC01892B59F010878781813019F482E0DD
:101A5000878304C0843011F485E087831F91089543
:101A6000DC018FEF8C93FD01178211863B96CD012F
:101A700049969283818390E495838DEF86831482C7
:101A80001382FD017296A75ABF4FB283A18395833B
:101A90008683148213820895CF93DF93CCEED9E02E
:101AA00061E0CE010E94300DC959D04085E0C432BA
:101AB000D807B1F7DF91CF9108951F93162F0E9499
:101AC000FC0CFC01892B51F012878185823019F4BE
:101AD00081E0818703C0813009F411861F91089548
:101AE0000F931F93062F681760F0182F812F0E9405
:101AF000FC0C009719F061E00E94300D1F5F011788
:101B0000A8F71F910F910895EF92FF920F931F93E3
:101B1000CF93DF938C01F62EEC018A81882309F0A4
:101B200072C00F2EF3E0EF2EF02DF801878188238D
:101B300029F4118260E0C8010E94840CFF2079F032
:101B4000E8018F81813059F4C6E6DEE00E948C10F6
:101B5000CE010197F1F7F80187818130B9F3E801EF
:101B60008F818230F9F4898127E0829FC00111249E
:101B70000B96F801E80FF91F94818381981730F0D4
:101B800080818C3F19F0F801178238C0E8012D815F
:101B90003E812115310519F0CF01F9010995F801B0
:101BA000E7822CC0853051F5E801898121E030E0E1
:101BB000281B3109C901880F991F880F991F880FA9
:101BC000991F821B930B0B96F801E80FF91F948164
:101BD0008381981730F080818C3F19F0F801E782FB
:101BE00012C0E8012D813E812115310519F0CF0188
:101BF000F901099586E0F801878305C0E8018F8126
:101C0000882309F492CFDF91CF911F910F91FF901C
:101C1000EF9008950F931F938C0161E00E94840D53
:101C2000F801818127E0829FC00111240B96E80F03
:101C3000F91F80818C3F19F020E030E00AC020E0DD
:101C400094818381981708F421E081E08227282F6E
:101C5000332780E090E0232B11F481E090E01F9186
:101C60000F9108950F931F93CF93DF938C0161E041
:101C70000E94840DE801898127E0829FC001112420
:101C80000B96080F191FF80184810180F281E02D65
:101C9000E80FF11D80819927DF91CF911F910F915E
:101CA000089561E00E94840D08950E94FC0C009745
:101CB00019F061E00E94840D0895CF93DF93EC0149
:101CC00061E00E94840D29818F818330A9F4822FE5
:101CD0009927FC01EE0FFF1FEE0FFF1FEE0FFF1FF6
:101CE000E81BF90BEC0FFD1F83858C3F29F061E0A9
:101CF000621BCE010E94840C898127E0829FC00173
:101D000011240B96FE01E80FF91F84818F5F8483F5
:101D100020E09381891708F421E0822F9927DF9131
:101D2000CF910895AF92BF92DF92EF92FF920F93FF
:101D30001F93CF93DF938C01EC018985882311F4E5
:101D400081E08987F80130810F2EFBE0AF2EBB24A4
:101D5000F02DA00EB11E818127E0829FC0011124C9
:101D60007501E80EF91EE7018B81E981FA81E80F20
:101D7000F11D6083982F9F5F9B838D81981711F0D1
:101D8000452B91F1D32E8EEFF70180833683938319
:101D90001482E8018985823059F4C6E6DEE00E94AB
:101DA0008C10CE010197F1F7F80181858230B9F3EB
:101DB00082E0E8018987EB81FC810280F381E02DDC
:101DC0002DE53DE0A701B7018D2D0995298181E021
:101DD000821B898327E0829FC0011124F501E80F4F
:101DE000F91F14821382D682C801DF91CF911F910F
:101DF0000F91FF90EF90DF90BF90AF900895BF924A
:101E0000CF92DF92EF92FF920F931F93CF93DF93C6
:101E10008C01EC0129810F2EFBE0EF2EFF24F02D29
:101E2000E80EF91E822F9927FC01EE0FFF1FEE0F1F
:101E3000FF1FEE0FFF1FE81BF90BEE0DFF1D80814A
:101E40008C3F09F452C081E0B82EB21A87E0B89EE8
:101E5000C00111246701C80ED91E8F81843059F446
:101E6000C6E6DEE00E948C10CE010197F1F7F80182
:101E700087818430B9F38530C9F4E801ED81FE81B2
:101E8000309789F0898121E030E0281B3109C901B0
:101E9000880F991F880F991F880F991F821B930B1A
:101EA0008E0D9F1D099586E0F8018783E6019C81D0
:101EB0008B819817D0F4F801B18283E087838B2D52
:101EC0009927FC01EE0FFF1FEE0FFF1FEE0FFF1F04
:101ED000E81BF90BEE0DFF1D80818C3F61F061E086
:101EE0006B19C8010E94840C06C060E0C8010E9402
:101EF000300D00E010E0C801DF91CF911F910F91EC
:101F0000FF90EF90DF90CF90BF900895FF920F93D6
:101F10001F93CF93DF93F82E0E94FC0CEC01898570
:101F2000882391F1813051F006E61EE00E948C106A
:101F3000C8010197F1F789858130C1F7898127E0D0
:101F4000829FC00111240B96BE01680F791FFB010F
:101F50008CEF8083F6821482AB81BC81FD01A2816B
:101F6000B3812DE53DE0AB018F2DFD0109958985FC
:101F7000813051F406E61EE00E948C10C8010197E2
:101F8000F1F789858130C1F360E0CE010E94300D08
:101F9000DF91CF911F910F91FF900895DC01FB011C
:101FA00080818823C1F0813410F499270FC08B35CC
:101FB00018F4805899270AC0813610F4992706C072
:101FC0008B3718F48052992701C099278D93319649
:101FD0008081882341F71D92CD0108951F9310E859
:101FE0000E94E5138823E1F38FE70E940D1411503E
:101FF000B9F71F9108951F93CF93DF9314E067C043
:10200000A0911B05B0911C0580912305813099F0AA
:1020100082301CF4882341F004C08230B1F0833058
:1020200011F12FEF3FEF2FC081E0809323058C91BA
:10203000282F332728C082E080932305ED018B8170
:1020400099279C012D5F3F4F1EC0FD018681282FDF
:1020500033278381882319F41093230514C083E068
:102060008093230510C0ED019C81E981FA81E90F7D
:10207000F11D80819F5F9C83282F33278B819817C8
:1020800010F010932305332324F0822F0E940D14A7
:102090001EC050911A05852F815080931A05882300
:1020A000A1F020E030E041E06BE175E0E22FFF2796
:1020B000EE0FFF1FE60FF71F8281938191838083CC
:1020C0002F5F3F4F4F5F541789F710922305809180
:1020D0001A05882329F00E94E513882309F090CF80
:1020E000DF91CF911F91089510921A059FEF909361
:1020F000330590932E059093290590932405109213
:10210000380594E090932305482F6AEC73E087E448
:1021100093E00E946E1308950E94F31399230CF428
:10212000D2C0482F20913805223011F1233034F4E9
:10213000222359F0213009F0C1C013C0233009F423
:102140007FC0243009F0BAC087C08D5F823018F09C
:102150004C3F09F0B3C040933E0581E080933805C1
:10216000ADC0835080933D0582E080933805A6C0C2
:102170008093390584E08093380520E030E0E4E284
:10218000F5E08081481721F520933A05822F9927A1
:1021900087FD9095FC01EE0FFF1FEE0FFF1FE80F6C
:1021A000F91FEC5DFA4F0180F281E02DF0933C05C0
:1021B000E0933B0520913E0590913D05858189176F
:1021C00068F020834683138283E08093380506C03D
:1021D0002F5F3F4F35962430310599F680913D05AC
:1021E000882309F06BC080913A05992787FD909567
:1021F000FC01EE0FFF1FEE0FFF1FE80FF91FEC5D54
:10220000FA4F0380F481E02D80913805843011F479
:102210006FEF01C060E0842F099580913A059927FE
:1022200087FD9095FC01EE0FFF1FEE0FFF1FE80FDB
:10223000F91FEC5DFA4F8FEF8083109238053EC096
:10224000E0913B05F0913C058381A181B281A80F0B
:10225000B11D4C938F5F838380913D0581508093A6
:102260003D0518165CF180913A05992787FD9095F8
:10227000FC01EE0FFF1FEE0FFF1FE80FF91FEC5DD3
:10228000FA4F0380F481E02D243011F46FEF01C088
:1022900060E080913905099580913A05992787FD7D
:1022A0009095FC01EE0FFF1FEE0FFF1FE80FF91FC7
:1022B000EC5DFA4F8FEF8083109238050E94F31384
:1022C00099230CF02ECF0E94FB0F0895CF93DF933C
:1022D000EC0180911A05833030F00E948C108091BF
:1022E0001A058330D0F7E82FFF27EE0FFF1FE55EBA
:1022F000FA4FD183C0838F5F80931A05813021F418
:10230000109223050E94FB0FDF91CF910895CF9289
:10231000DF92EF92FF920F931F93CF93DF93082FDB
:10232000EB017A01690188237CF4992787FD909558
:102330009F938F938AE493E09F938F930E945A0B0D
:102340000F900F900F900F908E8188237CF4992727
:1023500087FD90959F938F9389E693E09F938F934A
:102360000E945A0B0F900F900F900F901FEF0FC00D
:10237000122F09C080818823DCF32F5F3F4F3596F1
:1023800024303105B9F70E948C1011232CF420E081
:1023900030E0E4E2F5E0EECF812F992787FD9095BC
:1023A000FC01EE0FFF1FEE0FFF1FE80FF91FEC5DA2
:1023B000FA4F0083F282E182D482C382CE010E946E
:1023C0006611DF91CF911F910F91FF90EF90DF90F9
:1023D000CF90089580911A05882331F00E948C10C7
:1023E00080911A058823D1F70895EF92FF920F93F9
:1023F0001F93CF93DF937C01009739F48BE893E030
:102400000E94000B8FEF9FEF0CC1EC0109811A8134
:10241000F8016285613019F0AFE3B5E008C081E0F2
:1024200080933F0584E080934005A1E4B5E081E01E
:10243000ED018993FD018183AE014F5F5F4FE8019C
:102440008B81882309F0DFC02A812A3F08F0DBC096
:10245000293F41F489818F3F29F48881882309F03D
:10246000D2C0C7C0F801818199273327322F222794
:10247000282B392B8081882311F02F5F3F4FDA0101
:102480002D93832F9927EA018983FD0131962A3004
:10249000310520F480E2ED0189833196613019F431
:1024A00082E1819315C0623009F455C024363105AC
:1024B00018F480E2819304C083E0283E380718F4C2
:1024C00080E2819303C02051374210F480E281936F
:1024D00082E28193E8018B85882309F49EC0D801AC
:1024E0002BE0813410F499270FC08B3518F48058F5
:1024F00099270AC0813610F4992706C08B3718F443
:102500008052992701C0992781932F5FED018C8517
:10251000882329F482E281932C3130F00AC011968D
:102520002B31F9F682E2819380E281932F5F2C3187
:10253000D8F3613039F466E973E0CF010E94CE0F21
:10254000FC011EC0633039F46DE973E0CF010E94D5
:10255000CE0FFC0115C0662339F461EA73E0CF01A8
:102560000E94CE0FFC010CC0623051F465EA73E0AA
:10257000CF010E94CE0FFC011192EC01198231961D
:102580008FE395E00E2F081BC02FDD27F701858113
:10259000992787FD90958C179D07F4F481EB93E0C4
:1025A0000E94000B802F82958F7002ED13E0F801DE
:1025B000E80FF11D80810E94C80AFE01EF70F070E3
:1025C000E00FF11F80810E94C80A0E94F30A0E9456
:1025D000C50A8FEF9FEF25C0402F55276FE375E0A9
:1025E000E70189819A810E946B140B8380E090E05F
:1025F00018C0FA018FEF819389EFEA018983319640
:102600002FEF39EF4BCFFA018FEF819389EFEA017A
:10261000898331962FEF39EF41CF82E281932BE00E
:1026200083CFDF91CF911F910F91FF90EF9008958D
:10263000FC01A181B2818381992787FD9095882330
:1026400021F1282F8C91813410F4992719C08B35F2
:1026500018F4805E992714C0813610F4992710C0B1
:102660008B3718F4805299270BC0813C10F49927BE
:1026700007C08B3D20F499278F77907001C0992770
:102680008C93215011F01196DDCF80E090E00895F9
:102690008FEF9FEF089529E030E0E0EBF5E0482F61
:1026A00055278081992787FD90958417950751F4C8
:1026B000F901EE0FFF1FE20FF31FEB56FA4F818176
:1026C000928108952150304033978FEF2F3F380784
:1026D00041F780917F05909180050895CF93DF9316
:1026E000EC0123E030E0E0E9F5E0A0917F05B09156
:1026F000800580819181892B89F4F901EE0FFF1FFC
:10270000EE0FFF1FE20FF31FEF57FA4FD183C08385
:1027100073836283442349F0DB0107C021503040BA
:1027200035978FEF2F3F380721F7B0938005A0939F
:102730007F0580E090E0DF91CF910895E1E8F5E03A
:102740008DE695E0128A118A108A17863597E81768
:10275000F907C1F7E5E9F5E02FEF87E795E0158E7A
:10276000148E238F3397E817F907C9F708951F923E
:102770000F920FB60F9211248F939F938091860A28
:102780009091870A01969093870A8093860A9F9179
:102790008F910F900FBE0F901F90189582E085BD0E
:1027A0008FEF98E0909389008093880010928500C5
:1027B00010928400109280008BE080938100EFE6FD
:1027C000F0E080818260808308958091090B909170
:1027D0000A0B20E030E08F5F8F77891711F021E03E
:1027E00030E0C90108959091080B80918C0B9817E7
:1027F00019F42FEF3FEF0FC080918C0BE8E8FAE05F
:10280000E80FF11D8081282F332780918C0B8F5F7B
:102810008F7780938C0BC90108959091090BEBE0A1
:10282000FBE0E90FF11D80838091090B8F5F8F77AB
:102830008093090BE1ECF0E0808180628083089551
:102840001092090B10920A0B1092080B10928C0B2D
:10285000E1ECF0E088E0808380818061808387E024
:102860008093C4001092C5008081806880830895A1
:102870001092B30511B88FEF82B93E98469AF8943A
:102880004B9B02C03D98459A789481E08093B505B2
:10289000F8944B9B02C03C98449A789481E08093D2
:1028A000B4053F98479A08950F931F9303E710E0EC
:1028B000F8018081877F80830E943814DB9AF801B9
:1028C000808188608083E8E6F0E080818860808392
:1028D0001F910F910895FB01DC0102C001900D9240
:1028E00041505040D8F708956817790768F4FB0104
:1028F000DC01E40FF51FA40FB51F02C002900E9279
:1029000041505040D8F708950C946B14FB01DC0142
:102910004150504048F001900D920020C9F701C08D
:102920001D9241505040E0F70895AEE0B0E0EBE971
:10293000F4E10C947A178C0186E08C831A83098366
:102940008FEF9FE79E838D83CE0101960E94B11485
:10295000EF81F885E00FF11F1082E4E02E960C94D1
:102960009617ABE0B0E0E7EBF4E10C946E174C0186
:102970003B016A01FC0117821682838181FD03C03D
:102980008FEF9FEFDCC1F4012381F30123FD8591DB
:1029900023FF81913F01882309F4CEC1853239F4A8
:1029A00023FD859123FF81913F01853229F4B401F4
:1029B00099270E94B916E7CF00E0442455243AE055
:1029C0000032B0F48B3269F08C3228F4803251F04E
:1029D000833271F40BC08D3239F0803349F40160D9
:1029E00028C00260046025C0086023C0006121C0C7
:1029F00007FD2BC0282F20532A3078F406FF06C08D
:102A0000539EC0011124522E580E13C0439EC00184
:102A10001124422E480E00620CC08E3221F406FDB5
:102A20008BC1006406C08C3611F4006802C0883681
:102A300061F4F4018381F30183FD859183FF81912A
:102A40003F01882309F46FC0BBCF982F8554833092
:102A500018F08052833038F424E030E0C20ED31EE8
:102A60008FE389830FC0933631F0933799F0933514
:102A700009F05BC023C0F6018081898322E030E049
:102A8000C20ED31E7E010894E11CF11C51E0A52E5C
:102A9000B12C12C0F601E080F18006FD03C06FEF9B
:102AA0007FEF02C0652D772722E030E0C20ED31EF3
:102AB000C7010E94AE165C010F7713C0F601E080DB
:102AC000F18006FD03C06FEF7FEF02C0652D772711
:102AD00022E030E0C20ED31EC7010E94A3165C01A3
:102AE000006803FF07C01BC0B40180E290E00E94B1
:102AF000B9164A94842D9927A816B906A8F30FC0D1
:102B0000F70107FD859107FF81917F01B4019927A6
:102B10000E94B91641104A940894A108B108A11462
:102B2000B10471F706C190E03EC0943611F09936B9
:102B300091F507FF0AC0F60160817181828193815E
:102B400024E030E0C20ED31E0DC0F60180819181D9
:102B50009C01B901882777FD8095982F42E050E0CD
:102B6000C40ED51E4FE6B42EB02297FF09C0909533
:102B70008095709561957F4F8F4F9F4F50E8B52A94
:102B80008E010F5F1F4F2AE030E0A8010E94E61679
:102B9000A82EA01A4DC0953731F43FEEF32EF02247
:102BA0002AE030E023C029EFF22EF0229F3661F0B8
:102BB000903720F4983509F0BFC012C0903739F033
:102BC000983709F0B9C005C028E030E00FC080E1B7
:102BD000F82AF4FE02C094E0F92A20E130E006C0B1
:102BE000F4FE02C0E6E0FE2A20E132E0F7FE0AC071
:102BF000F601608171818281938144E050E0C40ECE
:102C0000D51E0BC0F60180819181AC01BA018827E5
:102C10009927E2E0F0E0CE0EDF1E8E010F5F1F4F1E
:102C2000A8010E94E616A82EA01A8FE7B82EBF2092
:102C3000B6FE10C0FEEFBF22A51460F42B2D332783
:102C400024FF1AC022FF02C0052D09C02FEEB222B8
:102C5000052D01C00A2D2B2D332724FF0EC0FE01A8
:102C6000EA0DF11D8081803319F439EEB32209C0D9
:102C70000F5F22FF06C004C0052D822F867809F061
:102C80000F5FEB2CFF24E3FC14C0E0FE0FC0041523
:102C900010F05A2C0BC0542C501A5A0C042D06C09C
:102CA000B40180E290E00E94B9160F5F0415C0F3F2
:102CB00004C0041510F4401A01C04424E4FE10C0FE
:102CC000B40180E390E00E94B916E2FE1EC0E1FE6E
:102CD00003C088E590E002C088E790E0B4010CC032
:102CE0008E2D867891F0E1FE02C08BE201C080E279
:102CF000B7FC8DE2B40199270E94B91606C0B40151
:102D000080E390E00E94B9165A94A514C0F3AA94E7
:102D1000FE01EA0DF11D8181B40199270E94B916C7
:102D2000AA2039F0F4CFB40180E290E00E94B916F5
:102D30004A944420C1F727CEF40186819781E0E1CF
:102D40002B960C948A17FC0105906150704001107D
:102D5000D8F7809590958E0F9F1F0895FC016150C4
:102D6000704001900110D8F7809590958E0F9F1FAD
:102D700008950F931F93CF93DF938C01EB018B8109
:102D8000992781FF1BC082FF0DC02E813F818C815E
:102D90009D812817390764F4E881F9810193F9834B
:102DA000E88306C0E885F985802F0995892B31F4E1
:102DB0008E819F8101969F838E8302C00FEF1FEF4C
:102DC000C801DF91CF911F910F910895FA01AA27B1
:102DD000283051F1203181F1E8946F936E7F6E5F5E
:102DE0007F4F8F4F9F4FAF4FB1E03ED0B4E03CD00C
:102DF000670F781F891F9A1FA11D680F791F8A1FEF
:102E0000911DA11D6A0F711D811D911DA11D20D055
:102E100009F468943F912AE0269F11243019305D0F
:102E20003193DEF6CF010895462F4770405D419300
:102E3000B3E00FD0C9F7F6CF462F4F70405D4A334D
:102E400018F0495D31FD4052419302D0A9F7EACF15
:102E5000B4E0A6959795879577956795BA95C9F744
:102E600000976105710508959B01AC010A2E069437
:102E70005795479537952795BA95C9F7620F731FF0
:102E8000841F951FA01D0895991B79E004C0991F08
:102E9000961708F0961B881F7A95C9F780950895B4
:102EA00085FD17C08062911114C081568A51E0F7E8
:102EB0000895803209F091110CC080528F55E0F7CF
:102EC00008959111089581568A5108F480528558C9
:102ED00008959927882708952F923F924F925F92E5
:102EE0006F927F928F929F92AF92BF92CF92DF921A
:102EF000EF92FF920F931F93CF93DF93CDB7DEB77F
:102F0000CA1BDB0B0FB6F894DEBF0FBECDBF099412
:102F10002A88398848885F846E847D848C849B8469
:102F2000AA84B984C884DF80EE80FD800C811B8177
:102F3000AA81B981CE0FD11D0FB6F894DEBF0FBEA6
:082F4000CDBFED010895FFCFA4
:102F4800446964206E6F742066696E6420636861EA
:102F58006E6E656C210A0046494C45204E4F542040
:102F6800464F554E440A005265636569766564208C
:102F7800646972656374206572726F72206E756D14
:102F8800626572206F6E206F70656E3A2025640A44
:102F980000556E6B6E6F776E20636F6D6D616E643A
:102FA80020253032580A0A00534E483A207061638F
:102FB8006B65742074797065206973206E6F742056
:102FC80046535F524541442C206275743A2025646B
:102FD8000A00F405000000000000000000000000E6
:102FE80000000000000000000000000000000000D9
:102FF80000000000000000000000000000000000C9
:1030080000000000970500000000232323205853E8
:103018002D313534312F5844323033312076302E2B
:1030280031202323230020257520427974657320DD
:1030380066726565002C202564206B487A0053650C
:10304800742073746174757320746F3A2025730A41
:103058000041535349474E00002D0024003F0049CA
:103068004E495449414C495A450052454E414D45F7
:103078000053435241544348004344004D4B444994
:103088005200524D44495200434F4D4D414E443A2F
:103098002000434D443D25730A0044524956453D9E
:1030A80025630A004E414D453D25730A00414343BF
:1030B8004553533D00545950453D00494C4C4547F4
:1030C800414C20434F4D4D414E442100494C4C4505
:1030D80047414C2044524956453A20004E4F204F14
:1030E80050454E20534C4F5420464F52204F504588
:1030F8004E21004E414D4520434F4E5645525349AF
:103108004F4E204558434545445320425546464571
:1031180052210046494C45204F50454E20455252B9
:103128004F5200453D004E4F20434F5252454354A5
:1031380020434D443A2000554E4B4F574E204649A8
:103148004C4520545950453A2000554E4B4F574E48
:103158002046494C45204143434553532054595038
:10316800452000575249544520544F204449524560
:1031780043544F52592100303132333435363738C1
:1031880039616263646566667300212121212073B9
:1031980075626D69742077697468206368616E6E02
:1031A800656C6E6F3D25640A00212121212073750D
:1031B800626D69742077697468207061636B6574E7
:1031C8002D3E6368616E3D25640A005020495320F6
:1031D8004E554C4C210078643230333100646972AA
:1031E8000070726700626C6F636B7320667265654E
:1031F80000434F4E56455253494F4E204E4F542090
:10320800504F535349424C45210066118711F5111F
:1032180018133031323334353637383961626364E4
:023228006566D9
:00000001FF
