:100000000C94AF020C94CC020C94CC020C94CC0255
:100010000C94CC020C94CC020C94CC020C946A0389
:100020000C94CC020C94CC020C94CC020C94CC0218
:100030000C94CC020C9418030C94CC020C94CC02BB
:100040000C94CC020C94CC020C94CC020C94CC02F8
:100050000C94CE020C94F4020C94CC020C94CC02BE
:100060000C94CC020C94CC020C94CC020C94CC02D8
:100070000C94CC020C94CC020C94CC0252656365B7
:100080006976656420646972656374206572726F55
:1000900072206E756D626572206F6E206F70656E76
:1000A0003A2025640A0046494C45204E4F542046CC
:1000B0004F554E440A00446964206E6F742066698F
:1000C0006E64206368616E6E656C210A005365740E
:1000D00074696E672066696C65206E6F74206F703E
:1000E000656E206F6E2073656361646472202564A1
:1000F0000A002323232058532D313534312F5844FF
:10010000323033312076302E3920232323005853C8
:100110002D313534312F5844323033312056302E82
:1001200039205243310080204F4B810253205343EA
:10013000524154434845449A0350524F5445435406
:1001400020019C03019EA2A8A9A60401A7022005E4
:1001500007BD02200506BF0220455849535453C02D
:10016000022054595045204D49534D41544348C2F3
:100170000805454D5459C3095045524D49535349FB
:100180004F4EC447454E4552414C204641554C5474
:10019000C6094348414E4E454CC70801C84449531F
:1001A0004B2046554C4CCA445249564520055245B1
:1001B00041445900536574207374617475732074DD
:1001C0006F3A2025730A00814552524F52824649A8
:1001D0004C45835752495445208453594E544158F5
:1001E00020854E4F5420864F50454E87464F554EE2
:1001F000448844495220894E4F2000434F4E46497F
:100200004755524154494F4E20455854454E534945
:100210004F4E00494E495449414C495A4500494CBA
:100220004C4547414C20434F4D4D414E44210054D5
:100230005950453D004143434553533D004E414DC8
:10024000453D25730A0044524956453D25630A0041
:10025000434D443D25730A00434F4D4D414E443AB2
:100260002025730A00453D0046494C45204F504526
:100270004E204552524F52004E414D4520434F4E65
:1002800056455253494F4E20455843454544532007
:1002900042554646455221004E4F204F50454E2074
:1002A000534C4F5420464F52204F50454E21004949
:1002B0004C4C4547414C2044524956453A20006633
:1002C000696C655F7375626D69745F63616C6C3ACC
:1002D000207274636F6E66206973206E756C6C009B
:1002E00066696C655F7375626D69745F63616C6C80
:1002F0003A206572726F726D7367206973206E7534
:100300006C6C00575249544520544F204449524583
:1003100043544F52592100554E4B4F574E2046499A
:100320004C452041434345535320545950452000E8
:10033000554E4B4F574E2046494C45205459504539
:100340003A20004E4F20434F525245435420434DD4
:10035000443A2025730A004F50454E2046494C45EB
:100360003A20464F52204348414E3A2025642057B8
:10037000495448204E414D453A2025730A0066698C
:100380006C655F6F70656E3A2062757320697320CB
:100390006E756C6C00434F4E56455253494F4E207C
:1003A0004E4F5420504F535349424C45210050204A
:1003B0004953204E554C4C21002121212120737599
:1003C000626D69742077697468207061636B65740D
:1003D0002D3E6368616E3D25640A002121212120A4
:1003E0007375626D69742077697468206368616EE3
:1003F0006E656C6E6F3D25640A00526567697374A3
:1004000065722070726F766964657220257020664F
:100410006F7220272573270A006E6F7420666F7530
:100420006E642C2072657475726E696E67206465E7
:100430006661756C740A00666F756E6420257020A5
:10044000696E20736C6F7420256420286465666172
:10045000756C743D2570290A0070726F7669646549
:10046000725F6C6F6F6B757020666F72206472695B
:1004700076652025640A0052656769737465722089
:1004800070726F7620257020666F722064726976B4
:100490006520256420776974682064617461202573
:1004A0007020696E20736C6F742025640A004465A7
:1004B0006661756C74206973206E6F742072656755
:1004C000697374657265642C20666F7277617264FB
:1004D000696E6720746F207365727665720A0044D6
:1004E00072697665202564206E6F7420757365646B
:1004F0002C2063616E6E6F7420646F2072656C6176
:10050000746976652061737369676E210A004153CF
:100510005349474E3A2064726976652025642074F9
:100520006F20272573270A0053455454494E47200E
:1005300044524956452320544F2025640A00534510
:100540005454494E4720554E49542320544F20259A
:10055000640A00434D443A272573270A00001124FA
:100560001FBECFEFD0E1DEBFCDBF11E0A0E0B1E014
:10057000EEE8FAE302C005900D92A23AB107D9F76E
:1005800019E0A2EAB1E001C01D92AE39B107E1F76E
:100590000E94F1070C94461D0C94AF192F922FB6B0
:1005A0000F930091C60078941F93CF93DF9310911F
:1005B0001909C9E9D8E0C10F08F4D3950883DF9180
:1005C000CF9113951F7700919D09101719F0109383
:1005D000190929F400919C09039500939C091F9126
:1005E0000F912FBE2F9018952F922FB60F93CF9368
:1005F000DF9300911B09C0911A090C1771F0CCE12F
:10060000D9E0C00F08F4D395C881C093C600039504
:100610000F7700931B09789405C00091C1000F7DEE
:100620000093C100DF91CF910F912FBE2F901895AD
:100630002F922FB678940F931F93CF93DF9300914F
:10064000C003003011F40C9463030091C303003025
:1006500029F50091C2030030C9F40091C103C9E932
:10066000D1E0C00F08F4D3951991103021F4009116
:10067000C0030C942F031093C20318811093C4037A
:10068000039503950093C1030C9449030A950093C5
:10069000C2030091C4030093C50308E00A950093C8
:1006A000C3030091C50307950093C50338F4009177
:1006B00028000160009328000C9463030091280037
:1006C0000E7F00932800DF91CF911F910F912FBED5
:1006D0002F9018952F922FB60F9300912900087034
:1006E00051F4009128000F7C00932800009127000E
:1006F0000063009327000F912FBE2F901895FC01E7
:10070000F8944B9904C08091C703882311F03D9859
:10071000459A789481E08093C9034B9B28C0369911
:10072000FCCF45983D9A1092C903379903C022E047
:1007300030E002C020E030E080B1809599279183BD
:100740008083F8944B9904C08091C703882311F0EB
:100750003C98449A789481E08093C8034B9B07C0EF
:10076000369BFCCF44983C9A1092C80302C021E00B
:1007700030E0C90108950E94C41984EA91E00E9402
:10078000CA070895EF92FF920F931F93CF93DF93C1
:10079000CDB7DEB722970FB6F894DEBF0FBECDBF40
:1007A0008E010F5F1F4F0F2EF4EAEF2EF1E0FF2EA8
:1007B000F02D0AC0482F42706981C7010E94960738
:1007C0009093A3018093A201C8010E947F0380FF40
:1007D000F1CF0197F1F0F8944B9904C08091C703D1
:1007E000882311F03D98459A789481E08093C9035D
:1007F000F8944B9904C08091C703882311F03C986A
:10080000449A789481E08093C8033E98469A3F9832
:10081000479A22960FB6F894DEBF0FBECDBFDF9188
:10082000CF911F910F91FF90EF900895EF92FF925B
:100830000F931F93CF93DF93CDB7DEB721970FB6FA
:10084000F894DEBF0FBECDBFF8944B9904C08091E1
:10085000C703882311F03D98459A789481E08093EE
:10086000C903F8944B9904C08091C703882311F001
:100870003C98449A789481E08093C8033E98469AC5
:100880003F98479A04EA11E04B9B69C0359BFCCF27
:1008900041E0BE016F5F7F4FC8010E9466059093E3
:1008A000A3018093A20186FD03C0EE24FF2406C0AD
:1008B00047983F9AEE24FF246894E1F8898181B932
:1008C000809582B946983E9A4B9B49C0349B0AC09A
:1008D000359B08C03F98479A3E98469AF8944B99A2
:1008E00047C042C03599F0CF4B9B39C0349BFCCFF9
:1008F0003E98469A3F98479A40E0BE016F5F7F4F0F
:10090000C8010E9466059093A3018093A2018823E9
:1009100039F44B9B24C03499FCCFEF2809F4B4CFB1
:10092000F8944B9904C08091C703882311F03D9837
:10093000459A789481E08093C903F8944B9904C058
:100940008091C703882311F03C98449A789481E001
:100950008093C8033E98469A3F98479A20C03E9895
:10096000469A3F98479A1BC08091C703882311F08D
:100970003D98459A789481E08093C903F8944B9907
:1009800004C08091C703882311F03C98449A78945E
:1009900081E08093C8033E98469A3F98479A2196F3
:1009A0000FB6F894DEBF0FBECDBFDF91CF911F9180
:1009B0000F91FF90EF9008951F934B9965C03E985B
:1009C000469A3F98479A1092A3011092A20111E013
:1009D00044983C9A1092C8038091C903882321F45B
:1009E00045983D9A1092C90344983C9A1092C803C6
:1009F0001093C703F89489B13D98459A7894109361
:100A0000C9034B991BC03699FCCF45983D9A10926B
:100A1000C90360B1F89489B13C98449A78941093D2
:100A2000C8036095772784EA91E00E940F069093AF
:100A3000A3018093A201369BFECFCACF8091A20171
:100A40009091A3019C012070307F80E22030380714
:100A500049F445983D9A1092C9031092C7030E9429
:100A6000C20310C01092C703F8944B9B02C03D987C
:100A7000459A789481E08093C9032050304411F462
:100A80000E9416040E94C4191F910895CF93DF930A
:100A9000E0915A02F0915B028783813041F4611545
:100AA000710521F0EB018981808701C0108681E00A
:100AB0008683DF91CF9108951092590220E040E0A3
:100AC00069E48AE292E00E94A5080895CF92DF923D
:100AD000EF92FF920F931F93CF93DF937C018B01D3
:100AE000C42EFC0185810F2EFFE0DF2EF02DD822D1
:100AF000C281D381FFE0DF1671F580915802AAE22E
:100B0000B2E0FD01E80FF11D8081FB01808390912F
:100B10005802A90FB11DFD018181882319F400E459
:100B200010E002C000E010E0CC2009F068C0892F7E
:100B30008F5F80935802AAE2B2E0FD01E80FF11D39
:100B40008081882309F05BC020E040E060E0CD01B7
:100B50000E94A50854C02097B9F499279F938F93BA
:100B60008DEC90E09F938F930E94F60D20E040E083
:100B70006DE38AE292E00E94A50803E810E00F907E
:100B80000F900F900F903BC0CE010E948811CE01B4
:100B90000E946911F8018083898127E0829FC0014A
:100BA00011240B96FE01E80FF91F80818C3F61F440
:100BB000248133272F5F3F4F8381992728173907D7
:100BC0001CF000E410E002C000E010E0CC20B9F41A
:100BD000CE010E949411882391F4CE010E9441110C
:100BE000882321F0CE010E94411209C0DD2039F492
:100BF000F70181810E94C812F70113821282F70166
:100C000084819927982F8827800F911FDF91CF919A
:100C10001F910F91FF90EF90DF90CF900895DF929A
:100C2000EF92FF920F931F93CF93DF93CDB7DEB771
:100C300021970FB6F894DEBF0FBECDBF7C01D62E34
:100C40008FE3681709F0B2C0F7018581282F332799
:100C5000C901807F9070803F910531F0C9018F708C
:100C600090700F9709F02EC1F70184812081992798
:100C70008F70907033278217930709F03FC1168257
:100C80008581182F1F70F0925B02E0925A02168243
:100C90008185E80FF11D12868F5FF70181871F3074
:100CA000A1F4818126E435E04AE252E0B701815F98
:100CB0000E949609982FA0915A02B0915B02FD0103
:100CC000EC57FF4F80818C930FC0F701818100E0CA
:100CD000113009F401E026E435E04AE252E0B701C0
:100CE000810F0E944B0C982F992344F0E0915A02F7
:100CF000F0915B0286818823D9F023C0892F992740
:100D000087FD90959F938F938CE790E09F938F93AF
:100D10000E94F60D20E040E06AE48AE292E00E9440
:100D2000A50802E010E00F900F900F900F9038C0D0
:100D30000E94D313E0915A02F0915B0286818823CE
:100D4000B9F38781813041F44085678120E08AE2F0
:100D500092E00E94A50807C0678120E040E08AE297
:100D600092E00E94A5081F3029F4F7018181815F7C
:100D70000E94C812E0915A02F0915B028781882399
:100D800041F0F7018181810F0E94C81200E010E05C
:100D900007C0F7018181810F0E948C1100E010E0F3
:100DA000E0915A02F0915B0211868EC0262F332704
:100DB0008901007F107000361105F9F00136110528
:100DC00044F40032110571F00034110509F074C0CB
:100DD00009C0003E110509F448C0003F110509F0A3
:100DE0006BC05FC0F70180812F7030709927281782
:100DF000390709F061C0D4825FC0F7018481208186
:100E000099278F70907033278217930709F054C089
:100E10006583962F9F709F3081F08181890F0E949A
:100E20003310F70193838283892B39F486EB90E0AA
:100E30000E944A0E20E430E002C020E030E0F701DA
:100E40008481807F8034C1F5232B41F441E0BE01D1
:100E50006F5F7F4FC7010E9466052EC086EA90E053
:100E60000E944A0EF701148227C0F7018481208175
:100E700099278F709070332782179307E9F4658361
:100E8000962F9F709F3039F48181682F615F77279B
:100E90000E94A71011C0F7018181890F0E94C8121A
:100EA0000BC0F7018481208199278F7090703327C0
:100EB0008217930709F46583FFE5DF1619F0003EFA
:100EC000110549F400E010E0F7011482158280E07A
:100ED0000E94681916C0F701208184813327992761
:100EE0008F7090702817390719F000E810E009C0DA
:100EF00083E00E94681900E010E003C000E010E009
:100F0000E3CFF70184819927982F8827802B912B95
:100F100021960FB6F894DEBF0FBECDBFDF91CF9103
:100F20001F910F91FF90EF90DF900895CF93DF9383
:100F3000EC018D81282F3327C9018F7090700F9796
:100F400031F0C901807F9070803F910561F48985FF
:100F50008837A8F4FE01E80FF11D62878F5F89874B
:100F600020E030E00EC055278A819B810E94C91184
:100F70009B838A83892B19F423E830E002C020E0A8
:100F800030E08C819927982F8827820F931FDF915B
:100F9000CF9108950F931F938C0180915902F8010E
:100FA0008183805F80935902118688E0808368E0A6
:100FB000C8018C579F4F0E948418F8011382128237
:100FC0001F910F9108958DB79EB78E59994008953E
:100FD0000E94830D82EF90E00E944A0E0E94830DD2
:100FE00008950F931F930E9497190E945F190E9402
:100FF000A1160E94380D0E9437190E943A138C01E5
:10100000DC01ED91FC9180E090E0099510935D0288
:1010100000935C0290935F0280935E02BC01C80162
:101020000E9498168CE592E00E94330D0E94B90A46
:101030000E9483100E945C050E94E01988E00E94D3
:10104000BB0378940E944D130E94E8070E94E307B7
:101050009F938F9380E091E09F938F930E94200E47
:1010600089E999E3A0E0B0E0BF93AF939F938F939A
:101070008FE091E09F938F930E94200E0E94830D3A
:101080000E94830D8DB79EB70A960FB6F8949EBF47
:101090000FBE8DBF0E94D3130E94DC04FBCFCF9301
:1010A000DF93DC01EB01FB01C895802D882339F12A
:1010B0004068481741F02196FE01C895802D88238D
:1010C000F1F04817C1F7FE01C895402D442334F4D0
:1010D0002196FE01C895402D4423D4F3403238F4C4
:1010E00067EC71E0CD010E944F08DC0101C04D9317
:1010F0002196FE01C895802D482F18167CF3CD014E
:10110000DF91CF910895CF93DF93DC01262F6436D2
:1011100050F0862F64E60E94EF1C805D8D93822F35
:101120000E94EF1C292F822F6AE00E94EF1C805D35
:10113000FD018193822F0E94EF1C905DED01998348
:10114000CF010196DF91CF910895EF92FF920F9317
:101150001F93CF93DF93062FF42EE22EEC011EA6F1
:101160000E948308FC018CE28193DF01093491F431
:10117000EEE0F1E0C895802D882379F19F012F5F83
:101180003F4F8D93F9012F5F3F4FC895802D8823E6
:10119000C1F723C0402F66E271E0CF010E944F08E3
:1011A000FC011CE211936F2DCF010E948308FC010A
:1011B00011936E2DCF010E948308FC018DE0808386
:1011C0001182002331F0013021F084E00E9468197F
:1011D00015C081E00E94681911C01CE21D936F2D9B
:1011E000CD010E948308FC0111936E2DCF010E9456
:1011F0008308FC018DE080831182EBCFDF93CF93D6
:1012000084EB91E09F938F930E94F60D0F900F90C7
:101210000F900F90DF91CF911F910F91FF90EF9062
:101220000895FC0180818D3479F18E3460F483342B
:1012300029F1843428F4843281F0813489F527C07F
:10124000893471F50DC08335B1F0883519F08235D8
:1012500039F509C08AE090E0089582E090E00895B1
:1012600083E090E0089581818D34A1F0843491F081
:1012700084E090E0089585E090E0089581818434D1
:1012800061F0883469F409C087E090E0089589E04E
:1012900090E0089588E090E0089586E090E0089559
:1012A00081E090E00895853091F1863070F48230CD
:1012B00011F1833028F48823D9F08130B1F41EC0B5
:1012C0008330F9F0843089F41FC0883049F18930C7
:1012D00028F48630F9F0873041F41FC0893019F1C5
:1012E0008A3019F488E191E008958CE191E0089545
:1012F0008DE191E008958FE191E0089581E291E020
:10130000089583E291E008958EE291E0089585E3E7
:1013100091E008958DE391E0089580E491E00895CF
:1013200086E491E008958CE491E008959F92AF9255
:10133000BF92CF92DF92EF92FF920F931F93CF93C2
:10134000DF93982E6A01E9018B01075F1F4F0F2E73
:10135000F4E8AF2EBB24F02DA60EB71E0F2EFAE038
:10136000EF2EFF24F02DE60EF71EFF92EF9288E598
:1013700092E09F938F930E94F60D41E06AEC73E038
:10138000C8010E94A30E8091CB030F900F900F9085
:101390000F90882319F48DE191E002C00E94530957
:1013A0009F938F9380E592E09F938F930E94F60D19
:1013B0008091CA030F900F900F900F908F3F19F4F8
:1013C0008DE290E002C09927C0969F938F9386E4A8
:1013D00092E09F938F930E94F60D8091CE0390919F
:1013E000CF039F938F938DE392E09F938F930E94FF
:1013F000F60D85E392E00E944A0E1091CD03812FF5
:1014000099270E94061D2DB73EB7285F3F4F0FB6A4
:10141000F8943EBF0FBE2DBF892B11F0812F01C064
:101420008DE20E94520D0E94830D0E944F0D8FE2AB
:1014300092E00E944A0E1091CC03812F99270E94BE
:10144000061D892B11F0812F01C08DE20E94520DE3
:101450000E94830D0E944F0D9091CB03892F8450E1
:10146000853070F5963081F0973028F4943041F053
:10147000953071F407C0973049F0983049F415C0A1
:1014800067E014C068E012C06EE010C06DE00EC0EE
:101490008EE192E00E944A0E20E040E06EE1C6013B
:1014A0000E94A50884E490E058C06CE08E0195018C
:1014B000A601892D0E941B0B992787FD90954DC091
:1014C000993051F58091CA038F3F49F420E040E004
:1014D0006AE4C6010E94A5088FEF9FEF3EC06091AD
:1014E000CE037091CF036F5F7F4F0E944C1788230C
:1014F0005CF48E019501A6016FE0892D0E941B0B03
:10150000992787FD909529C060E070E080E0FE019A
:10151000099580E090E021C0933061F483E192E08E
:101520000E944A0E60E070E080E0FE01099580E0D4
:1015300090E013C09A3019F08FEF9FEF0EC08BEF41
:1015400091E00E944A0EB701C5010E94881860E030
:1015500070E0FE01099580E090E0DF91CF911F914E
:101560000F91FF90EF90DF90CF90BF90AF909F9042
:1015700008958FEF80936002809373020895CF9354
:10158000DF93982F80916002891719F4C0E0D0E0B2
:1015900007C080917302891709F04AC0C1E0D0E00A
:1015A0006623C4F4FE01EE0FFF1FCF01880F991FC1
:1015B000880F991F880F991FE80FF91FEC0FFD1F67
:1015C000E05AFD4F0188F289E02D60E070E08AE486
:1015D00009951CC020E632E0BE01660F771FCB01E3
:1015E000880F991F880F991F880F991F680F791FFF
:1015F0006C0F7D1FFB01E20FF31F41895289615F70
:101600007F4F620F731F8785FA010995FE01EE0F68
:10161000FF1FCF01880F991F880F991F880F991FEF
:10162000E80FF91FEC0FFD1FE05AFD4F8FEF80838D
:10163000DF91CF9108952F923F924F925F927F92C8
:101640008F929F92AF92BF92CF92DF92EF92FF92D2
:101650000F931F93CF93DF93C82ED62E7A01E90103
:10166000452B21F480EE92E00E944A0E209721F44F
:101670008FEB92E00E944A0E8091CA038F3F49F49B
:1016800089818093CA03E091CE03F091CF038981D1
:1016900080838091CA030E94F616EC01892BB1F475
:1016A0008FEA92E00E944A0E8091CA03805D0E94F8
:1016B000520D0E94830D0E944F0D20E040E06AE42D
:1016C000C7010E94A5088FEF90E0D3C08880998061
:1016D0008091600288230CF4C5C080917302882336
:1016E0002CF480E692E0DC01539611C088E992E088
:1016F0000E944A0E0E94830D0E944F0D20E040E0A0
:1017000066E4C7010E94A5088FEF90E0B2C02D01EA
:101710002091D0035D010894A11CB11C8091CE03DF
:101720009091CF03F5019283818325837C2CFD0169
:10173000D182F501C68223831482F4012285338588
:1017400021153105B1F0C501F901099588238CF403
:1017500088E792E00E944A0E0E94830D0E944F0D7E
:1017600020E040E062E2C7010E94A5088FEF90E010
:1017700080C0F2E0DF1609F478C085E0D81609F4DD
:1017800074C022243324E6E0DE1621F4F401C08480
:10179000D18402C0CC24DD24872D0E943310892BF4
:1017A000A1F088E692E00E944A0E0E94830D0E94FA
:1017B0004F0D20E040E066E4C7010E94A508872D98
:1017C0000E94C8128FEF90E054C09601AE01622DC6
:1017D000872D0E94F40FD82E882324F585E692E009
:1017E0000E944A0E8D2D82958F7003E511E0F8015D
:1017F000E80FF11D80810E94520D8D2D8F70080F12
:10180000111DF80180810E94520D0E94830D0E94DB
:101810004F0D20E040E066E4C7010E94A5088FEF6D
:1018200090E027C0F201128B018B70829201285F39
:101830003F4FC2010F96F9019283818382E0858335
:101840008DEF868314821382F401A681B7810FEB9A
:101850001AE0A501672D8A819B81FD01099580E031
:1018600090E007C0A0E6B2E052CF222433242394B4
:1018700091CFDF91CF911F910F91FF90EF90DF906B
:10188000CF90BF90AF909F908F907F905F904F9040
:101890003F902F900895AF92BF92CF92DF92EF9238
:1018A000FF920F931F93CF93DF93B82EEB017A0132
:1018B0006901A02E672B21F48EE793E00E944A0E67
:1018C0008E01075F1F4FCE010A969F938F938B2D3A
:1018D00099279F938F9387E593E09F938F930E941F
:1018E000F60D40E06AEC73E0C8010E94A30E8091FF
:1018F000CB032DB73EB72A5F3F4F0FB6F8943EBFDC
:101900000FBE2DBF882391F0823081F00E945309D1
:101910009F938F9383E493E09F938F930E94F60DA0
:101920001092CB030F900F900F900F908091CC03EB
:101930008823C9F08335B9F08035A9F080E393E0BE
:101940000E944A0E8091CC030E94520D0E94830D8A
:101950000E944F0D20E040E060E4C7010E94A5080E
:101960008FEF9FEF53C08091CD038823D9F0873547
:10197000C9F08235B9F08134A9F087E193E00E9483
:101980004A0E8091CD030E94520D0E94830D0E9449
:101990004F0D20E040E06EE1C7010E94A5088FEFE7
:1019A0009FEF34C09091CB039230A9F48823A9F023
:1019B000823599F083E093E00E944A0E0E94830DE5
:1019C0000E944F0D20E040E06FE3C7010E94A50890
:1019D0008FEF9FEF1BC08735B9F0AA2011F062E0AE
:1019E00001C061E0813409F465E0923009F466E0F9
:1019F0009E012C573F4F8601A7018B2D0E941B0B88
:101A0000992787FD909502C062E0EFCFDF91CF91DB
:101A10001F910F91FF90EF90DF90CF90BF90AF900C
:101A20000895CF93DF939091070310920A038EEFEE
:101A30008093100390930D0310920E03A09108035E
:101A4000B0910903ED91FC9111970480F581E02D8F
:101A50006AE073E0ED018A819B810995109207038A
:101A6000DF91CF910895909309038093080308951F
:101A700010920903109208031092070386E892E07F
:101A800090930C0380930B0381E880930F038DEFF9
:101A90008093100310920E0310920D0308950E947C
:101AA0003A1508951F93CF93DF93182F90910E034B
:101AB00080910D03981769F0C6E6DEE00E94D3130B
:101AC000CE010197F1F790910D0380910E039817C5
:101AD000A9F780910703813850F4E6E8F2E0E80FB7
:101AE000F11D10838F5F80930703813840F0809150
:101AF000080390910903892B11F00E94110DDF91C9
:101B0000CF911F9108958DE00E94520D8AE00E94AE
:101B1000520D80910703882341F080910803909132
:101B20000903892B11F00E94110D0895FF920F9364
:101B30001F93CF93DF938C0190910D0380910E033F
:101B4000981769F0C6E6DEE00E94D313CE01019734
:101B5000F1F790910D0380910E039817A9F7F80102
:101B600001900020E9F73197FE2EF01A80910703CB
:101B70008F0D912D911D8138910544F080910803BE
:101B800090910903892B61F10E94110D90910D0331
:101B900080910E03981769F0C6E6DEE00E94D31329
:101BA000CE010197F1F790910D0380910E039817E4
:101BB000A9F780E88F1520F40F2EF1E8FF2EF02D05
:101BC000209107034F2D5527B80186E892E0820F38
:101BD000911D0E94091A809107038F0D80930703BE
:101BE000DF91CF911F910F91FF9008950F931F9355
:101BF000CF93DF93CDB7DEB7C358D0400FB6F8947C
:101C0000DEBF0FBECDBFFE01E657FF4F6191719160
:101C1000FA83E9838E010D5F1F4FAF01C8010E9457
:101C2000401AC8010E94960DCD57DF4F0FB6F894A9
:101C3000DEBF0FBECDBFDF91CF911F910F910895F1
:101C40000F931F93CF93DF93CDB7DEB7C358D04028
:101C50000FB6F894DEBF0FBECDBFFE01E657FF4FB3
:101C600061917191FA83E9838E010D5F1F4FAF017E
:101C7000C8010E94241AC8010E94960DCD57DF4F5B
:101C80000FB6F894DEBF0FBECDBFDF91CF911F918D
:101C90000F910895EF92FF921F93CF93DF937C01F2
:101CA00090910D0380910E03981769F0C6E6DEE06F
:101CB0000E94D313CE010197F1F790910D0380910B
:101CC0000E039817A9F7C7010E94001A182F8091D8
:101CD0000703810F912D911D8138910544F080916A
:101CE000080390910903892B41F10E94110D9091F5
:101CF0000D0380910E03981769F0C6E6DEE00E949E
:101D0000D313CE010197F1F790910D0380910E034B
:101D10009817A9F7113808F011E8412F552720919D
:101D20000703B70186E892E0820F911D0E94F71920
:101D300080910703810F80930703DF91CF911F915B
:101D4000FF90EF9008956F927F929F92AF92BF9213
:101D5000CF92DF92EF92FF920F931F93CF93DF9377
:101D6000CDB7DEB721970FB6F894DEBF0FBECDBF5B
:101D7000FC013B01C42E5C010894A11CB11C9081A4
:101D80008FEFFB0180831182128282E583834423DB
:101D900031F0158214821682F4E0F98306C0FB014B
:101DA000B582A4829683F6E0F983992309F497C05B
:101DB000D92EDA9475010894E11CF11C850199244F
:101DC0008981833009F479C0843038F4813009F492
:101DD00055C0823008F062C03BC099819530B9F09F
:101DE000953020F0963009F070C028C0F301818151
:101DF000882369F4F801808199270E94FD1C892BB2
:101E000031F0C8010E941109F30181831682F801A3
:101E10002081822F9927C0970A9720F4822F805320
:101E2000F3018083F80180818A3309F04EC0F30109
:101E3000F582E482D682F1E0F98347C0F80180811F
:101E4000843231F482E0F30181831682F5E0F98374
:101E5000F8012081822F9927C0970A9728F40F2E26
:101E6000F0ED9F2EF02D920E2A3341F4F301908273
:101E7000F582E482D682F1E0F98327C0CC2029F5EF
:101E8000F80180818C3209F5F3018481F02FF81B71
:101E90008F2FF3018683F2E0F98317C0F30182816B
:101EA000882321F4F8018081F3018283F801808185
:101EB0008C3259F4F3E0F98308C0F301838188235D
:101EC00021F4F8018081F3018383DA940894E11C02
:101ED000F11CFFEFDF1619F00F5F1F4F71CFF301F9
:101EE00084819581A816B90661F446815527B5010C
:101EF000C50101960E94121AF30186818F5F8683C5
:101F000009C0F30186818F5F868384819581019763
:101F100095838483F301A481B58180818C9321967C
:101F20000FB6F894DEBF0FBECDBFDF91CF911F91EA
:101F30000F91FF90EF90DF90CF90BF90AF909F9068
:101F40007F906F900895CF92DF92EF92FF920F9360
:101F50001F93CF93DF93EC0187E0689FB0011124BA
:101F6000655F7F4FDE01A60FB71F98818FEF8C93BF
:101F7000FD01968313821482EB80FC808F8188237D
:101F800099F481E08F83F70180819181FC01C68003
:101F9000D78003E510E19D01AD016881E7018A81E9
:101FA0009B81F601099517C08330A9F48A818823A3
:101FB00091F484E08F83F70180819181FC01C680D8
:101FC000D78003E510E19D01AD016881E7018A81B9
:101FD0009B81F6010995DF91CF911F910F91FF90A1
:101FE000EF90DF90CF9008950F931F93182F062F37
:101FF000B901A7E0B0E0E0E0F8E021ED33E0808156
:1020000088232CF589E990E0FD01E89FD001E99F44
:10201000B00DF89FB00D1124FD01E20FF31F1083E6
:10202000118202835483438376836583FD013B964B
:10203000E20FF31F1482138216835296A20FB31F6E
:10204000FD0114821382168380E090E009C011978D
:10205000E959F0408FEFAF3FB80789F68FEF9FEF58
:102060001F910F910895282F97E0E0E0F8E080811C
:10207000821789F4892F992787FD909529E930E007
:10208000AC01429FC001439F900D529F900D1124BF
:102090008F529C4F08959150E959F0409F3F39F776
:1020A00080E090E008951F93162F0E943310FC01EA
:1020B000892B59F010878781813019F482E087835A
:1020C00004C0843011F485E087831F910895DC01FA
:1020D0008FEF8C93FD01178211863B96CD014996B7
:1020E0009283818390E495838DEF8683148213829B
:1020F000FD017296A75ABF4FB283A1839583868351
:10210000148213820895CF93DF93C0E0D8E061E09A
:10211000CE010E946710C959D04083E0C833D80768
:10212000B1F7DF91CF9108951F93162F0E943310BE
:10213000FC01892B51F012878185823019F481E0EE
:10214000818703C0813009F411861F9108950F9390
:102150001F93062F681760F0182F812F0E943310ED
:10216000009719F061E00E9467101F5F0117A8F740
:102170001F910F910895EF92FF920F931F93CF93AA
:10218000DF938C01F62EEC018A81882309F072C05E
:102190000F2EF3E0EF2EF02DF8018781882329F42C
:1021A000118260E0C8010E94A30FFF2079F0E801CE
:1021B0008F81813059F4C6E6DEE00E94D313CE0150
:1021C0000197F1F7F80187818130B9F3E8018F8138
:1021D0008230F9F4898127E0829FC00111240B9697
:1021E000F801E80FF91F94818381981730F08081FE
:1021F0008C3F19F0F801178238C0E8012D813E812B
:102200002115310519F0CF01F9010995F801E7828F
:102210002CC0853051F5E801898121E030E0281B90
:102220003109C901880F991F880F991F880F991FBD
:10223000821B930B0B96F801E80FF91F94818381A1
:10224000981730F080818C3F19F0F801E78212C0B6
:10225000E8012D813E812115310519F0CF01F901E9
:10226000099586E0F801878305C0E8018F818823FE
:1022700009F492CFDF91CF911F910F91FF90EF90D2
:1022800008950F931F938C0161E00E94BB10F80129
:10229000818127E0829FC00111240B96E80FF91F6E
:1022A00080818C3F19F020E030E00AC020E094816A
:1022B0008381981708F421E081E08227282F3327B3
:1022C00080E090E0232B11F481E090E01F910F91CA
:1022D00008950F931F93CF93DF938C0161E00E94C9
:1022E000BB10E801898127E0829FC00111240B9671
:1022F000080F191FF80184810180F281E02DE80F99
:10230000F11D80819927DF91CF911F910F91089541
:1023100061E00E94BB1008950E943310009719F0ED
:1023200061E00E94BB100895CF93DF93EC0161E060
:102330000E94BB1029818F818330A9F4822F9927B5
:10234000FC01EE0FFF1FEE0FFF1FEE0FFF1FE81B3C
:10235000F90BEC0FFD1F83858C3F29F061E0621BB8
:10236000CE010E94A30F898127E0829FC001112422
:102370000B96FE01E80FF91F84818F5F848320E0B4
:102380009381891708F421E0822F9927DF91CF915B
:1023900008958F929F92BF92CF92DF92EF92FF9219
:1023A0000F931F93CF93DF937C01EC0189858823E2
:1023B00011F481E08987F70130810F2EFBE08F2E29
:1023C0009924F02D8E0C9F1C818127E0829FC001F3
:1023D00011246401C80ED91EE6018B81E981FA81BE
:1023E000E80FF11D6083982F9F5F9B838D81981765
:1023F00011F0452BC9F1B32E8EEFF60180833683A1
:1024000093831482E7018985823059F4C6E6DEE0C1
:102410000E94D313CE010197F1F7F7018185823035
:10242000B9F382E0E7018987AB81BC81ED91FC9132
:1024300011970680F781E02D04E910E19601A601CD
:102440006B2DED018A819B810995F701218181E046
:10245000821B818327E0829FC0011124F401E80FD1
:10246000F91F14821382B682C701DF91CF911F91A9
:102470000F91FF90EF90DF90CF90BF909F908F9043
:102480000895BF92CF92DF92EF92FF920F931F9326
:10249000CF93DF938C01EC0129810F2EFBE0EF2E0F
:1024A000FF24F02DE80EF91E822F9927FC01EE0F74
:1024B000FF1FEE0FFF1FEE0FFF1FE81BF90BEE0DC6
:1024C000FF1D80818C3F09F452C081E0B82EB21A02
:1024D00087E0B89EC00111246701C80ED91E8F8104
:1024E000843059F4C6E6DEE00E94D313CE01019792
:1024F000F1F7F80187818430B9F38530C9F4E80138
:10250000ED81FE81309789F0898121E030E0281B40
:102510003109C901880F991F880F991F880F991FCA
:10252000821B930B8E0D9F1D099586E0F801878312
:10253000E6019C818B819817D0F4F801B18283E089
:1025400087838B2D9927FC01EE0FFF1FEE0FFF1FD6
:10255000EE0FFF1FE81BF90BEE0DFF1D80818C3F76
:1025600061F061E06B19C8010E94A30F06C060E032
:10257000C8010E94671000E010E0C801DF91CF9110
:102580001F910F91FF90EF90DF90CF90BF90089533
:10259000FF920F931F93CF93DF93F82E0E94331077
:1025A000EC0189858823C1F1813051F006E61EE0F7
:1025B0000E94D313C8010197F1F789858130C1F7D3
:1025C000898127E0829FC00111240B96AE01480F3C
:1025D000591FFA018CEF8083F68214828B819C81D3
:1025E000DC012D913C91F901A681B78104E910E14C
:1025F0009A016F2DFC0182819381FD0109958985E6
:10260000813051F406E61EE00E94D313C801019701
:10261000F1F789858130C1F360E0CE010E94671037
:10262000DF91CF911F910F91FF90089580E090E08E
:1026300008950895DC01FB0180818823C1F0813475
:1026400010F499270FC08B3518F4805899270AC0C9
:10265000813610F4992706C08B3718F480529927D9
:1026600001C099278D9331968081882341F71D926F
:10267000CD010895109211038FEF80932A03809368
:1026800025038093200380931B0310922F0384E083
:1026900080931A038EE791E008951F9310E80E943B
:1026A000FC188823E1F38FE70E9424191150B9F731
:1026B0001F9108951F93CF93DF9314E067C0A091FB
:1026C0001203B091130380911A03813099F0823084
:1026D0001CF4882341F004C08230B1F0833011F142
:1026E0002FEF3FEF2FC081E080931A038C91282FAA
:1026F000332728C082E080931A03ED018B8199274C
:102700009C012D5F3F4F1EC0FD018681282F33277E
:102710008381882319F410931A0314C083E08093F3
:102720001A0310C0ED019C81E981FA81E90FF11DC6
:1027300080819F5F9C83282F33278B81981710F00F
:1027400010931A03332324F0822F0E9424191EC0F1
:1027500050911103852F8150809311038823A1F09C
:1027600020E030E041E062E173E0E22FFF27EE0F6E
:10277000FF1FE60FF71F82819381918380832F5F74
:102780003F4F4F5F541789F710921A03809111033E
:10279000882329F00E94FC18882309F090CFDF914C
:1027A000CF911F9108950E940A1999230CF4D2C069
:1027B000482F20912F03223011F1233034F42223AB
:1027C00059F0213009F0C1C013C0233009F47FC093
:1027D000243009F0BAC087C08D5F823018F04C3FBA
:1027E00009F0B3C04093350381E080932F03ADC05F
:1027F00083508093340382E080932F03A6C080939C
:10280000300384E080932F0320E030E0EBE1F3E03D
:102810008081481721F520933103822F992787FD66
:102820009095FC01EE0FFF1FEE0FFF1FE80FF91F41
:10283000E55EFC4F0180F281E02DF0933303E093DD
:10284000320320913503909134038581891768F014
:1028500020834683138283E080932F0306C02F5F7B
:102860003F4F35962430310599F680913403882303
:1028700009F06BC080913103992787FD9095FC0189
:10288000EE0FFF1FEE0FFF1FE80FF91FE55EFC4F75
:102890000380F481E02D80912F03843011F46FEFD9
:1028A00001C060E0842F099580913103992787FD4D
:1028B0009095FC01EE0FFF1FEE0FFF1FE80FF91FB1
:1028C000E55EFC4F8FEF808310922F033EC0E091B6
:1028D0003203F09133038381A181B281A80FB11D2E
:1028E0004C938F5F838380913403815080933403B2
:1028F00018165CF180913103992787FD9095FC01B2
:10290000EE0FFF1FEE0FFF1FE80FF91FE55EFC4FF4
:102910000380F481E02D243011F46FEF01C060E0FA
:1029200080913003099580913103992787FD909517
:10293000FC01EE0FFF1FEE0FFF1FE80FF91FE55E12
:10294000FC4F8FEF808310922F030E940A19992366
:102950000CF02ECF0E945A130895CF93DF93EB0112
:1029600080911103833030F00E94D31380911103C2
:102970008330D0F7E82FFF27EE0FFF1FEE5EFC4FEE
:10298000D183C0838F5F80931103813021F4109233
:102990001A030E945A13DF91CF9108958F929F924C
:1029A000AF92BF92CF92DF92FF920F931F93CF937C
:1029B000DF934C01F62EEA0169015801662384F485
:1029C000862F992787FD90959F938F938BED93E0AA
:1029D0009F938F930E94F60D0F900F900F900F9082
:1029E0008E8188237CF4992787FD90959F938F9300
:1029F00089EB93E09F938F930E94F60D0F900F90B9
:102A00000F900F901FEF0FC0122F09C080818823F5
:102A1000DCF32F5F3F4F359624303105B9F70E9424
:102A2000D31311232CF420E030E0EBE1F3E0EECF00
:102A3000812F992787FD9095FC01EE0FFF1FEE0F68
:102A4000FF1FE80FF91FE55EFC4FF082D282C182C2
:102A5000B482A382BE01C4010E94AD14DF91CF9164
:102A60001F910F91FF90DF90CF90BF90AF909F90FC
:102A70008F90089580911103882331F00E94D31321
:102A8000809111038823D1F70895EF92FF920F935D
:102A90001F93CF93DF937C01009739F48EEA93E084
:102AA0000E944A0E8FEF9FEF0CC1EC0109811A8141
:102AB000F8016285613019F0A6E3B3E008C081E057
:102AC0008093360384E080933703A8E3B3E081E08A
:102AD000ED018993FD018183AE014F5F5F4FE801F6
:102AE0008B81882309F0DFC02A812A3F08F0DBC0F0
:102AF000293F41F489818F3F29F48881882309F097
:102B0000D2C0C7C0F801818199273327322F2227ED
:102B1000282B392B8081882311F02F5F3F4FDA015A
:102B20002D93832F9927EA018983FD0131962A305D
:102B3000310520F480E2ED0189833196613019F48A
:102B400082E1819315C0623009F455C02436310505
:102B500018F480E2819304C083E0283E380718F41B
:102B600080E2819303C02051374210F480E28193C8
:102B700082E28193E8018B85882309F49EC0D80105
:102B80002BE0813410F499270FC08B3518F480584E
:102B900099270AC0813610F4992706C08B3718F49C
:102BA0008052992701C0992781932F5FED018C8571
:102BB000882329F482E281932C3130F00AC01196E7
:102BC0002B31F9F682E2819380E281932F5F2C31E1
:102BD000D8F3613039F463E671E0CF010E941A1333
:102BE000FC011EC0633039F46AE671E0CF010E9437
:102BF0001A13FC0115C0662339F46EE671E0CF01AB
:102C00000E941A13FC010CC0623051F462E771E0BB
:102C1000CF010E941A13FC011192EC011982319626
:102C200086E393E00E2F081BC02FDD27F701858177
:102C3000992787FD90958C179D07F4F485E993E01B
:102C40000E944A0E802F82958F700AE811E0F801E9
:102C5000E80FF11D80810E94520DFE01EF70F070AF
:102C6000E00FF11F80810E94520D0E94830D0E948F
:102C70004F0D8FEF9FEF25C0402F552766E373E080
:102C8000E70189819A810E94091A0B8380E090E014
:102C900018C0FA018FEF819389EFEA018983319699
:102CA0002FEF39EF4BCFFA018FEF819389EFEA01D4
:102CB000898331962FEF39EF41CF82E281932BE068
:102CC00083CFDF91CF911F910F91FF90EF900895E7
:102CD000FC01A181B2818381992787FD909588238A
:102CE00021F1282F8C91813410F4992719C08B354C
:102CF00018F4805E992714C0813610F4992710C00B
:102D00008B3718F4805299270BC0813C10F4992717
:102D100007C08B3D20F499278F77907001C09927C9
:102D20008C93215011F01196DDCF80E090E0089552
:102D3000909377038093760370937903609378037D
:102D40000895EAE7F3E086E693E0128A118A108A92
:102D500017863597E817F907C1F7EBEBF3E02FEF8C
:102D600089E893E01282118220833597E817F907EA
:102D7000C9F708950F931F93CF93DF93EC018B0155
:102D80009F938F937F936F938AEF93E09F938F939B
:102D90000E94F60D23E030E0E9E8F3E08DB79EB73E
:102DA00006960FB6F8949EBF0FBE8DBF80819181AD
:102DB000892B71F4F901EE0FFF1FEE0FFF1FE20FD9
:102DC000F31FE658FC4FD183C0831383028307C0EF
:102DD0002150304035979FEF2F3F390739F780E07A
:102DE00090E0DF91CF911F910F9108950F931F9362
:102DF000CF93DF93082F11271F930F9389E594E05A
:102E00009F938F930E94F60DEBEBF3E0C9E0D0E0C7
:102E10000F900F900F900F908081992787FD9095CC
:102E20000817190741F5218132812115310519F162
:102E300080917603909177039F938F93DF93CF9345
:102E40003F932F9387E394E09F938F930E94F60D17
:102E5000CE01880F991F880F991F8C0F9D1F8157D6
:102E60009C4F2DB73EB7285F3F4F0FB6F8943EBF3B
:102E70000FBE2DBF0CC0359721973FEFCF3FD30733
:102E800059F689E194E00E944A0E86E793E0DF91CB
:102E9000CF911F910F9108954F925F926F927F9201
:102EA0008F929F92AF92BF92CF92DF92EF92FF925A
:102EB0000F931F93CF93DF93E82E8B01882E9924D5
:102EC0007F936F939F928F928EE095E09F938F9365
:102ED0000E94F60D2DB73EB72A5F3F4F0FB6F8940C
:102EE0003EBF0FBE2DBF3AE03E1518F48FEF9FEFA7
:102EF000FAC0D8012C91222309F4E9C02A3309F43D
:102F0000E6C0FF24F394CF2CDD24F801EC0DFD1D69
:102F1000E081EE2311F0EA33A9F7822F9927C097B9
:102F20000A9708F0D7C0B1E0FB1609F0D3C00F2E06
:102F3000FFE0BF2EF02DB2228B2D0E94F616FC0171
:102F4000009789F48B2D99279F938F938FED94E0B1
:102F50009F938F930E94F60D8FEF9FEF0F900F902E
:102F60000F900F90C0C08657934039F48EEA94E0DA
:102F70000E944A0E8FEF9FEFB6C060807180D30130
:102F8000ED91FC91C80109952C016114710409F0BF
:102F900074C0A4C0F501EE0FFF1FEE0FFF1FEA0D76
:102FA000FB1DE658FC4F62807380D301ED91FC91CC
:102FB000C80109952C0161C0F901EE0FFF1FEE0F4A
:102FC000FF1FE20FF31FE257FC4F8FEF8083128247
:102FD000118266C0F901EE0FFF1FEE0FFF1FE20F17
:102FE000F31FE257FC4FE082728261825482438277
:102FF0003F932F935F924F929F928F927F926F9207
:1030000087E794E09F938F930E94F60D80E0EDB7E1
:10301000FEB73A960FB6F894FEBF0FBEEDBF53C091
:103020005A01DB01CD91DC912097F9F0FF20B1F03E
:103030009881F80180819817C1F420E00CC0822F9C
:103040009927FE01E80FF91FD801A80FB91F908139
:103050008C91981751F42F5F2F1589F7FE01EC0D15
:10306000FD1D8081882309F495CF65507040415043
:103070005040FFEF4F3F5F0799F629E030E0EBEB60
:10308000F3E08081992787FD90958816990609F4C9
:1030900093CF2150304035978FEF2F3F380789F776
:1030A0006114710479F029E030E0EBEBF3E080810A
:1030B0008F3F09F48FCF2150304035979FEF2F3F3E
:1030C0003907A9F78FEF992787FD90950CC0FF244A
:1030D000CC24DD24662477244424552469E873E055
:1030E00043E050E09DCFDF91CF911F910F91FF9072
:1030F000EF90DF90CF90BF90AF909F908F907F9098
:103100006F905F904F900895FC0160831182089545
:103110000F931F93CF93DF938C01EB017F936F93FA
:1031200083E595E09F938F930E94F60D88810F9021
:103130000F900F900F90882351F0883541F0FE01D9
:1031400031968081882321F0883511F0F9CFFE0176
:10315000319680818032E1F3843441F1853509F084
:1031600044C0DF01119681818D3309F03EC0FD011D
:103170002181822F9927C0970A97B8F5922F9F70C7
:10318000892F84508B3088F5F8019083892F9927F7
:103190009F938F938EE395E09F938F930E94F60DFC
:1031A00080E00F900F900F900F9020C0DF011196DC
:1031B00081818D33D1F4FD012181822F9927C09720
:1031C0000A9798F4822F8F70F801818399279F9333
:1031D0008F9388E295E09F938F930E94F60D80E095
:1031E0000F900F900F900F9001C08EE19927DF9103
:1031F000CF911F910F91089580911A0990911B0909
:1032000020E030E08F5F8F77891711F021E030E008
:10321000C90108959091190980919D09981719F491
:103220002FEF3FEF0FC080919D09E9E9F8E0E80F2B
:10323000F11D8081282F332780919D098F5F8F7723
:1032400080939D09C901089590911A09ECE1F9E074
:10325000E90FF11D808380911A098F5F8F7780932A
:103260001A09E1ECF0E08081806280830895109279
:103270001A0910921B091092190910929D09E1EC8C
:10328000F0E088E0808380818061808387E08093A4
:10329000C4001092C5008081806880830895F894EE
:1032A0001092C5031092C3031092C4031092C2037C
:1032B0008F5F8093C1038093C00378940895389AF8
:1032C00040981092C0031092C1031092C603089553
:1032D000843038F48230E0F4882341F0813019F5ED
:1032E00011C08430E9F08530F1F416C08091C60336
:1032F000882321F080E00E944F1908951092C003A6
:10330000409808951092C6031092C0034098089503
:103310001092C003409A089585E00E944F190895C5
:1033200081E08093C60380E00E944F1908958FEFDB
:1033300098E0909389008093880010928000E1E8E3
:10334000F0E080818B608B7F8083109285001092EB
:103350008400EFE6F0E080818260808308951F9210
:103360000F920FB60F9211242F933F934F935F93B9
:103370006F937F938F939F93AF93BF93EF93FF933D
:1033800085E00E946819FFCF1092C70311B88FEF34
:1033900082B93E98469AF8944B9B02C03D98459A54
:1033A000789481E08093C903F8944B9B02C03C98C9
:1033B000449A789481E08093C8033F98479A08958F
:1033C0000F931F9303E710E0F8018081877F8083CC
:1033D0000E94C419DB9AF801808188608083E8E646
:1033E000F0E08081886080831F910F910895FB0138
:1033F000DC0102C005900D9241505040D8F708956D
:10340000FC0105900020E9F7809590958E0F9F1F95
:103410000895FB01DC0102C001900D924150504023
:10342000D8F708956817790768F4FB01DC01E40F09
:10343000F51FA40FB51F02C002900E9241505040DC
:10344000D8F708950C94091AAEE0B0E0EAE2FAE188
:103450000C941D1D8C0186E08C831A8309838FEFE9
:103460009FE79E838D83CE0101960E945C1AEF81B7
:10347000F885E00FF11F1082E4E02E960C94391DC0
:10348000AEE0B0E0E6E4FAE10C941D1D8C018EE0A4
:103490008C831A8309838FEF9FE79E838D83CE01F0
:1034A00001960E945C1AEF81F885E00FF11F1082EF
:1034B000E4E02E960C94391DABE0B0E0E2E6FAE1D0
:1034C0000C94111D4C013B016A01FC01178216820C
:1034D000838181FD03C08FEF9FEFDCC1F401238165
:1034E000F30123FD859123FF81913F01882309F496
:1034F000CEC1853239F423FD859123FF81913F01AF
:10350000853229F4B40199270E94641CE7CF00E0BA
:10351000442455243AE00032B0F48B3269F08C3206
:1035200028F4803251F0833271F40BC08D3239F0BF
:10353000803349F4016028C00260046025C008603F
:1035400023C0006121C007FD2BC0282F20532A3043
:1035500078F406FF06C0539EC0011124522E580E67
:1035600013C0439EC0011124422E480E00620CC0BD
:103570008E3221F406FD8BC1006406C08C3611F436
:10358000006802C0883661F4F4018381F30183FD91
:10359000859183FF81913F01882309F46FC0BBCFE0
:1035A000982F8554833018F08052833038F424E00B
:1035B00030E0C20ED31E8FE389830FC0933631F003
:1035C000933799F0933509F05BC023C0F6018081F1
:1035D000898322E030E0C20ED31E7E010894E11CF4
:1035E000F11C51E0A52EB12C12C0F601E080F18053
:1035F00006FD03C06FEF7FEF02C0652D772722E045
:1036000030E0C20ED31EC7010E94591C5C010F7727
:1036100013C0F601E080F18006FD03C06FEF7FEF7D
:1036200002C0652D772722E030E0C20ED31EC7010D
:103630000E944E1C5C01006803FF07C01BC0B40160
:1036400080E290E00E94641C4A94842D9927A81679
:10365000B906A8F30FC0F70107FD859107FF819117
:103660007F01B40199270E94641C41104A94089478
:10367000A108B108A114B10471F706C190E03EC0E1
:10368000943611F0993691F507FF0AC0F601608172
:1036900071818281938124E030E0C20ED31E0DC07F
:1036A000F601808191819C01B901882777FD809581
:1036B000982F42E050E0C40ED51E4FE6B42EB02243
:1036C00097FF09C090958095709561957F4F8F4FBA
:1036D0009F4F50E8B52A8E010F5F1F4F2AE030E060
:1036E000A8010E94911CA82EA01A4DC0953731F454
:1036F0003FEEF32EF0222AE030E023C029EFF22E35
:10370000F0229F3661F0903720F4983509F0BFC061
:1037100012C0903739F0983709F0B9C005C028E0D9
:1037200030E00FC080E1F82AF4FE02C094E0F92AEC
:1037300020E130E006C0F4FE02C0E6E0FE2A20E10F
:1037400032E0F7FE0AC0F6016081718182819381C7
:1037500044E050E0C40ED51E0BC0F601808191817B
:10376000AC01BA0188279927E2E0F0E0CE0EDF1E17
:103770008E010F5F1F4FA8010E94911CA82EA01A56
:103780008FE7B82EBF20B6FE10C0FEEFBF22A514F3
:1037900060F42B2D332724FF1AC022FF02C0052D11
:1037A00009C02FEEB222052D01C00A2D2B2D332783
:1037B00024FF0EC0FE01EA0DF11D8081803319F453
:1037C00039EEB32209C00F5F22FF06C004C0052DE9
:1037D000822F867809F00F5FEB2CFF24E3FC14C0E6
:1037E000E0FE0FC0041510F05A2C0BC0542C501AD8
:1037F0005A0C042D06C0B40180E290E00E94641CC3
:103800000F5F0415C0F304C0041510F4401A01C082
:103810004424E4FE10C0B40180E390E00E94641CE4
:10382000E2FE1EC0E1FE03C088E590E002C088E72A
:1038300090E0B4010CC08E2D867891F0E1FE02C0BC
:103840008BE201C080E2B7FC8DE2B40199270E94AF
:10385000641C06C0B40180E390E00E94641C5A948A
:10386000A514C0F3AA94FE01EA0DF11D8181B401F3
:1038700099270E94641CAA2039F0F4CFB40180E299
:1038800090E00E94641C4A944420C1F727CEF401C2
:1038900086819781E0E12B960C942D1DFC0105900B
:1038A000615070400110D8F7809590958E0F9F1F42
:1038B0000895FC016150704001900110D8F7809587
:1038C00090958E0F9F1F08950F931F93CF93DF93B3
:1038D0008C01EB018B81992781FF1BC082FF0DC0FA
:1038E0002E813F818C819D812817390764F4E881FE
:1038F000F9810193F983E88306C0E885F985802F73
:103900000995892B31F48E819F8101969F838E8347
:1039100002C00FEF1FEFC801DF91CF911F910F91F0
:103920000895FA01AA27283051F1203181F1E89455
:103930006F936E7F6E5F7F4F8F4F9F4FAF4FB1E0A2
:103940003ED0B4E03CD0670F781F891F9A1FA11D9D
:10395000680F791F8A1F911DA11D6A0F711D811D9E
:10396000911DA11D20D009F468943F912AE0269F63
:1039700011243019305D3193DEF6CF010895462FC2
:103980004770405D4193B3E00FD0C9F7F6CF462FA3
:103990004F70405D4A3318F0495D31FD405241930C
:1039A00002D0A9F7EACFB4E0A695979587957795C9
:1039B0006795BA95C9F700976105710508959B0150
:1039C000AC010A2E06945795479537952795BA95D9
:1039D000C9F7620F731F841F951FA01D0895991BBF
:1039E00079E004C0991F961708F0961B881F7A95F6
:1039F000C9F78095089585FD0FC0806291110CC0B4
:103A000081568A51E0F70895803209F0911104C07F
:103A100080528F55E0F708959927882708952F92AF
:103A20003F924F925F926F927F928F929F92AF924E
:103A3000BF92CF92DF92EF92FF920F931F93CF939B
:103A4000DF93CDB7DEB7CA1BDB0B0FB6F894DEBF32
:103A50000FBECDBF09942A88398848885F846E8458
:103A60007D848C849B84AA84B984C884DF80EE80A2
:103A7000FD800C811B81AA81B981CE0FD11D0FB6AB
:0E3A8000F894DEBF0FBECDBFED010895FFCF5D
:103A8E002025752042797465732066726565002C59
:103A9E00202564206B487A0045585400002D0024E0
:103AAE00003F00494E495449414C495A4500524540
:103ABE004E414D4500534352415443480043440048
:103ACE004D4B44495200524D4449520041535349C3
:103ADE00474E003031323334353637383961626310
:103AEE0064656678643230333100646972007072D6
:103AFE006700626C6F636B732066726565001613E8
:103B0E001913AD14CE1445156816303132333435D1
:103B1E0036373839616263646566020002FF000160
:023B2E000F0086
:00000001FF
