:100000000C94F4000C9411010C9411010C94110146
:100010000C9411010C9411010C9411010C945D01CC
:100020000C9411010C9411010C9411010C94110108
:100030000C9411010C94D6120C9411010C94110122
:100040000C9411010C9411010C9411010C941101E8
:100050000C9413010C9439010C9411010C941101AE
:100060000C9411010C9411010C9411010C941101C8
:100070000C9411010C9411010C94110158532D3161
:100080003534312F5844323033312056302E310040
:100090002042455441350080204F4B81005320536E
:1000A0004352415443484544820809949596979891
:1000B0009B0103999C02039A022050524F544543DE
:1000C00054204F4E9D054944204D49534D415443C2
:1000D000489E9FA0A1A253594E54415803A7BE0069
:1000E00004464F554E44B2070450524553454E54B2
:1000F000B34F564552464C4F5720494E2007B40047
:100100000B4C41524745BC0220002006BD000406AE
:10011000BF0020455849535453C0002054595045FE
:10012000204D49534D41544348C10C424C4F434B21
:10013000C2C30A20545241434B204F5220534543DF
:10014000544F52C60C4348414E4E454CC744495249
:1001500003C80546554C4CCA4452495645040159FA
:10016000CD0920080ACE4255464645520B534D4113
:100170004C4CCF494D414745200020494E56414CFB
:100180004944E3434C4F434B20554E535441424C5A
:1001900045FF8046494C458152454144825752496A
:1001A000544583204552524F5284204E4F5420854F
:1001B0004449534B20864F50454E875245434F523A
:1001C0004488504152544954494F4E208953454C1C
:1001D00045435445448A494C4C4547414C8B205437
:1001E0004F4F208C4E4F20FF11241FBECFEFD0E188
:1001F000DEBFCDBF13E0A0E0B1E0E6E8FDE202C063
:1002000005900D92A23FB107D9F71BE0A2EFB3E032
:1002100001C01D92A936B107E1F70E9424060C9493
:10022000C2160C9400002F922FB60F930091C600B7
:1002300078941F93CF93DF931091E40AC4E6DAE039
:10024000C10F08F4D3950883DF91CF9113951F77E1
:100250000091680B101719F01093E40A29F400912B
:10026000670B03950093670B1F910F912FBE2F9083
:1002700018952F922FB60F93CF93DF930091E60A34
:10028000C091E50A0C1771F0C7EEDAE0C00F08F470
:10029000D395C881C093C60003950F770093E60AF3
:1002A000789405C00091C1000F7D0093C100DF91DB
:1002B000CF910F912FBE2F9018952F922FB60F939D
:1002C00000912900087051F4009128000F7C0093E0
:1002D0002800009127000063009327000F912FBE94
:1002E0002F901895FC01F8944B9904C080918F05CC
:1002F000882311F03D98459A789481E08093910588
:100300004B9B28C03699FCCF45983D9A1092910599
:10031000379903C022E030E002C020E030E080B135
:100320008095992791838083F8944B9904C080919C
:100330008F05882311F03C98449A789481E080934B
:1003400090054B9B07C0369BFCCF44983C9A10927B
:10035000900502C021E030E0C90108950E945713C2
:1003600084EF93E00E9439030895EF92FF920F9378
:100370001F93CF93DF93CDB7DEB722970FB6F894D4
:10038000DEBF0FBECDBF8E010F5F1F4F0F2EF4EFEC
:10039000EF2EF3E0FF2EF02D0AC0482F4270698146
:1003A000C7010E946E059093F3038093F203C80186
:1003B0000E94720180FFF1CF0197F1F0F8944B9900
:1003C00004C080918F05882311F03D98459A789458
:1003D00081E080939105F8944B9904C080918F053A
:1003E000882311F03C98449A789481E0809390059A
:1003F0003E98469A3F98479A22960FB6F894DEBFE9
:100400000FBECDBFDF91CF911F910F91FF90EF9065
:100410000895EF92FF920F931F93CF93DF93CDB781
:10042000DEB721970FB6F894DEBF0FBECDBFF894AC
:100430004B9904C080918F05882311F03D98459A0F
:10044000789481E080939105F8944B9904C0809151
:100450008F05882311F03C98449A789481E080932A
:1004600090053E98469A3F98479A04EF13E04B9BBD
:1004700069C0359BFCCF41E0BE016F5F7F4FC80173
:100480000E945C039093F3038093F20386FD03C004
:10049000EE24FF2406C047983F9AEE24FF24689478
:1004A000E1F8898181B9809582B946983E9A4B9B43
:1004B00049C0349B0AC0359B08C03F98479A3E9874
:1004C000469AF8944B9947C042C03599F0CF4B9B60
:1004D00039C0349BFCCF3E98469A3F98479A40E0FB
:1004E000BE016F5F7F4FC8010E945C039093F303CE
:1004F0008093F203882339F44B9B24C03499FCCFBA
:10050000EF2809F4B4CFF8944B9904C080918F057B
:10051000882311F03D98459A789481E08093910565
:10052000F8944B9904C080918F05882311F03C9872
:10053000449A789481E0809390053E98469A3F983B
:10054000479A20C03E98469A3F98479A1BC0809190
:100550008F05882311F03D98459A789481E0809327
:100560009105F8944B9904C080918F05882311F070
:100570003C98449A789481E0809390053E98469AFE
:100580003F98479A21960FB6F894DEBF0FBECDBFB5
:10059000DF91CF911F910F91FF90EF9008951F93DE
:1005A0004B9965C03E98469A3F98479A1092F3033C
:1005B0001092F20311E044983C9A109290058091B9
:1005C0009105882321F445983D9A1092910544980D
:1005D0003C9A1092900510938F05F89489B13D983C
:1005E000459A7894109391054B991BC03699FCCF8E
:1005F00045983D9A1092910560B1F89489B13C9864
:10060000449A7894109390056095772784EF93E04F
:100610000E9404059093F3038093F203369BFECF70
:10062000CACF8091F2039091F3039C012070307F38
:1006300080E22030380749F445983D9A10929105A0
:1006400010928F050E94B50110C010928F05F8948A
:100650004B9B02C03D98459A789481E08093910528
:100660002050304411F40E9409020E9457131F9138
:100670000895FC01809178048183805F80937804E1
:1006800088E080831186138212820895CF93DF93CE
:10069000E0917904F0917A048783813041F4611507
:1006A000710521F0EB018981808701C0108681E00E
:1006B0008683DF91CF910895CF92DF92EF92FF92E0
:1006C0000F931F93CF93DF938C017B01C42EFC010A
:1006D00085810F2EFFE0DF2EF02DD822C281D3813D
:1006E000209729F5FFE0DF16A9F4F801818120E0C9
:1006F00030E044EE51E060E0815F0E94910CF8012F
:100700008181815F0E94D00CEC01F8019383828388
:10071000892B69F420E040E06DE384EB91E00E94D6
:10072000D0060F2EF3E8EF2EFF24F02D49C0CE01A6
:100730000E94280ECE010E94090EF7018083898154
:1007400027E0829FC00111240B96FE01E80FF91FDC
:1007500080818C3FB1F4248133272F5F3F4F838109
:100760009927281739076CF080E091E09F938F93C9
:100770000E942E0BEE24FF246894E6F80F900F9051
:1007800002C0EE24FF24CC20D9F4CE010E94D30D68
:100790008823B1F4CE010E94AB0D882321F0CE0155
:1007A0000E94E90E0DC0FFE0DF1611F0DD2041F4DC
:1007B000F80181818D0D0E94340EF801138212829E
:1007C000F80184819927982F88278E0D9F1DDF912E
:1007D000CF911F910F91FF90EF90DF90CF900895F0
:1007E000EF92FF920F931F93CF93DF93CDB7DEB7B6
:1007F00021970FB6F894DEBF0FBECDBF7C01FC0180
:100800008481208199278F709070332782179307F6
:1008100019F080E890E0EBC0F7018581382F3F7038
:100820009927807F9070803E910569F1803F910506
:10083000F1F18036910509F0C9C08181830F0E94D2
:10084000D00CF70193838283892B59F486E091E0E1
:100850009F938F930E942E0B80E490E00F900F9057
:10086000C6C0F7018481807F803419F080E090E079
:10087000BEC041E0BE016F5F7F4FC7010E945C03B5
:100880008F7B9070B4C03F3051F4F7018181682FA5
:10089000615F77270E94440D80E090E0A8C0F701D7
:1008A0008181830F0E94340E80E090E0A0C0F701A8
:1008B00016828581182F1F70F0927A04E0927904D5
:1008C00016821F3061F4B701675F7F4F818126E494
:1008D00033E044EB51E0815F0E94BF0710C0B701D5
:1008E000675F7F4FF701818100E0113009F401E07B
:1008F00026E433E044EB51E0810F0E94D8098823BD
:1009000044F0E0917904F0917A0486818823D1F053
:1009100022C0992787FD90959F938F938DE191E059
:100920009F938F930E942E0B20E040E06AE484EBBB
:1009300091E00E94D00682E090E00F900F900F901F
:100940000F9041C00E941A10E0917904F0917A044E
:1009500086818823B9F38781992787FD90959F9396
:100960008F9387E491E09F938F930E942E0BE091E9
:100970007904F0917A0487810F900F900F900F9077
:100980008823D1F08781813041F44085678120E060
:1009900084EB91E00E94D00607C0678120E040E030
:1009A00084EB91E00E94D006F7018181810F0E94C3
:1009B000340E80E090E007C0F7018181810F0E9432
:1009C0002C0E80E090E0F701118611C0F7018581BF
:1009D00099279F938F9383E791E09F938F930E9432
:1009E0002E0B80E090E00F900F900F900F902196CB
:1009F0000FB6F894DEBF0FBECDBFDF91CF911F9130
:100A00000F91FF90EF9008951F93CF93DF93EC0128
:100A1000162F6F33B1F48D81282F3327C901807FC2
:100A20009070803F910541F0C9018F7090700F97D1
:100A300019F040E050E037C0CE010E94F003AC0155
:100A400032C0262F3327C901807F907080369105F0
:100A5000E1F0813691053CF48032910559F0803403
:100A60009105E9F407C0803E910579F0803F91053A
:100A7000B1F411C02F703070888199272817390779
:100A800001F51C8340E050E00CC01D83CE010E94A4
:100A9000F003AC0106C06D8340E050E002C040E0CE
:100AA00050E01F3519F41C821D820EC028813327A7
:100AB0008C8199278F7090702817390729F040682A
:100AC00003C040E050E0EDCF8C819927982F882714
:100AD000842B952BDF91CF911F910895CF93DF93B6
:100AE000EC018D81282F3327C9018F7090700F97EB
:100AF00031F0C901807F9070803F910561F4898554
:100B00008837A8F4FE01E80FF11D62878F5F89879F
:100B100020E030E00EC055278A819B810E947C0E28
:100B20009B838A83892B19F423E830E002C020E0FC
:100B300030E08C819927982F8827820F931FDF91AF
:100B4000CF9108958F929F92BF92CF92DF92EF92B2
:100B5000FF920F931F93CF93DF93B82EFB01EA010F
:100B6000490180818F3FA1F0992787FD90959F9340
:100B70008F938AE891E09F938F930E942E0B66E4F7
:100B80008B2DF40109950F900F900F900F902BC0B3
:100B9000E980FA800D8111270F2EF6EBCF2EF1E0C0
:100BA000DF2EF02DA801B601C7010E94A513F701A1
:100BB000E00FF11F31971082F70101900020E9F753
:100BC0003197EE19FF098CEF8883BE82EB831C827C
:100BD00020E040E060E0C60102970E94D00660E09D
:100BE0008B2DF4010995DF91CF911F910F91FF900B
:100BF000EF90DF90CF90BF909F908F90089520E06E
:100C000040E060E084EB91E00E94D00608951092ED
:100C1000780420E040E069E484EB91E00E94D00693
:100C200008958DB79EB789569B4008950E94C70AC4
:100C30008EE20E949C0A0E94C70A8CEE91E00E94FC
:100C4000D40A0E94C70A0895389A40980E943F1318
:100C50000E94830F0E94860A0E947E080E94200D37
:100C60000E9407060E94731388E00E94AE017894E8
:100C70000E94940F0E9416060E9411069F938F9364
:100C800088E092E09F938F930E942E0B89E999E36D
:100C9000A0E0B0E0BF93AF939F938F9387E192E082
:100CA0009F938F930E942E0B0E94C70A0E94C70A2F
:100CB0008DB79EB70A960FB6F8949EBF0FBE8DBF34
:100CC0000E941A100E94CF02FBCF0F931F93CF9365
:100CD000DF93DC01EB0100E0552740585F4FFE0138
:100CE000E00FF11D0F5FC895202D822F99278417E3
:100CF000950719F02F3F59F0F2CF2F3F41F0FE0139
:100D0000E00FF11DC895E02DEE2324F00BC08FE31A
:100D10008D931EC00F5FFE01E00FF11DC895E02D01
:100D2000EE23C4F3FE01E00FF11D0F5FC895102DF7
:100D3000103250F4412F62E971E0CD010E94650646
:100D4000DC0111237CF704C0112314F01D93EACFBA
:100D5000CD01DF91CF911F910F910895CF93DF9334
:100D6000DC01262F643650F0862F64E60E9463165D
:100D7000805D8D93822F0E946316292F822F6AE057
:100D80000E946316805DFD018193822F0E9463168D
:100D9000905DED019983CF010196DF91CF91089588
:100DA000CF92DF92EF92FF920F931F93CF93DF9337
:100DB000162FC42ED22EEE24FF246894E1F8E80EFC
:100DC000F91E8EE2E70119928A95E9F7C7010E94A0
:100DD000AE069C01FC018CE28193133059F481E052
:100DE000D81629F085E4E9018983319636C084E478
:100DF000819333C0193011F4D90103C0193431F58E
:100E0000FBCF8A2F821BECE7F0E0E80FF11DC895BD
:100E1000E02DED01E9831196EE2399F7ED0121967E
:100E2000193089F4ED018D01CE01801BE82FFF27D9
:100E3000E057FF4FC895E02D8E2F99270E9480160E
:100E40008993882389F7FE01319707C0412F67E90D
:100E500070E0CF010E946506FC011CE211936C2D2D
:100E6000CF010E94AE06FC0111936D2DCF010E94AF
:100E7000AE06FC018DE080831182FF92EF9280E24A
:100E800092E09F938F930E942E0B0F900F900F90E4
:100E90000F90DF91CF911F910F91FF90EF90DF9016
:100EA000CF900895FC0180818934C9F08A3438F4E8
:100EB000813461F0833411F1843259F40DC08235EC
:100EC00089F08335C1F08D3421F41BC089E090E0B6
:100ED000089581E090E0089582E090E0089583E035
:100EE00090E0089581818D3419F488E090E00895B0
:100EF00084E090E0089585E090E0089586E090E039
:100F0000089587E090E00895843051F1853048F4E9
:100F1000813001F18130C0F08230C9F0833089F432
:100F20001CC0873031F1883028F48530E1F08630FC
:100F300041F41CC0883001F1893019F483E392E058
:100F400008958AE392E008958BE392E008958DE39B
:100F500092E008958FE392E0089581E492E008958D
:100F60008CE492E0089583E592E008958BE592E0A9
:100F700008958EE592E0089584E692E00895DF9268
:100F8000EF92FF920F931F93CF93DF93D82E8B0195
:100F9000EA0179018AE692E00E94D40AC80101962A
:100FA0000E94D40A0E94C70A0E94990A41E062E99D
:100FB00075E0C8010E94580B80919305882319F4AD
:100FC0008BE392E002C00E9484079F938F9384E793
:100FD00092E09F938F930E942E0B809192050F9029
:100FE0000F900F900F908F3F19F48DE290E002C0A8
:100FF0009927C0969F938F938CE792E09F938F934E
:101000000E942E0B80919605909197059F938F9348
:1010100086E892E09F938F930E942E0B8FE892E0D8
:101020000E94D40A00919505802F99270E947A1674
:101030002DB73EB7285F3F4F0FB6F8943EBF0FBEA7
:101040002DBF892B11F0802F01C08DE20E949C0AD8
:101050000E94C70A0E94990A87E992E00E94D40A76
:1010600000919405802F99270E947A16892B11F000
:10107000802F01C08DE20E949C0A0E94C70A0E9434
:10108000990A90919305892F8450853018F08FEF3D
:101090009FEF2CC0963081F0973028F4943041F0C7
:1010A000953071F407C0973049F0983049F415C075
:1010B00067E014C068E012C06EE010C06DE00EC0C2
:1010C0008DE992E00E94D40A20E040E06EE1CE017A
:1010D0000E94D0068FEF9FEF09C06CE09701AE0130
:1010E0008D2D0E94E008992787FD9095DF91CF9183
:1010F0001F910F91FF90EF90DF9008958FEF8093F5
:101100007B0480938E040895CF93DF93982F809172
:101110007B04891719F4C0E0D0E007C080918E04E9
:10112000891709F04AC0C1E0D0E06623C4F4FE018B
:10113000EE0FFF1FCF01880F991F880F991F880F8F
:10114000991FE80FF91FEC0FFD1FE558FB4F0188B1
:10115000F289E02D60E070E08AE409951CC02BE77D
:1011600034E0BE01660F771FCB01880F991F880FEF
:10117000991F880F991F680F791F6C0F7D1FFB0146
:10118000E20FF31F41895289615F7F4F620F731F26
:101190008785FA010995FE01EE0FFF1FCF01880F29
:1011A000991F880F991F880F991FE80FF91FEC0FDF
:1011B000FD1FE558FB4F8FEF8083DF91CF9108959E
:1011C0006F927F928F929F92BF92CF92DF92EF9217
:1011D000FF920F931F93CF93DF93782FF62EEA01A0
:1011E0006901809192058F3F39F410929205E09148
:1011F0009605F0919705108280917B0488230CF46A
:10120000C2C080918E0488232CF48BE794E0DC012B
:10121000539611C08EEA92E00E94D40A0E94C70A37
:101220000E94990A20E040E066E4CE010E94D006C8
:101230008FEF90E0AFC04D01209198058D010F5FB9
:101240001F4F8091960590919705F80192838183B5
:101250002583B72EFD01F182F80176832383148262
:10126000E091DF03F091E0033097A9F0C801099500
:1012700088238CF485EC92E00E94D40A0E94C70A6D
:101280000E94990A20E040E062E2CE010E94D0066E
:101290008FEF90E07FC0F2E0FF1609F477C085E0A1
:1012A000F81609F473C066247724E6E0FE1629F4E4
:1012B000E090DD03F090DE0302C0EE24FF248B2DCE
:1012C0000E94D00C892BA1F085EE92E00E94D40AF6
:1012D0000E94C70A0E94990A20E040E066E4CE011D
:1012E0000E94D0068B2D0E94340E8FEF90E052C0EA
:1012F000970149ED53E0662D8B2D0E94910CF82E3D
:10130000882324F585EF92E00E94D40A8F2D8295E0
:101310008F7009E413E0F801E80FF11D80810E944D
:101320009C0A8F2D8F70080F111DF80180810E947B
:101330009C0A0E94C70A0E94990A20E040E066E4E5
:10134000CE010E94D0068FEF90E024C0F401D28A33
:10135000C18AB0823896C4010F969283818382E05D
:1013600085838DEF868314821382A091DB03B09175
:10137000DC0324E838E0AF01B8018B2DFD010995AD
:1013800080E090E007C0ABE7B4E055CF6624772457
:10139000639493CFDF91CF911F910F91FF90EF90C6
:1013A000DF90CF90BF909F908F907F906F90089527
:1013B000EF92FF920F931F93CF93DF93182FCB01E0
:1013C000EA01790140E062E975E00E94580B8091E2
:1013D0009305882391F0823081F088EF92E00E949B
:1013E000D40A809193050E9484070E94D40A0E9427
:1013F000C70A0E94990A1092930580919405882348
:10140000C9F08335B9F08035A9F089E093E00E94F6
:10141000D40A809194050E949C0A0E94C70A0E94E7
:10142000990A20E040E060E4CE010E94D0068FEFF0
:101430009FEF50C0809195058823D9F08735C9F07A
:101440008235B9F08134A9F08CE193E00E94D40A8E
:10145000809195050E949C0A0E94C70A0E94990AE1
:1014600020E040E06EE1CE010E94D0068FEF9FEFBA
:1014700031C0909193059230A9F48823A9F0823568
:1014800099F085E393E00E94D40A0E94C70A0E9463
:10149000990A20E040E06FE3CE010E94D0068FEF72
:1014A0009FEF18C08735A1F0002311F062E001C062
:1014B00061E0813409F465E0923009F466E0970157
:1014C000AE01812F0E94E008992787FD909502C008
:1014D00062E0F2CFDF91CF911F910F91FF90EF90DB
:1014E000089580912205109223059EEF909329057F
:1014F0008093260510922705E091D903F091DA0335
:1015000083E295E009951092220508951092220534
:1015100081EA94E0909325058093240581E88093E7
:1015200028058DEF80932905109227051092260536
:1015300008950E94781108951F93CF93DF93182F79
:101540009091270580912605981769F0C6E6DEE0A0
:101550000E941A10CE010197F1F790912605809113
:1015600027059817A9F780912205813850F4E1EA00
:10157000F4E0E80FF11D10838F5F8093220581381E
:1015800010F00E94710ADF91CF911F9108958DE0B4
:101590000E949C0A8AE00E949C0A8091220588236E
:1015A00011F00E94710A0895FF920F931F93CF9339
:1015B000DF938C019091260580912705981769F09B
:1015C000C6E6DEE00E941A10CE010197F1F7909175
:1015D0002605809127059817A9F7F80101900020AA
:1015E000E9F73197FE2EF01A809122058F0D912D8B
:1015F000911D8138910514F00E94710A9091270580
:1016000080912605981769F0C6E6DEE00E941A1060
:10161000CE010197F1F79091260580912705981743
:10162000A9F780E88F1520F40F2EF1E8FF2EF02D9A
:10163000209122054F2D5527B80181EA94E0820FB1
:10164000911D0E948A13809122058F0D809322059F
:10165000DF91CF911F910F91FF9008950F931F93EA
:10166000CF93DF93CDB7DEB7C358D0400FB6F89411
:10167000DEBF0FBECDBFFE01E657FF4F61917191F6
:10168000FA83E9838E010D5F1F4FAF01C8010E94ED
:10169000B413C8010E94D40ACD57DF4F0FB6F89497
:1016A000DEBF0FBECDBFDF91CF911F910F91089587
:1016B0006F927F929F92AF92BF92CF92DF92EF9202
:1016C000FF920F931F93CF93DF93CDB7DEB7219790
:1016D0000FB6F894DEBF0FBECDBFFC013B01C42E98
:1016E0005C010894A11CB11C90818FEFFB018083E9
:1016F0001182128282E58383442331F015821482A1
:101700001682F4E0F98306C0FB01B582A4829683B9
:10171000F6E0F983992309F497C0D92EDA9475017C
:101720000894E11CF11C850199248981833009F416
:1017300079C0843038F4813009F455C0823008F023
:1017400062C03BC099819530B9F0953020F0963059
:1017500009F070C028C0F3018181882369F4F80181
:10176000808199270E947116892B31F0C8010E944F
:101770005207F30181831682F8012081822F992775
:10178000C0970A9720F4822F8053F3018083F801D9
:1017900080818A3309F04EC0F301F582E482D6825B
:1017A000F1E0F98347C0F8018081843231F482E0AE
:1017B000F30181831682F5E0F983F8012081822FFD
:1017C0009927C0970A9728F40F2EF0ED9F2EF02D41
:1017D000920E2A3341F4F3019082F582E482D6829C
:1017E000F1E0F98327C0CC2029F5F80180818C3203
:1017F00009F5F3018481F02FF81B8F2FF301868305
:10180000F2E0F98317C0F3018281882321F4F80103
:101810008081F3018283F80180818C3259F4F3E0F6
:10182000F98308C0F3018381882321F4F8018081C2
:10183000F3018383DA940894E11CF11CFFEFDF16B7
:1018400019F00F5F1F4F71CFF30184819581A816A6
:10185000B90661F446815527B501C50101960E947C
:101860009313F30186818F5F868309C0F30186811C
:101870008F5F868384819581019795838483F301AB
:10188000A481B58180818C9321960FB6F894DEBF38
:101890000FBECDBFDF91CF911F910F91FF90EF90C1
:1018A000DF90CF90BF90AF909F907F906F90089502
:1018B000CF93DF93EC0187E0689FB0011124655F4F
:1018C0007F4FDE01A60FB71F98818FEF8C93FD012C
:1018D0009683138214828F81882371F481E08F8331
:1018E000EB81FC810280F381E02D20EF3CE0AD0133
:1018F000BD018881099512C0833081F48A818823D3
:1019000069F484E08F83EB81FC810280F381E02D18
:1019100020EF3CE0AD01BD0188810995DF91CF91B9
:1019200008950F931F93182F062FB901A7E0B0E079
:10193000E8ECF9E029E935E0808188232CF589E994
:1019400090E0FD01E89FD001E99FB00DF89FB00D38
:101950001124FD01E20FF31F1083118202835483CF
:10196000438376836583FD013B96E20FF31F148268
:10197000138216835296A20FB31FFD0114821382A5
:10198000168380E090E009C01197E959F0408FEF8D
:10199000AF3FB80789F68FEF9FEF1F910F91089522
:1019A000282F97E0E8ECF9E08081821789F4892FED
:1019B000992787FD909529E930E0AC01429FC0014D
:1019C000439F900D529F900D112487569A4F089572
:1019D0009150E959F0409F3F39F780E090E0089539
:1019E0001F93162F0E94D00CFC01892B59F01087F1
:1019F0008781813019F482E0878304C0843011F438
:101A000085E087831F910895DC018FEF8C93FD01A2
:101A1000178211863B96CD0149969283818390E48B
:101A200095838DEF868314821382FD017296A75AE7
:101A3000BF4FB283A1839583868314821382089556
:101A4000CF93DF93C8ECD9E061E0CE010E94040D92
:101A5000C959D04085E0C030D807B1F7DF91CF91A8
:101A600008951F93162F0E94D00CFC01892B51F072
:101A700012878185823019F481E0818703C081302B
:101A800009F411861F9108950F931F93062F68176D
:101A900060F0182F812F0E94D00C009719F061E0A0
:101AA0000E94040D1F5F0117A8F71F910F91089561
:101AB0000F931F93CF93DF93EC01162F8A81882316
:101AC00009F044C08F81882329F4198260E0CE0197
:101AD0000E94580C112369F08F81813051F406E681
:101AE0001EE00E941A10C8010197F1F78F81813022
:101AF000C1F38F81823081F4ED81FE81309749F00E
:101B0000898127E0829FC00111240B968C0F9D1FB5
:101B1000099583E08F831AC08530C1F4ED81FE8181
:101B2000309791F0898121E030E0281B3109C9010B
:101B3000880F991F880F991F880F991F821B930B7D
:101B40000B968C0F9D1F099586E08F83DF91CF91B7
:101B50001F910F9108950F931F938C0161E00E94D4
:101B6000580DF801818127E0829FC00111240B9656
:101B7000E80FF91F80818C3F19F020E030E00AC0A7
:101B800020E094818381981708F421E081E0822786
:101B9000282F332780E090E0232B11F481E090E0A0
:101BA0001F910F910895CF93DF93EC0161E00E94A4
:101BB000580D29818F81833079F487E0289FC001F7
:101BC00011240B96FE01E80FF91F80818C3FB1F4C0
:101BD00094818381981790F0898127E0829FC001CA
:101BE00011240B96FE01E80FF91F84818F5F848317
:101BF00020E09381891740F421E006C061E0621B78
:101C0000CE010E94580CE8CF822F9927DF91CF9107
:101C100008950F931F93CF93DF938C0161E00E948F
:101C2000580DE801898127E0829FC00111240B969D
:101C3000080F191FF80184810180F281E02DE80F5F
:101C4000F11D80819927DF91CF911F910F91089508
:101C500061E00E94580D08950E94D00C009719F081
:101C600061E00E94580D0895FF920F931F93CF9348
:101C7000DF93F82E0E94D00CEC018985882391F126
:101C8000813051F006E61EE00E941A10C80101974B
:101C9000F1F789858130C1F7898127E0829FC001F2
:101CA00011240B96BE01680F791FFB018CEF808316
:101CB000F6821482AB81BC81FD01A281B38121E354
:101CC0003DE0AB018F2DFD0109958985813051F4EF
:101CD00006E61EE00E941A10C8010197F1F78985F7
:101CE0008130C1F360E0CE010E94040DDF91CF91FD
:101CF0001F910F91FF900895AF92BF92DF92EF92E4
:101D0000FF920F931F93CF93DF938C01EC01898592
:101D1000882311F481E08987F80130810F2EFBE0E0
:101D2000AF2EBB24F02DA00EB11E818127E0829F33
:101D3000C00111247501E80EF91EE7018B81E981CC
:101D4000FA81E80FF11D6083982F9F5F9B838D813F
:101D5000981711F0452B91F1D32E8EEFF701808368
:101D6000368393831482E8018985823059F4C6E66C
:101D7000DEE00E941A10CE010197F1F7F80181858B
:101D80008230B9F382E0E8018987EB81FC8102802F
:101D9000F381E02D21E33DE0A701B7018D2D0995E9
:101DA000298181E0821B898327E0829FC001112461
:101DB000F501E80FF91F14821382D682C801DF9162
:101DC000CF911F910F91FF90EF90DF90BF90AF9058
:101DD0000895DF92EF92FF920F931F93CF93DF93BB
:101DE000EC0129818C01055F1F4F87E0289FC0010E
:101DF0001124F801E80FF91F80818C3F09F046C0DB
:101E000094818381981708F441C039C00E941A1048
:101E100086E69EE00197F1F78F818430B9F3853033
:101E2000B9F4ED81FE81309789F0898121E030E0BD
:101E3000281B3109C901880F991F880F991F880F26
:101E4000991F821B930B800F911F099586E08F834A
:101E5000F70194818381981790F4D98283E08F836E
:101E600087E0D89EC0011124F801E80FF91F808196
:101E70008C3FD9F4948183819817B8F01BC060E03F
:101E8000CE010E94040DC0E0D0E014C081E0D82E45
:101E9000D21A87E0D89EC00111247801E80EF91EFD
:101EA0008F81843009F4B2CFBACF61E06D19CE01D1
:101EB0000E94580CCE01DF91CF911F910F91FF909E
:101EC000EF90DF900895DC01FB0180818823C1F051
:101ED000813410F499270FC08B3518F48058992756
:101EE0000AC0813610F4992706C08B3718F4805247
:101EF000992701C099278D9331968081882341F7D6
:101F00001D92CD01089510922A058FEF809343050D
:101F100080933E05809339058093340510924805DF
:101F200084E08093330508951F9310E80E94041302
:101F30008823E1F38FE70E942C131150B9F71F910A
:101F400008951F93CF93DF9314E067C0A0912B05F2
:101F5000B0912C0580913305813099F082301CF4CA
:101F6000882341F004C08230B1F0833011F12FEFAB
:101F70003FEF2FC081E0809333058C91282F3327CA
:101F800028C082E080933305ED018B8199279C0165
:101F90002D5F3F4F1EC0FD018681282F332783818F
:101FA000882319F41093330514C083E0809333051C
:101FB00010C0ED019C81E981FA81E90FF11D80815A
:101FC0009F5F9C83282F33278B81981710F01093E5
:101FD0003305332324F0822F0E942C131EC050910E
:101FE0002A05852F815080932A058823A1F020E0BF
:101FF00030E041E06BE275E0E22FFF27EE0FFF1FBC
:10200000E60FF71F82819381918380832F5F3F4F7B
:102010004F5F541789F71092330580912A05882362
:1020200029F00E940413882309F090CFDF91CF910B
:102030001F9108950E94121399230CF4D2C0482FC7
:1020400020914805223011F1233034F4222359F035
:10205000213009F0C1C013C0233009F47FC02430FF
:1020600009F0BAC087C08D5F823018F04C3F09F08C
:10207000B3C040934E0581E080934805ADC08350C6
:1020800080934D0582E080934805A6C08093490562
:1020900084E08093480520E030E0E4E3F5E08081CF
:1020A000481721F520934A05822F992787FD90959F
:1020B000FC01EE0FFF1FEE0FFF1FE80FF91FEC5C96
:1020C000FA4F0180F281E02DF0934C05E0934B052F
:1020D00020914E0590914D058581891768F02083E8
:1020E0004683138283E08093480506C02F5F3F4FED
:1020F00035962430310599F680914D05882309F0F5
:102100006BC080914A05992787FD9095FC01EE0FE1
:10211000FF1FEE0FFF1FE80FF91FEC5CFA4F038063
:10212000F481E02D80914805843011F46FEF01C0F7
:1021300060E0842F099580914A05992787FD909545
:10214000FC01EE0FFF1FEE0FFF1FE80FF91FEC5C05
:10215000FA4F8FEF8083109248053EC0E0914B0507
:10216000F0914C058381A181B281A80FB11D4C93E0
:102170008F5F838380914D05815080934D051816A4
:102180005CF180914A05992787FD9095FC01EE0F3F
:10219000FF1FEE0FFF1FE80FF91FEC5CFA4F0380E3
:1021A000F481E02D243011F46FEF01C060E08091E4
:1021B0004905099580914A05992787FD9095FC016D
:1021C000EE0FFF1FEE0FFF1FE80FF91FEC5CFA4F39
:1021D0008FEF8083109248050E94121399230CF010
:1021E0002ECF0E94A10F0895CF93DF93EC01809131
:1021F0002A05833030F00E941A1080912A0583301E
:10220000D0F7E82FFF27EE0FFF1FE55DFA4FD183D0
:10221000C0838F5F80932A05813021F410923305AB
:102220000E94A10FDF91CF910895CF92DF92EF929C
:10223000FF920F931F93CF93DF93082FEB017A0147
:10224000690188237CF4992787FD90959F938F934C
:1022500089E593E09F938F930E942E0B0F900F9030
:102260000F900F908E8188237CF4992787FD90959D
:102270009F938F9388E793E09F938F930E942E0BF9
:102280000F900F900F900F901FEF0FC0122F09C0EB
:1022900080818823DCF32F5F3F4F35962430310552
:1022A000B9F70E941A1011232CF420E030E0E4E387
:1022B000F5E0EECF812F992787FD9095FC01EE0F79
:1022C000FF1FEE0FFF1FE80FF91FEC5CFA4F0083B2
:1022D000F282E182D482C382CE010E94F410DF91A7
:1022E000CF911F910F91FF90EF90DF90CF900895C5
:1022F00080912A05882331F00E941A1080912A05C6
:102300008823D1F70895EF92FF920F931F93CF93F5
:10231000DF937C01009739F48AE993E00E94D40AA4
:102320008FEF9FEF0CC1EC0109811A81F8016285E2
:10233000613019F0AFE4B5E008C081E080934F054B
:1023400084E080935005A1E5B5E081E0ED0189933B
:10235000FD018183AE014F5F5F4FE8018B818823D0
:1023600009F0DFC02A812A3F08F0DBC0293F41F491
:1023700089818F3F29F48881882309F0D2C0C7C0A2
:10238000F801818199273327322F2227282B392BD7
:102390008081882311F02F5F3F4FDA012D93832F27
:1023A0009927EA018983FD0131962A30310520F40D
:1023B00080E2ED0189833196613019F482E18193E5
:1023C00015C0623009F455C02436310518F480E296
:1023D000819304C083E0283E380718F480E281939B
:1023E00003C02051374210F480E2819382E281934E
:1023F000E8018B85882309F49EC0D8012BE0813445
:1024000010F499270FC08B3518F4805899270AC00B
:10241000813610F4992706C08B3718F4805299271B
:1024200001C0992781932F5FED018C85882329F4C2
:1024300082E281932C3130F00AC011962B31F9F6EB
:1024400082E2819380E281932F5F2C31D8F3613057
:1024500039F465EA73E0CF010E94630FFC011EC0EE
:10246000633039F46CEA73E0CF010E94630FFC0122
:1024700015C0662339F460EB73E0CF010E94630F4F
:10248000FC010CC0623051F464EB73E0CF010E9498
:10249000630FFC011192EC01198231968FE495E0F3
:1024A0000E2F081BC02FDD27F7018581992787FD97
:1024B00090958C179D07F4F480EC93E00E94D40A69
:1024C000802F82958F7001EE13E0F801E80FF11D67
:1024D00080810E949C0AFE01EF70F070E00FF11FF6
:1024E00080810E949C0A0E94C70A0E94990A8FEF6D
:1024F0009FEF25C0402F55276FE475E0E7018981E4
:102500009A810E948A130B8380E090E018C0FA0140
:102510008FEF819389EFEA01898331962FEF39EFAD
:102520004BCFFA018FEF819389EFEA0189833196CE
:102530002FEF39EF41CF82E281932BE083CFDF9100
:10254000CF911F910F91FF90EF900895FC01A18111
:10255000B2818381992787FD9095882321F1282FC7
:102560008C91813410F4992719C08B3518F4805E52
:10257000992714C0813610F4992710C08B3718F4AE
:10258000805299270BC0813C10F4992707C08B3DDE
:1025900020F499278F77907001C099278C93215050
:1025A00011F01196DDCF80E090E008951F920F9218
:1025B0000FB60F9211248F939F938091620A90918E
:1025C000630A01969093630A8093620A9F918F91A8
:1025D0000F900FBE0F901F90189582E085BD8FEF72
:1025E00098E0909389008093880010928500109263
:1025F0008400109280008BE080938100EFE6F0E091
:1026000080818260808308958091E50A9091E60A36
:1026100020E030E08F5F8F77891711F021E030E004
:10262000C90108959091E40A8091680B981719F4F4
:102630002FEF3FEF0FC08091680BE4E6FAE0E80F60
:10264000F11D8081282F33278091680B8F5F8F7752
:102650008093680BC90108959091E50AE7EEFAE0CE
:10266000E90FF11D80838091E50A8F5F8F7780935A
:10267000E50AE1ECF0E080818062808308951092A9
:10268000E50A1092E60A1092E40A1092680BE1EC57
:10269000F0E088E0808380818061808387E08093A0
:1026A000C4001092C50080818068808308951092D4
:1026B0008F0511B88FEF82B93E98469AF8944B9BDC
:1026C00002C03D98459A789481E080939105F894F2
:1026D0004B9B02C03C98449A789481E0809390058B
:1026E0003F98479A08950F931F9303E710E0F8016E
:1026F0008081877F80830E945713DB9AF801808155
:1027000088608083E8E6F0E08081886080831F91A4
:102710000F910895FB01DC0102C001900D92415020
:102720005040D8F708956817790768F4FB01DC0179
:10273000E40FF51FA40FB51F02C002900E92415086
:102740005040D8F708950C948A13FB01DC014150E6
:10275000504048F001900D920020C9F701C01D9231
:1027600041505040E0F70895AEE0B0E0EAEBF3E10D
:102770000C9499168C0186E08C831A8309838FEF61
:102780009FE79E838D83CE0101960E94D013EF8137
:10279000F885E00FF11F1082E4E02E960C94B51638
:1027A000ABE0B0E0E6EDF3E10C948D164C013B019B
:1027B0006A01FC0117821682838181FD03C08FEFBD
:1027C0009FEFDCC1F4012381F30123FD859123FFF9
:1027D00081913F01882309F4CEC1853239F423FD6C
:1027E000859123FF81913F01853229F4B401992716
:1027F0000E94D815E7CF00E0442455243AE0003287
:10280000B0F48B3269F08C3228F4803251F083328C
:1028100071F40BC08D3239F0803349F4016028C067
:102820000260046025C0086023C0006121C007FD6C
:102830002BC0282F20532A3078F406FF06C0539E61
:10284000C0011124522E580E13C0439EC001112402
:10285000422E480E00620CC08E3221F406FD8BC160
:10286000006406C08C3611F4006802C0883661F43A
:10287000F4018381F30183FD859183FF81913F0101
:10288000882309F46FC0BBCF982F8554833018F08C
:102890008052833038F424E030E0C20ED31E8FE340
:1028A00089830FC0933631F0933799F0933509F04F
:1028B0005BC023C0F6018081898322E030E0C20E34
:1028C000D31E7E010894E11CF11C51E0A52EB12C11
:1028D00012C0F601E080F18006FD03C06FEF7FEFCC
:1028E00002C0652D772722E030E0C20ED31EC7015B
:1028F0000E94CD155C010F7713C0F601E080F180D6
:1029000006FD03C06FEF7FEF02C0652D772722E041
:1029100030E0C20ED31EC7010E94C2155C010068E0
:1029200003FF07C01BC0B40180E290E00E94D815ED
:102930004A94842D9927A816B906A8F30FC0F70169
:1029400007FD859107FF81917F01B40199270E94BE
:10295000D81541104A940894A108B108A114B104F3
:1029600071F706C190E03EC0943611F0993691F5AA
:1029700007FF0AC0F601608171818281938124E0A2
:1029800030E0C20ED31E0DC0F601808191819C0102
:10299000B901882777FD8095982F42E050E0C40E5A
:1029A000D51E4FE6B42EB02297FF09C090958095B2
:1029B000709561957F4F8F4F9F4F50E8B52A8E01DC
:1029C0000F5F1F4F2AE030E0A8010E940516A82ED5
:1029D000A01A4DC0953731F43FEEF32EF0222AE0D5
:1029E00030E023C029EFF22EF0229F3661F09037BD
:1029F00020F4983509F0BFC012C0903739F09837ED
:102A000009F0B9C005C028E030E00FC080E1F82A25
:102A1000F4FE02C094E0F92A20E130E006C0F4FEA2
:102A200002C0E6E0FE2A20E132E0F7FE0AC0F6012D
:102A3000608171818281938144E050E0C40ED51E93
:102A40000BC0F60180819181AC01BA0188279927DA
:102A5000E2E0F0E0CE0EDF1E8E010F5F1F4FA801F7
:102A60000E940516A82EA01A8FE7B82EBF20B6FE2A
:102A700010C0FEEFBF22A51460F42B2D332724FFD6
:102A80001AC022FF02C0052D09C02FEEB222052D6B
:102A900001C00A2D2B2D332724FF0EC0FE01EA0DA5
:102AA000F11D8081803319F439EEB32209C00F5F24
:102AB00022FF06C004C0052D822F867809F00F5F23
:102AC000EB2CFF24E3FC14C0E0FE0FC0041510F053
:102AD0005A2C0BC0542C501A5A0C042D06C0B401A9
:102AE00080E290E00E94D8150F5F0415C0F304C087
:102AF000041510F4401A01C04424E4FE10C0B401CF
:102B000080E390E00E94D815E2FE1EC0E1FE03C003
:102B100088E590E002C088E790E0B4010CC08E2DFB
:102B2000867891F0E1FE02C08BE201C080E2B7FC42
:102B30008DE2B40199270E94D81506C0B40180E344
:102B400090E00E94D8155A94A514C0F3AA94FE01EF
:102B5000EA0DF11D8181B40199270E94D815AA20A0
:102B600039F0F4CFB40180E290E00E94D8154A9485
:102B70004420C1F727CEF40186819781E0E12B96AE
:102B80000C94A916FC010590615070400110D8F713
:102B9000809590958E0F9F1F0895FC0161507040A5
:102BA00001900110D8F7809590958E0F9F1F089582
:102BB0000F931F93CF93DF938C01EB018B819927A8
:102BC00081FF1BC082FF0DC02E813F818C819D81C2
:102BD0002817390764F4E881F9810193F983E883C0
:102BE00006C0E885F985802F0995892B31F48E81FF
:102BF0009F8101969F838E8302C00FEF1FEFC80154
:102C0000DF91CF911F910F910895FA01AA272830E3
:102C100051F1203181F1E8946F936E7F6E5F7F4FA9
:102C20008F4F9F4FAF4FB1E03ED0B4E03CD0670F25
:102C3000781F891F9A1FA11D680F791F8A1F911D78
:102C4000A11D6A0F711D811D911DA11D20D009F4C8
:102C500068943F912AE0269F11243019305D31930A
:102C6000DEF6CF010895462F4770405D4193B3E0F3
:102C70000FD0C9F7F6CF462F4F70405D4A3318F09A
:102C8000495D31FD4052419302D0A9F7EACFB4E04B
:102C9000A6959795879577956795BA95C9F7009703
:102CA0006105710508959B01AC010A2E06945795A4
:102CB000479537952795BA95C9F7620F731F841FFB
:102CC000951FA01D0895991B79E004C0991F9617C0
:102CD00008F0961B881F7A95C9F78095089585FDA1
:102CE00017C08062911114C081568A51E0F708958F
:102CF000803209F091110CC080528F55E0F7089591
:102D00009111089581568A5108F48052855808958A
:102D10009927882708952F923F924F925F926F9242
:102D20007F928F929F92AF92BF92CF92DF92EF925B
:102D3000FF920F931F93CF93DF93CDB7DEB7CA1BDC
:102D4000DB0B0FB6F894DEBF0FBECDBF09942A8807
:102D5000398848885F846E847D848C849B84AA84AF
:102D6000B984C884DF80EE80FD800C811B81AA813C
:102D7000B981CE0FD11D0FB6F894DEBF0FBECDBF07
:062D8000ED010895FFCFF4
:102D8600454F46210A00446964206E6F74206669C7
:102D96006E64206368616E6E656C210A005265631D
:102DA600656976656420646972656374206572720C
:102DB6006F72206E756D626572206F6E206F706522
:102DC6006E3A2025640A005265636569766564205B
:102DD60063616C6C6261636B206572726F72206EE8
:102DE600756D626572206F6E206F70656E3A202574
:102DF600640A00556E6B6E6F776E20636F6D6D6142
:102E06006E6420253032580A0A00534E483A207024
:102E160061636B65742074797065206973206E6FC9
:102E2600742046535F524541442C206275743A2003
:102E360025640A00FF0500000000000000000000F5
:102E4600000000000000000000000000000000007C
:102E5600000000000000000000000000000000006C
:102E6600000000000000A20500000000232323202C
:102E760058532D313534312F584432303331207682
:102E8600302E3120232323002025752042797465B6
:102E9600732066726565002C202564206B487A00D5
:102EA6005365742073746174757320746F3A2025AA
:102EB600730A0041535349474E00002D0024003F3A
:102EC60000494E495449414C495A450052454E41E4
:102ED6004D450053435241544348004344004D4B33
:102EE60044495200524D44495200434F4D4D414EC4
:102EF600443A2000434D443D25730A004452495646
:102F0600453D25630A004E414D453D25730A004166
:102F160043434553533D00545950453D00494C4C9D
:102F26004547414C20434F4D4D414E4421004E4FA5
:102F3600204F50454E20534C4F5420464F52204F61
:102F460050454E21004E414D4520434F4E56455269
:102F560053494F4E20455843454544532042554614
:102F6600464552210046494C45204F50454E204586
:102F760052524F5200453D004E4F20434F5252454C
:102F8600435420434D443A2000554E4B4F574E2054
:102F960046494C4520545950453A2000554E4B4F12
:102FA600574E2046494C45204143434553532054F0
:102FB6005950452000575249544520544F20444902
:102FC600524543544F52592100303132333435364D
:102FD6003738396162636465662121212120737562
:102FE600626D69742077697468206368616E6E65C6
:102FF6006C6E6F3D25640A002121212120737562C4
:103006006D69742077697468207061636B65742DCF
:103016003E6368616E3D25640A0050204953204E88
:10302600554C4C21007864323033310064697200AB
:1030360070726700626C6F636B7320667265650001
:10304600434F4E56455253494F4E204E4F542050F3
:103056004F535349424C452100F41015118311A6D4
:10306600123031323334353637383961626364654C
:023076006600F2
:00000001FF
