:100000000C9444030C9461030C9461030C946103FD
:100010000C9461030C9461030C9461030C94990794
:100020000C9461030C9461030C9461030C946103C0
:100030000C9461030C9447070C9461030C946103C6
:100040000C9461030C9461030C9461030C946103A0
:100050000C94FD060C9423070C9461030C9461032B
:100060000C9461030C9461030C9461030C94610380
:100070000C9461030C9461030C9461036E616E0037
:10008000696E6600526563656976656420646972AD
:10009000656374206572726F72206E756D62657231
:1000A000206F6E206F70656E3A2025640A00464905
:1000B0004C45204E4F5420464F554E440A0044694B
:1000C00064206E6F742066696E64206368616E6E72
:1000D000656C210A0053657474696E672066696CEB
:1000E00065206E6F74206F70656E206F6E20736573
:1000F00063616464722025640A002323232058531B
:100100002D313534312F5844323033312076302E72
:1001100039202323230058532D313534312F5844AF
:10012000323033312056302E392052433100802076
:100130004F4B810253205343524154434845449A04
:100140000350524F5445435420019C03019EA2A8E2
:10015000A9A60401A702200507BD02200506BF02CB
:1001600020455849535453C0022054595045204DFE
:1001700049534D41544348C20805454D5459C3099C
:100180005045524D495353494F4EC447454E455231
:10019000414C204641554C54C6094348414E4E45BA
:1001A0004CC70801C84449534B2046554C4CCA44DF
:1001B0005249564520055245414459005365742023
:1001C00073746174757320746F3A2025730A00810B
:1001D0004552524F528246494C45835752495445E5
:1001E000208453594E54415820854E4F5420864FF9
:1001F00050454E87464F554E448844495220894EBB
:100200004F2000434F4E46494755524154494F4EA7
:1002100020455854454E53494F4E00494E49544984
:10022000414C495A4500494C4C4547414C20434FAD
:100230004D4D414E442100545950453D00414343EA
:100240004553533D004E414D453D25730A004452F0
:100250004956453D25630A00434D443D25730A0038
:10026000434F4D4D414E443A2025730A00453D0011
:1002700046494C45204F50454E204552524F520062
:100280004E414D4520434F4E56455253494F4E2007
:100290004558434545445320425546464552210062
:1002A0004E4F204F50454E20534C4F5420464F52F6
:1002B000204F50454E2100494C4C4547414C20446D
:1002C000524956453A200066696C655F7375626DE8
:1002D00069745F63616C6C3A207274636F6E662040
:1002E0006973206E756C6C0066696C655F7375620E
:1002F0006D69745F63616C6C3A206572726F726DC8
:100300007367206973206E756C6C005752495445B1
:1003100020544F204449524543544F5259210055CF
:100320004E4B4F574E2046494C4520414343455381
:100330005320545950452000554E4B4F574E2046A0
:10034000494C4520545950453A20004E4F20434FC8
:10035000525245435420434D443A2025730A004FDE
:1003600050454E2046494C453A20464F522043487E
:10037000414E3A2025642057495448204E414D456E
:100380003A2025730A0066696C655F6F70656E3A86
:1003900020627573206973206E756C6C00636861F0
:1003A0006E6E656C5F636C6F7365282570202D3EE3
:1003B000202564292C20707573685F7374617465DF
:1003C0003D25640A00434F4E56455253494F4E2037
:1003D0004E4F5420504F535349424C45210050201A
:1003E0004953204E554C4C21002121212120737569
:1003F000626D69742077697468207061636B6574DD
:100400002D3E6368616E3D25640A00212121212073
:100410007375626D69742077697468206368616EB2
:100420006E656C6E6F3D25640A0052656769737472
:1004300065722070726F766964657220257020661F
:100440006F7220272573270A006E6F7420666F7500
:100450006E642C2072657475726E696E67206465B7
:100460006661756C740A00666F756E642025702075
:10047000696E20736C6F7420256420286465666142
:10048000756C743D2570290A0070726F7669646519
:10049000725F6C6F6F6B757020666F72206472692B
:1004A00076652025640A0052656769737465722059
:1004B00070726F7620257020666F72206472697684
:1004C0006520256420776974682064617461202543
:1004D0007020696E20736C6F742025640A00446577
:1004E0006661756C74206973206E6F742072656725
:1004F000697374657265642C20666F7277617264CB
:10050000696E6720746F207365727665720A0044A5
:1005100072697665202564206E6F7420757365643A
:100520002C2063616E6E6F7420646F2072656C6145
:10053000746976652061737369676E210A0041539F
:100540005349474E3A2064726976652025642074C9
:100550006F20272573270A0053455454494E4720DE
:1005600044524956452320544F2025640A005345E0
:100570005454494E4720554E49542320544F20256A
:10058000640A00434D443A272573270A0000407A45
:1005900010F35A00A0724E18090010A5D4E800000C
:1005A000E87648170000E40B54020000CA9A3B00AA
:1005B0000000E1F505000080969800000040420F21
:1005C000000000A08601000000102700000000E8E5
:1005D00003000000006400000000000A00000000AA
:1005E000000100000000002C76D888DC674F08234B
:1005F000DFC1DFAE59E1B1B796E5E3E453C63AE6B1
:1006000051997696E8E6C28426EB898C9B62ED4090
:100610007C6FFCEFBC9C9F40F2BAA56FA5F49005DF
:100620005A2AF75C936B6CF9676DC11BFCE0E40D13
:1006300047FEF520E6B500D0ED902E030094357707
:10064000050080841E080000204E0A000000C80C2F
:10065000333333330F986E12831141EF8D21148998
:100660003BE65516CFFEE6DB18D1844B381BF77CF2
:100670001D901DA4BBE424203284725E228100C937
:10068000F124ECA1E53D270011241FBECFEFD0E1FE
:10069000DEBFCDBF11E0A0E0B1E0E8E8F1E402C0C8
:1006A00005900D92A23AB107D9F71AE0A2EAB1E09B
:1006B00001C01D92AF31B107E1F70E94200C0C94EC
:1006C000C3200C94261EAEE0B0E0E9E6F3E00C9403
:1006D00078205C012B018A01FC011782168283813C
:1006E00081FD05C08FEF9FEF84C30D851E85F50149
:1006F0002381F20123FD859123FF81912F0188231E
:1007000009F470C3853239F423FD859123FF81916B
:100710002F01853239F4B50199270E94891F1E8760
:100720000D87E3CF982F9924662477243AE0FFE1E0
:10073000F915D0F09B3269F09C3228F4903259F0D0
:10074000933291F40EC09D3249F0903369F421E068
:100750002BC042E0942A54E0952A2AC088E0982AC7
:1007600027C090E1992A24C097FC2FC0292F20533D
:100770002A3080F496FE06C0739EC0011124722EAA
:10078000780E16C0639EC0011124622E680EE0E24E
:100790009E2A0EC09E3229F496FC24C3F0E49F2AC0
:1007A00007C09C3619F420E8922A02C0983669F4F2
:1007B000F5018381F20183FD959183FF91912F01D2
:1007C000992309F0B4CF20E043C2292F892F855403
:1007D000833020F4892D8061205E07C0892F8556E3
:1007E000833008F092C1892D8F7E86FD02C076E0AD
:1007F000772E6FE3F62EF822253619F4F0E4FF2A5F
:1008000007C0263619F420E8F22A02C071107A9443
:10081000F7FE0AC03BE3371518F44CE34C870DC0D4
:10082000572D5F5F5C8709C087E0871518F0272D7B
:100830001C8604C01C8657E0752E27E0F80134960C
:10084000FE87ED87F80160817181828193810C853B
:10085000AE014F5F5F4F0E946E1E6C010981202E1A
:10086000332420FE04C023FC02C01DE20BC08F2DE8
:10087000992781FF02C01BE205C082FF02C010E27F
:1008800001C010E0C1018C709070892B81F111239F
:1008900011F483E001C084E0861510F066240AC0DC
:1008A000681AF3FC07C0B50180E290E00E94891F3E
:1008B0006A94C9F7112329F0B501812F99270E9465
:1008C000891F23FE03C00CE710E00BC000E810E016
:1008D00008C0F4FC8052B50199270E94891F0F5F60
:1008E0001F4FF801C895802D882399F778C2F7FE2D
:1008F00016C0FC85FC0DFC8724FE05C08A8181336F
:1009000011F4F150FC872C8512161CF031E03C8765
:100910002BC04C85493040F158E05C8725C0F6FC7F
:1009200065C2872D99278C159D054CF08CEFC81654
:100930008FEFD80624F090E8F92A01C07A94772046
:1009400031F0FE01E70DF11D82818033B9F3F7FE2E
:100950004DC2E72DEF5FEC87872D9927C816D90682
:1009600014F0772401C07C181C141D041CF021E035
:1009700030E003C096012F5F3F4F112311F02F5F2E
:100980003F4F772021F02F5F3F4F270D311D862DE0
:1009900099272817390714F0662401C0621A8F2C92
:1009A0009924C40189709070892B39F008C0B50171
:1009B00080E290E00E94891F6A946620C1F71123AB
:1009C00029F0B501812F99270E94891F83FE07C056
:1009D00008C0B50180E390E00E94891F6A946620F8
:1009E000C1F7F7FE46C08601D7FE02C000E010E066
:1009F0007601E01AF10AEC0EFD1E22E030E0E20E74
:100A0000F31E3FEF0F3F130729F4B5018EE290E08C
:100A10000E94891FC016D10654F0C6014C85841B64
:100A20009109801791071CF4F701208101C020E390
:100A3000015010400894E11CF11C872D99279095D6
:100A400081959F4F0817190734F0B501822F992718
:100A50000E94891FD6CF0C151D0539F48A81863373
:100A600018F4853311F424FE21E3B501822F992770
:100A700049C08A81813309F00F7EB50199270E9410
:100A8000891F772089F0B5018EE290E00E94891FCE
:100A900012E0FE01E10FF11D81811F5FB501992771
:100AA0000E94891F7A94A9F784FE03C085E490E030
:100AB00002C085E690E0B5010E94891FD7FC05C001
:100AC000C114D10441F404FF06C0D094C194D108EC
:100AD000D3948DE201C08BE2B50199270E94891F52
:100AE00080E305C08F5F26EF3FEFC20ED31E3AE0D2
:100AF000C316D104BCF7B50199270E94891FB5011F
:100B0000C601C0960E94891F6AC1933631F093379F
:100B1000A1F0933509F05CC025C0A8014E5F5F4F7E
:100B20005E874D87F801808189837E010894E11CEE
:100B3000F11C41E0C42ED12C12C0F801E080F180FC
:100B400096FC03C06FEF7FEF02C0672D77270E5F23
:100B50001F4F1E870D87C7010E947E1F6C01192D34
:100B60001F7714C0F801E080F18096FC03C06FEF9E
:100B70007FEF02C0672D77270E5F1F4F1E870D87FF
:100B8000C7010E94581F6C01192D106813FF07C080
:100B90001BC0B50180E290E00E94891F6A94862DF7
:100BA0009927C816D906A8F30FC0F70117FD85913C
:100BB00017FF81917F01B50199270E94891F61105C
:100BC0006A940894C108D108C114D10471F707C10F
:100BD000943611F09936A1F597FE0BC098012C5F61
:100BE0003F4F3E872D87F80160817181828193811B
:100BF0000EC098012E5F3F4F3E872D87F801808100
:100C000091819C01B901882777FD8095982F3FE657
:100C1000D32ED92097FF09C0909580957095619546
:100C20007F4F8F4F9F4F30E8D32A8E010F5F1F4FAA
:100C30002AE030E0A8010E940E20801B082F4EC041
:100C4000953731F42FEEF22EF9202AE030E023C060
:100C500099EFF92EF9202F3661F0203720F428354E
:100C600009F0C0C012C0203739F0283709F0BAC0E7
:100C700005C028E030E00FC040E1F42AF4FE02C0D5
:100C800054E0F52A20E130E006C0F4FE02C086E020
:100C9000F82A20E132E0F7FE0AC0F8013496FE8718
:100CA000ED87F80160817181828193810CC0A80178
:100CB0004E5F5F4F5E874D87F80180819181AC0167
:100CC000BA01882799278E010F5F1F4FA8010E9444
:100CD0000E20801B082F8FE7D82EDF20D6FE10C0F5
:100CE0005EEFD522071560F42D2D332724FF1AC09F
:100CF00022FF02C0172D09C08FEED822172D01C088
:100D0000102F2D2D332724FF0EC0FE01E00FF11D03
:100D10008081803319F499EED92209C01F5F22FF28
:100D200006C004C0172D822F867809F01F5FED2CB6
:100D3000FF24E3FC14C0E0FE0FC0161510F0702E67
:100D40000BC0762C711A700E162D06C0B50180E20C
:100D500090E00E94891F1F5F1615C0F304C016158E
:100D600010F4611A01C06624E4FE10C0B50180E3EE
:100D700090E00E94891FE2FE1EC0E1FE03C088E5EC
:100D800090E002C088E790E0B5010CC08E2D867817
:100D900091F0E1FE02C08BE201C080E2D7FC8DE25F
:100DA000B50199270E94891F06C0B50180E390E034
:100DB0000E94891F7A940715C0F30150FE01E00FCD
:100DC000F11D8181B50199270E94891F002339F007
:100DD000F4CFB50180E290E00E94891F6A946620FA
:100DE000C1F783CCF5018681978103C025E030E00F
:100DF000C4CDE2E12E960C9494202F922FB60F933F
:100E00000091C60078941F93CF93DF9310919A09B5
:100E1000CAE1D9E0C10F08F4D3950883DF91CF91DF
:100E200013951F7700911E0A101719F010939A0955
:100E300029F400911D0A039500931D0A1F910F913B
:100E40002FBE2F9018952F922FB60F93CF93DF932D
:100E500000919C09C0919B090C1771F0CDE9D9E074
:100E6000C00F08F4D395C881C093C60003950F77CF
:100E700000939C09789405C00091C1000F7D0093F8
:100E8000C100DF91CF910F912FBE2F9018952F9217
:100E90002FB678940F931F93CF93DF930091410463
:100EA000003011F40C94920700914404003029F5AD
:100EB000009143040030C9F400914204C9E9D1E033
:100EC000C00F08F4D3951991103021F4009141041A
:100ED0000C945E0710934304188110934504039506
:100EE0000395009342040C9478070A9500934304F9
:100EF000009145040093460408E00A9500934404D9
:100F00000091460407950093460438F400912800A8
:100F10000160009328000C949207009128000E7F36
:100F200000932800DF91CF911F910F912FBE2F903A
:100F300018952F922FB60F9300912900087051F445
:100F4000009128000F7C0093280000912700006387
:100F5000009327000F912FBE2F901895FC01F89455
:100F60004B9904C080914804882311F03D98459A1C
:100F7000789481E080934A044B9B28C03699FCCF3B
:100F800045983D9A10924A04379903C022E030E018
:100F900002C020E030E080B1809599279183808362
:100FA000F8944B9904C080914804882311F03C9830
:100FB000449A789481E0809349044B9B07C0369B08
:100FC000FCCF44983C9A1092490402C021E030E0E2
:100FD000C90108950E943B1E84EA91E00E94F90B2A
:100FE0000895EF92FF920F931F93CF93DF93CDB7A6
:100FF000DEB722970FB6F894DEBF0FBECDBF8E01CD
:101000000F5F1F4F0F2EF4EAEF2EF1E0FF2EF02DB1
:101010000AC0482F42706981C7010E94C50B909396
:10102000A3018093A201C8010E94AE0780FFF1CF07
:101030000197F1F0F8944B9904C0809148048823FB
:1010400011F03D98459A789481E080934A04F89491
:101050004B9904C080914804882311F03C98449A2D
:10106000789481E0809349043E98469A3F98479A45
:1010700022960FB6F894DEBF0FBECDBFDF91CF91A1
:101080001F910F91FF90EF900895EF92FF920F93B1
:101090001F93CF93DF93CDB7DEB721970FB6F894A8
:1010A000DEBF0FBECDBFF8944B9904C080914804B9
:1010B000882311F03D98459A789481E080934A0402
:1010C000F8944B9904C080914804882311F03C980F
:1010D000449A789481E0809349043E98469A3F98D8
:1010E000479A04EA11E04B9B69C0359BFCCF41E075
:1010F000BE016F5F7F4FC8010E9495099093A301C5
:101100008093A20186FD03C0EE24FF2406C0479809
:101110003F9AEE24FF246894E1F8898181B9809593
:1011200082B946983E9A4B9B49C0349B0AC0359B76
:1011300008C03F98479A3E98469AF8944B9947C002
:1011400042C03599F0CF4B9B39C0349BFCCF3E98C1
:10115000469A3F98479A40E0BE016F5F7F4FC801B3
:101160000E9495099093A3018093A201882339F4EA
:101170004B9B24C03499FCCFEF2809F4B4CFF894EA
:101180004B9904C080914804882311F03D98459AFA
:10119000789481E080934A04F8944B9904C080913C
:1011A0004804882311F03C98449A789481E0809315
:1011B00049043E98469A3F98479A20C03E98469ADE
:1011C0003F98479A1BC080914804882311F03D98AE
:1011D000459A789481E080934A04F8944B9904C02E
:1011E00080914804882311F03C98449A789481E0D7
:1011F000809349043E98469A3F98479A21960FB6A5
:10120000F894DEBF0FBECDBFDF91CF911F910F913C
:10121000FF90EF9008951F934B9965C03E98469AB2
:101220003F98479A1092A3011092A20111E04498AE
:101230003C9A1092490480914A04882321F44598ED
:101240003D9A10924A0444983C9A10924904109393
:101250004804F89489B13D98459A789410934A04CB
:101260004B991BC03699FCCF45983D9A10924A0481
:1012700060B1F89489B13C98449A789410934904E9
:101280006095772784EA91E00E943E0A9093A3013B
:101290008093A201369BFECFCACF8091A20190918C
:1012A000A3019C012070307F80E22030380749F490
:1012B00045983D9A10924A04109248040E94F10702
:1012C00010C010924804F8944B9B02C03D98459A78
:1012D000789481E080934A042050304411F40E94B5
:1012E00045080E943B1E1F910895CF93DF93E09124
:1012F0005A02F0915B028783813041F461157105D8
:1013000021F0EB018981808701C0108681E086830E
:10131000DF91CF9108951092590220E040E069E4F6
:101320008AE292E00E94D40C0895CF92DF92EF926D
:10133000FF920F931F93CF93DF937C018B01C42EF9
:10134000FC0185810F2EFFE0DF2EF02DD822C28117
:10135000D381FFE0DF1671F580915802AAE2B2E076
:10136000FD01E80FF11D8081FB01808390915802FF
:10137000A90FB11DFD018181882319F400E410E05B
:1013800002C000E010E0CC2009F068C0892F8F5F18
:1013900080935802AAE2B2E0FD01E80FF11D8081BE
:1013A000882309F05BC020E040E060E0CD010E94AE
:1013B000D40C54C02097B9F499279F938F9385ED4F
:1013C00090E09F938F930E94311220E040E06DE304
:1013D0008AE292E00E94D40C03E810E00F900F9094
:1013E0000F900F903BC0CE010E94C515CE010E9408
:1013F000A615F8018083898127E0829FC00111240E
:101400000B96FE01E80FF91F80818C3F61F4248167
:1014100033272F5F3F4F83819927281739071CF007
:1014200000E410E002C000E010E0CC20B9F4CE01EE
:101430000E94D115882391F4CE010E947E15882345
:1014400021F0CE010E947E1609C0DD2039F4F7019B
:1014500081810E940517F70113821282F7018481AE
:101460009927982F8827800F911FDF91CF911F9187
:101470000F91FF90EF90DF90CF900895DF92EF9261
:10148000FF920F931F93CF93DF93CDB7DEB72197D2
:101490000FB6F894DEBF0FBECDBF7C01D62E8FE312
:1014A000681709F0B2C0F7018581282F3327C901D9
:1014B000807F9070803F910531F0C9018F709070EE
:1014C0000F9709F02EC1F7018481208199278F7031
:1014D000907033278217930709F03FC116828581E8
:1014E000182F1F70F0925B02E0925A0216828185DB
:1014F000E80FF11D12868F5FF70181871F30A1F47D
:10150000818125E739E04AE252E0B701815F0E941C
:10151000C50D982FA0915A02B0915B02FD01EC57C6
:10152000FF4F80818C930FC0F701818100E0113063
:1015300009F401E025E739E04AE252E0B701810F02
:101540000E947A10982F992344F0E0915A02F0916A
:101550005B0286818823D9F023C0892F992787FDD4
:1015600090959F938F9384E890E09F938F930E9430
:10157000311220E040E06AE48AE292E00E94D40C5A
:1015800002E010E00F900F900F900F9038C00E9473
:101590003118E0915A02F0915B0286818823B9F3F9
:1015A0008781813041F44085678120E08AE292E0C2
:1015B0000E94D40C07C0678120E040E08AE292E0FC
:1015C0000E94D40C1F3029F4F7018181815F0E94B1
:1015D0000517E0915A02F0915B028781882341F060
:1015E000F7018181810F0E94051700E010E007C01C
:1015F000F7018181810F0E94C91500E010E0E091A0
:101600005A02F0915B0211868EC0262F3327890182
:10161000007F107000361105F9F00136110544F411
:101620000032110571F00034110509F074C009C0D1
:10163000003E110509F448C0003F110509F06BC0D8
:101640005FC0F70180812F70307099272817390704
:1016500009F061C0D4825FC0F7018481208199279D
:101660008F70907033278217930709F054C06583F9
:10167000962F9F709F3081F08181890F0E94701496
:10168000F70193838283892B39F48EEB90E00E94DB
:10169000851220E430E002C020E030E0F7018481D0
:1016A000807F8034C1F5232B41F441E0BE016F5FA0
:1016B0007F4FC7010E9495092EC08EEA90E00E94DC
:1016C0008512F701148227C0F701848120819927B0
:1016D0008F709070332782179307E9F46583962FF4
:1016E0009F709F3039F48181682F615F77270E9456
:1016F000E41411C0F7018181890F0E9405170BC006
:10170000F7018481208199278F7090703327821789
:10171000930709F46583FFE5DF1619F0003E110514
:1017200049F400E010E0F7011482158280E00E9485
:10173000DF1D16C0F70120818481332799278F7020
:1017400090702817390719F000E810E009C083E00D
:101750000E94DF1D00E010E003C000E010E0E3CFD6
:10176000F70184819927982F8827802B912B219628
:101770000FB6F894DEBF0FBECDBFDF91CF911F91A2
:101780000F91FF90EF90DF900895CF93DF93EC01DE
:101790008D81282F3327C9018F7090700F9731F0FA
:1017A000C901807F9070803F910561F489858837F9
:1017B000A8F4FE01E80FF11D62878F5F898720E0A2
:1017C00030E00EC055278A819B810E9406169B83BC
:1017D0008A83892B19F423E830E002C020E030E04E
:1017E0008C819927982F8827820F931FDF91CF91A3
:1017F00008950F931F938C0180915902F801818302
:10180000805F80935902118688E0808368E0C80178
:101810008C579F4F0E94F61CF801138212821F9171
:101820000F9108958DB79EB78F519A4008950E94E9
:10183000BE118AEF90E00E9485120E94BE110895A9
:101840000F931F930E940E1E0E94D11D0E94131B16
:101850000E9467110E94A91D0E9498178C01DC014B
:10186000ED91FC9180E090E0099510935D0200936A
:101870005C0290935F0280935E02BC01C8010E94EB
:101880000A1B8CE592E00E9462110E94E80E0E9401
:10189000C0140E948B090E94571E88E00E94EA072C
:1018A00078940E94AB170E94170C0E94120C9F9311
:1018B0008F9380E091E09F938F930E945B1289E960
:1018C00099E3A0E0B0E0BF93AF939F938F938FE035
:1018D00091E09F938F930E945B120E94BE110E9421
:1018E000BE118DB79EB70A960FB6F8949EBF0FBE75
:1018F0008DBF0E9431180E940B09FBCFCF93DF935D
:10190000DC01EB01FB01C895802D882339F140688B
:10191000481741F02196FE01C895802D8823F1F0EB
:101920004817C1F7FE01C895402D442334F4219691
:10193000FE01C895402D4423D4F3403238F46FECB7
:1019400071E0CD010E947E0CDC0101C04D93219617
:10195000FE01C895802D482F18167CF3CD01DF912C
:10196000CF910895CF93DF93DC01262F643650F09A
:10197000862F64E60E946C20805D8D93822F0E94EA
:101980006C20292F822F6AE00E946C20805DFD016F
:101990008193822F0E946C20905DED019983CF018D
:1019A0000196DF91CF910895EF92FF920F931F93CD
:1019B000CF93DF93062FF42EE22EEC011EA60E9499
:1019C000B20CFC018CE28193DF01093491F4E6E171
:1019D000F1E0C895802D882379F19F012F5F3F4F5B
:1019E0008D93F9012F5F3F4FC895802D8823C1F754
:1019F00023C0402F6EE271E0CF010E947E0CFC01FB
:101A00001CE211936F2DCF010E94B20CFC011193C7
:101A10006E2DCF010E94B20CFC018DE080831182FB
:101A2000002331F0013021F084E00E94DF1D15C059
:101A300081E00E94DF1D11C01CE21D936F2DCD01BE
:101A40000E94B20CFC0111936E2DCF010E94B20CCA
:101A5000FC018DE080831182EBCFDF93CF938CEB81
:101A600091E09F938F930E9431120F900F900F90EF
:101A70000F90DF91CF911F910F91FF90EF900895FC
:101A8000FC0180818D3479F18E3460F4833429F146
:101A9000843428F4843281F0813489F527C0893474
:101AA00071F50DC08335B1F0883519F0823539F5FF
:101AB00009C08AE090E0089582E090E0089583E014
:101AC00090E0089581818D34A1F0843491F084E018
:101AD00090E0089585E090E008958181843461F07C
:101AE000883469F409C087E090E0089589E090E0C7
:101AF000089588E090E0089586E090E0089581E000
:101B000090E00895853091F1863070F4823011F1C3
:101B1000833028F48823D9F08130B1F41EC083309B
:101B2000F9F0843089F41FC0883049F1893028F4F5
:101B30008630F9F0873041F41FC0893019F18A30BE
:101B400019F488E191E008958CE191E008958DE128
:101B500091E008958FE191E0089581E291E0089588
:101B600083E291E008958EE291E0089585E391E0AB
:101B700008958DE391E0089580E491E0089586E46E
:101B800091E008958CE491E008959F92AF92BF9206
:101B9000CF92DF92EF92FF920F931F93CF93DF9339
:101BA000982E6A01E9018B01075F1F4F0F2EF4E8A1
:101BB000AF2EBB24F02DA60EB71E0F2EFAE0EF2E8F
:101BC000FF24F02DE60EF71EFF92EF9280E692E0E2
:101BD0009F938F930E94311241E06BE474E0C8013F
:101BE0000E94DE1280914C040F900F900F900F9086
:101BF000882319F48DE191E002C00E94820D9F9329
:101C00008F9388E592E09F938F930E943112809189
:101C10004B040F900F900F900F908F3F19F48DE2AF
:101C200090E002C09927C0969F938F938EE492E034
:101C30009F938F930E94311280914F049091500492
:101C40009F938F9385E492E09F938F930E9431122C
:101C50008DE392E00E94851210914E04812F992706
:101C60000E94BA202DB73EB7285F3F4F0FB6F894B9
:101C70003EBF0FBE2DBF892B11F0812F01C08DE219
:101C80000E948D110E94BE110E947E1187E392E096
:101C90000E94851210914D04812F99270E94BA202D
:101CA000892B11F0812F01C08DE20E948D110E94BD
:101CB000BE110E947E1190914C04892F8450853072
:101CC00070F5963081F0973028F4943041F09530DB
:101CD00071F407C0973049F0983049F415C067E0B7
:101CE00014C068E012C06EE010C06DE00EC086E265
:101CF00092E00E94851220E040E06EE1C6010E9461
:101D0000D40C84E490E058C06CE08E019501A601EB
:101D1000892D0E944A0F992787FD90954DC09930D3
:101D200051F580914B048F3F49F420E040E06AE494
:101D3000C6010E94D40C8FEF9FEF3EC060914F040C
:101D4000709150046F5F7F4F0E94BE1B88235CF42C
:101D50008E019501A6016FE0892D0E944A0F9927F7
:101D600087FD909529C060E070E080E0FE01099554
:101D700080E090E021C0933061F48BE192E00E941A
:101D8000851260E070E080E0FE01099580E090E05F
:101D900013C09A3019F08FEF9FEF0EC083E092E0EE
:101DA0000E948512B701C5010E94FA1C60E070E034
:101DB000FE01099580E090E0DF91CF911F910F9196
:101DC000FF90EF90DF90CF90BF90AF909F900895DD
:101DD0008FEF80936002809373020895CF93DF9317
:101DE000982F80916002891719F4C0E0D0E007C0F5
:101DF00080917302891709F04AC0C1E0D0E06623E0
:101E0000C4F4FE01EE0FFF1FCF01880F991F880F4A
:101E1000991F880F991FE80FF91FEC0FFD1FE05A5B
:101E2000FD4F0188F289E02D60E070E08AE40995B9
:101E30001CC020E632E0BE01660F771FCB01880F81
:101E4000991F880F991F880F991F680F791F6C0FB2
:101E50007D1FFB01E20FF31F41895289615F7F4FB4
:101E6000620F731F8785FA010995FE01EE0FFF1FB0
:101E7000CF01880F991F880F991F880F991FE80FAE
:101E8000F91FEC0FFD1FE05AFD4F8FEF8083DF91AC
:101E9000CF9108952F923F924F925F927F928F92AF
:101EA0009F92AF92BF92CF92DF92EF92FF920F93E9
:101EB0001F93CF93DF93C82ED62E7A01E901452BCD
:101EC00021F488EE92E00E948512209721F487EC9D
:101ED00092E00E94851280914B048F3F49F48981E2
:101EE00080934B04E0914F04F091500489818083EA
:101EF00080914B040E94681BEC01892BB1F487EBA5
:101F000092E00E94851280914B04805D0E948D11A9
:101F10000E94BE110E947E1120E040E06AE4C701E9
:101F20000E94D40C8FEF90E0D3C08880998080917C
:101F3000600288230CF4C5C08091730288232CF4BE
:101F400080E692E0DC01539611C080EA92E00E94A4
:101F500085120E94BE110E947E1120E040E066E4DE
:101F6000C7010E94D40C8FEF90E0B2C02D012091E8
:101F700051045D010894A11CB11C80914F04909103
:101F80005004F5019283818325837C2CFD01D1824D
:101F9000F501C68223831482F4012285338521153D
:101FA0003105B1F0C501F901099588238CF480E869
:101FB00092E00E9485120E94BE110E947E1120E0D4
:101FC00040E062E2C7010E94D40C8FEF90E080C035
:101FD000F2E0DF1609F478C085E0D81609F474C081
:101FE00022243324E6E0DE1621F4F401C084D184F7
:101FF00002C0CC24DD24872D0E947014892BA1F00F
:1020000080E792E00E9485120E94BE110E947E111C
:1020100020E040E066E4C7010E94D40C872D0E94B6
:1020200005178FEF90E054C09601AE01622D872D09
:102030000E942F14D82E882324F58DE692E00E946A
:1020400085128D2D82958F7003E511E0F801E80F60
:10205000F11D80810E948D118D2D8F70080F111D33
:10206000F80180810E948D110E94BE110E947E1194
:1020700020E040E066E4C7010E94D40C8FEF90E0BE
:1020800027C0F201128B018B70829201285F3F4FB3
:10209000C2010F96F9019283818382E085838DEFDF
:1020A000868314821382F401A681B7810EEE1EE0AE
:1020B000A501672D8A819B81FD01099580E090E053
:1020C00007C0A0E6B2E052CF22243324239491CF5C
:1020D000DF91CF911F910F91FF90EF90DF90CF9004
:1020E000BF90AF909F908F907F905F904F903F9068
:1020F0002F900895AF92BF92CF92DF92EF92FF920E
:102100000F931F93CF93DF93B82EEB017A016901F0
:10211000A02E672B21F486E893E00E9485128E01A1
:10212000075F1F4FCE010A969F938F938B2D9927A0
:102130009F938F938FE593E09F938F930E9431122B
:1021400040E06BE474E0C8010E94DE1280914C0410
:102150002DB73EB72A5F3F4F0FB6F8943EBF0FBE74
:102160002DBF882391F0823081F00E94820D9F93D1
:102170008F938BE493E09F938F930E943112109280
:102180004C040F900F900F900F9080914D04882376
:10219000C9F08335B9F08035A9F088E393E00E9457
:1021A000851280914D040E948D110E94BE110E94E3
:1021B0007E1120E040E060E4C7010E94D40C8FEF64
:1021C0009FEF53C080914E048823D9F08735C9F022
:1021D0008235B9F08134A9F08FE193E00E94851235
:1021E00080914E040E948D110E94BE110E947E11AA
:1021F00020E040E06EE1C7010E94D40C8FEF9FEF1A
:1022000034C090914C049230A9F48823A9F082350F
:1022100099F08BE093E00E9485120E94BE110E940B
:102220007E1120E040E06FE3C7010E94D40C8FEFE5
:102230009FEF1BC08735B9F0AA2011F062E001C002
:1022400061E0813409F465E0923009F466E09E01B2
:102250002C573F4F8601A7018B2D0E944A0F9927CB
:1022600087FD909502C062E0EFCFDF91CF911F9183
:102270000F91FF90EF90DF90CF90BF90AF900895B7
:10228000CF93DF939091880310928B038EEF80930E
:10229000910390938E0310928F03A0918903B091C4
:1022A0008A03ED91FC9111970480F581E02D6BE894
:1022B00073E0ED018A819B81099510928803DF917B
:1022C000CF91089590938A03809389030895109283
:1022D0008A03109289031092880386E892E0909313
:1022E0008D0380938C0381E8809390038DEF80931E
:1022F000910310928F0310928E03089580918803AA
:10230000882341F08091890390918A03892B11F0F1
:102310000E9440110E94AC1908951F93CF93DF9340
:10232000182F90918F0380918E03981769F0C6E65D
:10233000DEE00E943118CE010197F1F790918E03F3
:1023400080918F039817A9F780918803813850F402
:10235000E6E8F2E0E80FF11D10838F5F80938803B9
:10236000813840F08091890390918A03892B11F084
:102370000E944011DF91CF911F9108958DE00E943E
:102380008D118AE00E948D1180918803882341F08D
:102390008091890390918A03892B11F00E9440114A
:1023A0000895FF920F931F93CF93DF938C01909129
:1023B0008F0380918E03981769F0C6E6DEE00E94D5
:1023C0003118CE010197F1F790918E0380918F0320
:1023D0009817A9F7F80101900020E9F73197FE2E30
:1023E000F01A80E88F1520F40F2EF1E8FF2EF02D63
:1023F000809188038F0D912D911D8138910544F0B6
:102400008091890390918A03892B29F10E944011C0
:1024100090918E0380918F03981769F0C6E6DEE0F5
:102420000E943118CE010197F1F790918E038091AF
:102430008F039817A9F7209188034F2D5527B801CE
:1024400086E892E0820F911D0E94631F80918803AD
:102450008F0D80938803DF91CF911F910F91FF9093
:1024600008950F931F93CF93DF93CDB7DEB72297D5
:102470000FB6F894DEBF0FBECDBFFE013996419175
:102480005191FA83E98307E013E09F0161E870E06E
:10249000C8010E94E21F10928703C8010E94D11157
:1024A00022960FB6F894DEBF0FBECDBFDF91CF915D
:1024B0001F910F9108950F931F93CF93DF93CDB783
:1024C000DEB722970FB6F894DEBF0FBECDBFFE0178
:1024D000399641915191FA83E98307E013E09F0116
:1024E00061E870E0C8010E94B61F10928703C8011E
:1024F0000E94D11122960FB6F894DEBF0FBECDBF59
:10250000DF91CF911F910F910895EF92FF921F934A
:10251000CF93DF937C0190918F0380918E03981766
:1025200069F0C6E6DEE00E943118CE010197F1F7AE
:1025300090918E0380918F039817A9F7C7010E948D
:102540004F1F182F813808F011E880918803810F00
:10255000912D911D8138910544F0809189039091CE
:102560008A03892B29F10E94401190918E0380915A
:102570008F03981769F0C6E6DEE00E943118CE019D
:102580000197F1F790918E0380918F039817A9F727
:10259000412F552720918803B70186E892E0820FEA
:1025A000911D0E94461F80918803810F80938803AC
:1025B000DF91CF911F91FF90EF9008956F927F92DE
:1025C0009F92AF92BF92CF92DF92EF92FF920F93C2
:1025D0001F93CF93DF93CDB7DEB721970FB6F89453
:1025E000DEBF0FBECDBFFC013B01C42E5C010894D1
:1025F000A11CB11C90818FEFFB018083118212829C
:1026000082E58383442331F0158214821682F4E03C
:10261000F98306C0FB01B582A4829683F6E0F983B4
:10262000992309F497C0D92EDA9475010894E11C16
:10263000F11C850199248981833009F479C08430A3
:1026400038F4813009F455C0823008F062C03BC0D4
:1026500099819530B9F0953020F0963009F070C02E
:1026600028C0F3018181882369F4F80180819927CA
:102670000E94B120892B31F0C8010E94400DF30166
:1026800081831682F8012081822F9927C0970A97AB
:1026900020F4822F8053F3018083F80180818A33F4
:1026A00009F04EC0F301F582E482D682F1E0F983AD
:1026B00047C0F8018081843231F482E0F3018183E4
:1026C0001682F5E0F983F8012081822F9927C097BF
:1026D0000A9728F40F2EF0ED9F2EF02D920E2A333C
:1026E00041F4F3019082F582E482D682F1E0F9832D
:1026F00027C0CC2029F5F80180818C3209F5F3013F
:102700008481F02FF81B8F2FF3018683F2E0F98389
:1027100017C0F3018281882321F4F8018081F3013D
:102720008283F80180818C3259F4F3E0F98308C088
:10273000F3018381882321F4F8018081F3018383ED
:10274000DA940894E11CF11CFFEFDF1619F00F5F1B
:102750001F4F71CFF30184819581A816B90661F4EA
:1027600046815527B501C50101960E946C1FF301F2
:1027700086818F5F868309C0F30186818F5F8683A0
:1027800084819581019795838483F301A481B58128
:1027900080818C9321960FB6F894DEBF0FBECDBF1B
:1027A000DF91CF911F910F91FF90EF90DF90CF902D
:1027B000BF90AF909F907F906F900895CF92DF92DF
:1027C000EF92FF920F931F93CF93DF93EC0187E07B
:1027D000689FB0011124655F7F4FDE01A60FB71F10
:1027E00098818FEF8C93FD01968313821482EB8086
:1027F000FC808F81882399F481E08F83F7018081A9
:102800009181FC01C680D78000E914E19D01AD01F2
:102810006881E7018A819B81F601099517C08330A1
:10282000A9F48A81882391F484E08F83F701808161
:102830009181FC01C680D78000E914E19D01AD01C2
:102840006881E7018A819B81F6010995DF91CF912B
:102850001F910F91FF90EF90DF90CF9008950F930D
:102860001F93182F062FB901A7E0B0E0E1E8F8E0C8
:1028700022E534E0808188233CF589E990E0FD0180
:10288000E89FD001E99FB00DF89FB00D1124FD0124
:10289000E20FF31F108311820283548343837683F4
:1028A000658317821186FD013B96E20FF31F1482A8
:1028B000138216835296A20FB31FFD011482138256
:1028C000168380E090E009C01197E959F0408FEF3E
:1028D000AF3FB80779F68FEF9FEF1F910F910895E3
:1028E000282F97E0E1E8F8E08081821789F4892FAA
:1028F000992787FD909529E930E0AC01429FC001FE
:10290000439F900D529F900D11248E5A9B4F089516
:102910009150E959F0409F3F39F780E090E00895E9
:102920001F93162F0E947014FC01892B59F01087F9
:102930008781813019F482E0878304C0843011F4E8
:1029400085E087831F910895DC018FEF8C93FD0153
:10295000178211863B96CD0149969283818390E43C
:1029600095838DEF868314821382FD017296A75A98
:10297000BF4FB283A1839583868314821382089507
:10298000CF93DF93C1E8D8E061E0CE010E94A414A8
:10299000C959D04083E0C93BD807B1F7DF91CF9147
:1029A00008951F93162F0E947014FC01892B51F07B
:1029B00012878185823019F481E0818703C08130DC
:1029C00009F411861F9108950F931F93062F68171E
:1029D00060F0182F812F0E947014009719F061E0A9
:1029E0000E94A4141F5F0117A8F71F910F9108956B
:1029F000EF92FF920F931F93CF93DF938C01F62EEC
:102A0000EC018A81882309F072C00F2EF3E0EF2ECB
:102A1000F02DF8018781882329F4118260E0C80134
:102A20000E94DE13FF2079F0E8018F81813059F494
:102A3000C6E6DEE00E943118CE010197F1F7F801F9
:102A400087818130B9F3E8018F818230F9F489817F
:102A500027E0829FC00111240B96F801E80FF91FAF
:102A600094818381981730F080818C3F19F0F801B0
:102A7000178238C0E8012D813E812115310519F0FA
:102A8000CF01F9010995F801E7822CC0853051F595
:102A9000E801898121E030E0281B3109C901880F54
:102AA000991F880F991F880F991F821B930B0B96F4
:102AB000F801E80FF91F94818381981730F0808125
:102AC0008C3F19F0F801E78212C0E8012D813E81A8
:102AD0002115310519F0CF01F901099586E0F801BA
:102AE000878305C0E8018F81882309F492CFDF91A5
:102AF000CF911F910F91FF90EF9008950F931F9327
:102B00008C0161E00E94F814F801818127E0829F26
:102B1000C00111240B96E80FF91F80818C3F19F03A
:102B200020E030E00AC020E094818381981708F407
:102B300021E081E08227282F332780E090E0232BBB
:102B400011F481E090E01F910F9108950F931F936E
:102B5000CF93DF938C0161E00E94F814E801898132
:102B600027E0829FC00111240B96080F191FF8015E
:102B700084810180F281E02DE80FF11D8081992789
:102B8000DF91CF911F910F91089561E00E94F81499
:102B900008950E947014009719F061E00E94F814E3
:102BA0000895CF93DF93EC0161E00E94F81429812E
:102BB0008F818330A9F4822F9927FC01EE0FFF1F2C
:102BC000EE0FFF1FEE0FFF1FE81BF90BEC0FFD1FB1
:102BD00083858C3F29F061E0621BCE010E94DE13E9
:102BE000898127E0829FC00111240B96FE01E80F26
:102BF000F91F84818F5F848320E09381891708F413
:102C000021E0822F9927DF91CF9108958F929F9293
:102C1000BF92CF92DF92EF92FF920F931F93CF93C9
:102C2000DF937C01EC018985882311F481E0898799
:102C3000F70130810F2EFBE08F2E9924F02D8E0CA2
:102C40009F1C818127E0829FC00111246401C80E6E
:102C5000D91EE6018B81E981FA81E80FF11D6083BD
:102C6000982F9F5F9B838D81981711F0452BC9F199
:102C7000B32E8EEFF6018083368393831482E701AF
:102C80008985823059F4C6E6DEE00E943118CE0113
:102C90000197F1F7F70181858230B9F382E0E7010E
:102CA0008987AB81BC81ED91FC9111970680F781FA
:102CB000E02D01ED14E19601A6016B2DED018A8155
:102CC0009B810995F701218181E0821B818327E0A7
:102CD000829FC0011124F401E80FF91F14821382AE
:102CE000B682C701DF91CF911F910F91FF90EF90B6
:102CF000DF90CF90BF909F908F900895BF92CF921A
:102D0000DF92EF92FF920F931F93CF93DF938C018B
:102D1000EC0129810F2EFBE0EF2EFF24F02DE80EB1
:102D2000F91E822F9927FC01EE0FFF1FEE0FFF1FE8
:102D3000EE0FFF1FE81BF90BEE0DFF1D80818C3F8E
:102D400009F452C081E0B82EB21A87E0B89EC001E3
:102D500011246701C80ED91E8F81843059F4C6E64C
:102D6000DEE00E943118CE010197F1F7F80187816A
:102D70008430B9F38530C9F4E801ED81FE813097E4
:102D800089F0898121E030E0281B3109C901880FD1
:102D9000991F880F991F880F991F821B930B8E0D07
:102DA0009F1D099586E0F8018783E6019C818B8150
:102DB0009817D0F4F801B18283E087838B2D99278F
:102DC000FC01EE0FFF1FEE0FFF1FEE0FFF1FE81BB2
:102DD000F90BEE0DFF1D80818C3F61F061E06B19F6
:102DE000C8010E94DE1306C060E0C8010E94A4145E
:102DF00000E010E0C801DF91CF911F910F91FF908B
:102E0000EF90DF90CF90BF900895FF920F931F93A4
:102E1000CF93DF93F82E0E947014EC0189859927D7
:102E200087FD90959F938F938F2D992787FD909580
:102E30009F938F93DF93CF938DE993E09F938F932D
:102E40000E9431120E947E118DB79EB708960FB670
:102E5000F8949EBF0FBE8DBF209709F43FC08985AF
:102E60008823C1F1813051F006E61EE00E9431183E
:102E7000C8010197F1F789858130C1F7898127E081
:102E8000829FC00111240B96AE01480F591FFA0111
:102E90008CEF8083F68214828B819C81DC012D91E2
:102EA0003C91F901A681B78101ED14E19A016F2DE2
:102EB000FC0182819381FD0109958985813051F45E
:102EC00006E61EE00E943118C8010197F1F78985D6
:102ED0008130C1F360E0CE010E94A414DF91CF9154
:102EE0001F910F91FF90089580E090E0089508955C
:102EF000DC01FB0180818823C1F0813410F4992723
:102F00000FC08B3518F4805899270AC0813610F409
:102F1000992706C08B3718F48052992701C099274A
:102F20008D9331968081882341F71D92CD010895BC
:102F3000109292038FEF8093AB038093A60380934C
:102F4000A10380939C031092B00384E080939B03C1
:102F50008EE791E008951F9310E80E946E1D88236C
:102F6000E1F38FE70E94961D1150B9F71F91089564
:102F70001F93CF93DF9314E067C0A0919303B091A8
:102F8000940380919B03813099F082301CF4882354
:102F900041F004C08230B1F0833011F12FEF3FEFE8
:102FA0002FC081E080939B038C91282F332728C06A
:102FB00082E080939B03ED018B8199279C012D5F1B
:102FC0003F4F1EC0FD018681282F33278381882330
:102FD00019F410939B0314C083E080939B0310C0EB
:102FE000ED019C81E981FA81E90FF11D80819F5FEC
:102FF0009C83282F33278B81981710F010939B0305
:10300000332324F0822F0E94961D1EC050919203FC
:10301000852F8150809392038823A1F020E030E037
:1030200041E063E973E0E22FFF27EE0FFF1FE60F99
:10303000F71F82819381918380832F5F3F4F4F5F82
:10304000541789F710929B0380919203882329F0EB
:103050000E946E1D882309F090CFDF91CF911F91C0
:1030600008950E947C1D99230CF4E6C0482F2091FE
:10307000B0032230B1F1233034F4222359F021304F
:1030800009F0D5C027C0233009F493C0243009F0DB
:10309000CEC09BC08F3791F480919203882331F08A
:1030A0000E94B817809192038823D1F70E946E1D69
:1030B0008823E1F38FE70E94961DB9C08D5F8230AF
:1030C00018F04C3F09F0B3C04093B60381E0809301
:1030D000B003ADC083508093B50382E08093B0030A
:1030E000A6C08093B10384E08093B00320E030E079
:1030F000ECE9F3E08081481721F52093B203822F99
:10310000992787FD9095FC01EE0FFF1FEE0FFF1F23
:10311000E80FF91FE456FC4F0180F281E02DF09397
:10312000B403E093B3032091B6039091B503858176
:10313000891768F020834683138283E08093B0036D
:1031400006C02F5F3F4F35962430310599F68091A8
:10315000B503882309F06BC08091B203992787FDDE
:103160009095FC01EE0FFF1FEE0FFF1FE80FF91FF8
:10317000E456FC4F0380F481E02D8091B00384304D
:1031800011F46FEF01C060E0842F09958091B203C4
:10319000992787FD9095FC01EE0FFF1FEE0FFF1F93
:1031A000E80FF91FE456FC4F8FEF80831092B003B5
:1031B0003EC0E091B303F091B4038381A181B28159
:1031C000A80FB11D4C938F5F83838091B50381500D
:1031D0008093B50318165CF18091B203992787FD9F
:1031E0009095FC01EE0FFF1FEE0FFF1FE80FF91F78
:1031F000E456FC4F0380F481E02D243011F46FEF8E
:1032000001C060E08091B10309958091B2039927D4
:1032100087FD9095FC01EE0FFF1FEE0FFF1FE80FDB
:10322000F91FE456FC4F8FEF80831092B0030E9489
:103230007C1D99230CF01ACF0E94B8170895CF93E4
:10324000DF93EB0180919203833030F00E943118BC
:10325000809192038330D0F7E82FFF27EE0FFF1FF6
:10326000ED56FC4FD183C0838F5F809392038130F2
:1032700021F410929B030E94B817DF91CF9108951B
:103280008F929F92AF92BF92CF92DF92FF920F9355
:103290001F93CF93DF934C01F62EEA016901580189
:1032A000662384F4862F992787FD90959F938F93AB
:1032B0008BE094E09F938F930E9431120F900F90B8
:1032C0000F900F908E8188237CF4992787FD90952D
:1032D0009F938F9389EE93E09F938F930E94311277
:1032E0000F900F900F900F901FEF0FC0122F09C07B
:1032F00080818823DCF32F5F3F4F359624303105E2
:10330000B9F70E94311811232CF420E030E0ECE9E9
:10331000F3E0EECF812F992787FD9095FC01EE0F0A
:10332000FF1FEE0FFF1FE80FF91FE456FC4FF0825E
:10333000D282C182B482A382BE01C4010E941F193D
:10334000DF91CF911F910F91FF90DF90CF90BF90B1
:10335000AF909F908F90089580919203882331F0D1
:103360000E943118809192038823D1F70895EF923B
:10337000FF920F931F93CF93DF937C01009739F453
:103380008EED93E00E9485128FEF9FEF0CC1EC0150
:1033900009811A81F8016285613019F0A7EBB3E069
:1033A00008C081E08093B70384E08093B803A9EB61
:1033B000B3E081E0ED018993FD018183AE014F5FB0
:1033C0005F4FE8018B81882309F0DFC02A812A3F03
:1033D00008F0DBC0293F41F489818F3F29F48881BF
:1033E000882309F0D2C0C7C0F8018181992733270B
:1033F000322F2227282B392B8081882311F02F5F31
:103400003F4FDA012D93832F9927EA018983FD012C
:1034100031962A30310520F480E2ED01898331961E
:10342000613019F482E1819315C0623009F455C00E
:103430002436310518F480E2819304C083E0283EED
:10344000380718F480E2819303C02051374210F40A
:1034500080E2819382E28193E8018B85882309F4DD
:103460009EC0D8012BE0813410F499270FC08B3512
:1034700018F4805899270AC0813610F4992706C09D
:103480008B3718F48052992701C0992781932F5FB9
:10349000ED018C85882329F482E281932C3130F070
:1034A0000AC011962B31F9F682E2819380E2819372
:1034B0002F5F2C31D8F3613039F463E671E0CF012E
:1034C0000E947817FC011EC0633039F46AE671E08F
:1034D000CF010E947817FC0115C0662339F46EE60F
:1034E00071E0CF010E947817FC010CC0623051F4EA
:1034F00062E771E0CF010E947817FC011192EC01A4
:103500001982319687EB93E00E2F081BC02FDD2721
:10351000F7018581992787FD90958C179D07F4F415
:1035200085EC93E00E948512802F82958F700AE8C7
:1035300011E0F801E80FF11D80810E948D11FE015C
:10354000EF70F070E00FF11F80810E948D110E94DA
:10355000BE110E947E118FEF9FEF25C0402F55278F
:1035600067EB73E0E70189819A810E94631F0B83F7
:1035700080E090E018C0FA018FEF819389EFEA01B3
:10358000898331962FEF39EF4BCFFA018FEF81937B
:1035900089EFEA01898331962FEF39EF41CF82E23B
:1035A00081932BE083CFDF91CF911F910F91FF90FB
:1035B000EF900895FC01A181B2818381992787FD55
:1035C0009095882321F1282F8C91813410F499272C
:1035D00019C08B3518F4805E992714C0813610F419
:1035E000992710C08B3718F4805299270BC0813C63
:1035F00010F4992707C08B3D20F499278F7790709E
:1036000001C099278C93215011F01196DDCF80E0F5
:1036100090E008959093F8038093F7037093FA0372
:103620006093F9030895EBEFF3E087EE93E0128ADD
:10363000118A108A17863597E817F907C1F7ECE366
:10364000F4E02FEF8AE094E0128211822083359714
:10365000E817F907C9F708950F931F93CF93DF93E6
:10366000EC018B019F938F937F936F938AE294E099
:103670009F938F930E94311223E030E0EAE0F4E060
:103680008DB79EB706960FB6F8949EBF0FBE8DBF3E
:1036900080819181892B71F4F901EE0FFF1FEE0FEC
:1036A000FF1FE20FF31FE550FC4FD183C08313834C
:1036B000028307C02150304035979FEF2F3F3907D5
:1036C00039F780E090E0DF91CF911F910F9108953D
:1036D0000F931F93CF93DF93082F11271F930F93FF
:1036E00089E894E09F938F930E943112ECE3F4E019
:1036F000C9E0D0E00F900F900F900F908081992734
:1037000087FD90950817190741F521813281211510
:10371000310519F18091F7039091F8039F938F93EE
:10372000DF93CF933F932F9387E694E09F938F93FC
:103730000E943112CE01880F991F880F991F8C0F9C
:103740009D1F805F9B4F2DB73EB7285F3F4F0FB641
:10375000F8943EBF0FBE2DBF0CC0359721973FEFA9
:10376000CF3FD30759F689E494E00E94851287EF92
:1037700093E0DF91CF911F910F9108954F925F9247
:103780006F927F928F929F92AF92BF92CF92DF9271
:10379000EF92FF920F931F93CF93DF93E82E8B014D
:1037A000882E99247F936F939F928F928EE395E05A
:1037B0009F938F930E9431122DB73EB72A5F3F4FE0
:1037C0000FB6F8943EBF0FBE2DBF3AE03E1518F479
:1037D0008FEF9FEFFAC0D8012C91222309F4E9C0A2
:1037E0002A3309F4E6C0FF24F394CF2CDD24F8013A
:1037F000EC0DFD1DE081EE2311F0EA33A9F7822FD5
:103800009927C0970A9708F0D7C0B1E0FB1609F0D6
:10381000D3C00F2EFFE0BF2EF02DB2228B2D0E94C1
:10382000681BFC01009789F48B2D99279F938F9338
:103830008FE095E09F938F930E9431128FEF9FEF5F
:103840000F900F900F900F90C0C0875F934039F496
:103850008EED94E00E9485128FEF9FEFB6C06080DE
:103860007180D301ED91FC91C80109952C0161147F
:10387000710409F074C0A4C0F501EE0FFF1FEE0F34
:10388000FF1FEA0DFB1DE550FC4F62807380D301E2
:10389000ED91FC91C80109952C0161C0F901EE0F71
:1038A000FF1FEE0FFF1FE20FF31FE15FFB4F8FEFD4
:1038B00080831282118266C0F901EE0FFF1FEE0FA6
:1038C000FF1FE20FF31FE15FFB4FE0827282618214
:1038D000548243823F932F935F924F929F928F9295
:1038E0007F926F9287EA94E09F938F930E943112A8
:1038F00080E0EDB7FEB73A960FB6F894FEBF0FBE64
:10390000EDBF53C05A01DB01CD91DC912097F9F056
:10391000FF20B1F09881F80180819817C1F420E070
:103920000CC0822F9927FE01E80FF91FD801A80FBC
:10393000B91F90818C91981751F42F5F2F1589F73B
:10394000FE01EC0DFD1D8081882309F495CF6550A3
:10395000704041505040FFEF4F3F5F0799F629E01C
:1039600030E0ECE3F4E08081992787FD909588169C
:10397000990609F493CF2150304035978FEF2F3FB0
:10398000380789F76114710479F029E030E0ECE33D
:10399000F4E080818F3F09F48FCF2150304035977C
:1039A0009FEF2F3F3907A9F78FEF992787FD909554
:1039B0000CC0FF24CC24DD24662477244424552421
:1039C0006AE074E043E050E09DCFDF91CF911F911A
:1039D0000F91FF90EF90DF90CF90BF90AF909F90AE
:1039E0008F907F906F905F904F900895FC0160835F
:1039F000118208950F931F93CF93DF938C01EB01F6
:103A00007F936F9383E895E09F938F930E94311289
:103A100088810F900F900F900F90882351F0883578
:103A200041F0FE0131968081882321F0883511F024
:103A3000F9CFFE01319680818032E1F3843441F187
:103A4000853509F044C0DF01119681818D3309F07D
:103A50003EC0FD012181822F9927C0970A97B8F5B2
:103A6000922F9F70892F84508B3088F5F8019083B6
:103A7000892F99279F938F938EE695E09F938F933D
:103A80000E94311280E00F900F900F900F9020C095
:103A9000DF01119681818D33D1F4FD012181822FC7
:103AA0009927C0970A9798F4822F8F70F801818325
:103AB00099279F938F9388E595E09F938F930E941A
:103AC000311280E00F900F900F900F9001C08EE1A7
:103AD0009927DF91CF911F910F91089580919B09B4
:103AE00090919C0920E030E08F5F8F77891711F06B
:103AF00021E030E0C901089590919A0980911E0A51
:103B0000981719F42FEF3FEF0FC080911E0AEAE1DA
:103B1000F9E0E80FF11D8081282F332780911E0ADC
:103B20008F5F8F7780931E0AC901089590919B093A
:103B3000EDE9F9E0E90FF11D808380919B098F5F2A
:103B40008F7780939B09E1ECF0E080818062808335
:103B5000089510929B0910929C0910929A09109254
:103B60001E0AE1ECF0E088E0808380818061808340
:103B700087E08093C4001092C500808180688083B4
:103B80000895F8941092460410924404109245044B
:103B9000109243048F5F8093420480934104789491
:103BA0000895389A4098109241041092420410925D
:103BB0004704089588B191E0892788B90895843031
:103BC00038F48230E0F4882341F0813019F511C0D7
:103BD0008430E9F08530F1F416C0809147048823E1
:103BE00021F080E00E94C11D089510924104409888
:103BF000089510924704109241044098089510923D
:103C00004104409A089585E00E94C11D089581E015
:103C10008093470480E00E94C11D08958FEF98E0D3
:103C2000909389008093880010928000E1E8F0E092
:103C300080818B608B7F808310928500109284003E
:103C4000EFE6F0E080818260808308951F920F92FA
:103C50000FB60F9211242F933F934F935F936F935F
:103C60007F938F939F93AF93BF93EF93FF9385E0E1
:103C70000E94DF1DFFCF1092480411B88FEF82B968
:103C80003E98469AF8944B9B02C03D98459A78948A
:103C900081E080934A04F8944B9B02C03C98449A7C
:103CA000789481E0809349043F98479A08950F9350
:103CB0001F9303E710E0F8018081877F80830E94D3
:103CC0003B1EDB9AF801808188608083E8E6F0E0A3
:103CD0008081886080831F910F910895283008F0BB
:103CE00027E03327DA01990F311D87FD9160009697
:103CF0006105710539F432602E5F3D9330E32A95FA
:103D0000E1F708959F3F30F080387105610509F0B3
:103D10003C5F3C5F3D93913008F08068911DDF93DC
:103D2000CF931F930F93FF92EF92192F987F969541
:103D3000E92F96959695E90FFF27E951FA4F9927B4
:103D40003327EE24FF24A701E70105900894079488
:103D500028F4360FE71EF81E491F511D660F771F06
:103D6000881F991F0694A1F70590079428F4E70E81
:103D7000F81E491F561FC11D770F881F991F661F08
:103D80000694A1F70590079428F4F80E491F561FD2
:103D9000C71FD11D880F991F661F771F0694A1F7B3
:103DA0000590079420F4490F561FC71FD81F990F7D
:103DB000661F771F881F0694A9F7849110951770C6
:103DC00041F0D695C79557954795F794E7941A957E
:103DD000C1F7EDE8F5E0689415901591359165917E
:103DE000959105907FE27395E118F10A430B560B0C
:103DF000C90BD009C0F7E10CF11E431F561FC91FA4
:103E0000D01D7EF4703311F48A95E6CFE89401500A
:103E100030F0080F0AF40027021708F4202F23952A
:103E2000022F7A3328F079E37D932A95E9F710C0C1
:103E30007D932A9589F606949795679537951795FA
:103E40001794E118F10A430B560BC90BD00998F0EF
:103E500023957E9173957A3308F070E37C93201359
:103E6000B8F77E9170617D9330F0839571E37D9317
:103E700070E32A95E1F71124EF90FF900F911F91C5
:103E8000CF91DF91992787FD90950895FB01DC0183
:103E900002C005900D9241505040D8F70895FC01A2
:103EA00005900020E9F7809590958E0F9F1F08954B
:103EB000FC010590615070400110D8F780959095F5
:103EC0008E0F9F1F0895FB01DC0102C001900D922F
:103ED00041505040D8F708956817790768F4FB01FE
:103EE000DC01E40FF51FA40FB51F02C002900E9273
:103EF00041505040D8F708950C94631FFC01615065
:103F0000704001900110D8F7809590958E0F9F1FFB
:103F100008950F931F93CF93DF938C01EB018B8157
:103F2000992781FF1BC082FF0DC02E813F818C81AC
:103F30009D812817390764F4E881F9810193F98399
:103F4000E88306C0E885F985802F0995892B31F42F
:103F50008E819F8101969F838E8302C00FEF1FEF9A
:103F6000C801DF91CF911F910F910895AEE0B0E0AD
:103F7000ECEBFFE10C9486208C01FA0177FF02C084
:103F800060E070E8615070407E836D831A8309831E
:103F900086E08C83A901BF01CE0101960E946303D4
:103FA0002D813E8137FD0AC04F815885F9014217A6
:103FB00053070CF4FA01E00FF11F1082E4E02E9693
:103FC0000C94A220AEE0B0E0E8EEFFE10C94862075
:103FD0008C01FA0177FF02C060E070E86150704028
:103FE0007E836D831A8309838EE08C83A901BF01D0
:103FF000CE0101960E9463032D813E8137FD0AC0E8
:104000004F815885F901421753070CF4FA01E00F6C
:10401000F11F1082E4E02E960C94A220FA01AA2748
:10402000283051F1203181F1E8946F936E7F6E5FFB
:104030007F4F8F4F9F4FAF4FB1E03ED0B4E03CD0A9
:10404000670F781F891F9A1FA11D680F791F8A1F8C
:10405000911DA11D6A0F711D811D911DA11D20D0F3
:1040600009F468943F912AE0269F11243019305DAD
:104070003193DEF6CF010895462F4770405D41939E
:10408000B3E00FD0C9F7F6CF462F4F70405D4A33EB
:1040900018F0495D31FD4052419302D0A9F7EACFB3
:1040A000B4E0A6959795879577956795BA95C9F7E2
:1040B00000976105710508959B01AC010A2E0694D5
:1040C0005795479537952795BA95C9F7620F731F8E
:1040D000841F951FA01D0895991B79E004C0991FA6
:1040E000961708F0961B881F7A95C9F78095089552
:1040F0002F923F924F925F926F927F928F929F92F8
:10410000AF92BF92CF92DF92EF92FF920F931F93E5
:10411000CF93DF93CDB7DEB7CA1BDB0B0FB6F89496
:10412000DEBF0FBECDBF09942A88398848885F84D6
:104130006E847D848C849B84AA84B984C884DF8047
:10414000EE80FD800C811B81AA81B981CE0FD11D2B
:104150000FB6F894DEBF0FBECDBFED01089585FD0B
:104160000FC0806291110CC081568A51E0F708950A
:10417000803209F0911104C080528F55E0F7089504
:08418000992788270895FFCF5D
:104188002025752042797465732066726565002C58
:10419800202564206B487A0045585400002D0024DF
:1041A800003F00494E495449414C495A450052453F
:1041B8004E414D4500534352415443480043440047
:1041C8004D4B44495200524D4449520041535349C2
:1041D800474E00303132333435363738396162630F
:1041E80064656678643230333100646972007072D5
:1041F8006700626C6F636B73206672656500741785
:1042080077171F194019B719DA1A30313233343594
:1042180036373839616263646566020002FF00015F
:024228000F0085
:00000001FF
