:100000000C94F4000C9411010C9411010C94110146
:100010000C9411010C9411010C9411010C945D01CC
:100020000C9411010C9411010C9411010C94110108
:100030000C9411010C94C6120C9411010C94110132
:100040000C9411010C9411010C9411010C941101E8
:100050000C9413010C9439010C9411010C941101AE
:100060000C9411010C9411010C9411010C941101C8
:100070000C9411010C9411010C94110158532D3161
:100080003534312F5844323033312056302E310040
:100090002042455441350080204F4B81005320536E
:1000A0004352415443484544820809949596979891
:1000B0009B0103999C02039A022050524F544543DE
:1000C00054204F4E9D054944204D49534D415443C2
:1000D000489E9FA0A1A253594E54415803A7BE0069
:1000E00004464F554E44B2070450524553454E54B2
:1000F000B34F564552464C4F5720494E2007B40047
:100100000B4C41524745BC0220002006BD000406AE
:10011000BF0020455849535453C0002054595045FE
:10012000204D49534D41544348C10C424C4F434B21
:10013000C2C30A20545241434B204F5220534543DF
:10014000544F52C60C4348414E4E454CC744495249
:1001500003C80546554C4CCA4452495645040159FA
:10016000CD0920080ACE4255464645520B534D4113
:100170004C4CCF494D414745200020494E56414CFB
:100180004944E3434C4F434B20554E535441424C5A
:1001900045FF8046494C458152454144825752496A
:1001A000544583204552524F5284204E4F5420854F
:1001B0004449534B20864F50454E875245434F523A
:1001C0004488504152544954494F4E208953454C1C
:1001D00045435445448A494C4C4547414C8B205437
:1001E0004F4F208C4E4F20FF11241FBECFEFD0E188
:1001F000DEBFCDBF14E0A0E0B1E0E2E4FDE202C06A
:1002000005900D92A230B107D9F71BE0A2E0B4E04F
:1002100001C01D92A937B107E1F70E9424060C9492
:10022000A0160C9400002F922FB60F930091C600D9
:1002300078941F93CF93DF931091F40AC4E7DAE028
:10024000C10F08F4D3950883DF91CF9113951F77E1
:100250000091780B101719F01093F40A29F400910B
:10026000770B03950093770B1F910F912FBE2F9063
:1002700018952F922FB60F93CF93DF930091F60A24
:10028000C091F50A0C1771F0C7EFDAE0C00F08F45F
:10029000D395C881C093C60003950F770093F60AE3
:1002A000789405C00091C1000F7D0093C100DF91DB
:1002B000CF910F912FBE2F9018952F922FB60F939D
:1002C00000912900087051F4009128000F7C0093E0
:1002D0002800009127000063009327000F912FBE94
:1002E0002F901895FC01F8944B9904C080919F05BC
:1002F000882311F03D98459A789481E08093A10578
:100300004B9B28C03699FCCF45983D9A1092A10589
:10031000379903C022E030E002C020E030E080B135
:100320008095992791838083F8944B9904C080919C
:100330009F05882311F03C98449A789481E080933B
:10034000A0054B9B07C0369BFCCF44983C9A10926B
:10035000A00502C021E030E0C90108950E944713C2
:1003600084E094E00E9439030895EF92FF920F9386
:100370001F93CF93DF93CDB7DEB722970FB6F894D4
:10038000DEBF0FBECDBF8E010F5F1F4F0F2EF4E0FB
:10039000EF2EF4E0FF2EF02D0AC0482F4270698145
:1003A000C7010E946E059093030480930204C80164
:1003B0000E94720180FFF1CF0197F1F0F8944B9900
:1003C00004C080919F05882311F03D98459A789448
:1003D00081E08093A105F8944B9904C080919F051A
:1003E000882311F03C98449A789481E08093A0058A
:1003F0003E98469A3F98479A22960FB6F894DEBFE9
:100400000FBECDBFDF91CF911F910F91FF90EF9065
:100410000895EF92FF920F931F93CF93DF93CDB781
:10042000DEB721970FB6F894DEBF0FBECDBFF894AC
:100430004B9904C080919F05882311F03D98459AFF
:10044000789481E08093A105F8944B9904C0809141
:100450009F05882311F03C98449A789481E080931A
:10046000A0053E98469A3F98479A04E014E04B9BBB
:1004700069C0359BFCCF41E0BE016F5F7F4FC80173
:100480000E945C03909303048093020486FD03C0E2
:10049000EE24FF2406C047983F9AEE24FF24689478
:1004A000E1F8898181B9809582B946983E9A4B9B43
:1004B00049C0349B0AC0359B08C03F98479A3E9874
:1004C000469AF8944B9947C042C03599F0CF4B9B60
:1004D00039C0349BFCCF3E98469A3F98479A40E0FB
:1004E000BE016F5F7F4FC8010E945C0390930304BD
:1004F00080930204882339F44B9B24C03499FCCFA9
:10050000EF2809F4B4CFF8944B9904C080919F056B
:10051000882311F03D98459A789481E08093A10555
:10052000F8944B9904C080919F05882311F03C9862
:10053000449A789481E08093A0053E98469A3F982B
:10054000479A20C03E98469A3F98479A1BC0809190
:100550009F05882311F03D98459A789481E0809317
:10056000A105F8944B9904C080919F05882311F050
:100570003C98449A789481E08093A0053E98469AEE
:100580003F98479A21960FB6F894DEBF0FBECDBFB5
:10059000DF91CF911F910F91FF90EF9008951F93DE
:1005A0004B9965C03E98469A3F98479A109203042B
:1005B0001092020411E044983C9A1092A005809198
:1005C000A105882321F445983D9A1092A1054498ED
:1005D0003C9A1092A00510939F05F89489B13D981C
:1005E000459A78941093A1054B991BC03699FCCF7E
:1005F00045983D9A1092A10560B1F89489B13C9854
:10060000449A78941093A0056095772784E094E04D
:100610000E9404059093030480930204369BFECF4E
:10062000CACF80910204909103049C012070307F16
:1006300080E22030380749F445983D9A1092A10590
:1006400010929F050E94B50110C010929F05F8946A
:100650004B9B02C03D98459A789481E08093A10518
:100660002050304411F40E9409020E9447131F9148
:100670000895FC01809188048183805F80938804C1
:1006800088E080831186138212820895CF93DF93CE
:10069000E0918904F0918A048783813041F46115E7
:1006A000710521F0EB018981808701C0108681E00E
:1006B0008683DF91CF910895CF92DF92EF92FF92E0
:1006C0000F931F93CF93DF938C017B01C42EFC010A
:1006D00085810F2EFFE0DF2EF02DD822C281D3813D
:1006E000209729F5FFE0DF16A9F4F801818120E0C9
:1006F00030E044EE51E060E0815F0E94810CF8013F
:100700008181815F0E94C00CEC01F8019383828398
:10071000892B69F420E040E06DE384EB91E00E94D6
:10072000D0060F2EF3E8EF2EFF24F02D49C0CE01A6
:100730000E94180ECE010E94F90DF7018083898175
:1007400027E0829FC00111240B96FE01E80FF91FDC
:1007500080818C3FB1F4248133272F5F3F4F838109
:100760009927281739076CF080E091E09F938F93C9
:100770000E94460BEE24FF246894E6F80F900F9039
:1007800002C0EE24FF24CC20D9F4CE010E94C30D78
:100790008823B1F4CE010E949B0D882321F0CE0165
:1007A0000E94D90E0DC0FFE0DF1611F0DD2041F4EC
:1007B000F80181818D0D0E94240EF80113821282AE
:1007C000F80184819927982F88278E0D9F1DDF912E
:1007D000CF911F910F91FF90EF90DF90CF900895F0
:1007E000EF92FF920F931F93CF93DF93CDB7DEB7B6
:1007F00021970FB6F894DEBF0FBECDBF7C01FC0180
:100800008481208199278F709070332782179307F6
:1008100019F080E890E0EBC0F7018581382F3F7038
:100820009927807F9070803E910569F1803F910506
:10083000F1F18036910509F0C9C08181830F0E94D2
:10084000C00CF70193838283892B59F486E091E0F1
:100850009F938F930E94460B80E490E00F900F903F
:10086000C6C0F7018481807F803419F080E090E079
:10087000BEC041E0BE016F5F7F4FC7010E945C03B5
:100880008F7B9070B4C03F3051F4F7018181682FA5
:10089000615F77270E94340D80E090E0A8C0F701E7
:1008A0008181830F0E94240E80E090E0A0C0F701B8
:1008B00016828581182F1F70F0928A04E0928904B5
:1008C00016821F3061F4B701675F7F4F818126E494
:1008D00033E044EB51E0815F0E94BF0710C0B701D5
:1008E000675F7F4FF701818100E0113009F401E07B
:1008F00026E433E044EB51E0810F0E94F0098823A5
:1009000044F0E0918904F0918A0486818823D1F033
:1009100022C0992787FD90959F938F938DE191E059
:100920009F938F930E94460B20E040E06AE484EBA3
:1009300091E00E94D00682E090E00F900F900F901F
:100940000F9041C00E940A10E0918904F0918A043E
:1009500086818823B9F38781992787FD90959F9396
:100960008F9387E491E09F938F930E94460BE091D1
:100970008904F0918A0487810F900F900F900F9057
:100980008823D1F08781813041F44085678120E060
:1009900084EB91E00E94D00607C0678120E040E030
:1009A00084EB91E00E94D006F7018181810F0E94C3
:1009B000240E80E090E007C0F7018181810F0E9442
:1009C0001C0E80E090E0F701118611C0F7018581CF
:1009D00099279F938F9383E791E09F938F930E9432
:1009E000460B80E090E00F900F900F900F902196B3
:1009F0000FB6F894DEBF0FBECDBFDF91CF911F9130
:100A00000F91FF90EF9008951F93CF93DF93EC0128
:100A1000162F6F33B1F48D81282F3327C901807FC2
:100A20009070803F910541F0C9018F7090700F97D1
:100A300019F040E050E037C0CE010E94F003AC0155
:100A400032C0262F3327C901807F907080369105F0
:100A5000E1F0813691053CF48032910559F0803403
:100A60009105E9F407C0803E910579F0803F91053A
:100A7000B1F411C02F703070888199272817390779
:100A800001F51C8340E050E00CC01D83CE010E94A4
:100A9000F003AC0106C06D8340E050E002C040E0CE
:100AA00050E01F3519F41C821D820EC028813327A7
:100AB0008C8199278F7090702817390729F040682A
:100AC00003C040E050E0EDCF8C819927982F882714
:100AD000842B952BDF91CF911F910895CF93DF93B6
:100AE000EC018D81282F3327C9018F7090700F97EB
:100AF00031F0C901807F9070803F910561F4898554
:100B00008837A8F4FE01E80FF11D62878F5F89879F
:100B100020E030E00EC055278A819B810E946C0E38
:100B20009B838A83892B19F423E830E002C020E0FC
:100B300030E08C819927982F8827820F931FDF91AF
:100B4000CF9108958F929F92BF92CF92DF92EF92B2
:100B5000FF920F931F93CF93DF93B82EFB01EA010F
:100B6000490180818F3FA1F0992787FD90959F9340
:100B70008F938AE891E09F938F930E94460B66E4DF
:100B80008B2DF40109950F900F900F900F902BC0B3
:100B9000E980FA800D8111270F2EF6EBCF2EF1E0C0
:100BA000DF2EF02DA801B601C7010E948313F701C3
:100BB000E00FF11F31971082F70101900020E9F753
:100BC0003197EE19FF098CEF8883BE82EB831C827C
:100BD00020E040E060E0C60102970E94D00660E09D
:100BE0008B2DF4010995DF91CF911F910F91FF900B
:100BF000EF90DF90CF90BF909F908F90089520E06E
:100C000040E060E084EB91E00E94D00608951092ED
:100C1000880420E040E069E484EB91E00E94D00683
:100C200008958DB79EB789579B4008950E94DF0AAB
:100C30008EE20E94B40A0E94DF0A8CEE91E00E94CC
:100C4000EC0A0E94DF0A0895389A40980E942F13F8
:100C50000E94730F0E949E0A0E947E080E94100D3F
:100C60000E9407060E94631388E00E94AE017894F8
:100C70000E94840F0E9416060E9411069F938F9374
:100C800088E092E09F938F930E94460B89E999E355
:100C9000A0E0B0E0BF93AF939F938F9387E192E082
:100CA0009F938F930E94460B0E94DF0A0E94DF0AE7
:100CB0008DB79EB70A960FB6F8949EBF0FBE8DBF34
:100CC0000E940A100E94CF02FBCF0F931F93CF9375
:100CD000DF93DC01EB0100E0552740585F4FFE0138
:100CE000E00FF11D0F5FC895202D822F99278417E3
:100CF000950719F02F3F59F0F2CF2F3F41F0FE0139
:100D0000E00FF11DC895E02DEE2324F00BC08FE31A
:100D10008D931EC00F5FFE01E00FF11DC895E02D01
:100D2000EE23C4F3FE01E00FF11D0F5FC895102DF7
:100D3000103250F4412F62E971E0CD010E94650646
:100D4000DC0111237CF704C0112314F01D93EACFBA
:100D5000CD01DF91CF911F910F910895CF93DF9334
:100D6000DC01262F643650F0862F64E60E9441167F
:100D7000805D8D93822F0E944116292F822F6AE079
:100D80000E944116805DFD018193822F0E944116D1
:100D9000905DED019983CF010196DF91CF91089588
:100DA000CF92DF92EF92FF920F931F93CF93DF9337
:100DB000162FC42ED22EEE24FF246894E1F8E80EFC
:100DC000F91E8EE2E70119928A95E9F7C7010E94A0
:100DD000AE069C01FC018CE28193133059F481E052
:100DE000D81629F085E4E9018983319636C084E478
:100DF000819333C0193011F4D90103C0193431F58E
:100E0000FBCF8A2F821BECE7F0E0E80FF11DC895BD
:100E1000E02DED01E9831196EE2399F7ED0121967E
:100E2000193089F4ED018D01CE01801BE82FFF27D9
:100E3000E057FF4FC895E02D8E2F99270E945E1630
:100E40008993882389F7FE01319707C0412F67E90D
:100E500070E0CF010E946506FC011CE211936C2D2D
:100E6000CF010E94AE06FC0111936D2DCF010E94AF
:100E7000AE06FC018DE080831182FF92EF9280E24A
:100E800092E09F938F930E94460B0F900F900F90CC
:100E90000F90DF91CF911F910F91FF90EF90DF9016
:100EA000CF900895FC0180818934C9F08A3438F4E8
:100EB000813461F0833411F1843259F40DC08235EC
:100EC00089F08335C1F08D3421F41BC089E090E0B6
:100ED000089581E090E0089582E090E0089583E035
:100EE00090E0089581818D3419F488E090E00895B0
:100EF00084E090E0089585E090E0089586E090E039
:100F0000089587E090E00895843051F1853048F4E9
:100F1000813001F18130C0F08230C9F0833089F432
:100F20001CC0873031F1883028F48530E1F08630FC
:100F300041F41CC0883001F1893019F483E392E058
:100F400008958AE392E008958BE392E008958DE39B
:100F500092E008958FE392E0089581E492E008958D
:100F60008CE492E0089583E592E008958BE592E0A9
:100F700008958EE592E0089584E692E00895DF9268
:100F8000EF92FF920F931F93CF93DF93D82E8B0195
:100F9000EA0179018AE692E00E94EC0AC801019612
:100FA0000E94EC0A0E94DF0A0E94B10A41E062EA54
:100FB00075E0C8010E94700B8091A305882319F485
:100FC0008BE392E002C00E9484079F938F9384E793
:100FD00092E09F938F930E94460B8091A2050F9001
:100FE0000F900F900F908F3F19F48DE290E002C0A8
:100FF0009927C0969F938F938CE792E09F938F934E
:101000000E94460B8091A6059091A7059F938F9310
:1010100086E892E09F938F930E94460B8FE892E0C0
:101020000E94EC0A0091A505802F99270E9458166E
:101030002DB73EB7285F3F4F0FB6F8943EBF0FBEA7
:101040002DBF892B11F0802F01C08DE20E94B40AC0
:101050000E94DF0A0E94B10A87E992E00E94EC0A2E
:101060000091A405802F99270E945816892B11F012
:10107000802F01C08DE20E94B40A0E94DF0A0E9404
:10108000B10A9091A305892F8450853018F08FEF15
:101090009FEF2CC0963081F0973028F4943041F0C7
:1010A000953071F407C0973049F0983049F415C075
:1010B00067E014C068E012C06EE010C06DE00EC0C2
:1010C0008DE992E00E94EC0A20E040E06EE1CE0162
:1010D0000E94D0068FEF9FEF09C06CE09701AE0130
:1010E0008D2D0E94E008992787FD9095DF91CF9183
:1010F0001F910F91FF90EF90DF9008958FEF8093F5
:101100008B0480939E040895CF93DF93982F809152
:101110008B04891719F4C0E0D0E007C080919E04C9
:10112000891709F04AC0C1E0D0E06623C4F4FE018B
:10113000EE0FFF1FCF01880F991F880F991F880F8F
:10114000991FE80FF91FEC0FFD1FE557FB4F0188B2
:10115000F289E02D60E070E08AE409951CC02BE87C
:1011600034E0BE01660F771FCB01880F991F880FEF
:10117000991F880F991F680F791F6C0F7D1FFB0146
:10118000E20FF31F41895289615F7F4F620F731F26
:101190008785FA010995FE01EE0FFF1FCF01880F29
:1011A000991F880F991F880F991FE80FF91FEC0FDF
:1011B000FD1FE557FB4F8FEF8083DF91CF9108959F
:1011C0006F927F929F92AF92BF92CF92DF92EF92F7
:1011D000FF920F931F93CF93DF93782F062FEA018F
:1011E00079018091A2058F3F41F41092A205809170
:1011F0008B0488230CF0DCC0D4C08823C1F38EEAB2
:1012000092E00E94EC0A8091A205805D0E94B40ADF
:101210000E94DF0A0E94B10A20E040E06AE4CE01A9
:101220000E94D0068FEF90E0CDC08EEB92E00E943E
:10123000EC0A0E94DF0A0E94B10A20E040E066E466
:10124000CE010E94D0068FEF90E0BCC00F2EFEE9C9
:10125000AF2EF4E0BF2EF02D2091A8056501089473
:10126000C11CD11C8091A6059091A705F60192831F
:1012700081832583972EF5010183F60176832383ED
:101280001482E091EF03F091F0033097A9F0C601CA
:10129000099588238CF485ED92E00E94EC0A0E9467
:1012A000DF0A0E94B10A20E040E062E2CE010E9423
:1012B000D0068FEF90E086C0023009F47FC0053081
:1012C00009F47CC066247724063029F40091ED03EC
:1012D0001091EE0302C000E010E0892D0E94C00CC6
:1012E000892BA1F085EF92E00E94EC0A0E94DF0AB0
:1012F0000E94B10A20E040E066E4CE010E94D006E0
:10130000892D0E94240E8FEF90E05CC0980149EE79
:1013100053E0662D892D0E94810C782E882324F5B8
:1013200085E093E00E94EC0A872D82958F7009E595
:1013300013E0F801E80FF11D80810E94B40A872DA7
:101340008F70080F111DF80180810E94B40A0E945D
:10135000DF0A0E94B10A20E040E066E4CE010E946C
:10136000D0068FEF90E02EC0F501F28AE18A9082DC
:101370003896C5010F969283818382E085838DEF35
:10138000868314821382A091EB03B091EC0324E8CE
:1013900038E0AF01B601892DFD01099580E090E0AC
:1013A00011C00F2EFBE8AF2EF4E0BF2EF02D54CF6E
:1013B00080919E0488230CF038CF48CF6624772490
:1013C000639489CFDF91CF911F910F91FF90EF90A0
:1013D000DF90CF90BF90AF909F907F906F900895D7
:1013E000EF92FF920F931F93CF93DF93182FCB01B0
:1013F000EA01790140E062EA75E00E94700B809199
:10140000A305882391F0823081F088E093E00E9468
:10141000EC0A8091A3050E9484070E94EC0A0E94B6
:10142000DF0A0E94B10A1092A3058091A4058823C7
:10143000C9F08335B9F08035A9F089E193E00E94C5
:10144000EC0A8091A4050E94B40A0E94DF0A0E945F
:10145000B10A20E040E060E4CE010E94D0068FEFA8
:101460009FEF50C08091A5058823D9F08735C9F03A
:101470008235B9F08134A9F08CE293E00E94EC0A45
:101480008091A5050E94B40A0E94DF0A0E94B10A59
:1014900020E040E06EE1CE010E94D0068FEF9FEF8A
:1014A00031C09091A3059230A9F48823A9F0823528
:1014B00099F085E493E00E94EC0A0E94DF0A0E9402
:1014C000B10A20E040E06FE3CE010E94D0068FEF2A
:1014D0009FEF18C08735A1F0002311F062E001C032
:1014E00061E0813409F465E0923009F466E0970127
:1014F000AE01812F0E94E008992787FD909502C0D8
:1015000062E0F2CFDF91CF911F910F91FF90EF90AA
:10151000089580913205109233059EEF909339051E
:101520008093360510923705E091E903F091EA03C4
:1015300083E395E0099510923205089510923205E3
:1015400081EB94E0909335058093340581E8809396
:1015500038058DEF809339051092370510923605C6
:1015600008950E94681108951F93CF93DF93182F59
:101570009091370580913605981769F0C6E6DEE050
:101580000E940A10CE010197F1F7909136058091E3
:1015900037059817A9F780913205813850F4E1EBAF
:1015A000F4E0E80FF11D10838F5F809332058138DE
:1015B00010F00E94890ADF91CF911F9108958DE06C
:1015C0000E94B40A8AE00E94B40A809132058823FE
:1015D00011F00E94890A0895FF920F931F93CF93F1
:1015E000DF938C019091360580913705981769F04B
:1015F000C6E6DEE00E940A10CE010197F1F7909155
:101600003605809137059817A9F7F8010190002059
:10161000E9F73197FE2EF01A809132058F0D912D4A
:10162000911D8138910514F00E94890A9091370527
:1016300080913605981769F0C6E6DEE00E940A1030
:10164000CE010197F1F790913605809137059817F3
:10165000A9F780E88F1520F40F2EF1E8FF2EF02D6A
:10166000209132054F2D5527B80181EB94E0820F70
:10167000911D0E947A13809132058F0D809332055F
:10168000DF91CF911F910F91FF9008950F931F93BA
:10169000CF93DF93CDB7DEB7C358D0400FB6F894E1
:1016A000DEBF0FBECDBFFE01E657FF4F61917191C6
:1016B000FA83E9838E010D5F1F4FAF01C8010E94BD
:1016C0009213C8010E94EC0ACD57DF4F0FB6F89471
:1016D000DEBF0FBECDBFDF91CF911F910F91089557
:1016E0008F929F92BF92CF92DF92EF92FF920F93D1
:1016F0001F93CF93DF93CDB7DEB721970FB6F89442
:10170000DEBF0FBECDBFFC018B01C42E9C012F5F3D
:101710003F4F90818FEFDB018C93FB01118212828E
:1017200082E58383442331F0158214821682F4E02B
:10173000F98306C0FB01358324839683F6E0F983A1
:10174000992309F493C0D92EDA9479010894E11C05
:10175000F11C4901BB242981233009F475C02430D0
:1017600038F4213009F455C0223008F05FC03BC086
:1017700039813530B9F0353020F0363009F06BC0A2
:1017800028C0F8018181882369F4D4018C919927BC
:101790000E944F16892B31F0C4010E945207F801B4
:1017A00081831682D4012C91822F9927C0970A97A2
:1017B00020F4822F8053F8018083D4018C918A33E6
:1017C00009F049C0F801F582E482D682F1E0F9839C
:1017D00042C0D4018C91843231F482E0F8018183DB
:1017E0001682F5E0F983D4012C91822F9927C097B6
:1017F0000A9728F40F2EF0EDBF2EF02DB20E2A33EB
:1018000041F4F801B082F582E482D682F1E0F983F6
:1018100022C0CC2001F5D4018C918C32E1F4F80186
:101820008481A81BA683F2E0F98315C0F8018281A8
:10183000882319F4D4018C918283F40180818C3245
:1018400051F4F3E0F98307C0F8018381882319F488
:10185000D4018C918383DA940894E11CF11CBFEFCE
:10186000DB1621F00894811C911C75CF21960FB6D0
:10187000F894DEBF0FBECDBFDF91CF911F910F91C6
:10188000FF90EF90DF90CF90BF909F908F90089542
:10189000CF93DF93EC0187E0689FB0011124655F6F
:1018A0007F4FDE01A60FB71F98818FEF8C93FD014C
:1018B0009683138214828F81882371F481E08F8351
:1018C000EB81FC810280F381E02D20EE3CE0AD0154
:1018D000BD018881099512C0833081F48A818823F3
:1018E00069F484E08F83EB81FC810280F381E02D39
:1018F00020EE3CE0AD01BD0188810995DF91CF91DB
:1019000008950F931F93182F062FB901A7E0B0E099
:10191000E8EDF9E029EA35E0808188232CF589E9B2
:1019200090E0FD01E89FD001E99FB00DF89FB00D58
:101930001124FD01E20FF31F1083118202835483EF
:10194000438376836583FD013B96E20FF31F148288
:10195000138216835296A20FB31FFD0114821382C5
:10196000168380E090E009C01197E959F0408FEFAD
:10197000AF3FB80789F68FEF9FEF1F910F91089542
:10198000282F97E0E8EDF9E08081821789F4892F0C
:10199000992787FD909529E930E0AC01429FC0016D
:1019A000439F900D529F900D112487559A4F089593
:1019B0009150E959F0409F3F39F780E090E0089559
:1019C0001F93162F0E94C00CFC01892B59F0108721
:1019D0008781813019F482E0878304C0843011F458
:1019E00085E087831F910895DC018FEF8C93FD01C3
:1019F000178211863B96CD0149969283818390E4AC
:101A000095838DEF868314821382FD017296A75A07
:101A1000BF4FB283A1839583868314821382089576
:101A2000CF93DF93C8EDD9E061E0CE010E94F40CC2
:101A3000C959D04085E0C031D807B1F7DF91CF91C7
:101A400008951F93162F0E94C00CFC01892B51F0A2
:101A500012878185823019F481E0818703C081304B
:101A600009F411861F9108950F931F93062F68178D
:101A700060F0182F812F0E94C00C009719F061E0D0
:101A80000E94F40C1F5F0117A8F71F910F91089592
:101A90000F931F93CF93DF93EC01162F8A81882336
:101AA00009F044C08F81882329F4198260E0CE01B7
:101AB0000E94480C112369F08F81813051F406E6B1
:101AC0001EE00E940A10C8010197F1F78F81813052
:101AD000C1F38F81823081F4ED81FE81309749F02E
:101AE000898127E0829FC00111240B968C0F9D1FD6
:101AF000099583E08F831AC08530C1F4ED81FE81A2
:101B0000309791F0898121E030E0281B3109C9012B
:101B1000880F991F880F991F880F991F821B930B9D
:101B20000B968C0F9D1F099586E08F83DF91CF91D7
:101B30001F910F9108950F931F938C0161E00E94F4
:101B4000480DF801818127E0829FC00111240B9686
:101B5000E80FF91F80818C3F19F020E030E00AC0C7
:101B600020E094818381981708F421E081E08227A6
:101B7000282F332780E090E0232B11F481E090E0C0
:101B80001F910F910895CF93DF93EC0161E00E94C4
:101B9000480D29818F81833079F487E0289FC00127
:101BA00011240B96FE01E80FF91F80818C3FB1F4E0
:101BB00094818381981790F0898127E0829FC001EA
:101BC00011240B96FE01E80FF91F84818F5F848337
:101BD00020E09381891740F421E006C061E0621B98
:101BE000CE010E94480CE8CF822F9927DF91CF9138
:101BF00008950F931F93CF93DF938C0161E00E94B0
:101C0000480DE801898127E0829FC00111240B96CD
:101C1000080F191FF80184810180F281E02DE80F7F
:101C2000F11D80819927DF91CF911F910F91089528
:101C300061E00E94480D08950E94C00C009719F0C1
:101C400061E00E94480D0895FF920F931F93CF9378
:101C5000DF93F82E0E94C00CEC018985882391F156
:101C6000813051F006E61EE00E940A10C80101977B
:101C7000F1F789858130C1F7898127E0829FC00112
:101C800011240B96BE01680F791FFB018CEF808336
:101C9000F6821482AB81BC81FD01A281B38121E275
:101CA0003DE0AB018F2DFD0109958985813051F40F
:101CB00006E61EE00E940A10C8010197F1F7898527
:101CC0008130C1F360E0CE010E94F40CDF91CF912E
:101CD0001F910F91FF900895AF92BF92DF92EF9204
:101CE000FF920F931F93CF93DF938C01EC018985B3
:101CF000882311F481E08987F80130810F2EFBE001
:101D0000AF2EBB24F02DA00EB11E818127E0829F53
:101D1000C00111247501E80EF91EE7018B81E981EC
:101D2000FA81E80FF11D6083982F9F5F9B838D815F
:101D3000981711F0452B91F1D32E8EEFF701808388
:101D4000368393831482E8018985823059F4C6E68C
:101D5000DEE00E940A10CE010197F1F7F8018185BB
:101D60008230B9F382E0E8018987EB81FC8102804F
:101D7000F381E02D21E23DE0A701B7018D2D09950A
:101D8000298181E0821B898327E0829FC001112481
:101D9000F501E80FF91F14821382D682C801DF9182
:101DA000CF911F910F91FF90EF90DF90BF90AF9078
:101DB0000895DF92EF92FF920F931F93CF93DF93DB
:101DC000EC0129818C01055F1F4F87E0289FC0012E
:101DD0001124F801E80FF91F80818C3F09F046C0FB
:101DE00094818381981708F441C039C00E940A1079
:101DF00086E69EE00197F1F78F818430B9F3853054
:101E0000B9F4ED81FE81309789F0898121E030E0DD
:101E1000281B3109C901880F991F880F991F880F46
:101E2000991F821B930B800F911F099586E08F836A
:101E3000F70194818381981790F4D98283E08F838E
:101E400087E0D89EC0011124F801E80FF91F8081B6
:101E50008C3FD9F4948183819817B8F01BC060E05F
:101E6000CE010E94F40CC0E0D0E014C081E0D82E76
:101E7000D21A87E0D89EC00111247801E80EF91E1D
:101E80008F81843009F4B2CFBACF61E06D19CE01F1
:101E90000E94480CCE01DF91CF911F910F91FF90CE
:101EA000EF90DF900895DC01FB0180818823C1F071
:101EB000813410F499270FC08B3518F48058992776
:101EC0000AC0813610F4992706C08B3718F4805267
:101ED000992701C099278D9331968081882341F7F6
:101EE0001D92CD01089510923A058FEF809353050E
:101EF00080934E05809349058093440510925805C0
:101F000084E08093430508951F9310E80E94F41223
:101F10008823E1F38FE70E941C131150B9F71F913A
:101F200008951F93CF93DF9314E067C0A0913B0502
:101F3000B0913C0580914305813099F082301CF4CA
:101F4000882341F004C08230B1F0833011F12FEFCB
:101F50003FEF2FC081E0809343058C91282F3327DA
:101F600028C082E080934305ED018B8199279C0175
:101F70002D5F3F4F1EC0FD018681282F33278381AF
:101F8000882319F41093430514C083E0809343051C
:101F900010C0ED019C81E981FA81E90FF11D80817A
:101FA0009F5F9C83282F33278B81981710F0109305
:101FB0004305332324F0822F0E941C131EC050912E
:101FC0003A05852F815080933A058823A1F020E0BF
:101FD00030E041E06BE375E0E22FFF27EE0FFF1FDB
:101FE000E60FF71F82819381918380832F5F3F4F9C
:101FF0004F5F541789F71092430580913A05882363
:1020000029F00E94F412882309F090CFDF91CF913C
:102010001F9108950E94021399230CF4D2C0482FF7
:1020200020915805223011F1233034F4222359F045
:10203000213009F0C1C013C0233009F47FC024301F
:1020400009F0BAC087C08D5F823018F04C3F09F0AC
:10205000B3C040935E0581E080935805ADC08350C6
:1020600080935D0582E080935805A6C08093590552
:1020700084E08093580520E030E0E4E4F5E08081DE
:10208000481721F520935A05822F992787FD9095AF
:10209000FC01EE0FFF1FEE0FFF1FE80FF91FEC5BB7
:1020A000FA4F0180F281E02DF0935C05E0935B052F
:1020B00020915E0590915D058581891768F02083E8
:1020C0004683138283E08093580506C02F5F3F4FFD
:1020D00035962430310599F680915D05882309F005
:1020E0006BC080915A05992787FD9095FC01EE0FF2
:1020F000FF1FEE0FFF1FE80FF91FEC5BFA4F038085
:10210000F481E02D80915805843011F46FEF01C007
:1021100060E0842F099580915A05992787FD909555
:10212000FC01EE0FFF1FEE0FFF1FE80FF91FEC5B26
:10213000FA4F8FEF8083109258053EC0E0915B0507
:10214000F0915C058381A181B281A80FB11D4C93F0
:102150008F5F838380915D05815080935D051816A4
:102160005CF180915A05992787FD9095FC01EE0F4F
:10217000FF1FEE0FFF1FE80FF91FEC5BFA4F038004
:10218000F481E02D243011F46FEF01C060E0809104
:102190005905099580915A05992787FD9095FC016D
:1021A000EE0FFF1FEE0FFF1FE80FF91FEC5BFA4F5A
:1021B0008FEF8083109258050E94021399230CF030
:1021C0002ECF0E94910F0895CF93DF93EC01809161
:1021D0003A05833030F00E940A1080913A0583302E
:1021E000D0F7E82FFF27EE0FFF1FE55CFA4FD183F2
:1021F000C0838F5F80933A05813021F410924305AC
:102200000E94910FDF91CF910895CF92DF92EF92CC
:10221000FF920F931F93CF93DF93082FEB017A0167
:10222000690188237CF4992787FD90959F938F936C
:1022300089E693E09F938F930E94460B0F900F9037
:102240000F900F908E8188237CF4992787FD9095BD
:102250009F938F9388E893E09F938F930E94460B00
:102260000F900F900F900F901FEF0FC0122F09C00B
:1022700080818823DCF32F5F3F4F35962430310572
:10228000B9F70E940A1011232CF420E030E0E4E4B6
:10229000F5E0EECF812F992787FD9095FC01EE0F99
:1022A000FF1FEE0FFF1FE80FF91FEC5BFA4F0083D3
:1022B000F282E182D482C382CE010E94E410DF91D7
:1022C000CF911F910F91FF90EF90DF90CF900895E5
:1022D00080913A05882331F00E940A1080913A05D6
:1022E0008823D1F70895EF92FF920F931F93CF9316
:1022F000DF937C01009739F48AEA93E00E94EC0AAC
:102300008FEF9FEF0CC1EC0109811A81F801628502
:10231000613019F0AFE5B5E008C081E080935F055A
:1023200084E080936005A1E6B5E081E0ED0189934A
:10233000FD018183AE014F5F5F4FE8018B818823F0
:1023400009F0DFC02A812A3F08F0DBC0293F41F4B1
:1023500089818F3F29F48881882309F0D2C0C7C0C2
:10236000F801818199273327322F2227282B392BF7
:102370008081882311F02F5F3F4FDA012D93832F47
:102380009927EA018983FD0131962A30310520F42D
:1023900080E2ED0189833196613019F482E1819305
:1023A00015C0623009F455C02436310518F480E2B6
:1023B000819304C083E0283E380718F480E28193BB
:1023C00003C02051374210F480E2819382E281936E
:1023D000E8018B85882309F49EC0D8012BE0813465
:1023E00010F499270FC08B3518F4805899270AC02C
:1023F000813610F4992706C08B3718F4805299273C
:1024000001C0992781932F5FED018C85882329F4E2
:1024100082E281932C3130F00AC011962B31F9F60B
:1024200082E2819380E281932F5F2C31D8F3613077
:1024300039F465EB73E0CF010E94530FFC011EC01D
:10244000633039F46CEB73E0CF010E94530FFC0151
:1024500015C0662339F460EC73E0CF010E94530F7E
:10246000FC010CC0623051F464EC73E0CF010E94B7
:10247000530FFC011192EC01198231968FE595E022
:102480000E2F081BC02FDD27F7018581992787FDB7
:1024900090958C179D07F4F480ED93E00E94EC0A70
:1024A000802F82958F7001EF13E0F801E80FF11D86
:1024B00080810E94B40AFE01EF70F070E00FF11FFE
:1024C00080810E94B40A0E94DF0A0E94B10A8FEF45
:1024D0009FEF25C0402F55276FE575E0E701898103
:1024E0009A810E947A130B8380E090E018C0FA0171
:1024F0008FEF819389EFEA01898331962FEF39EFCE
:102500004BCFFA018FEF819389EFEA0189833196EE
:102510002FEF39EF41CF82E281932BE083CFDF9120
:10252000CF911F910F91FF90EF900895FC01A18131
:10253000B2818381992787FD9095882321F1282FE7
:102540008C91813410F4992719C08B3518F4805E72
:10255000992714C0813610F4992710C08B3718F4CE
:10256000805299270BC0813C10F4992707C08B3DFE
:1025700020F499278F77907001C099278C93215070
:1025800011F01196DDCF80E090E008951F920F9238
:102590000FB60F9211248F939F938091720A90919E
:1025A000730A01969093730A8093720A9F918F9198
:1025B0000F900FBE0F901F90189582E085BD8FEF92
:1025C00098E0909389008093880010928500109283
:1025D0008400109280008BE080938100EFE6F0E0B1
:1025E00080818260808308958091F50A9091F60A37
:1025F00020E030E08F5F8F77891711F021E030E025
:10260000C90108959091F40A8091780B981719F4F4
:102610002FEF3FEF0FC08091780BE4E7FAE0E80F6F
:10262000F11D8081282F33278091780B8F5F8F7762
:102630008093780BC90108959091F50AE7EFFAE0CD
:10264000E90FF11D80838091F50A8F5F8F7780936A
:10265000F50AE1ECF0E080818062808308951092B9
:10266000F50A1092F60A1092F40A1092780BE1EC37
:10267000F0E088E0808380818061808387E08093C0
:10268000C4001092C50080818068808308951092F4
:102690009F0511B88FEF82B93E98469AF8944B9BEC
:1026A00002C03D98459A789481E08093A105F89402
:1026B0004B9B02C03C98449A789481E08093A0059B
:1026C0003F98479A08950F931F9303E710E0F8018E
:1026D0008081877F80830E944713DB9AF801808185
:1026E00088608083E8E6F0E08081886080831F91C5
:1026F0000F910895FB01DC0102C001900D92415041
:102700005040D8F70895FB01DC014150504048F09B
:1027100001900D920020C9F701C01D924150504018
:10272000E0F70895AEE0B0E0E8E9F3E10C94771645
:102730008C0186E08C831A8309838FEF9FE79E8349
:102740008D83CE0101960E94AE13EF81F885E00FD4
:10275000F11F1082E4E02E960C949316ABE0B0E0EB
:10276000E4EBF3E10C946B164C013B016A01FC01B4
:1027700017821682838181FD03C08FEF9FEFDCC13A
:10278000F4012381F30123FD859123FF81913F0112
:10279000882309F4CEC1853239F423FD859123FFC6
:1027A00081913F01853229F4B40199270E94B61521
:1027B000E7CF00E0442455243AE00032B0F48B32F5
:1027C00069F08C3228F4803251F0833271F40BC0FE
:1027D0008D3239F0803349F4016028C00260046012
:1027E00025C0086023C0006121C007FD2BC0282F31
:1027F00020532A3078F406FF06C0539EC0011124EE
:10280000522E580E13C0439EC0011124422E480E72
:1028100000620CC08E3221F406FD8BC1006406C03C
:102820008C3611F4006802C0883661F4F4018381AB
:10283000F30183FD859183FF81913F01882309F492
:102840006FC0BBCF982F8554833018F080528330EF
:1028500038F424E030E0C20ED31E8FE389830FC02A
:10286000933631F0933799F0933509F05BC023C06C
:10287000F6018081898322E030E0C20ED31E7E0102
:102880000894E11CF11C51E0A52EB12C12C0F601F8
:10289000E080F18006FD03C06FEF7FEF02C0652D81
:1028A000772722E030E0C20ED31EC7010E94AB158D
:1028B0005C010F7713C0F601E080F18006FD03C0D4
:1028C0006FEF7FEF02C0652D772722E030E0C20E68
:1028D000D31EC7010E94A0155C01006803FF07C05A
:1028E0001BC0B40180E290E00E94B6154A94842D8A
:1028F0009927A816B906A8F30FC0F70107FD85911F
:1029000007FF81917F01B40199270E94B6154110FC
:102910004A940894A108B108A114B10471F706C142
:1029200090E03EC0943611F0993691F507FF0AC049
:10293000F601608171818281938124E030E0C20ED2
:10294000D31E0DC0F601808191819C01B9018827B9
:1029500077FD8095982F42E050E0C40ED51E4FE6DB
:10296000B42EB02297FF09C090958095709561951F
:102970007F4F8F4F9F4F50E8B52A8E010F5F1F4F3B
:102980002AE030E0A8010E94E315A82EA01A4DC04D
:10299000953731F43FEEF32EF0222AE030E023C0E9
:1029A00029EFF22EF0229F3661F0903720F498350F
:1029B00009F0BFC012C0903739F0983709F0B9C09C
:1029C00005C028E030E00FC080E1F82AF4FE02C024
:1029D00094E0F92A20E130E006C0F4FE02C0E6E00F
:1029E000FE2A20E132E0F7FE0AC0F6016081718123
:1029F0008281938144E050E0C40ED51E0BC0F601E5
:102A000080819181AC01BA0188279927E2E0F0E04A
:102A1000CE0EDF1E8E010F5F1F4FA8010E94E3152F
:102A2000A82EA01A8FE7B82EBF20B6FE10C0FEEF6A
:102A3000BF22A51460F42B2D332724FF1AC022FFD8
:102A400002C0052D09C02FEEB222052D01C00A2DAE
:102A50002B2D332724FF0EC0FE01EA0DF11D8081CE
:102A6000803319F439EEB32209C00F5F22FF06C08C
:102A700004C0052D822F867809F00F5FEB2CFF2410
:102A8000E3FC14C0E0FE0FC0041510F05A2C0BC07C
:102A9000542C501A5A0C042D06C0B40180E290E068
:102AA0000E94B6150F5F0415C0F304C0041510F49E
:102AB000401A01C04424E4FE10C0B40180E390E059
:102AC0000E94B615E2FE1EC0E1FE03C088E590E05C
:102AD00002C088E790E0B4010CC08E2D867891F09A
:102AE000E1FE02C08BE201C080E2B7FC8DE2B401DE
:102AF00099270E94B61506C0B40180E390E00E94B9
:102B0000B6155A94A514C0F3AA94FE01EA0DF11D5E
:102B10008181B40199270E94B615AA2039F0F4CF1B
:102B2000B40180E290E00E94B6154A944420C1F7B7
:102B300027CEF40186819781E0E12B960C948716CD
:102B4000FC010590615070400110D8F78095909578
:102B50008E0F9F1F0895FC0161507040019001107D
:102B6000D8F7809590958E0F9F1F08950F931F9310
:102B7000CF93DF938C01EB018B81992781FF1BC0E1
:102B800082FF0DC02E813F818C819D8128173907DE
:102B900064F4E881F9810193F983E88306C0E8854C
:102BA000F985802F0995892B31F48E819F810196BB
:102BB0009F838E8302C00FEF1FEFC801DF91CF917B
:102BC0001F910F910895FA01AA27283051F1203161
:102BD00081F1E8946F936E7F6E5F7F4F8F4F9F4FB1
:102BE000AF4FB1E03ED0B4E03CD0670F781F891FF3
:102BF0009A1FA11D680F791F8A1F911DA11D6A0FC1
:102C0000711D811D911DA11D20D009F468943F9173
:102C10002AE0269F11243019305D3193DEF6CF0172
:102C20000895462F4770405D4193B3E00FD0C9F738
:102C3000F6CF462F4F70405D4A3318F0495D31FDA5
:102C40004052419302D0A9F7EACFB4E0A6959795F8
:102C5000879577956795BA95C9F7009761057105CE
:102C600008959B01AC010A2E069457954795379518
:102C70002795BA95C9F7620F731F841F951FA01D72
:102C80000895991B79E004C0991F961708F0961BC8
:102C9000881F7A95C9F78095089585FD17C08062D1
:102CA000911114C081568A51E0F70895803209F0DD
:102CB00091110CC080528F55E0F70895911108953D
:102CC00081568A5108F4805285580895992788279B
:102CD00008952F923F924F925F926F927F928F92C0
:102CE0009F92AF92BF92CF92DF92EF92FF920F939B
:102CF0001F93CF93DF93CDB7DEB7CA1BDB0B0FB6A5
:102D0000F894DEBF0FBECDBF09942A883988488861
:102D10005F846E847D848C849B84AA84B984C884F7
:102D2000DF80EE80FD800C811B81AA81B981CE0FEE
:102D3000D11D0FB6F894DEBF0FBECDBFED010895D3
:022D4000FFCFC3
:102D4200454F46210A00446964206E6F742066690B
:102D52006E64206368616E6E656C210A0052656361
:102D62006569766564206469726563742065727250
:102D72006F72206E756D626572206F6E206F706566
:102D82006E3A2025640A005265636569766564209F
:102D920063616C6C6261636B206572726F72206E2C
:102DA200756D626572206F6E206F70656E3A2025B8
:102DB200640A00556E6B6E6F776E20636F6D6D6186
:102DC2006E6420253032580A0A00534E483A207069
:102DD20061636B65742074797065206973206E6F0E
:102DE200742046535F524541442C206275743A2048
:102DF20025640A00FF05000000000000000000003A
:102E020000000000000000000000000000000000C0
:102E120000000000000000000000000000000000B0
:102E2200000000000000A205000000002323232070
:102E320058532D313534312F5844323033312076C6
:102E4200302E3120232323002025752042797465FA
:102E5200732066726565002C202564206B487A0019
:102E62005365742073746174757320746F3A2025EE
:102E7200730A0041535349474E00002D0024003F7E
:102E820000494E495449414C495A450052454E4128
:102E92004D450053435241544348004344004D4B77
:102EA20044495200524D44495200434F4D4D414E08
:102EB200443A2000434D443D25730A00445249568A
:102EC200453D25630A004E414D453D25730A0041AB
:102ED20043434553533D00545950453D00494C4CE2
:102EE2004547414C20434F4D4D414E442100494CF2
:102EF2004C4547414C2044524956453A20004E4FDA
:102F0200204F50454E20534C4F5420464F52204F95
:102F120050454E21004E414D4520434F4E5645529D
:102F220053494F4E20455843454544532042554648
:102F3200464552210046494C45204F50454E2045BA
:102F420052524F5200453D004E4F20434F52524580
:102F5200435420434D443A2000554E4B4F574E2088
:102F620046494C4520545950453A2000554E4B4F46
:102F7200574E2046494C4520414343455353205424
:102F82005950452000575249544520544F20444936
:102F9200524543544F525921003031323334353681
:102FA2003738396162636465662121212120737596
:102FB200626D69742077697468206368616E6E65FA
:102FC2006C6E6F3D25640A002121212120737562F8
:102FD2006D69742077697468207061636B65742D04
:102FE2003E6368616E3D25640A0050204953204EBD
:102FF200554C4C21007864323033310064697200E0
:1030020070726700626C6F636B7320667265650035
:10301200434F4E56455253494F4E204E4F54205027
:103022004F535349424C452100E410051173119648
:103032001230313233343536373839616263646580
:02304200660026
:00000001FF
