:100000000C94F4000C9411010C9411010C94110146
:100010000C9411010C9411010C9411010C945D01CC
:100020000C9411010C9411010C9411010C94110108
:100030000C9411010C9493120C9411010C94110165
:100040000C9411010C9411010C9411010C941101E8
:100050000C9413010C9439010C9411010C941101AE
:100060000C9411010C9411010C9411010C941101C8
:100070000C9411010C9411010C94110158532D3161
:100080003534312F5844323033312056302E310040
:100090002042455441350080204F4B81005320536E
:1000A0004352415443484544820809949596979891
:1000B0009B0103999C02039A022050524F544543DE
:1000C00054204F4E9D054944204D49534D415443C2
:1000D000489E9FA0A1A253594E54415803A7BE0069
:1000E00004464F554E44B2070450524553454E54B2
:1000F000B34F564552464C4F5720494E2007B40047
:100100000B4C41524745BC0220002006BD000406AE
:10011000BF0020455849535453C0002054595045FE
:10012000204D49534D41544348C10C424C4F434B21
:10013000C2C30A20545241434B204F5220534543DF
:10014000544F52C60C4348414E4E454CC744495249
:1001500003C80546554C4CCA4452495645040159FA
:10016000CD0920080ACE4255464645520B534D4113
:100170004C4CCF494D414745200020494E56414CFB
:100180004944E3434C4F434B20554E535441424C5A
:1001900045FF8046494C458152454144825752496A
:1001A000544583204552524F5284204E4F5420854F
:1001B0004449534B20864F50454E875245434F523A
:1001C0004488504152544954494F4E208953454C1C
:1001D00045435445448A494C4C4547414C8B205437
:1001E0004F4F208C4E4F20FF11241FBECFEFD0E188
:1001F000DEBFCDBF13E0A0E0B1E0ECECFCE202C05A
:1002000005900D92AE3FB107D9F71BE0AEEFB3E01A
:1002100001C01D92A437B107E1F70E940B060C94B0
:1002200065160C9400002F922FB60F930091C60014
:1002300078941F93CF93DF931091EF0ACFE6DAE023
:10024000C10F08F4D3950883DF91CF9113951F77E1
:100250000091730B101719F01093EF0A29F4009115
:10026000720B03950093720B1F910F912FBE2F906D
:1002700018952F922FB60F93CF93DF930091F10A29
:10028000C091F00A0C1771F0C2EFDAE0C00F08F469
:10029000D395C881C093C60003950F770093F10AE8
:1002A000789405C00091C1000F7D0093C100DF91DB
:1002B000CF910F912FBE2F9018952F922FB60F939D
:1002C00000912900087051F4009128000F7C0093E0
:1002D0002800009127000063009327000F912FBE94
:1002E0002F901895FC01F8944B9904C080919A05C1
:1002F000882311F03D98459A789481E080939C057D
:100300004B9B28C03699FCCF45983D9A10929C058E
:10031000379903C022E030E002C020E030E080B135
:100320008095992791838083F8944B9904C080919C
:100330009A05882311F03C98449A789481E0809340
:100340009B054B9B07C0369BFCCF44983C9A109270
:100350009B0502C021E030E0C90108950E941413FA
:1003600080E094E00E9439030895EF92FF920F938A
:100370001F93CF93DF93CDB7DEB722970FB6F894D4
:10038000DEBF0FBECDBF8E010F5F1F4F0F2EF0E0FF
:10039000EF2EF4E0FF2EF02D0AC0482F4270698145
:1003A000C7010E9455059093FF038093FE03C80187
:1003B0000E94720180FFF1CF0197F1F0F8944B9900
:1003C00004C080919A05882311F03D98459A78944D
:1003D00081E080939C05F8944B9904C080919A0524
:1003E000882311F03C98449A789481E080939B058F
:1003F0003E98469A3F98479A22960FB6F894DEBFE9
:100400000FBECDBFDF91CF911F910F91FF90EF9065
:100410000895EF92FF920F931F93CF93DF93CDB781
:10042000DEB721970FB6F894DEBF0FBECDBFF894AC
:100430004B9904C080919A05882311F03D98459A04
:10044000789481E080939C05F8944B9904C0809146
:100450009A05882311F03C98449A789481E080931F
:100460009B053E98469A3F98479A00E014E04B9BC4
:1004700069C0359BFCCF41E0BE016F5F7F4FC80173
:100480000E944E039093FF038093FE0386FD03C0FA
:10049000EE24FF2406C047983F9AEE24FF24689478
:1004A000E1F8898181B9809582B946983E9A4B9B43
:1004B00049C0349B0AC0359B08C03F98479A3E9874
:1004C000469AF8944B9947C042C03599F0CF4B9B60
:1004D00039C0349BFCCF3E98469A3F98479A40E0FB
:1004E000BE016F5F7F4FC8010E944E039093FF03D0
:1004F0008093FE03882339F44B9B24C03499FCCFAE
:10050000EF2809F4B4CFF8944B9904C080919A0570
:10051000882311F03D98459A789481E080939C055A
:10052000F8944B9904C080919A05882311F03C9867
:10053000449A789481E080939B053E98469A3F9830
:10054000479A20C03E98469A3F98479A1BC0809190
:100550009A05882311F03D98459A789481E080931C
:100560009C05F8944B9904C080919A05882311F05A
:100570003C98449A789481E080939B053E98469AF3
:100580003F98479A21960FB6F894DEBF0FBECDBFB5
:10059000DF91CF911F910F91FF90EF9008951F93DE
:1005A0004B9965C03E98469A3F98479A1092FF0330
:1005B0001092FE0311E044983C9A10929B058091A2
:1005C0009C05882321F445983D9A10929C054498F7
:1005D0003C9A10929B0510939A05F89489B13D9826
:1005E000459A789410939C054B991BC03699FCCF83
:1005F00045983D9A10929C0560B1F89489B13C9859
:10060000449A789410939B056095772780E094E056
:100610000E94EB049093FF038093FE03369BFECF72
:10062000CACF8091FE039091FF039C012070307F20
:1006300080E22030380749F445983D9A10929C0595
:1006400010929A050E94B50110C010929A05F89474
:100650004B9B02C03D98459A789481E080939C051D
:100660002050304411F40E9409020E9414131F917B
:100670000895FC01809183048183805F80938304CB
:1006800088E080831086138212820895E0918404AA
:10069000F0918504878381E086830895CF92DF926D
:1006A000EF92FF920F931F93CF93DF938C017B0107
:1006B000C42EFC0185810F2EFFE0DF2EF02DD82205
:1006C000C281D381209729F5FFE0DF16A9F4F80154
:1006D000818120E030E044EE51E060E0815F0E94E3
:1006E0004E0CF8018181815F0E948D0CEC01F801B4
:1006F00093838283892B69F420E040E06DE384EBEF
:1007000091E00E94B7060F2EF3E8EF2EFF24F02DA4
:1007100049C0CE010E94E50DCE010E94C60DF70131
:100720008083898127E0829FC00111240B96FE01FE
:10073000E80FF91F80818C3FB1F4248133272F5FAC
:100740003F4F83819927281739076CF080E091E0AB
:100750009F938F930E94130BEE24FF246894E6F876
:100760000F900F9002C0EE24FF24CC20D9F4CE01CC
:100770000E94900D8823B1F4CE010E94680D882359
:1007800021F0CE010E94A60E0DC0FFE0DF1611F091
:10079000DD2041F4F80181818D0D0E94F10DF801F9
:1007A00013821282F80184819927982F88278E0D51
:1007B0009F1DDF91CF911F910F91FF90EF90DF90E0
:1007C000CF900895EF92FF920F931F93CF93DF93F3
:1007D000CDB7DEB721970FB6F894DEBF0FBECDBF01
:1007E0007C01FC018481208199278F7090703327D0
:1007F0008217930719F080E890E0E0C0F701858147
:10080000382F3F709927807F9070803E910569F165
:10081000803F9105F1F18036910509F0BEC08181DC
:10082000830F0E948D0CF70193838283892B59F4E7
:1008300086E091E09F938F930E94130B80E490E0F9
:100840000F900F90BBC0F7018481807F803419F036
:1008500080E090E0B3C041E0BE016F5F7F4FC70111
:100860000E944E038F7B9070A9C03F3051F4F70176
:100870008181682F615F77270E94010D80E090E001
:100880009DC0F7018181830F0E94F10D80E090E00F
:1008900095C0F70116828581182F1F70F09285048C
:1008A000E092840416821F3061F4B701685F7F4FC5
:1008B000818126E433E044EB51E0815F0E94A6078A
:1008C00010C0B701685F7F4FF701818100E01130F0
:1008D00009F401E026E433E044EB51E0810F0E948B
:1008E000BD09882344F0E0918404F0918504868159
:1008F0008823D1F022C0992787FD90959F938F93ED
:100900008DE191E09F938F930E94130B20E040E0D4
:100910006AE484EB91E00E94B70682E090E00F90D9
:100920000F900F900F9036C00E94D70FE091840473
:10093000F091850486818823B9F38781992787FD03
:1009400090959F938F9387E491E09F938F930E945C
:10095000130BE0918404F091850487810F900F9030
:100960000F900F90882379F0678120E040E084EBBE
:1009700091E00E94B706F7018181810F0E94F10D7D
:1009800080E090E007C0F7018181810F0E94E90DAE
:1009900080E090E0F701108611C0F701858199276A
:1009A0009F938F9383E791E09F938F930E94130B04
:1009B00080E090E00F900F900F900F9021960FB66F
:1009C000F894DEBF0FBECDBFDF91CF911F910F9185
:1009D000FF90EF9008951F93CF93DF93EC01162FB4
:1009E0006F33B1F48D81282F3327C901807F907038
:1009F000803F910541F0C9018F7090700F9719F0F9
:100A000040E050E037C0CE010E94E203AC0132C0AA
:100A1000262F3327C901807F907080369105E1F041
:100A2000813691053CF48032910559F0803491056E
:100A3000E9F407C0803E910579F0803F9105B1F45B
:100A400011C02F703070888199272817390701F558
:100A50001C8340E050E00CC01D83CE010E94E203E5
:100A6000AC0106C06D8340E050E002C040E050E0C1
:100A70001F3519F41C821D820EC0288133278C81FA
:100A800099278F7090702817390729F0406803C0A4
:100A900040E050E0EDCF8C819927982F8827842B58
:100AA000952BDF91CF911F910895CF93DF93EC01A8
:100AB0008D81282F3327C9018F7090700F9731F0E7
:100AC000C901807F9070803F910561F488858837E7
:100AD000A8F4FE01E80FF11D61878F5F888720E091
:100AE00030E00EC055278A819B810E94390E9B837E
:100AF0008A83892B19F423E830E002C020E030E03B
:100B00008C819927982F8827820F931FDF91CF918F
:100B100008958F929F92BF92CF92DF92EF92FF92B1
:100B20000F931F93CF93DF93B82EFB01EA01490186
:100B300080818F3FA1F0992787FD90959F938F9398
:100B40008AE891E09F938F930E94130B66E48B2DAC
:100B5000F40109950F900F900F900F902BC0E98032
:100B6000FA800D8111270F2EF6EBCF2EF1E0DF2E4C
:100B7000F02DA801B601C7010E945013F701E00F44
:100B8000F11F31971082F70101900020E9F73197AA
:100B9000EE19FF098CEF8883BE82EB831C8220E074
:100BA00040E060E0C60102970E94B70660E08B2D2E
:100BB000F4010995DF91CF911F910F91FF90EF9074
:100BC000DF90CF90BF909F908F90089520E040E0FD
:100BD00060E084EB91E00E94B706089510928304D0
:100BE00020E040E069E484EB91E00E94B7060895BC
:100BF0008DB79EB784579B4008950E94AC0A8EE241
:100C00000E94810A0E94AC0A8CEE91E00E94B90A0F
:100C10000E94AC0A0895389A40980E94FC120E94E3
:100C2000400F0E946B0A0E9454080E94DD0C0E9433
:100C3000EE050E94301388E00E94AE0178940E9475
:100C4000510F0E94FD050E94F8059F938F9388E045
:100C500092E09F938F930E94130B89E999E3A0E0A0
:100C6000B0E0BF93AF939F938F9387E192E09F9300
:100C70008F930E94130B0E94AC0A0E94AC0A8DB79E
:100C80009EB70A960FB6F8949EBF0FBE8DBF0E9406
:100C9000D70F0E94CF02FBCF0F931F93CF93DF9309
:100CA000DC01EB0100E0552740585F4FFE01E00FEB
:100CB000F11D0F5FC895202D822F99278417950766
:100CC00019F02F3F59F0F2CF2F3F41F0FE01E00F16
:100CD000F11DC895E02DEE2324F00BC08FE38D931A
:100CE0001EC00F5FFE01E00FF11DC895E02DEE2341
:100CF000C4F3FE01E00FF11D0F5FC895102D1032F7
:100D000050F4412F62E971E0CD010E944C06DC01F4
:100D100011237CF704C0112314F01D93EACFCD01F9
:100D2000DF91CF911F910F910895CF93DF93DC0155
:100D3000262F643650F0862F64E60E940E16805DE2
:100D40008D93822F0E940E16292F822F6AE00E9417
:100D50000E16805DFD018193822F0E940E16905D1C
:100D6000ED019983CF010196DF91CF910895CF9244
:100D7000DF92EF92FF920F931F93CF93DF93162F83
:100D8000C42ED22EEE24FF246894E1F8E80EF91E5A
:100D90008EE2E70119928A95E9F7C7010E9495064C
:100DA0009C01FC018CE28193133059F481E0D81648
:100DB00029F085E4E9018983319636C084E4819382
:100DC00033C0193011F4D90103C0193431F5FBCF08
:100DD0008A2F821BECE7F0E0E80FF11DC895E02DAB
:100DE000ED01E9831196EE2399F7ED012196193073
:100DF00089F4ED018D01CE01801BE82FFF27E0571C
:100E0000FF4FC895E02D8E2F99270E9423168993B6
:100E1000882389F7FE01319707C0412F67E970E009
:100E2000CF010E944C06FC011CE211936C2DCF01F6
:100E30000E949506FC0111936D2DCF010E9495062D
:100E4000FC018DE080831182FF92EF9280E292E0BC
:100E50009F938F930E94130B0F900F900F900F9002
:100E6000DF91CF911F910F91FF90EF90DF90CF9086
:100E70000895FC0180818934C9F08A3438F48134C2
:100E800061F0833411F1843259F40DC0823589F058
:100E90008335C1F08D3421F41BC089E090E00895C2
:100EA00081E090E0089582E090E0089583E090E092
:100EB000089581818D3419F488E090E0089584E0EC
:100EC00090E0089585E090E0089586E090E0089530
:100ED00087E090E00895843051F1853048F4813006
:100EE00001F18130C0F08230C9F0833089F41CC038
:100EF000873031F1883028F48530E1F0863041F4D4
:100F00001CC0883001F1893019F483E392E0089520
:100F10008AE392E008958BE392E008958DE392E0F6
:100F200008958FE392E0089581E492E008958CE4BF
:100F300092E0089583E592E008958BE592E00895AC
:100F40008EE592E0089584E692E00895DF92EF92B4
:100F5000FF920F931F93CF93DF93D82E8B01EA015B
:100F600079018AE692E00E94B90AC80101960E94BE
:100F7000B90A0E94AC0A0E947E0A41E06DE975E060
:100F8000C8010E943D0B80919E05882319F48BE3D4
:100F900092E002C00E946B079F938F9384E792E0D8
:100FA0009F938F930E94130B80919D050F900F903C
:100FB0000F900F908F3F19F48DE290E002C09927B7
:100FC000C0969F938F938CE792E09F938F930E949C
:100FD000130B86E892E00E94B90A8091A1059091D6
:100FE000A2050E94B90A0E94AC0A0E947E0A8CE8FF
:100FF00092E00E94B90A8091A0050E94810A0E9495
:10100000AC0A0E947E0A84E992E00E94B90A8091AB
:101010009F050E94810A0E94AC0A0E947E0A90915C
:101020009E05892F84500F900F900F900F90853060
:1010300018F02FEF3FEF2FC0963081F0973028F453
:10104000943041F0953071F407C0973049F09830F2
:1010500049F415C067E014C068E012C06EE010C02B
:101060006DE00EC08AE992E00E94B90A20E040E0FB
:101070006EE1CE010E94B7062FEF3FEF0CC06CE08F
:1010800077279701AE018D2D99270E94AD08282F53
:10109000332727FD3095C901DF91CF911F910F9123
:1010A000FF90EF90DF9008958FEF809386048093F8
:1010B00099040895CF93DF93982F80918604891720
:1010C00019F4C0E0D0E007C080919904891709F0B5
:1010D00041C0C1E0D0E06623B4F4FE01EE0FFF1F73
:1010E000CF01880F991F880F991F880F991FE80F4C
:1010F000F91FEC0FFD1FEA57FB4F0188F289E02D25
:101100008AE4099515C0FE01EE0FFF1FCF01880F7D
:10111000991F880F991F880F991FE80FF91FEC0F6F
:10112000FD1FEA57FB4F218932898785F90109950F
:10113000FE01EE0FFF1FCF01880F991F880F991F27
:10114000880F991FE80FF91FEC0FFD1FEA57FB4F9F
:101150008FEF8083DF91CF9108956F927F929F925E
:10116000AF92BF92CF92DF92EF92FF920F931F93B5
:10117000CF93DF93782F062FEA01790180919D05A7
:101180008F3F41F410929D058091860488230CF0D6
:10119000DCC0D4C08823C1F38BEA92E00E94B90A74
:1011A00080919D05805D0E94810A0E94AC0A0E9488
:1011B0007E0A20E040E06AE4CE010E94B7068FEF8D
:1011C00090E0CDC08BEB92E00E94B90A0E94AC0A7D
:1011D0000E947E0A20E040E066E4CE010E94B7064D
:1011E0008FEF90E0BCC00F2EF9E9AF2EF4E0BF2ED8
:1011F000F02D2091A30565010894C11CD11C80919C
:10120000A1059091A205F601928381832583972EF3
:10121000F5010183F601768323831482E091EC03C8
:10122000F091ED033097A9F0C601099588238CF45D
:1012300082ED92E00E94B90A0E94AC0A0E947E0AE6
:1012400020E040E062E2CE010E94B7068FEF90E01E
:1012500086C0023009F47FC0053009F47CC06624E2
:101260007724063029F40091EA031091EB0302C0C1
:1012700000E010E0892D0E948D0C892BA1F082EFF7
:1012800092E00E94B90A0E94AC0A0E947E0A20E005
:1012900040E066E4CE010E94B706892D0E94F10D60
:1012A0008FEF90E05CC0980146EE53E0662D892DEB
:1012B0000E944E0C782E882324F582E093E00E9451
:1012C000B90A872D82958F7006E513E0F801E80FC3
:1012D000F11D80810E94810A872D8F70080F111DDA
:1012E000F80180810E94810A0E94AC0A0E947E0A55
:1012F00020E040E066E4CE010E94B7068FEF90E068
:101300002EC0F501F28AE18A90823896C5010F96C7
:101310009283818382E085838DEF8683148213829A
:10132000A091E803B091E9032AE538E0AF01B601E6
:10133000892DFD01099580E090E011C00F2EF6E89F
:10134000AF2EF4E0BF2EF02D54CF80919904882366
:101350000CF038CF48CF66247724639489CFDF918F
:10136000CF911F910F91FF90EF90DF90CF90BF90A2
:10137000AF909F907F906F900895EF92FF920F93A0
:101380001F93CF93DF93182FCB01EA01790140E03F
:101390006DE975E00E943D0B80919E05882391F0D8
:1013A000823081F085E093E00E94B90A80919E0529
:1013B0000E946B070E94B90A0E94AC0A0E947E0A32
:1013C00010929E0580919F058823C9F08335B9F05E
:1013D0008035A9F086E193E00E94B90A80919F05CB
:1013E0000E94810A0E94AC0A0E947E0A20E040E02E
:1013F00060E4CE010E94B7068FEF9FEF50C080914E
:10140000A0058823D9F08735C9F08235B9F0813439
:10141000A9F089E293E00E94B90A8091A0050E9498
:10142000810A0E94AC0A0E947E0A20E040E06EE140
:10143000CE010E94B7068FEF9FEF31C090919E05BD
:101440009230A9F48823A9F0823599F082E493E0E0
:101450000E94B90A0E94AC0A0E947E0A20E040E085
:101460006FE3CE010E94B7068FEF9FEF18C087355C
:10147000A1F0002311F062E001C061E0813409F4C1
:1014800065E0923009F466E09701AE01812F0E9479
:10149000AD08992787FD909502C062E0F2CFDF91F9
:1014A000CF911F910F91FF90EF90089580912D059E
:1014B00010922E059EEF9093340580933105109283
:1014C0003205E091E603F091E7038EE295E009959D
:1014D00010922D05089510922D058CEA94E09093BA
:1014E000300580932F0581E8809333058DEF80933D
:1014F0003405109232051092310508950E9435117D
:1015000008951F93CF93DF93182F90913205809108
:101510003105981769F0C6E6DEE00E94D70FCE01CC
:101520000197F1F790913105809132059817A9F74D
:1015300080912D05813850F4ECEAF4E0E80FF11DBC
:1015400010838F5F80932D05813810F00E94560A1A
:10155000DF91CF911F9108958DE00E94810A8AE06A
:101560000E94810A80912D05882311F00E94560A5D
:101570000895FF920F931F93CF93DF938C01909167
:10158000310580913205981769F0C6E6DEE00E94C9
:10159000D70FCE010197F1F7909131058091320577
:1015A0009817A9F7F80101900020E9F73197FE2E6E
:1015B000F01A80912D058F0D912D911D8138910587
:1015C00014F00E94560A90913205809131059817C7
:1015D00069F0C6E6DEE00E94D70FCE010197F1F771
:1015E00090913105809132059817A9F780E88F1501
:1015F00020F40F2EF1E8FF2EF02D20912D054F2D18
:101600005527B8018CEA94E0820F911D0E94471380
:1016100080912D058F0D80932D05DF91CF911F9126
:101620000F91FF9008950F931F93CF93DF93CDB742
:10163000DEB7C358D0400FB6F894DEBF0FBECDBFA3
:10164000FE01E657FF4F61917191FA83E9838E01A4
:101650000D5F1F4FAF01C8010E945F13C8010E94B8
:10166000B90ACD57DF4F0FB6F894DEBF0FBECDBF1E
:10167000DF91CF911F910F9108958F929F92BF920A
:10168000CF92DF92EF92FF920F931F93CF93DF934E
:10169000CDB7DEB721970FB6F894DEBF0FBECDBF32
:1016A000FC018B01C42E9C012F5F3F4F90818FEF77
:1016B000DB018C93FB011182128282E58383442338
:1016C00031F0158214821682F4E0F98306C0FB0122
:1016D000358324839683F6E0F983992309F493C034
:1016E000D92EDA9479010894E11CF11C4901BB243C
:1016F0002981233009F475C0243038F4213009F4ED
:1017000055C0223008F05FC03BC039813530B9F098
:10171000353020F0363009F06BC028C0F8018181E7
:10172000882369F4D4018C9199270E941C16892B77
:1017300031F0C4010E943907F80181831682D40177
:101740002C91822F9927C0970A9720F4822F8053DB
:10175000F8018083D4018C918A3309F049C0F801E3
:10176000F582E482D682F1E0F98342C0D4018C9103
:10177000843231F482E0F80181831682F5E0F98346
:10178000D4012C91822F9927C0970A9728F40F2E05
:10179000F0EDBF2EF02DB20E2A3341F4F801B082E5
:1017A000F582E482D682F1E0F98322C0CC2001F5F3
:1017B000D4018C918C32E1F4F8018481A81BA683BA
:1017C000F2E0F98315C0F8018281882319F4D4016D
:1017D0008C918283F40180818C3251F4F3E0F9839F
:1017E00007C0F8018381882319F4D4018C91838385
:1017F000DA940894E11CF11CBFEFDB1621F0089489
:10180000811C911C75CF21960FB6F894DEBF0FBED8
:10181000CDBFDF91CF911F910F91FF90EF90DF909F
:10182000CF90BF909F908F900895CF93DF93EC015E
:1018300087E0689FB0011124655F7F4FDE01A60F2E
:10184000B71F98818FEF8C93FD01968313821482CA
:101850008F81882371F481E08F83EB81FC8102808A
:10186000F381E02D2DEA3CE0AD01BD0188810995B1
:1018700012C0833081F48A81882369F484E08F83E5
:10188000EB81FC810280F381E02D2DEA3CE0AD018B
:10189000BD0188810995DF91CF9108950F931F9322
:1018A000182F062FB901A7E0B0E0E3EDF9E024EA34
:1018B00035E0808188232CF589E990E0FD01E89FDF
:1018C000D001E99FB00DF89FB00D1124FD01E20F8A
:1018D000F31F1083118202835483438376836583CD
:1018E000FD013B96E20FF31F14821382168352967A
:1018F000A20FB31FFD0114821382168380E090E0D3
:1019000009C01197E959F0408FEFAF3FB80789F64A
:101910008FEF9FEF1F910F910895282F97E0E3ED30
:10192000F9E08081821789F4892F992787FD9095A6
:1019300029E930E0AC01429FC001439F900D529FC6
:10194000900D11248C559A4F08959150E959F0400B
:101950009F3F39F780E090E008951F93162F0E9473
:101960008D0CFC01892B59F010878781813019F487
:1019700082E0878304C0843011F485E087831F915F
:101980000895DC018FEF8C93FD01178211863B9641
:10199000CD0149969283818390E495838DEF868370
:1019A00014821382FD017296A75ABF4FB283A1839E
:1019B00095838683148213820895CF93DF93C3EDBA
:1019C000D9E061E0CE010E94C10CC959D04085E048
:1019D000CB30D807B1F7DF91CF9108951F93162F21
:1019E0000E948D0CFC01892B51F012878185823079
:1019F00019F481E0818703C0813009F411861F91B9
:101A000008950F931F93062F681760F0182F812FEA
:101A10000E948D0C009719F061E00E94C10C1F5FBD
:101A20000117A8F71F910F9108950F931F93CF935C
:101A3000DF93EC01162F8A81882309F044C08F813F
:101A4000882329F4198260E0CE010E94150C11232D
:101A500069F08F81813051F406E61EE00E94D70FB5
:101A6000C8010197F1F78F818130C1F38F818230F6
:101A700081F4ED81FE81309749F0898127E0829FD2
:101A8000C00111240B968C0F9D1F099583E08F8355
:101A90001AC08530C1F4ED81FE81309791F08981C3
:101AA00021E030E0281B3109C901880F991F880FF8
:101AB000991F880F991F821B930B0B968C0F9D1FEC
:101AC000099586E08F83DF91CF911F910F91089543
:101AD0000F931F938C0161E00E94150DF801818125
:101AE00027E0829FC00111240B96E80FF91F808127
:101AF0008C3F19F020E030E00AC020E0948183811F
:101B0000981708F421E081E08227282F332780E00E
:101B100090E0232B11F481E090E01F910F91089544
:101B2000CF93DF93EC0161E00E94150D29818F8135
:101B3000833079F487E0289FC00111240B96FE01C1
:101B4000E80FF91F80818C3FB1F49481838198174D
:101B500090F0898127E0829FC00111240B96FE013D
:101B6000E80FF91F84818F5F848320E093818917B8
:101B700040F421E006C061E0621BCE010E94150C1A
:101B8000E8CF822F9927DF91CF9108950F931F936C
:101B9000CF93DF938C0161E00E94150DE8018981EC
:101BA00027E0829FC00111240B96080F191FF8012E
:101BB00084810180F281E02DE80FF11D8081992759
:101BC000DF91CF911F910F91089561E00E94150D53
:101BD00008950E948D0C009719F061E00E94150D88
:101BE0000895FF920F931F93CF93DF93F82E0E94D7
:101BF0008D0CEC018985882391F1813051F006E646
:101C00001EE00E94D70FC8010197F1F78985813046
:101C1000C1F7898127E0829FC00111240B96BE0184
:101C2000680F791FFB018CEF8083F6821482AB81F1
:101C3000BC81FD01A281B3812EEE3CE0AB018F2D72
:101C4000FD0109958985813051F406E61EE00E9468
:101C5000D70FC8010197F1F789858130C1F360E0A2
:101C6000CE010E94C10CDF91CF911F910F91FF9087
:101C70000895AF92BF92DF92EF92FF920F931F935E
:101C8000CF93DF938C01EC018985882311F481E0E7
:101C90008987F80130810F2EFBE0AF2EBB24F02D99
:101CA000A00EB11E818127E0829FC0011124750121
:101CB000E80EF91EE7018B81E981FA81E80FF11D39
:101CC0006083982F9F5F9B838D81981711F0452B20
:101CD00091F1D32E8EEFF7018083368393831482A4
:101CE000E8018985823059F4C6E6DEE00E94D70F0C
:101CF000CE010197F1F7F80181858230B9F382E0D6
:101D0000E8018987EB81FC810280F381E02D2EEED2
:101D10003CE0A701B7018D2D0995298181E0821B47
:101D2000898327E0829FC0011124F501E80FF91F84
:101D300014821382D682C801DF91CF911F910F9137
:101D4000FF90EF90DF90BF90AF900895DF92EF92F9
:101D5000FF920F931F93CF93DF93EC0129818C01A6
:101D6000055F1F4F87E0289FC0011124F801E80F8D
:101D7000F91F80818C3F09F046C0948183819817B8
:101D800008F441C039C00E94D70F86E69EE0019753
:101D9000F1F78F818430B9F38530B9F4ED81FE819C
:101DA000309789F0898121E030E0281B3109C90191
:101DB000880F991F880F991F880F991F821B930BFB
:101DC000800F911F099586E08F83F70194818381AD
:101DD000981790F4D98283E08F8387E0D89EC00162
:101DE0001124F801E80FF91F80818C3FD9F4948108
:101DF00083819817B8F01BC060E0CE010E94C10C2F
:101E0000C0E0D0E014C081E0D82ED21A87E0D89E7E
:101E1000C00111247801E80EF91E8F81843009F485
:101E2000B2CFBACF61E06D19CE010E94150CCE0180
:101E3000DF91CF911F910F91FF90EF90DF90089568
:101E4000DC01FB0180818823C1F0813410F49927E3
:101E50000FC08B3518F4805899270AC0813610F4CA
:101E6000992706C08B3718F48052992701C099270B
:101E70008D9331968081882341F71D92CD0108957D
:101E8000109235058FEF80934E058093490580931E
:101E9000440580933F051092530584E080933E05EE
:101EA00008951F9310E80E94C1128823E1F38FE781
:101EB0000E94E9121150B9F71F9108951F93CF9313
:101EC000DF9314E067C0A0913605B091370580918B
:101ED0003E05813099F082301CF4882341F004C023
:101EE0008230B1F0833011F12FEF3FEF2FC081E04E
:101EF00080933E058C91282F332728C082E0809361
:101F00003E05ED018B8199279C012D5F3F4F1EC03F
:101F1000FD018681282F33278381882319F41093AC
:101F20003E0514C083E080933E0510C0ED019C8106
:101F3000E981FA81E90FF11D80819F5F9C83282F41
:101F400033278B81981710F010933E05332324F02C
:101F5000822F0E94E9121EC050913505852F8150B5
:101F6000809335058823A1F020E030E041E066E36E
:101F700075E0E22FFF27EE0FFF1FE60FF71F8281AC
:101F80009381918380832F5F3F4F4F5F541789F771
:101F900010923E0580913505882329F00E94C112D8
:101FA000882309F090CFDF91CF911F9108950E946F
:101FB000CF1299230CF4D2C0482F20915305223020
:101FC00011F1233034F4222359F0213009F0C1C03B
:101FD00013C0233009F47FC0243009F0BAC087C091
:101FE0008D5F823018F04C3F09F0B3C04093590523
:101FF00081E080935305ADC083508093580582E003
:1020000080935305A6C08093540584E080935305C4
:1020100020E030E0EFE3F5E08081481721F52093E0
:102020005505822F992787FD9095FC01EE0FFF1F24
:10203000EE0FFF1FE80FF91FE15CFA4F0180F281FC
:10204000E02DF0935705E0935605209159059091A6
:1020500058058581891768F020834683138283E0C1
:102060008093530506C02F5F3F4F359624303105CE
:1020700099F680915805882309F06BC08091550529
:10208000992787FD9095FC01EE0FFF1FEE0FFF1FB4
:10209000E80FF91FE15CFA4F0380F481E02D809195
:1020A0005305843011F46FEF01C060E0842F09956F
:1020B00080915505992787FD9095FC01EE0FFF1F34
:1020C000EE0FFF1FE80FF91FE15CFA4F8FEF8083DF
:1020D000109253053EC0E0915605F091570583815B
:1020E000A181B281A80FB11D4C938F5F8383809132
:1020F000580581508093580518165CF1809155055C
:10210000992787FD9095FC01EE0FFF1FEE0FFF1F33
:10211000E80FF91FE15CFA4F0380F481E02D2430D1
:1021200011F46FEF01C060E0809154050995809132
:102130005505992787FD9095FC01EE0FFF1FEE0FC7
:10214000FF1FE80FF91FE15CFA4F8FEF80831092B9
:1021500053050E94CF1299230CF02ECF0E945E0FE0
:102160000895CF93DF93EC0180913505833030F0F3
:102170000E94D70F809135058330D0F7E82FFF27D5
:10218000EE0FFF1FEA5CFA4FD183C0838F5F80930D
:102190003505813021F410923E050E945E0FDF91DB
:1021A000CF910895CF92DF92EF92FF920F931F93FA
:1021B000CF93DF93082FEB017A01690188237CF428
:1021C000992787FD90959F938F9386E693E09F9341
:1021D0008F930E94130B0F900F900F900F908E8192
:1021E00088237CF4992787FD90959F938F9385E8AA
:1021F00093E09F938F930E94130B0F900F900F907B
:102200000F901FEF0FC0122F09C080818823DCF3CD
:102210002F5F3F4F359624303105B9F70E94D70F15
:1022200011232CF420E030E0EFE3F5E0EECF812F36
:10223000992787FD9095FC01EE0FFF1FEE0FFF1F02
:10224000E80FF91FE15CFA4F0083F282E182D48249
:10225000C382CE010E94B110DF91CF911F910F91E7
:10226000FF90EF90DF90CF900895809135058823FF
:1022700031F00E94D70F809135058823D1F708955A
:10228000EF92FF920F931F93CF93DF937C01009700
:1022900039F487EA93E00E94B90A8FEF9FEF0CC1EF
:1022A000EC0109811A81F8016285613019F0AAE513
:1022B000B5E008C081E080935A0584E080935B0517
:1022C000ACE5B5E081E0ED018993FD018183AE01CC
:1022D0004F5F5F4FE8018B81882309F0DFC02A81BF
:1022E0002A3F08F0DBC0293F41F489818F3F29F460
:1022F0008881882309F0D2C0C7C0F801818199275D
:102300003327322F2227282B392B8081882311F065
:102310002F5F3F4FDA012D93832F9927EA0189839D
:10232000FD0131962A30310520F480E2ED018983E8
:102330003196613019F482E1819315C0623009F45D
:1023400055C02436310518F480E2819304C083E03F
:10235000283E380718F480E2819303C020513742A9
:1023600010F480E2819382E28193E8018B858823D7
:1023700009F49EC0D8012BE0813410F499270FC0D6
:102380008B3518F4805899270AC0813610F49927A4
:1023900006C08B3718F48052992701C09927819382
:1023A0002F5FED018C85882329F482E281932C3103
:1023B00030F00AC011962B31F9F682E2819380E267
:1023C00081932F5F2C31D8F3613039F462EB73E0E5
:1023D000CF010E94200FFC011EC0633039F469EB6D
:1023E00073E0CF010E94200FFC0115C0662339F471
:1023F0006DEB73E0CF010E94200FFC010CC0623036
:1024000051F461EC73E0CF010E94200FFC011192A6
:10241000EC01198231968AE595E00E2F081BC02F3A
:10242000DD27F7018581992787FD90958C179D07FA
:10243000F4F48DEC93E00E94B90A802F82958F709E
:102440000EEE13E0F801E80FF11D80810E94810A71
:10245000FE01EF70F070E00FF11F80810E94810A91
:102460000E94AC0A0E947E0A8FEF9FEF25C0402F8A
:1024700055276AE575E0E70189819A810E94471333
:102480000B8380E090E018C0FA018FEF819389EF11
:10249000EA01898331962FEF39EF4BCFFA018FEFA5
:1024A000819389EFEA01898331962FEF39EF41CF8C
:1024B00082E281932BE083CFDF91CF911F910F9127
:1024C000FF90EF900895FC01A181B281838199274B
:1024D00087FD9095882321F1282F8C91813410F469
:1024E000992719C08B3518F4805E992714C081365E
:1024F00010F4992710C08B3718F4805299270BC01D
:10250000813C10F4992707C08B3D20F499278F77E1
:10251000907001C099278C93215011F01196DDCF56
:1025200080E090E008951F920F920FB60F92112451
:102530008F939F9380916D0A90916E0A019690936C
:102540006E0A80936D0A9F918F910F900FBE0F902E
:102550001F90189582E085BD8FEF98E090938900D9
:102560008093880010928500109284001092800061
:102570008BE080938100EFE6F0E0808182608083D1
:1025800008958091F00A9091F10A20E030E08F5F89
:102590008F77891711F021E030E0C90108959091FB
:1025A000EF0A8091730B981719F42FEF3FEF0FC0CC
:1025B0008091730BEFE6FAE0E80FF11D8081282F80
:1025C00033278091730B8F5F8F778093730BC901D3
:1025D00008959091F00AE2EFFAE0E90FF11D80838F
:1025E0008091F00A8F5F8F778093F00AE1ECF0E042
:1025F00080818062808308951092F00A1092F10A1F
:102600001092EF0A1092730BE1ECF0E088E0808307
:1026100080818061808387E08093C4001092C50030
:10262000808180688083089510929A0511B88FEF99
:1026300082B93E98469AF8944B9B02C03D98459AC1
:10264000789481E080939C05F8944B9B02C03C9861
:10265000449A789481E080939B053F98479A089527
:102660000F931F9303E710E0F8018081877F808339
:102670000E941413DB9AF801808188608083E8E669
:10268000F0E08081886080831F910F910895FB01A5
:10269000DC0102C001900D9241505040D8F70895DE
:1026A000FB01DC014150504048F001900D920020A8
:1026B000C9F701C01D9241505040E0F70895AEE0C7
:1026C000B0E0E5E6F3E10C943C168C0186E08C83E7
:1026D0001A8309838FEF9FE79E838D83CE01019636
:1026E0000E947B13EF81F885E00FF11F1082E4E078
:1026F0002E960C945816ABE0B0E0E1E8F3E10C94B0
:1027000030164C013B016A01FC011782168283815D
:1027100081FD03C08FEF9FEFDCC1F4012381F30142
:1027200023FD859123FF81913F01882309F4CEC1C8
:10273000853239F423FD859123FF81913F01853254
:1027400029F4B40199270E948315E7CF00E04424BF
:1027500055243AE00032B0F48B3269F08C3228F420
:10276000803251F0833271F40BC08D3239F08033F6
:1027700049F4016028C00260046025C0086023C0DD
:10278000006121C007FD2BC0282F20532A3078F488
:1027900006FF06C0539EC0011124522E580E13C0CE
:1027A000439EC0011124422E480E00620CC08E329E
:1027B00021F406FD8BC1006406C08C3611F400685C
:1027C00002C0883661F4F4018381F30183FD8591B1
:1027D00083FF81913F01882309F46FC0BBCF982FFD
:1027E0008554833018F08052833038F424E030E090
:1027F000C20ED31E8FE389830FC0933631F0933717
:1028000099F0933509F05BC023C0F601808189837C
:1028100022E030E0C20ED31E7E010894E11CF11CC0
:1028200051E0A52EB12C12C0F601E080F18006FD2A
:1028300003C06FEF7FEF02C0652D772722E030E005
:10284000C20ED31EC7010E9478155C010F7713C01A
:10285000F601E080F18006FD03C06FEF7FEF02C05C
:10286000652D772722E030E0C20ED31EC7010E94FB
:102870006D155C01006803FF07C01BC0B40180E256
:1028800090E00E9483154A94842D9927A816B906D2
:10289000A8F30FC0F70107FD859107FF81917F0124
:1028A000B40199270E94831541104A940894A10805
:1028B000B108A114B10471F706C190E03EC094368E
:1028C00011F0993691F507FF0AC0F6016081718118
:1028D0008281938124E030E0C20ED31E0DC0F60148
:1028E000808191819C01B901882777FD8095982F7F
:1028F00042E050E0C40ED51E4FE6B42EB02297FF42
:1029000009C090958095709561957F4F8F4F9F4F2F
:1029100050E8B52A8E010F5F1F4F2AE030E0A80172
:102920000E94B015A82EA01A4DC0953731F43FEE85
:10293000F32EF0222AE030E023C029EFF22EF0221D
:102940009F3661F0903720F4983509F0BFC012C06F
:10295000903739F0983709F0B9C005C028E030E069
:102960000FC080E1F82AF4FE02C094E0F92A20E1C9
:1029700030E006C0F4FE02C0E6E0FE2A20E132E0CC
:10298000F7FE0AC0F601608171818281938144E083
:1029900050E0C40ED51E0BC0F60180819181AC01C0
:1029A000BA0188279927E2E0F0E0CE0EDF1E8E0103
:1029B0000F5F1F4FA8010E94B015A82EA01A8FE725
:1029C000B82EBF20B6FE10C0FEEFBF22A51460F4E3
:1029D0002B2D332724FF1AC022FF02C0052D09C06A
:1029E0002FEEB222052D01C00A2D2B2D332724FFF7
:1029F0000EC0FE01EA0DF11D8081803319F439EE1D
:102A0000B32209C00F5F22FF06C004C0052D822F2C
:102A1000867809F00F5FEB2CFF24E3FC14C0E0FE86
:102A20000FC0041510F05A2C0BC0542C501A5A0C1D
:102A3000042D06C0B40180E290E00E9483150F5F70
:102A40000415C0F304C0041510F4401A01C0442456
:102A5000E4FE10C0B40180E390E00E948315E2FE22
:102A60001EC0E1FE03C088E590E002C088E790E068
:102A7000B4010CC08E2D867891F0E1FE02C08BE28D
:102A800001C080E2B7FC8DE2B40199270E94831552
:102A900006C0B40180E390E00E9483155A94A51407
:102AA000C0F3AA94FE01EA0DF11D8181B4019927BA
:102AB0000E948315AA2039F0F4CFB40180E290E09F
:102AC0000E9483154A944420C1F727CEF4018681E1
:102AD0009781E0E12B960C944C16FC010590615017
:102AE00070400110D8F7809590958E0F9F1F089524
:102AF000FC016150704001900110D8F780959095CD
:102B00008E0F9F1F08950F931F93CF93DF938C0118
:102B1000EB018B81992781FF1BC082FF0DC02E81A5
:102B20003F818C819D812817390764F4E881F98100
:102B30000193F983E88306C0E885F985802F09951C
:102B4000892B31F48E819F8101969F838E8302C0F1
:102B50000FEF1FEFC801DF91CF911F910F910895E3
:102B6000FA01AA27283051F1203181F1E8946F93BE
:102B70006E7F6E5F7F4F8F4F9F4FAF4FB1E03ED064
:102B8000B4E03CD0670F781F891F9A1FA11D680F02
:102B9000791F8A1F911DA11D6A0F711D811D911D35
:102BA000A11D20D009F468943F912AE0269F1124AA
:102BB0003019305D3193DEF6CF010895462F47700E
:102BC000405D4193B3E00FD0C9F7F6CF462F4F7069
:102BD000405D4A3318F0495D31FD4052419302D0C7
:102BE000A9F7EACFB4E0A69597958795779567956D
:102BF000BA95C9F700976105710508959B01AC016D
:102C00000A2E06945795479537952795BA95C9F793
:102C1000620F731F841F951FA01D0895991B79E0F3
:102C200004C0991F961708F0961B881F7A95C9F75C
:102C30008095089585FD0FC0806291110CC081566A
:102C40008A51E0F708959111089581568A5108F448
:102C50008052855808959927882708952F923F928A
:102C60004F925F926F927F928F929F92AF92BF929C
:102C7000CF92DF92EF92FF920F931F93CF93DF9348
:102C8000CDB7DEB7CA1BDB0B0FB6F894DEBF0FBEA5
:102C9000CDBF09942A88398848885F846E847D84F2
:102CA0008C849B84AA84B984C884DF80EE80FD80F4
:102CB0000C811B81AA81B981CE0FD11D0FB6F8946A
:0C2CC000DEBF0FBECDBFED010895FFCFB9
:102CCC00454F46210A00446964206E6F7420666982
:102CDC006E64206368616E6E656C210A00526563D8
:102CEC0065697665642064697265637420657272C7
:102CFC006F72206E756D626572206F6E206F7065DD
:102D0C006E3A2025640A0052656365697665642015
:102D1C0063616C6C6261636B206572726F72206EA2
:102D2C00756D626572206F6E206F70656E3A20252E
:102D3C00640A00556E6B6E6F776E20636F6D6D61FC
:102D4C006E6420253032580A0A00534E483A2070DF
:102D5C0061636B65742074797065206973206E6F84
:102D6C00742046535F524541442C206275743A20BE
:102D7C0025640A00E60500000000000000000000C9
:102D8C000000000000000000000000000000000037
:102D9C000000000000000000000000000000000027
:102DAC000000000000008905000000002323232000
:102DBC0058532D313534312F58443230333120763D
:102DCC00302E312023232300202575204279746571
:102DDC00732066726565002C202564206B487A0090
:102DEC005365742073746174757320746F3A202565
:102DFC00730A0041535349474E00002D0024003FF5
:102E0C0000494E495449414C495A450052454E419E
:102E1C004D450053435241544348004344004D4BED
:102E2C0044495200524D44495200434F4D4D414E7E
:102E3C00443A2000434D443D25730A004452495600
:102E4C00453D25630A004E414D453D0041434345F8
:102E5C0053533D00545950453D00494C4C45474156
:102E6C004C20434F4D4D414E442100494C4C45475D
:102E7C00414C2044524956453A20004E4F204F5069
:102E8C00454E20534C4F5420464F52204F50454EE8
:102E9C0021004E414D4520434F4E56455253494F0C
:102EAC004E204558434545445320425546464552CD
:102EBC00210046494C45204F50454E204552524F1B
:102ECC005200453D004E4F20434F52524543542033
:102EDC00434D443A2000554E4B4F574E2046494CDB
:102EEC004520545950453A2000554E4B4F574E20D3
:102EFC0046494C4520414343455353205459504572
:102F0C002000575249544520544F204449524543C0
:102F1C00544F525921003031323334353637383929
:102F2C0061626364656621212121207375626D697C
:102F3C00742077697468206368616E6E656C6E6F5F
:102F4C003D25640A0021212121207375626D69746D
:102F5C002077697468207061636B65742D3E6368BB
:102F6C00616E3D25640A0050204953204E554C4C4F
:102F7C0021007864323033310064697200707267FA
:102F8C0000626C6F636B73206672656500434F4E15
:102F9C0056455253494F4E204E4F5420504F535389
:102FAC0049424C452100B110D2104011631230310E
:0E2FBC00323334353637383961626364656606
:00000001FF
