:100000000C94A4020C94C1020C94C1020C94C10281
:100010000C94C1020C94C1020C94C1020C940D0307
:100020000C94C1020C94C1020C94C1020C94C10244
:100030000C94C1020C94C1020C94C1020C94C10234
:100040000C94C1020C94C1020C94C1020C94C10224
:100050000C94C3020C94E9020C94C1020C94C102EA
:100060000C94C1020C94C1020C94C1020C94C10204
:100070000C94C1020C94C1020C94C10252656365D8
:100080006976656420646972656374206572726F55
:1000900072206E756D626572206F6E206F70656E76
:1000A0003A2025640A0046494C45204E4F542046CC
:1000B0004F554E440A00446964206E6F742066698F
:1000C0006E64206368616E6E656C210A005365740E
:1000D00074696E672066696C65206E6F74206F703E
:1000E000656E206F6E2073656361646472202564A1
:1000F0000A002323232058532D313534312F5844FF
:10010000323033312076302E3120232323005853D0
:100110002D313534312F5844323033312056302E82
:1001200031002042455441350080204F4B8100531F
:1001300020534352415443484544820809949596BC
:1001400097989B0103999C02039A022050524F54A6
:10015000454354204F4E9D054944204D49534D4140
:100160005443489E9FA0A1A253594E54415803A7FF
:10017000BE0004464F554E44B20704505245534505
:100180004E54B34F564552464C4F5720494E2007C8
:10019000B4000B4C41524745BC0220002006BD0074
:1001A0000406BF0020455849535453C000205459F9
:1001B0005045204D49534D41544348C10C424C4F8A
:1001C000434BC2C30A20545241434B204F52205349
:1001D0004543544F52C60C4348414E4E454CC744CC
:1001E000495203C80546554C4CCA44524956450429
:1001F0000159CD0920080ACE4255464645520B53B7
:100200004D414C4CCF494D414745200020494E5669
:10021000414C4944E3434C4F434B20554E535441CA
:10022000424C45FF53657420737461747573207478
:100230006F3A2025730A008046494C45815245415A
:100240004482575249544583204552524F5284208C
:100250004E4F5420854449534B20864F50454E877E
:100260005245434F524488504152544954494F4E8D
:10027000208953454C45435445448A494C4C454795
:10028000414C8B20544F4F208C4E4F20FF494E49FC
:100290005449414C495A4500494C4C4547414C2032
:1002A000434F4D4D414E442100545950453D00416E
:1002B00043434553533D004E414D453D25730A0090
:1002C00044524956453D25630A00434D443D25733C
:1002D0000A00434F4D4D414E443A2025730A0045D4
:1002E0003D0046494C45204F50454E204552524F07
:1002F00052004E414D4520434F4E56455253494FB3
:100300004E204558434545445320425546464552A4
:1003100021004E4F204F50454E20534C4F54204605
:100320004F52204F50454E2100494C4C4547414CBF
:100330002044524956453A200057524954452054CA
:100340004F204449524543544F52592100554E4B7A
:100350004F574E2046494C45204143434553532077
:10036000545950452000554E4B4F574E2046494C4E
:100370004520545950453A20004E4F20434F525289
:1003800045435420434D443A2025730A004F5045BD
:100390004E2046494C453A20464F52204348414E54
:1003A0003A2025642057495448204E414D453A2073
:1003B00025730A00434F4E56455253494F4E204E27
:1003C0004F5420504F535349424C4521005020492F
:1003D00053204E554C4C2100212121212073756260
:1003E0006D69742077697468207061636B65742D22
:1003F0003E6368616E3D25640A002121212120733E
:1004000075626D69742077697468206368616E6EC7
:10041000656C6E6F3D25640A00526567697374658B
:10042000722070726F766964657220257020666F25
:100430007220272573270A006E6F7420666F756E11
:10044000642C2072657475726E696E6720646566CF
:1004500061756C740A00666F756E64202570206982
:100460006E20736C6F742025642028646566617546
:100470006C743D2570290A0070726F76696465722C
:100480005F6C6F6F6B757020666F72206472697637
:10049000652025640A00526567697374657220706F
:1004A000726F7620257020666F722064726976659F
:1004B0002025642077697468206461746120257048
:1004C00020696E20736C6F742025640A0044656691
:1004D00061756C74206973206E6F74207265676932
:1004E0007374657265642C20666F727761726469DB
:1004F0006E6720746F207365727665720A004472AD
:10050000697665202564206E6F7420757365642C90
:100510002063616E6E6F7420646F2072656C61740D
:100520006976652061737369676E210A00415353D0
:1005300049474E3A20647269766520256420746FBD
:1005400020272573270A000011241FBECFEFD0E11A
:10055000DEBFCDBF11E0A0E0B1E0E0E6F7E302C00E
:1005600005900D92A639B107D9F719E0A6E9B1E0D7
:1005700001C01D92A938B107E1F70E947C070C94D5
:10058000AF1B0C9400002F922FB60F930091C60062
:1005900078941F93CF93DF9310910409C4E8D8E0B7
:1005A000C10F08F4D3950883DF91CF9113951F777E
:1005B00000918809101719F01093040929F400918B
:1005C00087090395009387091F910F912FBE2F90E4
:1005D00018952F922FB60F93CF93DF9300910609B2
:1005E000C09105090C1771F0C7E0D9E0C00F08F4FD
:1005F000D395C881C093C60003950F770093060971
:10060000789405C00091C1000F7D0093C100DF9177
:10061000CF910F912FBE2F9018952F922FB60F9339
:1006200000912900087051F4009128000F7C00937C
:100630002800009127000063009327000F912FBE30
:100640002F901895FC01F8944B9904C08091B20347
:10065000882311F03D98459A789481E08093B40303
:100660004B9B28C03699FCCF45983D9A1092B40315
:10067000379903C022E030E002C020E030E080B1D2
:100680008095992791838083F8944B9904C0809139
:10069000B203882311F03C98449A789481E08093C7
:1006A000B3034B9B07C0369BFCCF44983C9A1092F7
:1006B000B30302C021E030E0C90108950E9425186B
:1006C00088E991E00E94E9040895EF92FF920F9368
:1006D0001F93CF93DF93CDB7DEB722970FB6F89471
:1006E000DEBF0FBECDBF8E010F5F1F4F0F2EF8E98B
:1006F000EF2EF1E0FF2EF02D0AC0482F42706981E5
:10070000C7010E9435079093970180939601C80115
:100710000E94220380FFF1CF0197F1F0F8944B99EA
:1007200004C08091B203882311F03D98459A7894D3
:1007300081E08093B403F8944B9904C08091B20394
:10074000882311F03C98449A789481E08093B30315
:100750003E98469A3F98479A22960FB6F894DEBF85
:100760000FBECDBFDF91CF911F910F91FF90EF9002
:100770000895EF92FF920F931F93CF93DF93CDB71E
:10078000DEB721970FB6F894DEBF0FBECDBFF89449
:100790004B9904C08091B203882311F03D98459A8B
:1007A000789481E08093B403F8944B9904C08091CD
:1007B000B203882311F03C98449A789481E08093A6
:1007C000B3033E98469A3F98479A08E911E04B9B3D
:1007D00069C0359BFCCF41E0BE016F5F7F4FC80110
:1007E0000E941605909397018093960186FD03C0A1
:1007F000EE24FF2406C047983F9AEE24FF24689415
:10080000E1F8898181B9809582B946983E9A4B9BDF
:1008100049C0349B0AC0359B08C03F98479A3E9810
:10082000469AF8944B9947C042C03599F0CF4B9BFC
:1008300039C0349BFCCF3E98469A3F98479A40E097
:10084000BE016F5F7F4FC8010E941605909397010C
:1008500080939601882339F44B9B24C03499FCCFB4
:10086000EF2809F4B4CFF8944B9904C08091B203F7
:10087000882311F03D98459A789481E08093B403E1
:10088000F8944B9904C08091B203882311F03C98EE
:10089000449A789481E08093B3033E98469A3F98B7
:1008A000479A20C03E98469A3F98479A1BC080912D
:1008B000B203882311F03D98459A789481E08093A3
:1008C000B403F8944B9904C08091B203882311F0CB
:1008D0003C98449A789481E08093B3033E98469A7A
:1008E0003F98479A21960FB6F894DEBF0FBECDBF52
:1008F000DF91CF911F910F91FF90EF9008951F937B
:100900004B9965C03E98469A3F98479A1092970136
:100910001092960111E044983C9A1092B303809192
:10092000B403882321F445983D9A1092B403449867
:100930003C9A1092B3031093B203F89489B13D9896
:10094000459A78941093B4034B991BC03699FCCF09
:1009500045983D9A1092B40360B1F89489B13C98DF
:10096000449A78941093B3036095772788E991E0CF
:100970000E94BF059093970180939601369BFECF0E
:10098000CACF80919601909197019C012070307F91
:1009900080E22030380749F445983D9A1092B4031C
:1009A0001092B2030E94650310C01092B203F89433
:1009B0004B9B02C03D98459A789481E08093B403A4
:1009C0002050304411F40E94B9030E9425181F9151
:1009D0000895FC0180914B028183805F80934B02DC
:1009E00088E080831186138212820895CF93DF936B
:1009F000E0914C02F0914D028783813041F4611502
:100A0000710521F0EB018981808701C0108681E0AA
:100A10008683DF91CF91089510924B0220E040E051
:100A200069E48CE192E00E9443080895CF92DF923E
:100A3000EF92FF920F931F93CF93DF937C018B0173
:100A4000C42EFC0185810F2EFFE0DF2EF02DD82271
:100A5000C281D381FFE0DF1671F580914A02ACE1DB
:100A6000B2E0FD01E80FF11D8081FB0180839091D0
:100A70004A02A90FB11DFD018181882319F400E408
:100A800010E002C000E010E0CC2009F068C0892F1F
:100A90008F5F80934A02ACE1B2E0FD01E80FF11DE7
:100AA0008081882309F05BC020E040E060E0CD0158
:100AB0000E94430854C02097B9F499279F938F93BD
:100AC0008DEC90E09F938F930E94440D20E040E0D6
:100AD0006DE38CE192E00E94430803E810E00F9080
:100AE0000F900F900F903BC0CE010E94D610CE0108
:100AF0000E94B710F8018083898127E0829FC0019E
:100B000011240B96FE01E80FF91F80818C3F61F4E0
:100B1000248133272F5F3F4F838199272817390777
:100B20001CF000E410E002C000E010E0CC20B9F4BA
:100B3000CE010E94E210882391F4CE010E948F1012
:100B4000882321F0CE010E948F1109C0DD2039F4E5
:100B5000F70181810E941612F70113821282F701B8
:100B600084819927982F8827800F911FDF91CF913B
:100B70001F910F91FF90EF90DF90CF900895DF923B
:100B8000EF92FF920F931F93CF93DF93CDB7DEB712
:100B900021970FB6F894DEBF0FBECDBF7C01D62ED5
:100BA0008FE3681709F0A7C0F7018581282F332745
:100BB000C901807F9070803F910531F0C9018F702D
:100BC00090700F9709F023C1F70184812081992744
:100BD0008F70907033278217930709F02EC1168209
:100BE0008581182F1F70F0924D02E0924C02168200
:100BF0008185E80FF11D12868F5FF70181871F3015
:100C000061F4B701675F7F4F818126EF34E04CE1EB
:100C100052E0815F0E94350910C0B701675F7F4FC6
:100C2000F701818100E0113009F401E026EF34E0A2
:100C30004CE152E0810F0E94AA0B882344F0E0911E
:100C40004C02F0914D0286818823D1F022C0992771
:100C500087FD90959F938F938CE790E09F938F9360
:100C60000E94440D20E040E06AE48CE192E00E94A2
:100C7000430822E030E00F900F900F900F9038C0A3
:100C80000E942113E0914C02F0914D02868188234D
:100C9000B9F38781813041F44085678120E08CE1A0
:100CA00092E00E94430807C0678120E040E08CE1A9
:100CB00092E00E9443081F3029F4F7018181815F8F
:100CC0000E941612E0914C02F0914D028781882318
:100CD00041F0F7018181810F0E94161220E030E07F
:100CE00007C0F7018181810F0E94DA1020E030E017
:100CF000F70111868EC0262F33278901007F1070DF
:100D000000361105F9F00136110544F400321105E1
:100D100071F00034110509F074C009C0003E1105DE
:100D200009F448C0003F110509F06BC05FC0F7012E
:100D300080812F70307099272817390709F061C01A
:100D4000D4825FC0F7018481208199278F709070D1
:100D500033278217930709F054C06583962F9F703D
:100D60009F3081F08181890F0E94810FF701938369
:100D70008283892B39F486EB90E00E94980D20E461
:100D800030E002C020E030E0F7018481807F8034D1
:100D9000C1F5232B41F441E0BE016F5F7F4FC701D6
:100DA0000E9416052EC086EA90E00E94980DF70179
:100DB000148227C0F7018481208199278F70907059
:100DC000332782179307E9F46583962F9F709F302E
:100DD00039F48181682F615F77270E94F50F11C078
:100DE000F7018181890F0E9416120BC0F7018481DF
:100DF000208199278F70907033278217930709F409
:100E00006583FFE5DF1619F0003E110531F420E09F
:100E100030E0F7011482158213C0F701208184812C
:100E2000332799278F7090702817390719F020E819
:100E300030E006C020E030E003C020E030E0E9CF41
:100E4000F70184819927982F8827822B932B21964D
:100E50000FB6F894DEBF0FBECDBFDF91CF911F91CB
:100E60000F91FF90EF90DF900895CF93DF93EC0107
:100E70008D81282F3327C9018F7090700F9731F023
:100E8000C901807F9070803F910561F48985883722
:100E9000A8F4FE01E80FF11D62878F5F898720E0CB
:100EA00030E00EC055278A819B810E9417119B83D9
:100EB0008A83892B19F423E830E002C020E030E077
:100EC0008C819927982F8827820F931FDF91CF91CC
:100ED00008958DB79EB78958994008950E94D10C06
:100EE0008EE20E94A00C0E94D10C82EF90E00E9442
:100EF000980D0E94D10C08950F931F93389A409833
:100F00000E94EF150E94860C0E940D180E94881204
:100F10008C01DC01ED91FC9180E090E0099510934B
:100F20004F0200934E029093510280935002BC01F5
:100F3000C8010E94E6158EE492E00E94810C0E9496
:100F4000290A0E94D10F0E940C050E94411888E0D6
:100F50000E945E0378940E949B120E946E070E947A
:100F600069079F938F9380E091E09F938F930E94F6
:100F70006E0D89E999E3A0E0B0E0BF93AF939F9332
:100F80008F938FE091E09F938F930E946E0D0E944C
:100F9000D10C0E94D10C8DB79EB70A960FB6F8946B
:100FA0009EBF0FBE8DBF0E9421130E947F04FBCF06
:100FB0000F931F93CF93DF93DC01EB0100E05527E4
:100FC00040585F4FFE01E00FF11D0F5FC895202DC7
:100FD000822F99278417950719F02F3F59F0F2CFE8
:100FE0002F3F41F0FE01E00FF11DC895E02DEE23EB
:100FF00024F00BC08FE38D931EC00F5FFE01E00F46
:10100000F11DC895E02DEE23C4F3FE01E00FF11DA4
:101010000F5FC895102D103250F4412F67E372E036
:10102000CD010E94D807DC0111237CF704C01123F5
:1010300014F01D93EACFCD01DF91CF911F910F9155
:101040000895CF93DF93DC01262F643650F0862F6E
:1010500064E60E94501B805D8D93822F0E94501B7E
:10106000292F822F6AE00E94501B805DFD01819331
:10107000822F0E94501B905DED019983CF01019654
:10108000DF91CF910895CF92DF92EF92FF920F936D
:101090001F93CF93DF93162FC42ED22E7C01EC0129
:1010A0001EA68EE2F70111928A95E9F7C7010E9408
:1010B00021089C01FC018CE28193133059F481E0FA
:1010C000D81629F085E4E9018983319636C084E495
:1010D000819333C0193011F4D90103C0193431F5AB
:1010E000FBCF8A2F821BEEE0F1E0E80FF11DC895DF
:1010F000E02DED01E9831196EE2399F7ED0121969C
:10110000193089F4ED018D01CE01801BE82FFF27F6
:10111000EE5DFE4FC895E02D8E2F99270E946D1B26
:101120008993882389F7FE01319707C0412F69E22F
:1011300071E0CF010E94D807FC011CE211936C2DD5
:10114000CF010E942108FC0111936D2DCF010E9457
:101150002108FC018DE080831182FF92EF9284E2EE
:1011600092E09F938F930E94440D0F900F900F90E9
:101170000F90DF91CF911F910F91FF90EF90DF9033
:10118000CF900895FC0180818934B1F08A3438F41D
:10119000813461F08334F9F0843249F50AC0823534
:1011A00071F08335A9F08D3411F51BC089E090E012
:1011B000089582E090E0089583E090E008958181B1
:1011C0008D3419F488E090E0089584E090E008956B
:1011D00085E090E008958181843431F0883439F4D9
:1011E00003C087E090E0089586E090E0089581E0F4
:1011F00090E00895843051F1853048F4813001F158
:101200008130C0F08230C9F0833089F41CC087304F
:1012100031F1883028F48530E1F0863041F41CC08B
:10122000883001F1893019F488E191E008958FE167
:1012300091E0089580E291E0089582E291E00895BE
:1012400084E291E0089586E291E0089581E391E0DF
:10125000089588E391E0089580E491E0089583E49F
:1012600091E0089589E491E00895DF92EF92FF9272
:101270000F931F93CF93DF93D82E8B01EA0179014F
:10128000CB0101969F938F9382ED92E09F938F9372
:101290000E94440D41E065EB73E0C8010E94F10D2E
:1012A0008091B6030F900F900F900F90882319F440
:1012B00080E291E002C00E94FA089F938F938AEC2B
:1012C00092E09F938F930E94440D8091B5030F90FD
:1012D0000F900F900F908F3F19F48DE290E002C0B5
:1012E0009927C0969F938F9380EC92E09F938F9362
:1012F0000E94440D8091B9039091BA039F938F93FC
:1013000087EB92E09F938F930E94440D8FEA92E0C7
:101310000E94980D0091B803802F99270E94671BA7
:101320002DB73EB7285F3F4F0FB6F8943EBF0FBEB4
:101330002DBF892B11F0802F01C08DE20E94A00CDF
:101340000E94D10C0E949D0C89EA92E00E94980DA7
:101350000091B703802F99270E94671B892B11F0FA
:10136000802F01C08DE20E94A00C0E94D10C0E942F
:101370009D0C9091B603892F8450853068F5963086
:1013800081F0973028F4943041F0953071F407C023
:10139000973049F0983049F415C067E014C068E010
:1013A00012C06EE010C06DE00EC088E992E00E94AD
:1013B000980D20E040E06EE1CE010E9443088FEFDF
:1013C0009FEF3FC06CE09701AE018D2D0E948B0A0C
:1013D000992787FD909535C0993019F58091B5030F
:1013E0008F3F19F486EB9FEF2CC06091B903709189
:1013F000BA036F5F7F4F0E949A16882354F49701B7
:10140000AE016FE08D2D0E948B0A992787FD909584
:1014100018C060E070E080E0F701099580E090E09E
:1014200010C0933019F08FEF9FEF0BC08DE892E062
:101430000E94980D60E070E080E0F701099580E07F
:1014400090E0DF91CF911F910F91FF90EF90DF908F
:1014500008958FEF80935202809365020895CF9391
:10146000DF93982F80915202891719F4C0E0D0E0E1
:1014700007C080916502891709F04AC0C1E0D0E039
:101480006623C4F4FE01EE0FFF1FCF01880F991FE2
:10149000880F991F880F991FE80FF91FEC0FFD1F88
:1014A000EE5AFD4F0188F289E02D60E070E08AE499
:1014B00009951CC022E532E0BE01660F771FCB0103
:1014C000880F991F880F991F880F991F680F791F20
:1014D0006C0F7D1FFB01E20FF31F41895289615F91
:1014E0007F4F620F731F8785FA010995FE01EE0F8A
:1014F000FF1FCF01880F991F880F991F880F991F11
:10150000E80FF91FEC0FFD1FEE5AFD4F8FEF8083A0
:10151000DF91CF9108952F923F924F925F927F92E9
:101520008F929F92AF92BF92CF92DF92EF92FF92F3
:101530000F931F93CF93DF93082F162F7A01690122
:101540008091B5038F3F39F41092B503E091B90350
:10155000F091BA0310828091B5030E944416EC0109
:10156000892BB1F489E293E00E94980D8091B50334
:10157000805D0E94A00C0E94D10C0E949D0C20E076
:1015800040E06AE4C7010E9443088FEF90E0D0C0BA
:10159000888099808091520288230CF4C2C0809187
:1015A000650288232CF482E592E0DC01539611C099
:1015B00082E193E00E94980D0E94D10C0E949D0C44
:1015C00020E040E066E4C7010E9443088FEF90E00E
:1015D000AFC02D012091BB035D010894A11CB11C7B
:1015E0008091B9039091BA03F50192838183258399
:1015F000702EFD011183F501068323831482F4010B
:101600002285338521153105B1F0C501F901099510
:1016100088238CF482EF92E00E94980D0E94D10CF6
:101620000E949D0C20E040E062E2C7010E94430856
:101630008FEF90E07DC0123009F476C0153009F4C8
:1016400073C022243324163021F4F401008511855F
:1016500002C000E010E0872D0E94810F892BA1F0CD
:1016600082EE92E00E94980D0E94D10C0E949D0C87
:1016700020E040E066E4C7010E944308872D0E94F5
:1016800016128FEF90E054C09801AE01622D872DA5
:101690000E94420F382E882324F58FED92E00E949D
:1016A000980D832D82958F700FE411E0F801E80FFB
:1016B000F11D80810E94A00C832D8F70080F111DD9
:1016C000F80180810E94A00C0E94D10C0E949D0C08
:1016D00020E040E066E4C7010E9443088FEF90E0FD
:1016E00027C0F201D28AC18A70829201285F3F4FDF
:1016F000C2010F96F9019283818382E085838DEF89
:10170000868314821382F401A681B7810FE21AE066
:10171000A501672D8A819B81FD01099580E090E0FC
:1017200007C0A2E5B2E055CF22243324239491CF01
:10173000DF91CF911F910F91FF90EF90DF90CF90AD
:10174000BF90AF909F908F907F905F904F903F9011
:101750002F900895CF92DF92EF92FF920F931F93F5
:10176000CF93DF93182F7B01EA016901CB0101962A
:101770009F938F93812F99279F938F938DE893E069
:101780009F938F930E94440D40E065EB73E0C70187
:101790000E94F10D8091B6032DB73EB72A5F3F4FEF
:1017A0000FB6F8943EBF0FBE2DBF882391F0823054
:1017B00081F00E94FA089F938F9389E793E09F93AB
:1017C0008F930E94440D1092B6030F900F900F90CC
:1017D0000F908091B7038823C9F08335B9F0803525
:1017E000A9F086E693E00E94980D8091B7030E94CD
:1017F000A00C0E94D10C0E949D0C20E040E060E40F
:10180000CE010E9443088FEF9FEF50C08091B80334
:101810008823D9F08735C9F08235B9F08134A9F031
:101820008DE493E00E94980D8091B8030E94A00C73
:101830000E94D10C0E949D0C20E040E06EE1CE01A0
:101840000E9443088FEF9FEF31C09091B603923012
:10185000A9F48823A9F0823599F089E393E00E94E6
:10186000980D0E94D10C0E949D0C20E040E06FE397
:10187000CE010E9443088FEF9FEF18C08735A1F07B
:10188000002311F062E001C061E0813409F465E0F9
:10189000923009F466E09601AE01812F0E948B0A16
:1018A000992787FD909502C062E0F2CFDF91CF913A
:1018B0001F910F91FF90EF90DF90CF900895CF93FD
:1018C000DF939091F9021092FC028EEF8093020355
:1018D0009093FF0210920003A091FA02B091FB02D4
:1018E000ED91FC9111970480F581E02D6CEF72E091
:1018F000ED018A819B8109951092F902DF91CF91C8
:1019000008959093FB028093FA0208951092FB02CF
:101910001092FA021092F90288E792E09093FE0288
:101920008093FD0281E8809301038DEF8093020391
:10193000109200031092FF0208950E9488140895E7
:101940001F93CF93DF93182F909100038091FF0294
:10195000981769F0C6E6DEE00E942113CE010197D8
:10196000F1F79091FF02809100039817A9F78091F9
:10197000F902813850F4E8E7F2E0E80FF11D108336
:101980008F5F8093F902813840F08091FA02909144
:10199000FB02892B11F00E945F0CDF91CF911F9108
:1019A00008958DE00E94A00C8AE00E94A00C809116
:1019B000F902882341F08091FA029091FB02892B71
:1019C00011F00E945F0C0895FF920F931F93CF9325
:1019D000DF938C019091FF0280910003981769F0CA
:1019E000C6E6DEE00E942113CE010197F1F7909147
:1019F000FF02809100039817A9F7F80101900020D9
:101A0000E9F73197FE2EF01A8091F9028F0D912D92
:101A1000911D8138910544F08091FA029091FB026A
:101A2000892B61F10E945F0C9091FF02809100036D
:101A3000981769F0C6E6DEE00E942113CE010197F7
:101A4000F1F79091FF02809100039817A9F780E8C1
:101A50008F1520F40F2EF1E8FF2EF02D2091F902C2
:101A60004F2D5527B80188E792E0820F911D0E9403
:101A70006A188091F9028F0D8093F902DF91CF915E
:101A80001F910F91FF9008950F931F93CF93DF93B2
:101A9000CDB7DEB7C358D0400FB6F894DEBF0FBE47
:101AA000CDBFFE01E657FF4F61917191FA83E98343
:101AB0008E010D5F1F4FAF01C8010E94A118C80120
:101AC0000E94E40CCD57DF4F0FB6F894DEBF0FBE77
:101AD000CDBFDF91CF911F910F9108950F931F9369
:101AE000CF93DF93CDB7DEB7C358D0400FB6F8948D
:101AF000DEBF0FBECDBFFE01E657FF4F6191719172
:101B0000FA83E9838E010D5F1F4FAF01C8010E9468
:101B10008518C8010E94E40CCD57DF4F0FB6F8942A
:101B2000DEBF0FBECDBFDF91CF911F910F91089502
:101B3000EF92FF921F93CF93DF937C019091FF026E
:101B400080910003981769F0C6E6DEE00E94211339
:101B5000CE010197F1F79091FF0280910003981751
:101B6000A9F7C7010E946118182F8091F902810F0F
:101B7000912D911D8138910544F08091FA02909148
:101B8000FB02892B41F10E945F0C9091FF02809132
:101B90000003981769F0C6E6DEE00E942113CE012B
:101BA0000197F1F79091FF02809100039817A9F730
:101BB000113808F011E8412F55272091F902B7019B
:101BC00088E792E0820F911D0E9458188091F902D7
:101BD000810F8093F902DF91CF911F91FF90EF90D9
:101BE00008956F927F929F92AF92BF92CF92DF92B1
:101BF000EF92FF920F931F93CF93DF93CDB7DEB792
:101C000021970FB6F894DEBF0FBECDBFFC013B019C
:101C1000C42E5C010894A11CB11C90818FEFFB01C4
:101C200080831182128282E58383442331F01582FE
:101C300014821682F4E0F98306C0FB01B582A48207
:101C40009683F6E0F983992309F497C0D92EDA94A4
:101C500075010894E11CF11C850199248981833068
:101C600009F479C0843038F4813009F455C08230E9
:101C700008F062C03BC099819530B9F0953020F0F2
:101C8000963009F070C028C0F3018181882369F47F
:101C9000F801808199270E945E1B892B31F0C801D1
:101CA0000E94C208F30181831682F8012081822FED
:101CB0009927C0970A9720F4822F8053F3018083DD
:101CC000F80180818A3309F04EC0F301F582E48285
:101CD000D682F1E0F98347C0F8018081843231F483
:101CE00082E0F30181831682F5E0F983F801208117
:101CF000822F9927C0970A9728F40F2EF0ED9F2E78
:101D0000F02D920E2A3341F4F3019082F582E482A1
:101D1000D682F1E0F98327C0CC2029F5F801808133
:101D20008C3209F5F3018481F02FF81B8F2FF3011A
:101D30008683F2E0F98317C0F3018281882321F4BE
:101D4000F8018081F3018283F80180818C3259F49B
:101D5000F3E0F98308C0F3018381882321F4F801BB
:101D60008081F3018383DA940894E11CF11CFFEF76
:101D7000DF1619F00F5F1F4F71CFF301848195813A
:101D8000A816B90661F446815527B501C50101962B
:101D90000E947318F30186818F5F868309C0F30167
:101DA00086818F5F86838481958101979583848363
:101DB000F301A481B58180818C9321960FB6F894AC
:101DC000DEBF0FBECDBFDF91CF911F910F91FF906E
:101DD000EF90DF90CF90BF90AF909F907F906F90EB
:101DE0000895CF92DF92EF92FF920F931F93CF93BC
:101DF000DF93EC0187E0689FB0011124655F7F4F9E
:101E0000DE01A60FB71F98818FEF8C93FD0196839B
:101E100013821482EB80FC808F81882399F481E007
:101E20008F83F70180819181FC01C680D78001EA10
:101E30001FE09D01AD016881E7018A819B81F60168
:101E4000099517C08330A9F48A81882391F484E02E
:101E50008F83F70180819181FC01C680D78001EAE0
:101E60001FE09D01AD016881E7018A819B81F60138
:101E70000995DF91CF911F910F91FF90EF90DF9027
:101E8000CF9008950F931F93182F062FB901A7E045
:101E9000B0E0EBEEF7E02CEB33E0808188232CF50B
:101EA00089E990E0FD01E89FD001E99FB00DF89F1E
:101EB000B00D1124FD01E20FF31F10831182028384
:101EC0005483438376836583FD013B96E20FF31FC2
:101ED0001482138216835296A20FB31FFD0114823F
:101EE0001382168380E090E009C01197E959F04011
:101EF0008FEFAF3FB80789F68FEF9FEF1F910F91DC
:101F00000895282F97E0EBEEF7E08081821789F49F
:101F1000892F992787FD909529E930E0AC01429FF0
:101F2000C001439F900D529F900D112484549C4FEB
:101F300008959150E959F0409F3F39F780E090E0D3
:101F400008951F93162F0E94810FFC01892B59F0D1
:101F500010878781813019F482E0878304C0843040
:101F600011F485E087831F910895DC018FEF8C9336
:101F7000FD01178211863B96CD014996928381839C
:101F800090E495838DEF868314821382FD0172960F
:101F9000A75ABF4FB283A18395838683148213828D
:101FA0000895CF93DF93CBEED7E061E0CE010E949E
:101FB000B50FC959D04083E0C332D807B1F7DF91DC
:101FC000CF9108951F93162F0E94810FFC01892B3A
:101FD00051F012878185823019F481E0818703C036
:101FE000813009F411861F9108950F931F93062FD6
:101FF000681760F0182F812F0E94810F009719F049
:1020000061E00E94B50F1F5F0117A8F71F910F91A4
:102010000895EF92FF920F931F93CF93DF938C015C
:10202000F62EEC018A81882309F072C00F2EF3E0AE
:10203000EF2EF02DF8018781882329F4118260E0CA
:10204000C8010E94F10EFF2079F0E8018F818130F4
:1020500059F4C6E6DEE00E942113CE010197F1F7A4
:10206000F80187818130B9F3E8018F818230F9F47A
:10207000898127E0829FC00111240B96F801E80FA7
:10208000F91F94818381981730F080818C3F19F07B
:10209000F801178238C0E8012D813E8121153105F4
:1020A00019F0CF01F9010995F801E7822CC08530BC
:1020B00051F5E801898121E030E0281B3109C9018F
:1020C000880F991F880F991F880F991F821B930BE8
:1020D0000B96F801E80FF91F94818381981730F06F
:1020E00080818C3F19F0F801E78212C0E8012D8150
:1020F0003E812115310519F0CF01F901099586E0DE
:10210000F801878305C0E8018F81882309F492CF05
:10211000DF91CF911F910F91FF90EF9008950F9352
:102120001F938C0161E00E940910F801818127E072
:10213000829FC00111240B96E80FF91F80818C3F0C
:1021400019F020E030E00AC020E0948183819817E4
:1021500008F421E081E08227282F332780E090E0F7
:10216000232B11F481E090E01F910F9108950F93BC
:102170001F93CF93DF938C0161E00E940910E80167
:10218000898127E0829FC00111240B96080F191F37
:10219000F80184810180F281E02DE80FF11D80813A
:1021A0009927DF91CF911F910F91089561E00E94CF
:1021B000091008950E94810F009719F061E00E94B4
:1021C00009100895CF93DF93EC0161E00E9409109C
:1021D00029818F818330A9F4822F9927FC01EE0F8A
:1021E000FF1FEE0FFF1FEE0FFF1FE81BF90BEC0F99
:1021F000FD1F83858C3F29F061E0621BCE010E94A8
:10220000F10E898127E0829FC00111240B96FE0107
:10221000E80FF91F84818F5F848320E09381891701
:1022200008F421E0822F9927DF91CF9108958F92B2
:102230009F92BF92CF92DF92EF92FF920F931F93E4
:10224000CF93DF937C01EC018985882311F481E031
:102250008987F70130810F2EFBE08F2E9924F02D16
:102260008E0C9F1C818127E0829FC0011124640194
:10227000C80ED91EE6018B81E981FA81E80FF11DB4
:102280006083982F9F5F9B838D81981711F0452B5A
:10229000C9F1B32E8EEFF6018083368393831482C7
:1022A000E7018985823059F4C6E6DEE00E942113F9
:1022B000CE010197F1F7F70181858230B9F382E011
:1022C000E7018987AB81BC81ED91FC911197068074
:1022D000F781E02D02EE1FE09601A6016B2DED01C6
:1022E0008A819B810995F701218181E0821B81838D
:1022F00027E0829FC0011124F401E80FF91F148226
:102300001382B682C701DF91CF911F910F91FF9089
:10231000EF90DF90CF90BF909F908F900895BF92E5
:10232000CF92DF92EF92FF920F931F93CF93DF93A1
:102330008C01EC0129810F2EFBE0EF2EFF24F02D04
:10234000E80EF91E822F9927FC01EE0FFF1FEE0FFA
:10235000FF1FEE0FFF1FE81BF90BEE0DFF1D808125
:102360008C3F09F452C081E0B82EB21A87E0B89EC3
:10237000C00111246701C80ED91E8F81843059F421
:10238000C6E6DEE00E942113CE010197F1F7F801C5
:1023900087818430B9F38530C9F4E801ED81FE818D
:1023A000309789F0898121E030E0281B3109C9018B
:1023B000880F991F880F991F880F991F821B930BF5
:1023C0008E0D9F1D099586E0F8018783E6019C81AB
:1023D0008B819817D0F4F801B18283E087838B2D2D
:1023E0009927FC01EE0FFF1FEE0FFF1FEE0FFF1FDF
:1023F000E81BF90BEE0DFF1D80818C3F61F061E061
:102400006B19C8010E94F10E06C060E0C8010E946D
:10241000B50F00E010E0C801DF91CF911F910F913F
:10242000FF90EF90DF90CF90BF900895FF920F93B1
:102430001F93CF93DF93F82E0E94810FEC018985C3
:102440008823C1F1813051F006E61EE00E9421137D
:10245000C8010197F1F789858130C1F7898127E0AB
:10246000829FC00111240B96AE01480F591FFA013B
:102470008CEF8083F68214828B819C81DC012D910C
:102480003C91F901A681B78102EE1FE09A016F2D00
:10249000FC0182819381FD0109958985813051F488
:1024A00006E61EE00E942113C8010197F1F7898515
:1024B0008130C1F360E0CE010E94B50FDF91CF9172
:1024C0001F910F91FF90089580E090E00895089586
:1024D000DC01FB0180818823C1F0813410F499274D
:1024E0000FC08B3518F4805899270AC0813610F434
:1024F000992706C08B3718F48052992701C0992775
:102500008D9331968081882341F71D92CD010895E6
:10251000109203038FEF80931C0380931703809323
:10252000120380930D031092210384E080930C0327
:102530008AE791E008951F9310E80E94D21788233C
:10254000E1F38FE70E94FA171150B9F71F91089530
:102550001F93CF93DF9314E067C0A0910403B09161
:10256000050380910C03813099F082301CF488239C
:1025700041F004C08230B1F0833011F12FEF3FEF12
:102580002FC081E080930C038C91282F332728C023
:1025900082E080930C03ED018B8199279C012D5FD4
:1025A0003F4F1EC0FD018681282F3327838188235A
:1025B00019F410930C0314C083E080930C0310C033
:1025C000ED019C81E981FA81E90FF11D80819F5F16
:1025D0009C83282F33278B81981710F010930C03BE
:1025E000332324F0822F0E94FA171EC05091030358
:1025F000852F8150809303038823A1F020E030E0F1
:1026000041E064E073E0E22FFF27EE0FFF1FE60FCB
:10261000F71F82819381918380832F5F3F4F4F5FAC
:10262000541789F710920C0380910303882329F033
:102630000E94D217882309F090CFDF91CF911F918C
:1026400008950E94E01799230CF4D2C0482F2091DE
:102650002103223011F1233034F4222359F02130A8
:1026600009F0C1C013C0233009F47FC0243009F041
:10267000BAC087C08D5F823018F04C3F09F0B3C0FC
:102680004093270381E080932103ADC08350809362
:10269000260382E080932103A6C08093220384E076
:1026A0008093210320E030E0EDE0F3E080814817E3
:1026B00021F520932303822F992787FD9095FC0114
:1026C000EE0FFF1FEE0FFF1FE80FF91FE35FFC4F38
:1026D0000180F281E02DF0932503E0932403209103
:1026E0002703909126038581891768F0208346830C
:1026F000138283E08093210306C02F5F3F4F3596FE
:102700002430310599F680912603882309F06BC0A7
:1027100080912303992787FD9095FC01EE0FFF1F01
:10272000EE0FFF1FE80FF91FE35FFC4F0380F481FA
:10273000E02D80912103843011F46FEF01C060E03F
:10274000842F099580912303992787FD9095FC019B
:10275000EE0FFF1FEE0FFF1FE80FF91FE35FFC4FA7
:102760008FEF8083109221033EC0E0912403F0910B
:1027700025038381A181B281A80FB11D4C938F5F86
:1027800083838091260381508093260318165CF181
:1027900080912303992787FD9095FC01EE0FFF1F81
:1027A000EE0FFF1FE80FF91FE35FFC4F0380F4817A
:1027B000E02D243011F46FEF01C060E0809122031E
:1027C000099580912303992787FD9095FC01EE0FD1
:1027D000FF1FEE0FFF1FE80FF91FE35FFC4F8FEFA6
:1027E0008083109221030E94E01799230CF02ECFD2
:1027F0000E94A8120895CF93DF93EB018091030309
:10280000833030F00E942113809103038330D0F78E
:10281000E82FFF27EE0FFF1FEC5FFC4FD183C08333
:102820008F5F80930303813021F410920C030E9488
:10283000A812DF91CF9108958F929F92AF92BF928D
:10284000CF92DF92FF920F931F93CF93DF934C01B0
:10285000F62EEA0169015801662384F4862F992730
:1028600087FD90959F938F938AEF93E09F938F932B
:102870000E94440D0F900F900F900F908E8188232F
:102880007CF4992787FD90959F938F9388ED93E033
:102890009F938F930E94440D0F900F900F900F9075
:1028A0001FEF0FC0122F09C080818823DCF32F5F38
:1028B0003F4F359624303105B9F70E94211311237B
:1028C0002CF420E030E0EDE0F3E0EECF812F99270B
:1028D00087FD9095FC01EE0FFF1FEE0FFF1FE80F25
:1028E000F91FE35FFC4FF082D282C182B482A382DF
:1028F000BE01C4010E94FB13DF91CF911F910F9184
:10290000FF90DF90CF90BF90AF909F908F900895F1
:1029100080910303882331F00E94211380910303E7
:102920008823D1F70895EF92FF920F931F93CF93CF
:10293000DF937C01009739F48DEC93E00E94980DB1
:102940008FEF9FEF0CC1EC0109811A81F8016285BC
:10295000613019F0A8E2B3E008C081E08093280359
:1029600084E080932903AAE2B3E081E0ED0189933A
:10297000FD018183AE014F5F5F4FE8018B818823AA
:1029800009F0DFC02A812A3F08F0DBC0293F41F46B
:1029900089818F3F29F48881882309F0D2C0C7C07C
:1029A000F801818199273327322F2227282B392BB1
:1029B0008081882311F02F5F3F4FDA012D93832F01
:1029C0009927EA018983FD0131962A30310520F4E7
:1029D00080E2ED0189833196613019F482E18193BF
:1029E00015C0623009F455C02436310518F480E270
:1029F000819304C083E0283E380718F480E2819375
:102A000003C02051374210F480E2819382E2819327
:102A1000E8018B85882309F49EC0D8012BE081341E
:102A200010F499270FC08B3518F4805899270AC0E5
:102A3000813610F4992706C08B3718F480529927F5
:102A400001C0992781932F5FED018C85882329F49C
:102A500082E281932C3130F00AC011962B31F9F6C5
:102A600082E2819380E281932F5F2C31D8F3613031
:102A700039F46FE571E0CF010E946812FC011EC0BD
:102A8000633039F466E671E0CF010E946812FC0100
:102A900015C0662339F46AE671E0CF010E9468121E
:102AA000FC010CC0623051F46EE671E0CF010E946F
:102AB0006812FC011192EC011982319688E293E0D0
:102AC0000E2F081BC02FDD27F7018581992787FD71
:102AD00090958C179D07F4F484EB93E00E94980D79
:102AE000802F82958F7006E811E0F801E80FF11D44
:102AF00080810E94A00CFE01EF70F070E00FF11FCA
:102B000080810E94A00C0E94D10C0E949D0C8FEF2E
:102B10009FEF25C0402F552768E273E0E7018981C8
:102B20009A810E946A180B8380E090E018C0FA0135
:102B30008FEF819389EFEA01898331962FEF39EF87
:102B40004BCFFA018FEF819389EFEA0189833196A8
:102B50002FEF39EF41CF82E281932BE083CFDF91DA
:102B6000CF911F910F91FF90EF900895FC01A181EB
:102B7000B2818381992787FD9095882321F1282FA1
:102B80008C91813410F4992719C08B3518F4805E2C
:102B9000992714C0813610F4992710C08B3718F488
:102BA000805299270BC0813C10F4992707C08B3DB8
:102BB00020F499278F77907001C099278C9321502A
:102BC00011F01196DDCF80E090E0089590936903B5
:102BD0008093680370936B0360936A030895ECE637
:102BE000F3E088E593E0128A118A108A17863597F8
:102BF000E817F907C1F7EDEAF3E02FEF8BE793E071
:102C00001282118220833597E817F907C9F70895D2
:102C10000F931F93CF93DF93EC018B019F938F93BF
:102C20007F936F9389E194E09F938F930E94440D6B
:102C300023E030E0EBE7F3E08DB79EB706960FB6E2
:102C4000F8949EBF0FBE8DBF80819181892B71F456
:102C5000F901EE0FFF1FEE0FFF1FE20FF31FE45904
:102C6000FC4FD183C0831383028307C021503040BF
:102C700035979FEF2F3F390739F780E090E0DF91DC
:102C8000CF911F910F9108950F931F93CF93DF93CF
:102C9000082F11271F930F9388E794E09F938F933A
:102CA0000E94440DEDEAF3E0C9E0D0E00F900F90F0
:102CB0000F900F908081992787FD9095081719072D
:102CC00041F5218132812115310519F18091680387
:102CD000909169039F938F93DF93CF933F932F93AB
:102CE00086E594E09F938F930E94440DCE01880F58
:102CF000991F880F991F8C0F9D1F8F579C4F2DB7C1
:102D00003EB7285F3F4F0FB6F8943EBF0FBE2DBFB2
:102D10000CC0359721973FEFCF3FD30759F688E393
:102D200094E00E94980D88E693E0DF91CF911F9187
:102D30000F9108954F925F926F927F928F929F9220
:102D4000AF92BF92CF92DF92EF92FF920F931F93B9
:102D5000CF93DF93E82E8B01882E99247F936F9376
:102D60009F928F928DE295E09F938F930E94440DE6
:102D70002DB73EB72A5F3F4F0FB6F8943EBF0FBE48
:102D80002DBF3AE03E1518F48FEF9FEFFAC0D8013F
:102D90002C91222309F4E9C02A3309F4E6C0FF2468
:102DA000F394CF2CDD24F801EC0DFD1DE081EE2322
:102DB00011F0EA33A9F7822F9927C0970A9708F0F4
:102DC000D7C0B1E0FB1609F0D3C00F2EFFE0BF2E35
:102DD000F02DB2228B2D0E944416FC01009789F43D
:102DE0008B2D99279F938F938EEF94E09F938F93D2
:102DF0000E94440D8FEF9FEF0F900F900F900F9058
:102E0000C0C08856934039F48DEC94E00E94980D30
:102E10008FEF9FEFB6C060807180D301ED91FC9180
:102E2000C80109952C016114710409F074C0A4C093
:102E3000F501EE0FFF1FEE0FFF1FEA0DFB1DE4591A
:102E4000FC4F62807380D301ED91FC91C80109951C
:102E50002C0161C0F901EE0FFF1FEE0FFF1FE20F03
:102E6000F31FE058FC4F8FEF80831282118266C0FF
:102E7000F901EE0FFF1FEE0FFF1FE20FF31FE058E7
:102E8000FC4FE08272826182548243823F932F938F
:102E90005F924F929F928F927F926F9286E994E019
:102EA0009F938F930E94440D80E0EDB7FEB73A9652
:102EB0000FB6F894FEBF0FBEEDBF53C05A01DB0141
:102EC000CD91DC912097F9F0FF20B1F09881F801C5
:102ED00080819817C1F420E00CC0822F9927FE0151
:102EE000E80FF91FD801A80FB91F90818C9198178E
:102EF00051F42F5F2F1589F7FE01EC0DFD1D808128
:102F0000882309F495CF6550704041505040FFEF41
:102F10004F3F5F0799F629E030E0EDEAF3E080816A
:102F2000992787FD90958816990609F493CF21502B
:102F3000304035978FEF2F3F380789F761147104C0
:102F400079F029E030E0EDEAF3E080818F3F09F489
:102F50008FCF2150304035979FEF2F3F3907A9F78A
:102F60008FEF992787FD90950CC0FF24CC24DD249A
:102F700066247724442455246BE773E043E050E053
:102F80009DCFDF91CF911F910F91FF90EF90DF9038
:102F9000CF90BF90AF909F908F907F906F905F90F9
:102FA0004F900895809105099091060920E030E046
:102FB0008F5F8F77891711F021E030E0C901089504
:102FC0009091040980918809981719F42FEF3FEF29
:102FD0000FC080918809E4E8F8E0E80FF11D8081D6
:102FE000282F3327809188098F5F8F7780938809F6
:102FF000C901089590910509E7E0F9E0E90FF11D95
:103000008083809105098F5F8F7780930509E1ECBC
:10301000F0E080818062808308951092050910920B
:1030200006091092040910928809E1ECF0E088E0AA
:10303000808380818061808387E08093C4001092C8
:10304000C50080818068808308951092B20311B812
:103050008FEF82B93E98469AF8944B9B02C03D98F8
:10306000459A789481E08093B403F8944B9B02C016
:103070003C98449A789481E08093B3033F98479AB0
:1030800008950F931F9303E710E0F8018081877F75
:1030900080830E942518DB9AF801808188608083F4
:1030A000E8E6F0E08081886080831F910F910895A9
:1030B000FB01DC0102C005900D9241505040D8F751
:1030C0000895FC0105900020E9F7809590958E0FFA
:1030D0009F1F0895FB01DC0102C001900D92415039
:1030E0005040D8F708956817790768F4FB01DC01B0
:1030F000E40FF51FA40FB51F02C002900E924150BD
:103100005040D8F708950C946A18AEE0B0E0EBE8B0
:10311000F8E10C94861B8C0186E08C831A8309836A
:103120008FEF9FE79E838D83CE0101960E94BD188D
:10313000EF81F885E00FF11F1082E4E02E960C94E9
:10314000A21BAEE0B0E0E7EAF8E10C94861B8C012C
:103150008EE08C831A8309838FEF9FE79E838D8394
:10316000CE0101960E94BD18EF81F885E00FF11F96
:103170001082E4E02E960C94A21BABE0B0E0E3ECEE
:10318000F8E10C947A1B4C013B016A01FC011782A7
:103190001682838181FD03C08FEF9FEFDCC1F401B4
:1031A0002381F30123FD859123FF81913F01882332
:1031B00009F4CEC1853239F423FD859123FF819135
:1031C0003F01853229F4B40199270E94C51AE7CF3F
:1031D00000E0442455243AE00032B0F48B3269F028
:1031E0008C3228F4803251F0833271F40BC08D326E
:1031F00039F0803349F4016028C00260046025C0C2
:10320000086023C0006121C007FD2BC0282F205378
:103210002A3078F406FF06C0539EC0011124522EB6
:10322000580E13C0439EC0011124422E480E006266
:103230000CC08E3221F406FD8BC1006406C08C36B2
:1032400011F4006802C0883661F4F4018381F3014F
:1032500083FD859183FF81913F01882309F46FC02D
:10326000BBCF982F8554833018F08052833038F4C8
:1032700024E030E0C20ED31E8FE389830FC0933663
:1032800031F0933799F0933509F05BC023C0F60114
:103290008081898322E030E0C20ED31E7E01089433
:1032A000E11CF11C51E0A52EB12C12C0F601E0800A
:1032B000F18006FD03C06FEF7FEF02C0652D772719
:1032C00022E030E0C20ED31EC7010E94BA1A5C0190
:1032D0000F7713C0F601E080F18006FD03C06FEFA9
:1032E0007FEF02C0652D772722E030E0C20ED31EAB
:1032F000C7010E94AF1A5C01006803FF07C01BC032
:10330000B40180E290E00E94C51A4A94842D992766
:10331000A816B906A8F30FC0F70107FD859107FFAE
:1033200081917F01B40199270E94C51A41104A94E6
:103330000894A108B108A114B10471F706C190E086
:103340003EC0943611F0993691F507FF0AC0F60198
:10335000608171818281938124E030E0C20ED31EAE
:103360000DC0F601808191819C01B901882777FD0C
:103370008095982F42E050E0C40ED51E4FE6B42E43
:10338000B02297FF09C090958095709561957F4F09
:103390008F4F9F4F50E8B52A8E010F5F1F4F2AE0D5
:1033A00030E0A8010E94F21AA82EA01A4DC095374D
:1033B00031F43FEEF32EF0222AE030E023C029EF73
:1033C000F22EF0229F3661F0903720F4983509F004
:1033D000BFC012C0903739F0983709F0B9C005C0A6
:1033E00028E030E00FC080E1F82AF4FE02C094E04B
:1033F000F92A20E130E006C0F4FE02C0E6E0FE2A31
:1034000020E132E0F7FE0AC0F6016081718182811D
:10341000938144E050E0C40ED51E0BC0F6018081BC
:103420009181AC01BA0188279927E2E0F0E0CE0E45
:10343000DF1E8E010F5F1F4FA8010E94F21AA82EF7
:10344000A01A8FE7B82EBF20B6FE10C0FEEFBF2235
:10345000A51460F42B2D332724FF1AC022FF02C0CD
:10346000052D09C02FEEB222052D01C00A2D2B2DEE
:10347000332724FF0EC0FE01EA0DF11D8081803349
:1034800019F439EEB32209C00F5F22FF06C004C051
:10349000052D822F867809F00F5FEB2CFF24E3FCCB
:1034A00014C0E0FE0FC0041510F05A2C0BC0542CB1
:1034B000501A5A0C042D06C0B40180E290E00E941C
:1034C000C51A0F5F0415C0F304C0041510F4401AA8
:1034D00001C04424E4FE10C0B40180E390E00E94E7
:1034E000C51AE2FE1EC0E1FE03C088E590E002C0FE
:1034F00088E790E0B4010CC08E2D867891F0E1FE53
:1035000002C08BE201C080E2B7FC8DE2B4019927D2
:103510000E94C51A06C0B40180E390E00E94C51A5B
:103520005A94A514C0F3AA94FE01EA0DF11D8181FD
:10353000B40199270E94C51AAA2039F0F4CFB4012A
:1035400080E290E00E94C51A4A944420C1F727CE39
:10355000F40186819781E0E12B960C94961BFC0187
:103560000590615070400110D8F7809590958E0FAE
:103570009F1F0895FC016150704001900110D8F721
:10358000809590958E0F9F1F08950F931F93CF9353
:10359000DF938C01EB018B81992781FF1BC082FF98
:1035A0000DC02E813F818C819D812817390764F4DD
:1035B000E881F9810193F983E88306C0E885F985FC
:1035C000802F0995892B31F48E819F8101969F83ED
:1035D0008E8302C00FEF1FEFC801DF91CF911F91C3
:1035E0000F910895FA01AA27283051F1203181F175
:1035F000E8946F936E7F6E5F7F4F8F4F9F4FAF4FFB
:10360000B1E03ED0B4E03CD0670F781F891F9A1F0D
:10361000A11D680F791F8A1F911DA11D6A0F711DC1
:10362000811D911DA11D20D009F468943F912AE0CD
:10363000269F11243019305D3193DEF6CF010895B5
:10364000462F4770405D4193B3E00FD0C9F7F6CFE6
:10365000462F4F70405D4A3318F0495D31FD4052AE
:10366000419302D0A9F7EACFB4E0A6959795879544
:1036700077956795BA95C9F7009761057105089523
:103680009B01AC010A2E06945795479537952795CF
:10369000BA95C9F7620F731F841F951FA01D089567
:1036A000991B79E004C0991F961708F0961B881F94
:1036B0007A95C9F78095089585FD17C080629111AC
:1036C00014C081568A51E0F70895803209F09111B3
:1036D0000CC080528F55E0F70895911108958156DE
:1036E0008A5108F4805285580895992788270895AB
:1036F0002F923F924F925F926F927F928F929F9202
:10370000AF92BF92CF92DF92EF92FF920F931F93EF
:10371000CF93DF93CDB7DEB7CA1BDB0B0FB6F894A0
:10372000DEBF0FBECDBF09942A88398848885F84E0
:103730006E847D848C849B84AA84B984C884DF8051
:10374000EE80FD800C811B81AA81B981CE0FD11D35
:103750000FB6F894DEBF0FBECDBFED010895FFCFC9
:103760002025752042797465732066726565002C8A
:10377000202564206B487A0041535349474E00008E
:103780002D0024003F00494E495449414C495A45B7
:103790000052454E414D4500534352415443480069
:1037A0004344004D4B44495200524D44495200306D
:1037B000313233343536373839616263646566785F
:1037C0006432303331006469720070726700626C79
:1037D0006F636B7320667265650064126712FB137A
:1037E0001C149314B615303132333435363738392A
:0637F0006162636465667E
:00000001FF
