:100000000C94F5000C9412010C9412010C94120142
:100010000C9412010C9412010C9412010C945E01C8
:100020000C9412010C9412010C9412010C94120104
:100030000C9412010C94B9050C9412010C94120149
:100040000C9412010C9412010C9412010C941201E4
:100050000C94A7060C9483060C9412010C941201C4
:100060000C9412010C9412010C9412010C941201C4
:100070000C9412010C9412010C94120158532D315E
:100080003534312F5844323033312056302E310040
:10009000302E31414C5048410080204F4B8100535D
:1000A000205343524154434845448208099495964D
:1000B00097989B0103999C02039A022050524F5437
:1000C000454354204F4E9D054944204D49534D41D1
:1000D0005443489E9FA0A1A253594E54415803A790
:1000E000BE0004464F554E44B20704505245534596
:1000F0004E54B34F564552464C4F5720494E200759
:10010000B4000B4C41524745BC0220002006BD0004
:100110000406BF0020455849535453C00020545989
:100120005045204D49534D41544348C10C424C4F1A
:10013000434BC2C30A20545241434B204F522053D9
:100140004543544F52C60C4348414E4E454CC7445C
:10015000495203C80546554C4CCA445249564504B9
:100160000159CD0920080ACE4255464645520B5347
:100170004D414C4CCF494D414745200020494E56FA
:10018000414C4944E3434C4F434B20554E5354415B
:10019000424C45FF8046494C458152454144825777
:1001A0005249544583204552524F5284204E4F5459
:1001B00020854449534B20864F50454E8752454336
:1001C0004F524488504152544954494F4E2089530C
:1001D000454C45435445448A494C4C4547414C8B1A
:1001E00020544F4F208C4E4F20FF11241FBECFEFC5
:1001F000D0E1DEBFCDBF14E0A0E0B1E0E2E7F7E27E
:1002000002C005900D92A03AB107D9F71AE0A0EA12
:10021000B4E001C01D92A538B107E1F70E9477054F
:100220000C94B8130C9400002FB7F8948091CB0570
:100230009091CC052FBF0895882319F03C98449ADB
:10024000089544983C9A0895882319F03D98459A5A
:10025000089545983D9A0895882319F03E98469A46
:10026000089546983E9A089511B88FEF82B9539831
:100270003E983F983C983D985B9A469A479A449A94
:10028000459A08950E943401DB9AE3E7F0E080810B
:1002900088608083E8E6F0E080818860808386E67D
:1002A0009EE00197F1F788E08093BF051092340239
:1002B0008091C0058E7F8093C00508951F920F9294
:1002C0000FB60F9211242F933F934F935F936F9329
:1002D0007F938F939F93AF93BF93EF93FF934B992C
:1002E00006C080E00E941C0180E00E942401FF9172
:1002F000EF91BF91AF919F918F917F916F915F919E
:100300004F913F912F910F900FBE0F901F90189516
:100310000F931F93CF93DF9380E00E941C0181E035
:100320000E9424010E94140106969093A3048093D6
:10033000A2040091A2041091A3040E941401081BBE
:10034000190B17FD27C03699F4CF80E00E942401D5
:1003500080B18095C82FDD27379BD1604B9BD26041
:1003600081E00E941C010E94140106969093A30450
:100370008093A2040091A2041091A3040E9414018E
:10038000081B190B17FD06C0369BF4CF80E00E94B6
:100390001C0102C0CCEFD0E0CE01DF91CF911F91C4
:1003A0000F91089594E09093C1058093C20508953C
:1003B0000E9434011092C10508950E94890C08958D
:1003C000E82FFF27EF70F070EF54FD4F80810E94FF
:1003D000DD0108951F93182F82958F700E94E00110
:1003E000812F0E94E0011F9108958091C00581FF37
:1003F00024C08091C4058F3029F484E392E00E94E8
:10040000430A14C083E08093C1058091C40520E0B5
:10041000813009F421E042ED51E064E372E00E9492
:10042000C90A87FF03C082E08093C105109234029D
:100430008091C0058D7F8093C00508950E94A10C16
:100440000E94AE0C0895EF92FF920F931F93CF93EB
:10045000DF93182F8F708093C4058091C4050E948C
:100460001F0EFC01892B19F08281813071F0E12E81
:10047000FF248701007F1070003F1105A9F083E67B
:100480000E94DD01CFEFDFEF68C0E12EFF2487017E
:10049000007F10700036110521F0003F110539F47E
:1004A00003C080E091E005C088E091E002C08EE0EA
:1004B00091E00E942C0C8091C4050E94EA010E94E8
:1004C0001E020E948801EC0197FDFBCF91FD45C003
:1004D0008CE30E94DD01D0FF08C08BE191E00E9417
:1004E0002C0C8091C005816003C08091C0058E7F77
:1004F0008093C0058C2F0E94EA0180E20E94DD01FA
:10050000D070CE010E947013892B11F08C2F01C086
:100510008FE30E94DD010E941E02C7018F70907060
:100520000F9719F0003F1105B1F48091340288371C
:1005300040F4E82FFF27EC5CFD4FC1838F5F809371
:1005400034028091C00580FFBCCF8091C0058260DD
:100550008093C005B6CFCEEFDFEFCE01DF91CF9114
:100560001F910F91FF90EF9008951F93182F80E235
:1005700091E00E942C0C812F0E94EA010E941E0231
:10058000112321F080917300886003C08091730073
:10059000877F809373001F91089581E00E94B502C8
:1005A0000E94D801089520E040E00E94CE090895FD
:1005B00080E00E94B5020E94340160E08CEF91E07F
:1005C0000E94D30289E291E00E942C0C85E0809386
:1005D000C10508951092A1041092A00469E48CEF63
:1005E00091E00E94D3021092C1051092C3050895B4
:1005F00060E08CEF91E00E94D3020895EF92FF92A9
:100600000F931F93CF93DF938091C105813081F0C9
:10061000813030F08230A9F0843009F0E9C1A5C101
:100620004B99E6C181E20E94DD0181E08093C10522
:1006300082E08093C1050E9488019093A104809379
:10064000A0048091A0049091A10497FF04C083E6C8
:100650000E94DD01CBC190709093A1048093A0040F
:1006600087E391E00E942C0C8091A0040E94EA0193
:100670000E941E024091A0045091A1044F335105E5
:1006800049F48091C305813051F51092C3058CE384
:1006900091E00BC04F35510559F48091C30582306C
:1006A000F1F41092C30585E491E00E942C0C2AC05D
:1006B0008091BF05282F3327C901805C9F4F4817C1
:1006C000590781F48CE491E00E942C0C8091BF05C5
:1006D0000E94EA010E941E0282E08093C3051092EC
:1006E000C10586C1205E3F4F4217530771F481E078
:1006F0008093C30582E591E00E942C0C8091BF0598
:100700000E94EA010E941E02EACF9A01207F307007
:100710002036310509F001C14B9BFECF8091C30506
:10072000813009F459C18091C305823009F05EC15E
:10073000842F8F708093C4058AE591E00E942C0C71
:100740008091C4050E94EA010E941E028091C405A6
:100750000E941F0EEC01892B09F0D8C08091C405BE
:100760008F3009F043C120E030E04CE252E062E01B
:100770000E94FE0D992787FD90959F938F9382E6A7
:1007800091E09F938F930E945F0C8091C4050E941B
:100790001F0EEC010F900F900F900F90B4C0CE0180
:1007A0000E946C10F82E89819927FC0123E0EE0F3E
:1007B000FF1F2A95E1F7E81BF90B3996EC0FFD1F97
:1007C00080818C3F09F0F2C08481238199270196B2
:1007D0003327821793070CF4E9C08F2D0E94EA019A
:1007E0000E94340147983F9A81E0E82EF1B88F2D9E
:1007F000809582B94B9BFAC086E38A95F1F74B9BB3
:10080000F5C00E94140106969093A3048093A2045D
:100810004B9BECC00091A2041091A3040E94140110
:10082000081B190B17FDCBC0359BF2CF80E00E944F
:100830002C010E94140106969093A3048093A204B5
:100840004B9BD4C00091A2041091A3040E941401F8
:10085000081B190B17FDB3C03599F2CF0E94140184
:1008600006969093A3048093A2044B9BBFC0009173
:10087000A2041091A3040E941401081B190B17FD78
:100880009EC0349BF2CF81E00E942C01EE2011F437
:100890008EE301C08DE20E94DD018F2D0E94EA01EE
:1008A00080E20E94DD018F2D99270E947013892B11
:1008B00011F08F2D01C08FE30E94DD010E941E0206
:1008C000CE010E942F10882309F069CF8DE791E0B7
:1008D0000E942C0C0E941E02CE010E940F10882341
:1008E00071F48091C405882329F08091C4058F306C
:1008F00009F07CC08091C4050E948B0E77C0CE01A8
:100900000E94A40EEC01209709F470C0CE010E9451
:100910000F10882309F043CF69C08091C305882355
:1009200009F464C0203E3105E1F4842F8F70809378
:10093000C40580E991E00E942C0C8091C4050E94BE
:10094000EA010E941E028091C4058F3029F46FE0F5
:1009500080E00E94910EC3CE8091C4050E948B0E50
:10096000BECE203F3105C1F1BACE87E991E00E94A9
:100970002C0C8091C2050E94EA010E941E02809107
:10098000C205882359F06091C2058CEF91E00E9466
:10099000D3028091C4050E948B0E04C08091C405CF
:1009A0000E948A1082E08093C10522C08F2D0E9490
:1009B000EA010E9434013F98479AEE2417CF8AEA51
:1009C00091E00E942C0C0E941E0283E60E94DD0131
:1009D0008CEF0E94EA010AC0842F0E9423029093A8
:1009E000A1048093A0040E94F50102C00E94D801D6
:1009F000DF91CF911F910F91FF90EF900895AF92EB
:100A0000BF92DF92EF92FF920F931F93CF93DF93EA
:100A1000D82EEB017A0159018FEB91E00E942C0C4A
:100A20000E941E0288818F3FA9F08881992787FD47
:100A300090959F938F9382ED91E09F938F930E9467
:100A40005F0C66E48D2DF50109950F900F900F90C6
:100A50000F9027C0E70109811A814D81C42FDD273E
:100A6000AE016EEF71E0C8010E949B10C00FD11F54
:100A700021971882F80101900020E9F73197E01BD7
:100A8000F10B8CEFD7018C93E701DE82EB831C82A4
:100A900060E08CEF91E00E94D30260E08D2DF501C3
:100AA0000995DF91CF911F910F91FF90EF90DF900B
:100AB000BF90AF9008958DB79EB785589A4008951E
:100AC0001092C90582E08093C60581E08093C50538
:100AD00008950E94A10C8EE20E94890C0E94A10C34
:100AE00081EC92E00E942C0C0E94A10C08951092BF
:100AF000C90582E08093C60581E08093C505389AD8
:100B000040980E94CA070E94070C0E945E0A0E9439
:100B1000720E0E94420178940E9469058DB79EB7BB
:100B200085589A409F938F938AED92E09F938F937D
:100B30000E945F0C89E999E3A0E0B0E0BF93AF9316
:100B40009F938F9389EE92E09F938F930E945F0C07
:100B50000E94A10C0E94A10C0E94EA028DB79EB7D0
:100B60000A960FB6F8949EBF0FBE8DBF0E94FE027C
:100B7000FDCF1F920F920FB60F9211248F939F9368
:100B80008091CB059091CC0501969093CC058093F4
:100B9000CB059F918F910F900FBE0F901F901895CE
:100BA00082E085BD8FEF98E0909389008093880064
:100BB0001092850010928400109280008BE0809348
:100BC0008100EFE6F0E080818260808308958134C7
:100BD00048F08B3510F4805805C0813618F08B37FB
:100BE00018F480529927089599270895EF92FF925B
:100BF0000F931F93CF93DF93EC018B0106C00E94EC
:100C0000E7058883E7010F5F1F4FF80180817E01B0
:100C10000894E11CF11C882391F71882C701DF9129
:100C2000CF911F910F91FF90EF900895CF93DF9395
:100C300044E05CC0A091A504B091A6048091AD04ED
:100C4000813089F082301CF4882331F035C0823045
:100C5000A1F08330E9F030C081E08093AD048C9145
:100C6000282F332726C082E08093AD04ED018B81CD
:100C7000282F33272D5F3F4F1CC0FD018681282F71
:100C800033278381882399F083E08093AD0411C0DA
:100C9000ED01E981FA818C81E80FF11D90818F5F70
:100CA0008C83292F33279C818B81981710F04093D8
:100CB000AD042093C60024C08091A4048150809389
:100CC000A40420E030E009C0FF27EE0FFF1FEB5522
:100CD000FB4F8281938191838083E22F8091A404D2
:100CE0002F5F3F4FE81780F31092AD048091A4046A
:100CF000882309F09FCF8091C1008F7D8093C10030
:100D0000DF91CF9108951F920F920FB60F92112489
:100D10002F933F934F935F936F937F938F939F9303
:100D2000AF93BF93EF93FF930E941606FF91EF914D
:100D3000BF91AF919F918F917F916F915F914F91F3
:100D40003F912F910F900FBE0F901F9018951F92FB
:100D50000F920FB60F9211242F933F934F935F93EF
:100D60006F937F938F939F93AF93BF93EF93FF9373
:100D70004091C6002091C204223009F1233034F49E
:100D8000222359F0213009F08FC012C0233009F41A
:100D90004DC0243009F088C055C0842F8D5F82304B
:100DA00018F04C3F09F080C04093C80481E004C0B3
:100DB00043504093C70482E08093C20475C04093BF
:100DC000C30484E08093C20420E030E0EEEAF4E063
:100DD00080813596841719F52093C404822F9927B2
:100DE00087FD9095FC01EE0FFF1FEE0FFF1FE80F30
:100DF000F91FE255FB4F0180F281E02DF093C6040C
:100E0000E093C5042091C80495818091C704981788
:100E100008F44AC020834683138283E0CDCF2F5F3E
:100E20003F4F2430310509F43FC0D2CFE091C504D3
:100E3000F091C604A181B2818381A80FB11D4C93AA
:100E40008F5F83838091C70481508093C704882378
:100E500059F58091C404992787FD9095FC01EE0F08
:100E6000FF1FEE0FFF1FE80FF91FE255FB4F038036
:100E7000F481E02D243011F46FEF01C060E0809127
:100E8000C30409958091C404992787FD9095FC01BE
:100E9000EE0FFF1FEE0FFF1FE80FF91FE255FB4F8C
:100EA0008FEF80831092C204FF91EF91BF91AF91B9
:100EB0009F918F917F916F915F914F913F912F9172
:100EC0000F900FBE0F901F9018959C01E6E6FEE074
:100ED00003C0CF010197F1F78091A4048330C8F7D4
:100EE000F894E091A404FF27EE0FFF1FEB55FB4F92
:100EF000318320838091A4048F5F8093A404809128
:100F0000A404813049F48091C10080628093C100C3
:100F10001092AD040E941606789408951F93CF9303
:100F2000DF93182FEB01B9012FEF18C02A2F10C043
:100F3000FD01EE0FFF1FEE0FFF1FEA0FFB1FE25533
:100F4000FB4F8081882394F31196A430B10581F77B
:100F500086E69EE00197F1F727FF03C0A0E0B0E02E
:100F6000E7CF822F992787FD9095FC01EE0FFF1F99
:100F7000EE0FFF1FE80FF91FE255FB4F108352835E
:100F8000418374836383CE010E946507DF91CF9113
:100F90001F9108951092A4048FEF8093BD04809355
:100FA000B8048093B3048093AE041092C20484E02A
:100FB0008093AD04E1ECF0E088E080838081806183
:100FC000808387E08093C4001092C5008081806890
:100FD000808308950E94890C0895E82FFF27EF7001
:100FE000F070E45BFC4F80810E94EA0708951F9334
:100FF000182F82958F700E94ED07812F0E94ED07B8
:101000001F9108950E94A10C0E94AE0C0895E6E67F
:10101000FEE003C0CF010197F1F78091A40488237B
:10102000C9F70895AF92BF92CF92DF92FF920F93CC
:101030001F93CF93DF93CDB7DEB721970FB6F89408
:10104000DEBF0FBECDBF6C01009729F482EF92E0A6
:101050000E942C0CD8C0FC01A180B280F501F28462
:10106000F1E0FF1619F0A9ECB4E007C0F092C90452
:1010700084E08093CA04ABECB4E081E0FD0181938D
:101080009F01FD018183B9016F5F7F4FF50183816E
:10109000882309F0E1C0D501129682818A3F08F0C9
:1010A000DBC08281893F39F481818F3F21F48081C7
:1010B000882309F0D1C0F50181812C91482F552753
:1010C0003327322F2227422B532B8081882311F084
:1010D0004F5F5F4FDB014D93852F9927FB01818384
:1010E0008D010F5F1F4F4A30510528F480E2FD014A
:1010F00081830F5F1F4FF1E0FF1629F482E1D801D1
:101100008D938D011CC0B2E0FB1609F454C0443627
:10111000510528F480E2F80181938F0104C0F3E0C7
:10112000483E5F0728F480E2D8018D938D0103C00B
:101130004051574220F480E2F80181938F0182E20E
:10114000D8018D938D01EBE0F0E0AE0EBF1E9BE069
:1011500009C0808199830E94E705D8018D938D0194
:1011600099819F5FF5018081882329F00894A11C53
:10117000B11C9B3171F782E2F801808380E202C0EA
:1011800080839F5F31969C31D8F38F01F1E0FF1689
:1011900019F46DEF72E005C083E0F81639F464E0ED
:1011A00073E0C8010E94F6058C0116C0FF2019F4F7
:1011B00068E073E0F6CF92E0F91671F46CE073E04A
:1011C000C8010E94F605DC01FC011192CF01FD016E
:1011D00011828C010F5F1F4F89EC94E0102F181BB8
:1011E000F6018581212F3327992787FD9095821756
:1011F000930764F488E193E00E942C0C812F0E94F5
:10120000F7070E9402088FEF9FEF32C081E393E05F
:101210000E942C0C812F0E94F70700E00BC080E297
:101220000E94EA07E02FFF27E753FB4F80810E94CF
:10123000F7070F5F011799F70E940208F6018181F5
:101240009281412F552769EC74E00E949210F601BB
:10125000138380E090E00CC0DB018FEF8D9389EF6A
:10126000FB0181838D010F5F1F4F4FEF59EF43CF7C
:1012700021960FB6F894DEBF0FBECDBFDF91CF91A0
:101280001F910F91FF90DF90CF90BF90AF90089586
:10129000FC01A181B281838119C09C91913418F025
:1012A0009B3520F4905E292F33270EC09136D8F35A
:1012B0009B3710F49052F7CF913CA8F3292F332796
:1012C0009B3D10F42F7730702D938150882329F7A0
:1012D00080E090E008950F931F93CF93DF93DC019C
:1012E000EB0100E0552740585F4FFE01E00FF11D74
:1012F0000F5FC895202D822F99278417950719F025
:101300002F3F19F0F2CF2F3F21F48FE38D931EC0B2
:101310000F5FFE01E00FF11DC895E02DE7FDF8CF4E
:10132000FE01E00FF11D0F5FC895102D103250F433
:10133000412F64E971E0CD010E946B09DC0117FFC8
:10134000EFCF04C017FD02C01D93EACFCD01DF919E
:10135000CF911F910F910895CF93DF93DC01262F3A
:10136000643650F0862F64E60E945913805D8D9399
:10137000822F0E945913292F822F6AE00E9459134D
:10138000805DFD018193822F0E945913905DED01D4
:101390009983CF010196DF91CF910895DF92EF926B
:1013A000FF920F931F93CF93DF93F62ED42EE22E4E
:1013B000FC0132968EE2DF011D928A95E9F7CF019A
:1013C0000E94AC09DC01FC018CE2819383E0F816F9
:1013D00069F49F012F5F3F4F91E0E91611F085E41A
:1013E00001C084E4FD018183F90136C089E0F8166B
:1013F00011F4ED0104C099E4F91639F5FACFCE01E4
:101400008A1BE82FFF27E458FF4FC895E02DE9839A
:101410002196EE23A1F78E010F5F1F4F99E0F91679
:1014200089F48E01E02FEC1BFF27E057FF4FC89592
:10143000E02D8E2F99270E947613D8018D938D0170
:10144000882381F7F801319707C04F2D69E970E0D3
:10145000CF010E946B09FC011CE211936D2DCF019D
:101460000E94AC09FC0111936E2DCF010E94AC09C2
:10147000FC018DE08083DF91CF911F910F91FF9050
:10148000EF90DF9008950F931F938C018CE593E00C
:101490000E942C0CC80101960E942C0C0E94A10CE9
:1014A0000E94AE0C1F910F910895FC01528341835D
:1014B00065838FEF86831482138208958FEF809364
:1014C000090580931C050895CF93DF93982F809191
:1014D0000905891719F4C0E0D0E006C080911C0509
:1014E000891791F5C1E0D0E067FF11C083E190E07A
:1014F000C89FF001C99FF00DD89FF00D1124E75F40
:10150000FA4F0188F289E02D8AE4099510C083E141
:1015100090E0C89FF001C99FF00DD89FF00D1124F5
:10152000E75FFA4F218932898785F901099583E1BF
:1015300090E0C89FF001C99FF00DD89FF00D1124D5
:10154000E75FFA4F8FEF8083DF91CF9108950E947C
:10155000890C0895E82FFF27EF70F070ED5DFB4FC9
:1015600080810E94A70A08951F93182F82958F707B
:101570000E94AA0A812F0E94AA0A1F9108950E9420
:10158000A10C0E94AE0C089520E040E00E94CE091C
:1015900008958F929F92BF92CF92DF92EF92FF9227
:1015A0000F931F93CF93DF93B82EEB014A01022FC5
:1015B00086E693E00E942C0C8B2D0E94B40A8BE7E8
:1015C00093E00E942C0CCE0101960E942C0C0E94EC
:1015D000BF0A40E06FE275E0CE010E94B90C809135
:1015E0003005882371F0843261F088E893E00E942E
:1015F0002C0C809130050E94A70A0E94BF0A10920D
:10160000300580912F05882379F089E993E00E94C5
:101610002C0C80912F05805D0E94A70A0E94BF0AB2
:10162000C558DF4F6AE4B0C080913105882391F03E
:10163000833581F0803571F089EA93E00E942C0CAB
:10164000809131050E94A70A0E94BF0AC558DF4F4A
:1016500060E49AC0909132059923A1F0973591F0FA
:10166000923581F0913471F08CEB93E00E942C0C58
:10167000809132050E94A70A0E94BF0AC558DF4F19
:101680006EE182C020913005243221F4992311F0BB
:10169000923549F48091090587FD9AC080911C0517
:1016A000882384F40AC085ED93E00E942C0C0E94EC
:1016B000BF0AC558DF4F6FE367C03CE1C32E35E07A
:1016C000D32E05C089EE93E00E942C0C58C09735AC
:1016D00009F483C0002311F002E001C001E091345D
:1016E00009F405E0243209F406E076010894E11CCF
:1016F000F11C409133055091340560913505C701C7
:101700000E94550A80913505F6010183F701B682E2
:1017100083831482E0914A03F0914B03309771F078
:10172000C701099587FF0AC080E094E00E942C0C55
:101730000E94BF0AC558DF4F62E226C0023069F03E
:10174000053059F0063019F020E030E004C0209157
:1017500048033091490360E003C020E030E061E0DD
:1017600044E453E08B2D0E94FE0D082F87FF13C029
:1017700080E294E00E942C0C802F0E94B40A0E9408
:10178000BF0AC558DF4F66E4888199810E94C40A68
:101790008FEF9FEF24C0F601928A818AB082860182
:1017A000085F1F4F8FE090E0C80ED91EA60162E0CF
:1017B000C8010E94550AE0914603F091470324E6D0
:1017C0003AE0A801B7018B2D099580E090E007C0B1
:1017D00089E0C82E85E0D82E7ACF02E083CFDF9152
:1017E000CF911F910F91FF90EF90DF90CF90BF901E
:1017F0009F908F900895FC01A6E6BEE003C0CD0146
:101800000197F1F7938184819817C9F70895109291
:10181000B70586E395E09093BA058093B90581E812
:101820008093BD058FEF8093BE051092BC0510928A
:10183000BB0508959091B7051092B8058FEF80937E
:10184000BE059093BB051092BC0588EB95E00E9405
:1018500065071092B70508951F93CF93DF93EC01AE
:1018600088EB95E00E94FB0BFE0101900020E9F758
:1018700031971E2F1C1B8091B705810F912D911D53
:101880008138910514F00E941A0C88EB95E00E94B3
:10189000FB0B113808F011E88091B7059927412F0B
:1018A0005527BE018A5C9A4F0E9492108091B7051D
:1018B000810F8093B705DF91CF911F9108950F930A
:1018C0001F93CF93DF93CDB7DEB7C358D0400FB689
:1018D000F894DEBF0FBECDBFFE01E657FF4F61910A
:1018E0007191FA83E9838E010D5F1F4FAF01C8012B
:1018F0000E94AA10C8010E942C0CCD57DF4F0FB6D2
:10190000F894DEBF0FBECDBFDF91CF911F910F9135
:1019100008951F93182F88EB95E00E94FB0B809190
:10192000B705813850F4E82FFF27EA5CFA4F10839F
:101930008F5F8093B705813810F00E941A0C1F91B9
:1019400008958DE00E94890C8AE00E94890C8091A4
:10195000B705882311F00E941A0C08950E94070809
:1019600008950E94890C08950E94A10C0E94AE0C5B
:1019700008958F929F92BF92CF92DF92EF92FF9243
:101980000F931F93CF93DF93CDB7DEB721970FB699
:10199000F894DEBF0FBECDBFFC014B019C012F5F51
:1019A0003F4F9081FB0110821182128282E5838376
:1019B000358324839683442319F0F4E0F98302C02D
:1019C00086E08983E92EEA9469010894C11CD11C40
:1019D0008901BB247CC09981933009F46AC094309A
:1019E00038F4913009F44AC0923008F054C032C043
:1019F000E981E530A9F0E53020F0E63009F061C07A
:101A000020C0F4018181882359F4F801F0808F2DE2
:101A100099270E946713892B19F0F401F18216822D
:101A2000F8012081822F9927C0970A9718F4205334
:101A3000F4012083F80180818A3309F042C0F40167
:101A400017C0F8018081843229F4F4018183168261
:101A5000F5E0F983F8012081822F9927C0970A9732
:101A600018F480EDB82EB20E2A3341F4F401B0829E
:101A7000D582C482E682F1E0F98323C0F801808137
:101A80008C32F9F4F4018481F02FF81B8F2FF401CC
:101A90008683F2E0F1CFF4018281882321F4F801FA
:101AA0008081F4018283F80180818C3251F4F3E06B
:101AB000E3CFF4018381882321F4F8018081F401CC
:101AC00083830F5F1F4FEA940894C11CD11CFFEF62
:101AD000EF1609F080CF83E394E00E942C0CF40110
:101AE00081810E94B10C0E94B40C88E394E00E94B2
:101AF0002C0CF40180810E94B10C0E94B40C8FE385
:101B000094E00E942C0CF401848195810E942C0C9D
:101B10000E94B40C85E494E00E942C0CF4018381B3
:101B20000E94B10C0E94B40C8CE494E00E942C0C36
:101B3000F40182810E94B10C0E94B40C21960FB670
:101B4000F894DEBF0FBECDBFDF91CF911F910F91F3
:101B5000FF90EF90DF90CF90BF909F908F9008956F
:101B6000FC015283418365838FEF86831482138245
:101B70000895FC0180818C3F19F080E090E0089589
:101B80009481838120E0981708F421E081E02827E0
:101B9000822F99270895CF93DF93DC017727EB01FC
:101BA00083E0CC0FDD1F8A95E1F7C61BD70B299682
:101BB000CA0FDB1F9C918FEF88839E831B821C8240
:101BC000FD018781882311F481E008C0FD01878130
:101BD000833089F48281882371F484E087832381B0
:101BE00034818C91F901A281B38123E43EE0AE01FE
:101BF000BE01FD010995DF91CF910895982FA7E0CF
:101C0000B0E0EEEEF9E0808187FF0FC090838FEFA8
:101C100081836283548343833683258315861486A8
:101C2000148A138A80E090E008951197E759F040F4
:101C30008FEFAF3FB80739F78FEF9FEF0895982FD9
:101C400047E050E0EEEEF9E0242F8081E759F040C4
:101C5000891781F4332727FD309587E990E0AC019F
:101C6000249FC001259F900D349F900D1124835314
:101C70009A4F0895415050408FEF4F3F580721F73A
:101C800080E090E008951F93162F0E941F0EFC0124
:101C9000892B59F010878781813011F482E004C0CC
:101CA0008781843011F485E087831F9108950F9315
:101CB0001F938C018FEFF80180831782A801495E82
:101CC0005F4F60E4C80109960E94B00D095A1F4F8A
:101CD000A80160E4C801875490400E94B00D1F9194
:101CE0000F9108950F931F93CF93DF9300E010E0BF
:101CF000CEEED9E061E0CE010E94570E07591040A8
:101D0000C759D0408BEF08341807A1F7DF91CF9166
:101D10001F910F9108950E941F0E60E00E94570EC0
:101D200008950F931F93062F182F09C0812F0E942B
:101D30001F0E009719F061E00E94570E1F5F0117F8
:101D4000A8F71F910F910895FF920F931F93CF93C0
:101D5000DF93EC01F98029813327C90173E0880FF3
:101D6000991F7A95E1F7821B930B09968C0F9D1FA3
:101D70000E94B90D882329F07CC086E69EE0019779
:101D8000F1F78F818430C9F38F81853009F055C018
:101D90008D819E81892B09F44EC0898101E010E07C
:101DA0009801281B3109C90163E0880F991F6A95C2
:101DB000E1F7821B930B09968C0F9D1F2D813E81AD
:101DC0009F938F933F932F9382E594E09F938F93FC
:101DD0000E945F0C89819801281B3109F90153E0A9
:101DE000EE0FFF1F5A95E1F7E21BF30BEC0FFD1FFF
:101DF000828593859F938F9381E694E09F938F9341
:101E00000E945F0CED81FE818981081B1109C801C8
:101E100043E0880F991F4A95E1F7801B910B0996C3
:101E20008C0F9D1F09958DB79EB70A960FB6F89433
:101E30009EBF0FBE8DBF86E08F8361E0262F2F19D6
:101E4000822F9927FC0133E0EE0FFF1F3A95E1F74F
:101E5000E81BF90B3996EC0FFD1F948183819817CD
:101E600040F4298383E08F83621BCE010E94CB0D57
:101E700006C060E0CE010E94570EC0E0D0E0CE0167
:101E8000DF91CF911F910F91FF9008950F931F93B2
:101E9000CF93DF93EC01062F8F81882329F41982D9
:101EA00060E0CE010E94CB0D002329F407C086E636
:101EB0009EE00197F1F78F818130C9F38F818230E5
:101EC00009F04FC08D819E81892B09F448C029817A
:101ED0003327C90173E0880F991F7A95E1F7821BB8
:101EE000930B09968C0F9D1F2D813E819F938F939D
:101EF0003F932F938CE694E09F938F930E945F0C07
:101F000089819927FC0163E0EE0FFF1F6A95E1F7D5
:101F1000E81BF90BEC0FFD1F828593859F938F9330
:101F20008BE794E09F938F930E945F0CED81FE817D
:101F300029813327C90153E0880F991F5A95E1F78A
:101F4000821B930B09968C0F9D1F09952DB73EB7E9
:101F5000265F3F4F0FB6F8943EBF0FBE2DBF83E004
:101F60008F838F81853009F055C08D819E81892BAB
:101F700009F44EC0898101E010E09801281B310965
:101F8000C90143E0880F991F4A95E1F7821B930B23
:101F900009968C0F9D1F2D813E819F938F933F93B8
:101FA0002F9386E894E09F938F930E945F0C898122
:101FB0009801281B3109F901B3E0EE0FFF1FBA9514
:101FC000E1F7E21BF30BEC0FFD1F828593859F93D6
:101FD0008F9385E994E09F938F930E945F0CED812E
:101FE000FE818981081B1109C801A3E0880F991F90
:101FF000AA95E1F7801B910B09968C0F9D1F0995FF
:102000008DB79EB70A960FB6F8949EBF0FBE8DBFD0
:1020100086E08F83DF91CF911F910F9108950F93E9
:102020001F938C0161E00E94460FF8012181332744
:10203000C901E3E0880F991FEA95E1F7821B930B32
:102040000996800F911F0E94B90D20E030E088238F
:1020500011F421E030E0C9011F910F9108951F9301
:10206000CF93DF93EC0161E00E94460F19818F81CD
:102070008330B1F429813327C901B3E0880F991F58
:10208000BA95E1F7821B930B09968C0F9D1F0E9456
:10209000B90D882329F461E0611BCE010E94CB0DAC
:1020A00089819927FC01A3E0EE0FFF1FAA95E1F7B4
:1020B000E81BF90B3996EC0FFD1F84818F5F848339
:1020C0009481838120E0981708F421E0822F9927DA
:1020D000DF91CF911F9108950F931F938C0161E0C1
:1020E0000E94460FF80181819927FC0123E0EE0F41
:1020F000FF1F2A95E1F7E81BF90B3996E00FF11F56
:10210000A181B2818481A80FB11D8C9199271F9163
:102110000F9108950E941F0E009719F061E00E9430
:10212000460F0895FB01DC0102C001900D92415061
:102130005040D8F70895FB01DC014150504048F071
:1021400001900D920020C9F701C01D9241505040EE
:10215000E0F70895AEE0B0E0E0EBF0E10C948F130F
:102160008C0186E08C831A8309838FEF9FE79E831F
:102170008D83CE0101960E94C610EF81F885E00F95
:10218000F11F1082E4E02E960C94AB13ABE0B0E0AC
:10219000ECECF0E10C9483134C013B016A01FC016F
:1021A00017821682838181FD03C08FEF9FEFDCC110
:1021B000F4012381F30123FD859123FF81913F01E8
:1021C000882309F4CEC1853239F423FD859123FF9C
:1021D00081913F01853229F4B40199270E94CE12E2
:1021E000E7CF00E0442455243AE00032B0F48B32CB
:1021F00069F08C3228F4803251F0833271F40BC0D4
:102200008D3239F0803349F4016028C002600460E7
:1022100025C0086023C0006121C007FD2BC0282F06
:1022200020532A3078F406FF06C0539EC0011124C3
:10223000522E580E13C0439EC0011124422E480E48
:1022400000620CC08E3221F406FD8BC1006406C012
:102250008C3611F4006802C0883661F4F401838181
:10226000F30183FD859183FF81913F01882309F468
:102270006FC0BBCF982F8554833018F080528330C5
:1022800038F424E030E0C20ED31E8FE389830FC000
:10229000933631F0933799F0933509F05BC023C042
:1022A000F6018081898322E030E0C20ED31E7E01D8
:1022B0000894E11CF11C51E0A52EB12C12C0F601CE
:1022C000E080F18006FD03C06FEF7FEF02C0652D57
:1022D000772722E030E0C20ED31EC7010E94C3124E
:1022E0005C010F7713C0F601E080F18006FD03C0AA
:1022F0006FEF7FEF02C0652D772722E030E0C20E3E
:10230000D31EC7010E94B8125C01006803FF07C01A
:102310001BC0B40180E290E00E94CE124A94842D4A
:102320009927A816B906A8F30FC0F70107FD8591F4
:1023300007FF81917F01B40199270E94CE124110BD
:102340004A940894A108B108A114B10471F706C118
:1023500090E03EC0943611F0993691F507FF0AC01F
:10236000F601608171818281938124E030E0C20EA8
:10237000D31E0DC0F601808191819C01B90188278F
:1023800077FD8095982F42E050E0C40ED51E4FE6B1
:10239000B42EB02297FF09C09095809570956195F5
:1023A0007F4F8F4F9F4F50E8B52A8E010F5F1F4F11
:1023B0002AE030E0A8010E94FB12A82EA01A4DC00E
:1023C000953731F43FEEF32EF0222AE030E023C0BF
:1023D00029EFF22EF0229F3661F0903720F49835E5
:1023E00009F0BFC012C0903739F0983709F0B9C072
:1023F00005C028E030E00FC080E1F82AF4FE02C0FA
:1024000094E0F92A20E130E006C0F4FE02C0E6E0E4
:10241000FE2A20E132E0F7FE0AC0F60160817181F8
:102420008281938144E050E0C40ED51E0BC0F601BA
:1024300080819181AC01BA0188279927E2E0F0E020
:10244000CE0EDF1E8E010F5F1F4FA8010E94FB12F0
:10245000A82EA01A8FE7B82EBF20B6FE10C0FEEF40
:10246000BF22A51460F42B2D332724FF1AC022FFAE
:1024700002C0052D09C02FEEB222052D01C00A2D84
:102480002B2D332724FF0EC0FE01EA0DF11D8081A4
:10249000803319F439EEB32209C00F5F22FF06C062
:1024A00004C0052D822F867809F00F5FEB2CFF24E6
:1024B000E3FC14C0E0FE0FC0041510F05A2C0BC052
:1024C000542C501A5A0C042D06C0B40180E290E03E
:1024D0000E94CE120F5F0415C0F304C0041510F45F
:1024E000401A01C04424E4FE10C0B40180E390E02F
:1024F0000E94CE12E2FE1EC0E1FE03C088E590E01D
:1025000002C088E790E0B4010CC08E2D867891F06F
:10251000E1FE02C08BE201C080E2B7FC8DE2B401B3
:1025200099270E94CE1206C0B40180E390E00E9479
:10253000CE125A94A514C0F3AA94FE01EA0DF11D1F
:102540008181B40199270E94CE12AA2039F0F4CFDC
:10255000B40180E290E00E94CE124A944420C1F778
:1025600027CEF40186819781E0E12B960C949F138E
:10257000FC010590615070400110D8F7809590954E
:102580008E0F9F1F0895FC01615070400190011053
:10259000D8F7809590958E0F9F1F08950F931F93E6
:1025A000CF93DF938C01EB018B81992781FF1BC0B7
:1025B00082FF0DC02E813F818C819D8128173907B4
:1025C00064F4E881F9810193F983E88306C0E88522
:1025D000F985802F0995892B31F48E819F81019691
:1025E0009F838E8302C00FEF1FEFC801DF91CF9151
:1025F0001F910F910895FA01AA27283051F1203137
:1026000081F1E8946F936E7F6E5F7F4F8F4F9F4F86
:10261000AF4FB1E03ED0B4E03CD0670F781F891FC8
:102620009A1FA11D680F791F8A1F911DA11D6A0F96
:10263000711D811D911DA11D20D009F468943F9149
:102640002AE0269F11243019305D3193DEF6CF0148
:102650000895462F4770405D4193B3E00FD0C9F70E
:10266000F6CF462F4F70405D4A3318F0495D31FD7B
:102670004052419302D0A9F7EACFB4E0A6959795CE
:10268000879577956795BA95C9F7009761057105A4
:1026900008959B01AC010A2E0694579547953795EE
:1026A0002795BA95C9F7620F731F841F951FA01D48
:1026B0000895991B79E004C0991F961708F0961B9E
:1026C000881F7A95C9F78095089585FD17C08062A7
:1026D000911114C081568A51E0F70895803209F0B3
:1026E00091110CC080528F55E0F708959111089513
:1026F00081568A5108F48052855808959927882771
:1027000008952F923F924F925F926F927F928F9295
:102710009F92AF92BF92CF92DF92EF92FF920F9370
:102720001F93CF93DF93CDB7DEB7CA1BDB0B0FB67A
:10273000F894DEBF0FBECDBF09942A883988488837
:102740005F846E847D848C849B84AA84B984C884CD
:10275000DF80EE80FD800C811B81AA81B981CE0FC4
:10276000D11D0FB6F894DEBF0FBECDBFED010895A9
:02277000FFCF99
:1027720044415441204C20004F50454E2000556E9C
:102782006B6E6F776E204C48212000454F49200028
:1027920041544E5F4952513A00696565652E632F77
:1027A200736C656570200041544E2000554E4C49B3
:1027B2005354454E00554E54414C4B0054414C4BE2
:1027C20020004C495354454E20004441544120546A
:1027D20020006F70656E2073746174757320636876
:1027E200616E6E656C202D3E2025640A006368616F
:1027F2006E6E656C206E6578742066616C73650020
:10280200434C4F53452000636D6470726F63657370
:1028120073206572726F723A20002A2A2A20544964
:102822004D454F55542041424F52542A2A2A0049BD
:102832004545452053746174757320726566696CF1
:102842006C00534E483A207061636B657420747952
:102852007065206973206E6F742046535F52454144
:10286200442C206275743A2025640A00F8020000A4
:102872000000000000000000000000000000000056
:102882000000000000000000000000000000000046
:102892000000000000000000000000000000FF0433
:1028A2000000000000000000000000000000000026
:1028B2000000000000000000000000000000000016
:1028C2000000000000000000000000000000000006
:1028D20000000000000000000000000000000000F6
:1028E20000000000000000000000000000000000E6
:1028F20000000000000000000000000000000000D6
:1029020000000000000000000000000000000000C5
:10291200000000000000000000000000000000FCB9
:1029220001303132333435363738396162636465A8
:10293200662323232058532D313534312076302E0F
:1029420030322E3031202323230020257520427976
:102952007465732066726565002C202564206B48BF
:102962007A0050204953204E554C4C210078643255
:10297200303331006469720070726700626C6F6399
:102982006B73206672656500434F4E56455253493C
:102992004F4E204E4F5420504F535349424C4521E5
:1029A20000434F4E56455254454420544F3A204C12
:1029B200454E3D0065078E07120848093031323313
:1029C200343536373839616263646566434F4D4D3D
:1029D200414E443A20004F50454E2046494C453A1C
:1029E20020464F52204348414E3A0020574954480E
:1029F200204E414D453A20004E4F20434F52524502
:102A0200435420434D443A2000494C4C4547414CE5
:102A12002044524956453A2000554E4B4F574E20BE
:102A220046494C4520545950453A2000554E4B4F8B
:102A3200574E2046494C4520414343455353205469
:102A42005950452000575249544520544F2044497B
:102A5200524543544F525921004E4F204F50454E3C
:102A620020534C4F5420464F52204F50454E210088
:102A72004E414D4520434F4E56455253494F4E20ED
:102A82004558434545445320425546464552210048
:102A9200453D00303132333435363738396162637F
:102AA200646566434D443D0044524956453D004EDF
:102AB200414D453D0041434353533D005459504518
:102AC2003D003E3E333A2025702C20703D25700A91
:102AD200003E3E333A20623D25700A003E3E313AC6
:102AE2002025702C20703D25700A003E3E313A2090
:102AF200623D25700A003E3E323A2025702C20703D
:102B02003D25700A003E3E323A20623D25700A00A1
:00000001FF
