:100000000C94F2000C940F010C940F010C940F014E
:100010000C940F010C940F010C940F010C945B01D4
:100020000C940F010C940F010C940F010C940F0110
:100030000C940F010C9440050C940F010C940F01CB
:100040000C940F010C940F010C940F010C940F01F0
:100050000C9453060C942F060C940F010C940F0172
:100060000C940F010C940F010C940F010C940F01D0
:100070000C940F010C940F010C940F0158532D3167
:100080003534312056302E3100302E31414C50481D
:10009000410080204F4B8100532053435241544331
:1000A00048454482080994959697989B0103999C2A
:1000B00002039A022050524F54454354204F4E9D04
:1000C000054944204D49534D415443489E9FA0A1AA
:1000D000A253594E54415803A7BE0004464F554EF3
:1000E00044B2070450524553454E54B34F564552FF
:1000F000464C4F5720494E2007B4000B4C41524705
:1001000045BC0220002006BD000406BF0020455863
:1001100049535453C0002054595045204D49534D24
:1001200041544348C10C424C4F434BC2C30A205474
:100130005241434B204F5220534543544F52C60C1B
:100140004348414E4E454CC744495203C8054655A5
:100150004C4CCA4452495645040159CD0920080A5D
:10016000CE4255464645520B534D414C4CCF494D1E
:10017000414745200020494E56414C4944E3434CF9
:100180004F434B20554E535441424C45FF80464906
:100190004C4581524541448257524954458320453C
:1001A00052524F5284204E4F5420854449534B2085
:1001B000864F50454E875245434F524488504152D6
:1001C000544954494F4E208953454C454354454466
:1001D0008A494C4C4547414C8B20544F4F208C4E04
:1001E0004F20FF0011241FBECFEFD0E1DEBFCDBFF7
:1001F00014E0A0E0B1E0E2EFF5E202C005900D925C
:10020000AA34B107D9F71AE0AAE4B4E001C01D92FC
:10021000AF32B107E1F70E94FE040C94F8120C947F
:1002200000002FB7F89480917505909176052FBF47
:100230000895882319F03C98449A089544983C9A6C
:100240000895882319F03D98459A089545983D9A58
:100250000895882319F03E98469A089546983E9A44
:10026000089511B88FEF82B953983E983F983C9803
:100270003D985B9A469A479A449A459A08950E94F7
:100280003101DB9AE3E7F0E0808188608083E8E673
:10029000F0E080818860808386E69EE00197F1F738
:1002A00088E0809369051092DE0180916A058E7F57
:1002B00080936A0508951F920F920FB60F92112432
:1002C0002F933F934F935F936F937F938F939F935E
:1002D000AF93BF93EF93FF934B9906C080E00E94CA
:1002E000190180E00E942101FF91EF91BF91AF9130
:1002F0009F918F917F916F915F914F913F912F913E
:100300000F900FBE0F901F9018950F931F93CF93D0
:10031000DF9380E00E94190181E00E9421010E9488
:100320001101069690934D0480934C0400914C0467
:1003300010914D040E941101081B190B17FD27C0D5
:100340003699F4CF80E00E94210180B18095C82FBA
:10035000DD27379BD1604B9BD26081E00E94190161
:100360000E941101069690934D0480934C040091D5
:100370004C0410914D040E941101081B190B17FD2C
:1003800006C0369BF4CF80E00E94190102C0CCEF7A
:10039000D0E0CE01DF91CF911F910F91089594E0AD
:1003A00090936B0580936C0508950E943101109223
:1003B0006B0508950E940B0C0895E82FFF27EF703E
:1003C000F070E55AFD4F80810E94DA0108951F9375
:1003D000182F82958F700E94DD01812F0E94DD0110
:1003E0001F91089580916A0581FF20C080916E055C
:1003F0008F3029F48EED91E00E94CC0910C083E08B
:1004000080936B0580916E054FEC51E06EED71E0CD
:100410000E94520A87FF03C082E080936B0510920E
:10042000DE0180916A058D7F80936A0508950E94A0
:10043000230C0E94300C0895EF92FF920F931F93AC
:10044000CF93DF93182F8F7080936E0580916E0588
:100450000E946E0DFC01892B19F08281813071F0B0
:10046000E12EFF248701007F1070003F1105A9F0E5
:1004700083E60E94DA01CFEFDFEF68C0E12EFF24B0
:100480008701007F10700036110521F0003F110533
:1004900039F403C080E091E005C088E091E002C03B
:1004A0008EE091E00E94AE0B80916E050E94E70104
:1004B0000E9417020E948501EC0197FDFBCF91FD80
:1004C00045C08CE30E94DA01D0FF08C08BE191E0C7
:1004D0000E94AE0B80916A05816003C080916A051D
:1004E0008E7F80936A058C2F0E94E70180E20E9434
:1004F000DA01D070CE010E94B012892B11F08C2F3E
:1005000001C08FE30E94DA010E941702C7018F70B9
:1005100090700F9719F0003F1105B1F48091DE0142
:10052000883740F4E82FFF27E252FE4FC1838F5FE8
:100530008093DE0180916A0580FFBCCF80916A05BF
:10054000826080936A05B6CFCEEFDFEFCE01DF91F8
:10055000CF911F910F91FF90EF9008951F93182F47
:1005600080E291E00E94AE0B812F0E94E7010E9481
:100570001702112321F080917300886003C08091DD
:100580007300877F809373001F91089581E00E941C
:10059000AE020E94D501089520E040E00E94570974
:1005A000089580E00E94AE020E94310160E08EEA70
:1005B00091E00E94CC0289E291E00E94AE0B85E0BE
:1005C00080936B05089510924B0410924A0469E4DD
:1005D0008EEA91E00E94CC0210926B0510926D059C
:1005E000089560E08EEA91E00E94CC020895EF92B7
:1005F000FF920F931F93CF93DF9380916B05813010
:1006000081F0813030F08230A9F0843009F0D3C11C
:1006100086C14B99D0C181E20E94DA0181E08093CA
:100620006B0582E080936B050E94850190934B04DB
:1006300080934A0480914A0490914B0497FF04C030
:1006400083E60E94DA01B5C1907090934B048093C9
:100650004A0487E391E00E94AE0B80914A040E9415
:10066000E7010E94170240914A0450914B044F3316
:10067000510549F480916D05813051F510926D0559
:100680008CE391E00BC04F35510559F480916D0515
:100690008230F1F410926D0585E491E00E94AE0B7A
:1006A0002AC080916905282F3327C901805C9F4F9C
:1006B0004817590781F48CE491E00E94AE0B8091B9
:1006C00069050E94E7010E94170282E080936D0590
:1006D00010926B0570C1205E3F4F4217530771F4B3
:1006E00081E080936D0582E591E00E94AE0B8091E0
:1006F00069050E94E7010E941702EACF9A01207F54
:1007000030702036310509F0E1C04B9BFECF80915F
:100710006D05813009F443C180916D05823009F087
:1007200048C1842F8F7080936E058AE591E00E9406
:10073000AE0B80916E050E94E7010E941702809126
:100740006E050E946E0DB8C0CE010E94BB0FF82E40
:1007500089819927FC0123E0EE0FFF1F2A95E1F71D
:10076000E81BF90B3996EC0FFD1F80818C3F09F0D7
:10077000F7C0848123819927019633278217930735
:100780000CF4EEC08F2D0E94E70182E691E00E94FA
:10079000AE0B81E00E94E7010E9417020E94310126
:1007A00047983F9A81E0E82EF1B88F2D809582B965
:1007B0004B9BFFC086E38A95F1F74B9BFAC00E94E2
:1007C0001101069690934D0480934C044B9BF1C00D
:1007D00000914C0410914D040E941101081B190B4B
:1007E00017FDD0C0359BF2CF80E00E9429010E9406
:1007F0001101069690934D0480934C044B9BD9C0F5
:1008000000914C0410914D040E941101081B190B1A
:1008100017FDB8C03599F2CF0E941101069690934A
:100820004D0480934C044B9BC4C000914C04109128
:100830004D040E941101081B190B17FDA3C0349B26
:10084000F2CF81E00E942901EE2011F48EE301C075
:100850008DE20E94DA018F2D0E94E70180E20E9462
:10086000DA018F2D99270E94B012892B11F08F2D5C
:1008700001C08FE30E94DA010E941702CE010E949C
:100880007E0F882309F060CF8CE691E00E94AE0BCA
:100890000E941702CE010E945E0F882351F48091BE
:1008A0006E05882309F085C080916E050E94DA0DDF
:1008B00080C0CE010E94F30DEC01009709F479C0CD
:1008C0000E945E0F882309F03FCF73C080916D05B1
:1008D000882309F46EC0203E3105E1F4842F8F7027
:1008E00080936E058FE791E00E94AE0B80916E05BC
:1008F0000E94E7010E94170280916E058F3029F453
:100900006FE080E00E94E00DE3CE80916E050E94D2
:10091000DA0DDECE203F310509F441C0D9CE86E89C
:1009200091E00E94AE0B80916C050E94E7010E944D
:10093000170280916C05882359F060916C058EEA4E
:1009400091E00E94CC0280916E050E94DA0D04C0F5
:1009500080916E050E94D90F82E080936B052BC0B9
:100960008F2D0E94E70182E691E00E94AE0B80E0AD
:100970000E94E7010E9417020E9431013F98479AA6
:10098000EE2412CF89E991E00E94AE0B0E9417027B
:1009900083E60E94DA018CEF0E94E7010AC0842FEF
:1009A0000E941C0290934B0480934A040E94F2011F
:1009B00002C00E94D501DF91CF911F910F91FF904E
:1009C000EF9008958DB79EB78F529A400895109278
:1009D000730582E08093700581E080936F05089530
:1009E0000E94230C8EE20E940B0C0E94230C8BE6CB
:1009F00092E00E94AE0B0E94230C089510927305A2
:100A000082E08093700581E080936F05389A40986A
:100A10000E9476070E94890B0E94E7090E94C10D7F
:100A20000E943F0178940E94F0048DB79EB78F52C8
:100A30009A409F938F9384E892E09F938F930E94B4
:100A4000E10B89E999E3A0E0B0E0BF93AF939F93F6
:100A50008F9383E992E09F938F930E94E10B0E9412
:100A6000230C0E94230C0E94E3028DB79EB70A96C6
:100A70000FB6F8949EBF0FBE8DBF0E94F702FDCF48
:100A80001F920F920FB60F9211248F939F93809114
:100A9000750590917605019690937605809375057E
:100AA0009F918F910F900FBE0F901F90189582E02D
:100AB00085BD8FEF98E09093890080938800109215
:100AC000850010928400109280008BE0809381005A
:100AD000EFE6F0E08081826080830895813448F001
:100AE0008B3510F4805805C0813618F08B3718F418
:100AF00080529927089599270895EF92FF920F93B6
:100B00001F93CF93DF93EC018B0106C00E946E050B
:100B10008883E7010F5F1F4FF80180817E010894F1
:100B2000E11CF11C882391F71882C701DF91CF9156
:100B30001F910F91FF90EF900895FC01A181B28168
:100B400043818C91813418F08B3518F4805E99279D
:100B500011C08136E0F38B3710F48052F8CF813C1E
:100B6000B0F3282F33278B3D20F4C9018F77907085
:100B700001C0C9018C93415011F01196E2CF80E081
:100B800090E00895CF93DF9344E05CC0A0914F04C0
:100B9000B091500480915704813089F082301CF468
:100BA000882331F035C08230A1F08330E9F030C0C5
:100BB00081E0809357048C91282F332726C082E050
:100BC00080935704ED018B81282F33272D5F3F4FF2
:100BD0001CC0FD018681282F33278381882399F04B
:100BE00083E08093570411C0ED01E981FA818C8183
:100BF000E80FF11D90818F5F8C83292F33279C8113
:100C00008B81981710F0409357042093C60024C09E
:100C100080914E04815080934E0420E030E009C062
:100C2000FF27EE0FFF1FE15BFB4F828193819183D2
:100C30008083E22F80914E042F5F3F4FE81780F3AF
:100C40001092570480914E04882309F09FCF809121
:100C5000C1008F7D8093C100DF91CF9108951F92D5
:100C60000F920FB60F9211242F933F934F935F93E0
:100C70006F937F938F939F93AF93BF93EF93FF9364
:100C80000E94C205FF91EF91BF91AF919F918F910B
:100C90007F916F915F914F913F912F910F900FBE78
:100CA0000F901F9018951F920F920FB60F9211245C
:100CB0002F933F934F935F936F937F938F939F9364
:100CC000AF93BF93EF93FF934091C60020916C04C4
:100CD000223009F1233034F4222359F0213009F075
:100CE0008FC012C0233009F44DC0243009F088C0F1
:100CF00055C0842F8D5F823018F04C3F09F080C0C2
:100D00004093720481E004C043504093710482E038
:100D100080936C0475C040936D0484E080936C04F0
:100D200020E030E0E8E5F4E080813596841719F59D
:100D300020936E04822F992787FD9095FC01EE0F7A
:100D4000FF1FEE0FFF1FE80FF91FE85AFB4F01804E
:100D5000F281E02DF0937004E0936F04209172040F
:100D6000958180917104981708F44AC020834683C6
:100D7000138283E0CDCF2F5F3F4F2430310509F43C
:100D80003FC0D2CFE0916F04F0917004A181B28195
:100D90008381A80FB11D4C938F5F83838091710471
:100DA000815080937104882359F580916E049927AE
:100DB00087FD9095FC01EE0FFF1FEE0FFF1FE80F60
:100DC000F91FE85AFB4F0380F481E02D243011F421
:100DD0006FEF01C060E080916D04099580916E0411
:100DE000992787FD9095FC01EE0FFF1FEE0FFF1F67
:100DF000E80FF91FE85AFB4F8FEF808310926C04C5
:100E0000FF91EF91BF91AF919F918F917F916F91E2
:100E10005F914F913F912F910F900FBE0F901F90B8
:100E200018959C01E6E6FEE003C0CF010197F1F7BB
:100E300080914E048330C8F7F894E0914E04FF2768
:100E4000EE0FFF1FE15BFB4F3183208380914E0447
:100E50008F5F80934E0480914E04813049F48091DD
:100E6000C10080628093C100109257040E94C205A5
:100E7000789408951F93CF93DF93182FEB01B90156
:100E80002FEF18C02A2F10C0FD01EE0FFF1FEE0F2D
:100E9000FF1FEA0FFB1FE85AFB4F8081882394F362
:100EA0001196A430B10581F786E69EE00197F1F72F
:100EB00027FF03C0A0E0B0E0E7CF822F992787FD8E
:100EC0009095FC01EE0FFF1FEE0FFF1FE80FF91FBB
:100ED000E85AFB4F10835283418374836383CE01AE
:100EE0000E941107DF91CF911F91089510924E0437
:100EF0008FEF809367048093620480935D048093F6
:100F0000580410926C0484E080935704E1ECF0E004
:100F100088E0808380818061808387E08093C40043
:100F20001092C50080818068808308950E940B0C18
:100F30000895E82FFF27EF70F070EB50FD4F808190
:100F40000E94960708951F93182F82958F700E9414
:100F50009907812F0E9499071F9108950E94230CE1
:100F60000E94300C0895E6E6FEE003C0CF01019731
:100F7000F1F780914E048823C9F70895AF92BF928C
:100F8000CF92DF92FF920F931F93CF93DF93CDB752
:100F9000DEB721970FB6F894DEBF0FBECDBF6C0150
:100FA000009729F48CE992E00E94AE0BD8C0FC01B6
:100FB000A180B280F501F284F1E0FF1619F0A3E7F9
:100FC000B4E007C0F092730484E080937404A5E752
:100FD000B4E081E0FD0181939F01FD018183B901AE
:100FE0006F5F7F4FF5018381882309F0E1C0D50150
:100FF000129682818A3F08F0DBC08281893F39F4F2
:1010000081818F3F21F48081882309F0D1C0F501CF
:1010100081812C91482F55273327322F2227422BAD
:10102000532B8081882311F04F5F5F4FDB014D937D
:10103000852F9927FB0181838D010F5F1F4F4A3058
:10104000510528F480E2FD0181830F5F1F4FF1E01D
:10105000FF1629F482E1D8018D938D011CC0B2E006
:10106000FB1609F454C04436510528F480E2F80117
:1010700081938F0104C0F3E0483E5F0728F480E2CB
:10108000D8018D938D0103C04051574220F480E276
:10109000F80181938F0182E2D8018D938D01EBE0FD
:1010A000F0E0AE0EBF1E9BE009C0808199830E94D4
:1010B0006E05D8018D938D0199819F5FF501808127
:1010C000882329F00894A11CB11C9B3171F782E29E
:1010D000F801808380E202C080839F5F31969C315B
:1010E000D8F38F01F1E0FF1619F467EA72E005C04A
:1010F00083E0F81639F46EEA72E0C8010E947D05BB
:101100008C0116C0FF2019F462EB72E0F6CF92E07A
:10111000F91671F466EB72E0C8010E947D05DC01EE
:10112000FC011192CF01FD0111828C010F5F1F4F55
:1011300083E794E0102F181BF6018581212F3327B8
:10114000992787FD90958217930764F481EC92E0CC
:101150000E94AE0B812F0E94A3070E94AE078FEF63
:101160009FEF32C08AED92E00E94AE0B812F0E9469
:10117000A30700E00BC080E20E949607E02FFF2744
:10118000ED58FB4F80810E94A3070F5F011799F76D
:101190000E94AE07F60181819281412F552763E7B6
:1011A00074E00E94E10FF601138380E090E00CC030
:1011B000DB018FEF8D9389EFFB0181838D010F5F41
:1011C0001F4F4FEF59EF43CF21960FB6F894DEBF74
:1011D0000FBECDBFDF91CF911F910F91FF90DF9098
:1011E000CF90BF90AF9008950F931F93CF93DF934D
:1011F000DC01EB0100E0552740585F4FFE01E00F96
:10120000F11D0F5FC895202D822F99278417950710
:1012100019F02F3F19F0F2CF2F3F21F48FE38D9378
:101220001EC00F5FFE01E00FF11DC895E02DE7FD28
:10123000F8CFFE01E00FF11D0F5FC895102D1032A1
:1012400050F4412F6DE871E0CD010E94F408DC01FB
:1012500017FFEFCF04C017FD02C01D93EACFCD01E9
:10126000DF91CF911F910F910895CF93DF93DC0110
:10127000262F643650F0862F64E60E949912805D16
:101280008D93822F0E949912292F822F6AE00E944B
:101290009912805DFD018193822F0E949912905DC9
:1012A000ED019983CF010196DF91CF910895DF92EF
:1012B000EF92FF920F931F93CF93DF93F62ED42ECE
:1012C000E22EFC0132968EE2DF011D928A95E9F74B
:1012D000CF010E943509DC01FC018CE2819383E09F
:1012E000F81669F49F012F5F3F4F91E0E91611F066
:1012F00085E401C084E4FD018183F90136C089E001
:10130000F81611F4ED0104C099E4F91639F5FACF95
:10131000CE018A1BE82FFF27E458FF4FC895E02D28
:10132000E9832196EE23A1F78E010F5F1F4F99E00D
:10133000F91689F48E01E02FEC1BFF27E757FF4FCA
:10134000C895E02D8E2F99270E94B612D8018D9353
:101350008D01882381F7F801319707C04F2D62E98D
:1013600070E0CF010E94F408FC011CE211936D2D86
:10137000CF010E943509FC0111936E2DCF010E940F
:101380003509FC018DE08083DF91CF911F910F9192
:10139000FF90EF90DF9008950F931F938C0185E0ED
:1013A00093E00E94AE0BC80101960E94AE0B0E9412
:1013B000230C0E94300C1F910F910895FC01528361
:1013C000418365838FEF86831482138208958FEFA4
:1013D0008093B3048093C6040895CF93DF93982F2E
:1013E0008091B304891719F4C0E0D0E006C0809161
:1013F000C604891791F5C1E0D0E067FF11C083E111
:1014000090E0C89FF001C99FF00DD89FF00D112406
:10141000ED54FB4F0188F289E02D8AE4099510C054
:1014200083E190E0C89FF001C99FF00DD89FF00DB7
:101430001124ED54FB4F218932898785F9010995E3
:1014400083E190E0C89FF001C99FF00DD89FF00D97
:101450001124ED54FB4F8FEF8083DF91CF910895DE
:101460000E940B0C0895E82FFF27EF70F070E453F3
:10147000FC4F80810E94300A08951F93182F829597
:101480008F700E94330A812F0E94330A1F910895A2
:101490000E94230C0E94300C089520E040E00E943E
:1014A000570908958F929F92BF92CF92DF92EF9249
:1014B000FF920F931F93CF93DF93B82EEB014A0156
:1014C0008FE093E00E94AE0B8B2D0E943D0A84E2D8
:1014D00093E00E94AE0BCE0101960E94AE0B0E94DB
:1014E000480A69ED74E0CE010E943B0C8091DA0459
:1014F000882371F0843261F081E393E00E94AE0BA7
:101500008091DA040E94300A0E94480A1092DA049C
:101510008091D904882379F082E493E00E94AE0B95
:101520008091D904805D0E94300A0E94480AC55803
:10153000DF4F6AE4A7C08091DB04882391F08335F4
:1015400081F0803571F082E593E00E94AE0B8091CE
:10155000DB040E94300A0E94480AC558DF4F60E44D
:1015600091C09091DC049923A1F0973591F09235C8
:1015700081F0913471F085E693E00E94AE0B80918A
:10158000DC040E94300A0E94480AC558DF4F6EE111
:1015900079C02091DA04243221F4992311F0923594
:1015A00049F48091B30487FD97C08091C6048823D5
:1015B00084F40AC08EE793E00E94AE0B0E94480AB2
:1015C000C558DF4F6FE35EC036ECC32E34E0D32E38
:1015D00005C082E993E00E94AE0B4FC0973511F42D
:1015E00002E005C0913411F405E001C001E02432AD
:1015F00009F406E076010894E11CF11C4091DD0439
:101600005091DE046091DF04C7010E94DE098091E1
:10161000DF04F6010183F701B68283831482E0912F
:10162000F302F091F402309771F0C701099587FF3A
:101630000AC089EA93E00E94AE0B0E94480AC5588E
:10164000DF4F62E21FC0013019F460E070E004C0B7
:101650000630E1F161E070E020E030E04DEE52E074
:101660008B2D0E944D0D082F87FF13C089EC93E04E
:101670000E94AE0B802F0E943D0A0E94480AC55866
:10168000DF4F66E4888199810E944D0A8FEF9FEFBA
:1016900028C0F601928A818AB0828601085F1F4FB6
:1016A0008FE090E0C80ED91EA60162E0C8010E943A
:1016B000DE09E091EF02F091F0022DEE39E0A80191
:1016C000B7018B2D099580E090E00BC02091F102CD
:1016D0003091F20260E0C2CF83EBC82E84E0D82EB6
:1016E0007DCFDF91CF911F910F91FF90EF90DF9011
:1016F000CF90BF909F908F900895FC01A6E6BEE02A
:1017000003C0CD010197F1F7938184819817C9F740
:1017100008951092610580EE94E0909364058093A3
:10172000630581E8809367058FEF809368051092C9
:101730006605109265050895909161051092620505
:101740008FEF80936805909365051092660582E699
:1017500095E00E9411071092610508951F93CF93A1
:10176000DF93EC0182E695E00E947D0BFE01019083
:101770000020E9F731971E2F1C1B80916105810F16
:10178000912D911D8138910514F00E949C0B82E6E9
:1017900095E00E947D0B113808F011E880916105F9
:1017A0009927412F5527BE0180529B4F0E94E10F80
:1017B00080916105810F80936105DF91CF911F9129
:1017C00008950F931F93CF93DF93CDB7DEB7C35820
:1017D000D0400FB6F894DEBF0FBECDBFFE01E65776
:1017E000FF4F61917191FA83E9838E010D5F1F4F65
:1017F000AF01C8010E94EA0FC8010E94AE0BCD578D
:10180000DF4F0FB6F894DEBF0FBECDBFDF91CF9193
:101810001F910F9108951F93182F82E695E00E9463
:101820007D0B80916105813850F4E82FFF27E0524D
:10183000FB4F10838F5F80936105813810F00E9409
:101840009C0B1F9108958DE00E940B0C8AE00E9472
:101850000B0C80916105882311F00E949C0B089568
:101860000E94B30708950E940B0C08950E94230C58
:101870000E94300C0895AF92BF92CF92DF92EF9208
:10188000FF920F931F93CF93DF93CDB7DEB72197CE
:101890000FB6F894DEBF0FBECDBFFC015B019C010B
:1018A0002F5F3F4F9081FB0110821182128282E5EF
:1018B0008383358324839683E92EEA9489011982F0
:1018C000DD24CC2459C0F981F13079F1F13030F0C8
:1018D000F230C9F1F33009F04CC043C0DD2051F4BF
:1018E000F801F0808F2D99270E94A712892B19F4F7
:1018F000F4E2FF12FD2CF8012081822F9927C09776
:101900000A9718F480EDC82EC20E2A3369F4F50147
:10191000C082F1820F5F1F4F158304830150104076
:10192000E682DF2CF1E00DC0DF2CF80180818C32E3
:1019300001F5F5018481F02FF81B8F2FF5018683C7
:10194000F2E0F98316C0F5018281882321F4F801C1
:101950008081F5018283F80180818C3251F4F3E0BB
:10196000F0CFF5018381882321F4F8018081F5010E
:1019700083830F5F1F4FEA94FFEFEF1609F0A3CFA9
:101980008CED93E00E94AE0BF50181810E94330C37
:101990000E94360C81EE93E00E94AE0BF50180812F
:1019A0000E94330C0E94360C88EE93E00E94AE0B2E
:1019B000F501848195810E94AE0B0E94360C8EEE5B
:1019C00093E00E94AE0BF50183810E94330C0E94CC
:1019D000360C85EF93E00E94AE0BF50182810E94E8
:1019E000330C0E94360C21960FB6F894DEBF0FBE62
:1019F000CDBFDF91CF911F910F91FF90EF90DF90BE
:101A0000CF90BF90AF900895FC01528341836583CE
:101A10008FEF8683148213820895FC0180818C3FAE
:101A200019F080E090E008959481838120E0981778
:101A300008F421E081E02827822F99270895CF9389
:101A4000DF93EC017727DB0183E0AA0FBB1F8A95A8
:101A5000E1F7A61BB70B1996AC0FBD1F98818FEF4E
:101A60008C93FD019683138214828F81882311F455
:101A700081E004C08F81833011F484E08F83EB8197
:101A8000FC8188810280F381E02D22E93DE0AD01F7
:101A9000BD010995DF91CF910895982FA7E0B0E09F
:101AA000E8E9F9E0808187FF0FC090838FEF8183A1
:101AB0006283548343833683258315861486148A70
:101AC000138A80E090E008951197E759F0408FEF76
:101AD000AF3FB80739F78FEF9FEF0895982F47E092
:101AE00050E0E8E9F9E0242F8081E759F0408917B8
:101AF00081F4332727FD309587E990E0AC01249FDE
:101B0000C001259F900D349F900D112489589A4F44
:101B10000895415050408FEF4F3F580721F780E024
:101B200090E008951F93162F0E946E0DFC01892BE3
:101B300059F010878781813011F482E004C08781D9
:101B4000843011F485E087831F9108950F931F93CC
:101B50008C018FEFF80180831782A801495E5F4FE7
:101B600060E4C80109960E94040D095A1F4FA8019C
:101B700060E4C801875490400E94040D1F910F91AA
:101B800008950F931F93CF93DF9300E010E0C8E90F
:101B9000D9E061E0CE010E94A60D07591040C75957
:101BA000D0408BEF08341807A1F7DF91CF911F9138
:101BB0000F9108950E946E0D60E00E94A60D089599
:101BC0000F931F93062F182F09C0812F0E946E0DAF
:101BD000009719F061E00E94A60D1F5F0117A8F79A
:101BE0001F910F910895FF920F931F93CF93DF934F
:101BF000EC01F98029813327C90173E0880F991F0F
:101C00007A95E1F7821B930B09968C0F9D1F0E941A
:101C10000D0D882329F07CC086E69EE00197F1F740
:101C20008F818430C9F38F81853009F055C08D8153
:101C30009E81892B09F44EC0898101E010E0980152
:101C4000281B3109C90163E0880F991F6A95E1F7E4
:101C5000821B930B09968C0F9D1F2D813E819F93B4
:101C60008F933F932F938BEF93E09F938F930E94DB
:101C7000E10B89819801281B3109F90153E0EE0F2E
:101C8000FF1F5A95E1F7E21BF30BEC0FFD1F828556
:101C900093859F938F938AE094E09F938F930E9404
:101CA000E10BED81FE818981081B1109C80143E028
:101CB000880F991F4A95E1F7801B910B09968C0FAD
:101CC0009D1F09958DB79EB70A960FB6F8949EBFD3
:101CD0000FBE8DBF86E08F8361E0262F2F19822FE4
:101CE0009927FC0133E0EE0FFF1F3A95E1F7E81B5F
:101CF000F90B3996EC0FFD1F94818381981740F4FE
:101D0000298383E08F83621BCE010E941F0D06C0D2
:101D100060E0CE010E94A60DC0E0D0E0CE01DF91D0
:101D2000CF911F910F91FF9008950F931F93CF9321
:101D3000DF93EC01062F8F81882329F4198260E05C
:101D4000CE010E941F0D002329F407C086E69EE005
:101D50000197F1F78F818130C9F38F81823009F0CB
:101D60004FC08D819E81892B09F448C0298133277A
:101D7000C90173E0880F991F7A95E1F7821B930BD5
:101D800009968C0F9D1F2D813E819F938F933F93CA
:101D90002F9385E194E09F938F930E94E10B8981BB
:101DA0009927FC0163E0EE0FFF1F6A95E1F7E81B3E
:101DB000F90BEC0FFD1F828593859F938F9384E22F
:101DC00094E09F938F930E94E10BED81FE81298126
:101DD0003327C90153E0880F991F5A95E1F7821BF9
:101DE000930B09968C0F9D1F09952DB73EB7265F63
:101DF0003F4F0FB6F8943EBF0FBE2DBF83E08F83D9
:101E00008F81853009F055C08D819E81892B09F421
:101E10004EC0898101E010E09801281B3109C901F9
:101E200043E0880F991F4A95E1F7821B930B0996AF
:101E30008C0F9D1F2D813E819F938F933F932F93F6
:101E40008FE294E09F938F930E94E10B8981980128
:101E5000281B3109F901B3E0EE0FFF1FBA95E1F736
:101E6000E21BF30BEC0FFD1F828593859F938F93ED
:101E70008EE394E09F938F930E94E10BED81FE81AE
:101E80008981081B1109C801A3E0880F991FAA9531
:101E9000E1F7801B910B09968C0F9D1F09958DB75B
:101EA0009EB70A960FB6F8949EBF0FBE8DBF86E010
:101EB0008F83DF91CF911F910F9108950F931F93FF
:101EC0008C0161E00E94950EF80121813327C90140
:101ED000E3E0880F991FEA95E1F7821B930B0996BF
:101EE000800F911F0E940D0D20E030E0882311F437
:101EF00021E030E0C9011F910F9108951F93CF9306
:101F0000DF93EC0161E00E94950E19818F8183308F
:101F1000B1F429813327C901B3E0880F991FBA951D
:101F2000E1F7821B930B09968C0F9D1F0E940D0DEC
:101F3000882329F461E0611BCE010E941F0D898175
:101F40009927FC01A3E0EE0FFF1FAA95E1F7E81B1C
:101F5000F90B3996EC0FFD1F84818F5F8483948188
:101F6000838120E0981708F421E0822F9927DF91E0
:101F7000CF911F9108950F931F938C0161E00E94F0
:101F8000950EF80181819927FC0123E0EE0FFF1FD8
:101F90002A95E1F7E81BF90B3996E00FF11FA181B3
:101FA000B2818481A80FB11D8C9199271F910F9147
:101FB00008950E946E0D009719F061E00E94950E41
:101FC0000895FB01DC0102C001900D924150504088
:101FD000D8F70895AEE0B0E0E0EFFFE00C94CF1248
:101FE0008C0186E08C831A8309838FEF9FE79E83A1
:101FF0008D83CE0101960E940610EF81F885E00FD7
:10200000F11F1082E4E02E960C94EB12ABE0B0E0EE
:10201000ECE0F0E10C94C3124C013B016A01FC01BD
:1020200017821682838181FD03C08FEF9FEFDCC191
:10203000F4012381F30123FD859123FF81913F0169
:10204000882309F4CEC1853239F423FD859123FF1D
:1020500081913F01853229F4B40199270E940E1223
:10206000E7CF00E0442455243AE00032B0F48B324C
:1020700069F08C3228F4803251F0833271F40BC055
:102080008D3239F0803349F4016028C00260046069
:1020900025C0086023C0006121C007FD2BC0282F88
:1020A00020532A3078F406FF06C0539EC001112445
:1020B000522E580E13C0439EC0011124422E480ECA
:1020C00000620CC08E3221F406FD8BC1006406C094
:1020D0008C3611F4006802C0883661F4F401838103
:1020E000F30183FD859183FF81913F01882309F4EA
:1020F0006FC0BBCF982F8554833018F08052833047
:1021000038F424E030E0C20ED31E8FE389830FC081
:10211000933631F0933799F0933509F05BC023C0C3
:10212000F6018081898322E030E0C20ED31E7E0159
:102130000894E11CF11C51E0A52EB12C12C0F6014F
:10214000E080F18006FD03C06FEF7FEF02C0652DD8
:10215000772722E030E0C20ED31EC7010E9403128F
:102160005C010F7713C0F601E080F18006FD03C02B
:102170006FEF7FEF02C0652D772722E030E0C20EBF
:10218000D31EC7010E94F8115C01006803FF07C05D
:102190001BC0B40180E290E00E940E124A94842D8C
:1021A0009927A816B906A8F30FC0F70107FD859176
:1021B00007FF81917F01B40199270E940E124110FF
:1021C0004A940894A108B108A114B10471F706C19A
:1021D00090E03EC0943611F0993691F507FF0AC0A1
:1021E000F601608171818281938124E030E0C20E2A
:1021F000D31E0DC0F601808191819C01B901882711
:1022000077FD8095982F42E050E0C40ED51E4FE632
:10221000B42EB02297FF09C0909580957095619576
:102220007F4F8F4F9F4F50E8B52A8E010F5F1F4F92
:102230002AE030E0A8010E943B12A82EA01A4DC04F
:10224000953731F43FEEF32EF0222AE030E023C040
:1022500029EFF22EF0229F3661F0903720F4983566
:1022600009F0BFC012C0903739F0983709F0B9C0F3
:1022700005C028E030E00FC080E1F82AF4FE02C07B
:1022800094E0F92A20E130E006C0F4FE02C0E6E066
:10229000FE2A20E132E0F7FE0AC0F601608171817A
:1022A0008281938144E050E0C40ED51E0BC0F6013C
:1022B00080819181AC01BA0188279927E2E0F0E0A2
:1022C000CE0EDF1E8E010F5F1F4FA8010E943B1232
:1022D000A82EA01A8FE7B82EBF20B6FE10C0FEEFC2
:1022E000BF22A51460F42B2D332724FF1AC022FF30
:1022F00002C0052D09C02FEEB222052D01C00A2D06
:102300002B2D332724FF0EC0FE01EA0DF11D808125
:10231000803319F439EEB32209C00F5F22FF06C0E3
:1023200004C0052D822F867809F00F5FEB2CFF2467
:10233000E3FC14C0E0FE0FC0041510F05A2C0BC0D3
:10234000542C501A5A0C042D06C0B40180E290E0BF
:102350000E940E120F5F0415C0F304C0041510F4A0
:10236000401A01C04424E4FE10C0B40180E390E0B0
:102370000E940E12E2FE1EC0E1FE03C088E590E05E
:1023800002C088E790E0B4010CC08E2D867891F0F1
:10239000E1FE02C08BE201C080E2B7FC8DE2B40135
:1023A00099270E940E1206C0B40180E390E00E94BB
:1023B0000E125A94A514C0F3AA94FE01EA0DF11D61
:1023C0008181B40199270E940E12AA2039F0F4CF1E
:1023D000B40180E290E00E940E124A944420C1F7BA
:1023E00027CEF40186819781E0E12B960C94DF12D1
:1023F000FC010590615070400110D8F780959095D0
:102400008E0F9F1F0895FC016150704001900110D4
:10241000D8F7809590958E0F9F1F08950F931F9367
:10242000CF93DF938C01EB018B81992781FF1BC038
:1024300082FF0DC02E813F818C819D812817390735
:1024400064F4E881F9810193F983E88306C0E885A3
:10245000F985802F0995892B31F48E819F81019612
:102460009F838E8302C00FEF1FEFC801DF91CF91D2
:102470001F910F910895FA01AA27283051F12031B8
:1024800081F1E8946F936E7F6E5F7F4F8F4F9F4F08
:10249000AF4FB1E03ED0B4E03CD0670F781F891F4A
:1024A0009A1FA11D680F791F8A1F911DA11D6A0F18
:1024B000711D811D911DA11D20D009F468943F91CB
:1024C0002AE0269F11243019305D3193DEF6CF01CA
:1024D0000895462F4770405D4193B3E00FD0C9F790
:1024E000F6CF462F4F70405D4A3318F0495D31FDFD
:1024F0004052419302D0A9F7EACFB4E0A695979550
:10250000879577956795BA95C9F700976105710525
:1025100008959B01AC010A2E06945795479537956F
:102520002795BA95C9F7620F731F841F951FA01DC9
:102530000895991B79E004C0991F961708F0961B1F
:10254000881F7A95C9F78095089585FD17C0806228
:10255000911114C081568A51E0F70895803209F034
:1025600091110CC080528F55E0F708959111089594
:1025700081568A5108F480528558089599278827F2
:1025800008952F923F924F925F926F927F928F9217
:102590009F92AF92BF92CF92DF92EF92FF920F93F2
:1025A0001F93CF93DF93CDB7DEB7CA1BDB0B0FB6FC
:1025B000F894DEBF0FBECDBF09942A8839884888B9
:1025C0005F846E847D848C849B84AA84B984C8844F
:1025D000DF80EE80FD800C811B81AA81B981CE0F46
:1025E000D11D0FB6F894DEBF0FBECDBFED0108952B
:0225F000FFCF1B
:1025F20044415441204C20004F50454E2000556E1E
:102602006B6E6F776E204C48212000454F492000A9
:1026120041544E5F4952513A00696565652E632FF8
:10262200736C656570200041544E2000554E4C4934
:102632005354454E00554E54414C4B0054414C4B63
:1026420020004C495354454E2000444154412054EB
:102652002000776974685F656F693D006368616E29
:102662006E656C206E6578742066616C73650043DC
:102672004C4F53452000636D6470726F63657373D2
:10268200206572726F723A20002A2A2A2054494D1C
:10269200454F55542041424F52542A2A2A00F102F2
:1026A2000000000000000000000000000000000028
:1026B2000000000000000000000000000000000018
:1026C2000000000000000000000000000000000008
:1026D20000000000000000000000000000000000F8
:1026E20000000000000000000000000000000000E8
:1026F20000000000000000000000000000000000D8
:1027020000000000000000000000000000000000C7
:1027120000000000000000000000000000000000B7
:1027220000000000000000000000000000000000A7
:102732000000000000000000000000000000000097
:10274200000000000000000000AE013031323334DE
:10275200353637383961626364656623232320582E
:10276200532D313534312076302E30322E30312017
:102772002323230020257520427974657320667215
:102782006565002C202564206B487A00502049534F
:10279200204E554C4C2100584432303331004449CC
:1027A2005200505247004259544553204652454523
:1027B20000434F4E56455253494F4E204E4F5420E0
:1027C200504F535349424C452100434F4E564552B8
:1027D20054454420544F3A204C454E3D0011073A8F
:1027E20007BE079D0530313233343536373839610B
:1027F2006263646566434F4D4D414E443A20004F3B
:1028020050454E2046494C453A20464F52204348B7
:10281200414E3A002057495448204E414D453A20F6
:10282200004E4F20434F525245435420434D443AA9
:102832002000494C4C4547414C2044524956453AA8
:102842002000554E4B4F574E2046494C4520545977
:1028520050453A2000554E4B4F574E2046494C4565
:102862002041434345535320545950452000575269
:1028720049544520544F204449524543544F5259DC
:1028820021004E4F204F50454E20534C4F5420466E
:102892004F52204F50454E21004E414D4520434F4F
:1028A2004E56455253494F4E204558434545445391
:1028B200204255464645522100453D0030313233D3
:1028C200343536373839616263646566434D443D59
:1028D2000044524956453D004E414D453D0041435D
:1028E2004353533D00545950453D003E3E333A2038
:1028F20025702C20703D25700A003E3E333A20623E
:102902003D25700A003E3E313A2025702C20703D54
:1029120025700A003E3E313A20623D25700A003E93
:102922003E323A2025702C20703D25700A003E3E32
:0A293200323A20623D25700A0000D1
:00000001FF
