:100000000C944D000C946A000C946A000C946A00E5
:100010000C946A000C946A000C946A000C94B6006C
:100020000C946A000C946A000C946A000C946A00A8
:100030000C946A000C9433100C946A000C946A00BF
:100040000C946A000C946A000C946A000C946A0088
:100050000C946C000C9492000C946A000C946A004E
:100060000C946A000C946A000C946A000C946A0068
:100070000C946A000C946A000C946A0058532D3159
:100080003534312F5844323033312056302E310040
:10009000302E31414C504841000011241FBECFEF9B
:1000A000D0E1DEBFCDBF14E0A0E0B1E0EEEEF7E2BC
:1000B00002C005900D92A43CB107D9F71BE0A4EC57
:1000C000B4E001C01D92AD3BB107E1F70E947B0493
:1000D0000C94F6130C9400002F922FB60F930091FE
:1000E000C60078941F93CF93DF931091380BC8EB21
:1000F000DAE0C10F08F4D3950883DF91CF9113950F
:100100001F770091BC0B101719F01093380B29F4CE
:100110000091BB0B03950093BB0B1F910F912FBE5A
:100120002F9018952F922FB60F93CF93DF930091B6
:100130003A0BC091390B0C1771F0CBE3DBE0C00F29
:1001400008F4D395C881C093C60003950F77009338
:100150003A0B789405C00091C1000F7D0093C10057
:10016000DF91CF910F912FBE2F9018952F922FB620
:100170000F9300912900087051F4009128000F7C22
:1001800000932800009127000063009327000F913F
:100190002FBE2F901895FC01F8944B9904C08091C4
:1001A000E605882311F03D98459A789481E0809384
:1001B000E8054B9B28C03699FCCF45983D9A109294
:1001C000E805379903C022E030E002C020E030E0CB
:1001D00080B18095992791838083F8944B9904C0CE
:1001E0008091E605882311F03C98449A789481E048
:1001F0008093E7054B9B07C0369BFCCF44983C9A05
:100200001092E70502C021E030E0C90108950E9484
:10021000B41008950F931F93CF93DF93CDB7DEB73C
:1002200022970FB6F894DEBF0FBECDBF8E010F5FD1
:100230001F4F09C0682F627089810E942704909324
:10024000C5048093C404C8010E94CB0080FFF2CF94
:100250000197F1F0F8944B9904C08091E60588234A
:1002600011F03D98459A789481E08093E805F894E0
:100270004B9904C08091E605882311F03C98449A7C
:10028000789481E08093E7053E98469A3F98479A94
:1002900022960FB6F894DEBF0FBECDBFDF91CF918F
:1002A0001F910F910895EF92FF920F931F93CF9399
:1002B000DF93CDB7DEB721970FB6F894DEBF0FBE40
:1002C000CDBFF8944B9904C08091E605882311F0C6
:1002D0003D98459A789481E08093E805F8944B998D
:1002E00004C08091E605882311F03C98449A7894E4
:1002F00081E08093E7053E98469A3F98479A8E01A1
:100300000F5F1F4F4B9B63C0359BFCCF61E0C80163
:100310000E9493029093C5048093C40486FD03C099
:10032000EE24FF2406C047983F9AEE24FF246894E9
:10033000E1F8898181B9809582B946983E9A4B9BB4
:1003400046C0349B0AC0359B08C03F98479A3E98E8
:10035000469AF8944B9944C03FC03599F0CF4B9BD7
:1003600036C0349BFCCF3E98469A3F98479A60E04F
:10037000C8010E9493029093C5048093C40488230B
:1003800039F44B9B24C03499FCCFEF2809F4BACF41
:10039000F8944B9904C08091E605882311F03D98AC
:1003A000459A789481E08093E805F8944B9904C0CD
:1003B0008091E605882311F03C98449A789481E076
:1003C0008093E7053E98469A3F98479A20C03E980A
:1003D000469A3F98479A1BC08091E605882311F002
:1003E0003D98459A789481E08093E805F8944B997C
:1003F00004C08091E605882311F03C98449A7894D3
:1004000081E08093E7053E98469A3F98479A219667
:100410000FB6F894DEBF0FBECDBFDF91CF911F9115
:100420000F91FF90EF9008951F934B9962C03E98F3
:10043000469A3F98479A1092C5041092C40411E05E
:1004400044983C9A1092E7058091E805882321F4AE
:1004500045983D9A1092E80544983C9A1092E70519
:100460001093E605F89489B13D98459A78941093D5
:10047000E8054B9918C03699FCCF45983D9A1092E3
:10048000E80580B1F89499B13C98449A7894109317
:10049000E70580950E94BA039093C5048093C40435
:1004A000369BFECFCDCF8091C4049091C5049C01B2
:1004B0002070307F80E22030380749F445983D9A1B
:1004C0001092E8051092E6050E940A0110C01092F1
:1004D000E605F8944B9B02C03D98459A789481E0DC
:1004E0008093E8052050304411F40E9453010E948B
:1004F000B4101F91089588E08093E90510923401AB
:100500001092C8041092C70408958093EA0581E010
:100510008093C604089520E040E060E081EB91E024
:100520000E94270508950F931F93CF93DF93EC014B
:10053000162F0091CA048091C7049091C8040097B7
:1005400019F4C3E8D0E058C00E94640B8091C7043E
:100550009091C8040E94400B8883E091C704F091F9
:10056000C80421813327C901880F991F880F991F5B
:10057000880F991F821B930B0B96E80FF91F808140
:100580008C3F99F484812381992701963327821720
:1005900093075CF080E091E09F938F930E945A084C
:1005A000C0E4D0E00F900F9002C0C0E0D0E0112373
:1005B00019F58091C7049091C8040E94FB0A882312
:1005C000D9F48091C7049091C8040E94CD0A882371
:1005D00039F08091C7049091C8040E94310C0CC07E
:1005E000802F8F708F3011F0882331F40E94700BB0
:1005F0001092C8041092C7048091C9049927982FBB
:1006000088278C0F9D1FDF91CF911F910F91089527
:100610000F931F93CF93DF93CDB7DEB721970FB61C
:10062000F894DEBF0FBECDBF2091C90433272F70D1
:1006300030708091E90599272817390719F000E8EB
:1006400010E08CC09091CA04892F8F70492F5527D4
:100650009A01207F3070203E310559F1203F31054D
:10066000B1F12036310509F06BC00E94D909909391
:10067000C8048093C704892B59F486E091E09F93C6
:100680008F930E945A0800E410E00F900F9066C00C
:100690008091C904807F803419F000E010E05EC0D2
:1006A00061E0CE0101960E9493028C010F7B1070D5
:1006B00055C08F3039F46FE080E00E94610A00E09D
:1006C00010E04CC00E94700B00E010E047C0109298
:1006D000C604892F8F708F3029F484E391E00E9443
:1006E00094052BC0182F20E0813009F421E045E863
:1006F00052E064E371E0812F0E94FF058823ECF053
:100700008091C604882331F40E94670D8091C6044D
:100710008823D1F38091EA05882361F06091EA058E
:1007200020E040E081EB91E00E942705812F0E94AC
:10073000700B03C0812F0E94680B109234010EC011
:100740005F934F938DE191E09F938F930E945A089E
:1007500000E010E00F900F900F900F90C8012196CD
:100760000FB6F894DEBF0FBECDBFDF91CF911F91C2
:100770000F9108951F93182F8F33B1F48091CA04FD
:10078000282F3327C901807F9070803F910541F069
:10079000C9018F7090700F9719F040E050E039C098
:1007A0000E940803AC0135C0282F3327C901807F80
:1007B000907080369105F1F0813691053CF48032DD
:1007C000910559F08034910501F507C0803E9105EF
:1007D00089F0803F9105C9F413C02F70307080916B
:1007E000E90599272817390731F51093C90440E026
:1007F00050E00DC01093CA040E940803AC0107C06A
:100800001093CA0440E050E002C040E050E01F35C1
:1008100029F41092C9041092CA0410C02091E9056D
:1008200033278091C90499278F7090702817390752
:1008300029F0406803C040E050E0E9CF8091C9044E
:100840009927982F8827842B952B1F910895782F0F
:100850008DED8A95F1F78091CA04282F3327C901BD
:100860008F7090700F9731F0C901807F9070803F3A
:10087000910579F4809134018837E8F4E4E3F1E0FC
:10088000E80FF11D71838F5F8093340120E030E029
:1008900014C0462F5527672F8091C7049091C80434
:1008A0000E94BD0B9093C8048093C704892B19F450
:1008B00023E830E002C020E030E08091C9049927AD
:1008C000982F8827820F931F08958DB79EB78D5B51
:1008D0009B4008951092EC0508950E94FE078EE259
:1008E0000E94D8070E94FE0781EE91E00E940B084B
:1008F0000E94FE0708950E946A04389A40980E9458
:100900009C100E94D50C0E94C2070E94A6050E945E
:100910003A0A88E00E9407010E947B0278940E94B4
:10092000E60C0E946D040E9465049F938F938DEFE7
:1009300091E09F938F930E945A0889E999E3A0E080
:10094000B0E0BF93AF939F938F938CE092E09F931F
:100950008F930E945A080E94FE070E94FE078DB7DF
:100960009EB70A960FB6F8949EBF0FBE8DBF0E9429
:10097000670D0E941402FBCF0F931F93CF93DF9359
:10098000DC01EB0100E0552740585F4FFE01E00F0E
:10099000F11D0F5FC895202D822F99278417950789
:1009A00019F02F3F59F0F2CF2F3F41F0FE01E00F39
:1009B000F11DC895E02DEE2324F00BC08FE38D933D
:1009C0001EC00F5FFE01E00FF11DC895E02DEE2364
:1009D000C4F3FE01E00FF11D0F5FC895102D10321A
:1009E00050F4412F60E173E0CD010E94BC04DC01B2
:1009F00011237CF704C0112314F01D93EACFCD011D
:100A0000DF91CF911F910F910895CF93DF93DC0178
:100A1000262F643650F0862F64E60E949F13805D77
:100A20008D93822F0E949F13292F822F6AE00E94AC
:100A30009F13805DFD018193822F0E949F13905D23
:100A4000ED019983CF010196DF91CF910895EF9247
:100A5000FF920F931F93CF93DF93162FE42EF22E66
:100A6000FC0132968EE2DF011D928A95E9F7CF01F3
:100A70000E9405059C01FC018CE28193133059F41E
:100A8000B1E0FB1629F085E4E9018983319636C08F
:100A900084E4819333C0193011F4D90103C01934AF
:100AA00031F5FBCF8A2F821BECE7F0E0E80FF11D58
:100AB000C895E02DED01E9831196EE2399F7ED013C
:100AC0002196193089F4ED018D01CE01801BE82FAC
:100AD000FF27E057FF4FC895E02D8E2F99270E94E2
:100AE000B4138993882389F7FE01319707C0412FFA
:100AF00065E172E0CF010E94BC04FC011CE211938D
:100B00006E2DCF010E940505FC0111936F2DCF01C1
:100B10000E940505FC018DE08083DF91CF911F913C
:100B20000F91FF90EF9008950F931F938C0186E62D
:100B300093E00E940B08C80101960E940B080E94D6
:100B4000FE070E94D5071F910F9108958FEF8093A4
:100B5000CB048093DE040895CF93DF93982F809188
:100B6000CB04891719F4C0E0D0E007C08091DE04FF
:100B7000891709F041C0C1E0D0E06623B4F4FE015A
:100B8000EE0FFF1FCF01880F991F880F991F880F45
:100B9000991FE80FF91FEC0FFD1FE553FB4F01886C
:100BA000F289E02D8AE4099515C0FE01EE0FFF1FC2
:100BB000CF01880F991F880F991F880F991FE80F81
:100BC000F91FEC0FFD1FE553FB4F21893289878503
:100BD000F9010995FE01EE0FFF1FCF01880F991F44
:100BE000880F991F880F991FE80FF91FEC0FFD1F41
:100BF000E553FB4F8FEF8083DF91CF9108958F9264
:100C00009F92AF92BF92CF92DF92EF92FF920F939B
:100C10001F93CF93DF93082FEB015A01122F40E06F
:100C200061EF74E0CE010E9484088091F1048F3F4F
:100C300011F41092F1048091F204882381F084323F
:100C400071F080E793E00E940B088091F2040E940B
:100C5000D8070E94FE070E94D5071092F2048091E7
:100C6000F1048823D1F081E893E00E940B08809181
:100C7000F104805D0E94D8070E94FE070E94D507FC
:100C8000FE01E558FF4F20E040E06AE48081918159
:100C90000E9427058FEF9FEF53C18091F3048823B3
:100CA000E9F08335D9F08035C9F081E993E00E94FD
:100CB0000B088091F3040E94D8070E94FE070E944F
:100CC000D507FE01E558FF4F20E040E060E4808159
:100CD00091810E9427058FEF9FEF32C19091F4041C
:100CE0009923F9F09735E9F09235D9F09134C9F0AC
:100CF00084EA93E00E940B088091F4040E94D807D4
:100D00000E94FE070E94D507FE01E558FF4F20E034
:100D100040E06EE1808191810E9427058FEF9FEF77
:100D20000FC12091F204243211F4992351F48091DF
:100D3000CB0488230CF4FBC08091DE048823DCF410
:100D400017C09235A1F38DEB93E00E940B080E942F
:100D5000FE070E94D507FE01E558FF4F20E040E066
:100D60006FE3808191810E9427058FEF9FEFE8C09C
:100D7000AEEDB4E015C081ED93E00E940B080E9437
:100D8000FE070E94D507FE01E558FF4F20E040E036
:100D900066E4808191810E9427058FEF9FEFD0C08C
:100DA000973509F4C7C0112311F012E001C011E01A
:100DB000913409F415E0243209F416E07D018091A4
:100DC000F5049091F6042091F704AD014F5F5F4F59
:100DD000FA019283818325838DEF868314821382A7
:100DE000C02EFD011183FA01068323831482209112
:100DF000B1043091B20421153105D1F0CA01F901D5
:100E000009958823ACF488EE93E00E940B080E94B9
:100E1000FE070E94D507FE01E558FF4F20E040E0A5
:100E200062E2808191810E9427058FEF9FEF88C049
:100E3000123009F481C0153009F47EC08824992449
:100E4000163029F40091AF041091B00402C000E004
:100E500010E08C2D0E94D909892BC1F088E094E024
:100E60000E940B080E94FE070E94D507FE01E5586C
:100E7000FF4F20E040E066E4808191810E942705D9
:100E80008C2D0E94700B8FEF9FEF5AC098014BEA98
:100E900054E0682D8C2D0E949809D82E882344F5A3
:100EA00088E194E00E940B088D2D82958F700BE1F4
:100EB00014E0F801E80FF11D80810E94D8078D2D04
:100EC0008F70080F111DF80180810E94D8070E94C1
:100ED000FE070E94D507FE01E558FF4F20E040E0E5
:100EE00066E4808191810E9427058FEF9FEF28C0E3
:100EF000F701B28AA18AC0823896C7010F96928301
:100F0000818382E085838DEF868314821382B7010B
:100F10006F5F7F4FA091AD04B091AE042CEA35E035
:100F2000AF018C2DFD01099580E090E009C0ABEC8C
:100F3000B4E036CF12E03FCF88249924839487CF42
:100F4000DF91CF911F910F91FF90EF90DF90CF90A5
:100F5000BF90AF909F908F900895809179051092E7
:100F60007A059EEF9093800580937D0510927E0513
:100F7000E091AB04F091AC048AE795E009951092FA
:100F8000790508951092790588EF94E090937C0597
:100F900080937B0581E880937F058DEF80938005AA
:100FA00010927E0510927D0508950E94D80E089536
:100FB0001F93CF93DF93182FC6E6DEE005C00E9493
:100FC000670DCE010197F1F790917D0580917E0527
:100FD0009817A9F780917905813850F4E8EFF4E08B
:100FE000E80FF11D10838F5F80937905813810F031
:100FF0000E94AD07DF91CF911F9108958DE00E946F
:10100000D8078AE00E94D80780917905882311F0DB
:101010000E94AD070895FF920F931F93CF93DF9324
:101020008C01C6E6DEE005C00E94670DCE01019787
:10103000F1F790917D0580917E059817A9F7F80149
:1010400001900020E9F73197FE2EF01A8091790582
:101050008F0D912D911D813891054CF00E94AD07A7
:1010600006C00E94670D86E69EE00197F1F7909119
:101070007D0580917E059817A1F780E88F1520F4F3
:101080000F2EF1E8FF2EF02D209179054F2D5527D9
:10109000B80188EF94E0820F911D0E94E7108091C3
:1010A00079058F0D80937905DF91CF911F910F9175
:1010B000FF9008950F931F93CF93DF93CDB7DEB7C3
:1010C000C358D0400FB6F894DEBF0FBECDBFFE01AF
:1010D000E657FF4F61917191FA83E9838E010D5FAD
:1010E0001F4FAF01C8010E94F010C8010E940B08F9
:1010F000CD57DF4F0FB6F894DEBF0FBECDBFDF91E7
:10110000CF911F910F9108958F929F92BF92CF928E
:10111000DF92EF92FF920F931F93CF93DF93CDB7A0
:10112000DEB721970FB6F894DEBF0FBECDBFFC012E
:101130008B019C012F5F3F4F90818FEFDB018C93E0
:10114000FB011182128282E5838335832483968397
:10115000442319F0F4E0F98302C086E089839923DF
:1011600009F48EC0D92EDA9479010894E11CF11C9F
:101170004901BB249981933009F470C0943038F44C
:10118000913009F452C0923008F05AC038C0A98199
:10119000A530A9F0A53020F0A63009F066C026C021
:1011A000F8018181882359F4D401CC908C2D9927A2
:1011B0000E94AD13892B19F0F801C1821682D40167
:1011C0002C91822F9927C0970A9720F4822F805361
:1011D000F8018083D4018C918A3309F046C0F8016C
:1011E000F582E482D682F1E0F9833FC0D4018C918C
:1011F000843229F4F80181831682F5E0F983D40161
:101200002C91822F9927C0970A9728F40F2EF0ED82
:10121000BF2EF02DB20E2A3341F4F801B082F582D0
:10122000E482D682F1E0F98320C0D4018C918C3223
:10123000E1F4F8018481A81BA683F2E0F98315C0CC
:10124000F8018281882319F4D4018C918283F401FE
:1012500080818C3251F4F3E0F98307C0F801838177
:10126000882319F4D4018C918383DA940894E11CC7
:10127000F11CBFEFDB1621F00894811C911C7ACF82
:1012800021960FB6F894DEBF0FBECDBFDF91CF9190
:101290001F910F91FF90EF90DF90CF90BF909F90A4
:1012A0008F9008950F931F93CF93DF93DC017727DF
:1012B000CB01880F991F880F991F880F991F861BD4
:1012C000970B0B96ED01C80FD91F9C918FEF888368
:1012D0009E831B821C82FD018781882379F481E033
:1012E000878383819481FC01028113818C9124E0A6
:1012F0003AE0AE01BE01F801099515C0FD018781F4
:10130000833089F48281882371F484E08783838128
:101310009481FC01028113818C9124E03AE0AE01BA
:10132000BE01F8010995DF91CF911F910F910895AA
:10133000FF920F931F93CF93DF93982FF62EEA011E
:101340008901A7E0B0E06DEE75E049E950E0A49FA7
:101350009001A59F300DB49F300D1124F901E60FC7
:10136000F71F80818823C4F490831182F282D48392
:10137000C38316830583F9013B96E60FF71F14829A
:1013800013829683F9017296E60FF71F1482138277
:10139000968380E090E007C011978FEFAF3FB807CA
:1013A000B1F68FEF9FEFDF91CF911F910F91FF90DB
:1013B0000895682F27E030E0ADEEB5E049E950E050
:1013C000249FF001259FF00D349FF00D1124EA0FAA
:1013D000FB1F8081861779F4822F992787FD9095CE
:1013E0009C01249FC001259F900D349F900D1124D6
:1013F0008A0F9B1F0895215030408FEF2F3F3807F1
:10140000F9F680E090E008951F93162F0E94D90905
:10141000FC01892B61F010878781813019F482E00B
:10142000878305C08781843011F485E087831F910D
:101430000895CF93DF93FC018FEF8083178211868D
:10144000CF014996DF011B96ED019A83898330E431
:101450003D832DEF2E831C821B82CF01875A9F4F25
:101460007296928381833583268314821382DF915F
:10147000CF910895CF93DF93C0E0D0E061E0CE013B
:10148000845E954F0E94190AC959D0408BEFC8332A
:10149000D807A1F7DF91CF9108951F93162F0E94CF
:1014A000D909FC01892B59F012878185823019F402
:1014B00081E0818704C08185813009F411861F9104
:1014C00008950F931F93062F681760F0182F812F30
:1014D0000E94D909009719F061E00E94190A1F5F64
:1014E0000117A8F71F910F9108951F93CF93DF93D2
:1014F000EC01162F8A81882309F04BC08F81882345
:1015000029F4198260E0CE010E945209112339F4B6
:1015100009C00E94670D86E69EE00197F1F78F8172
:101520008130B9F38F818230B9F48D819E81892B0E
:1015300089F0ED81FE8129813327C901880F991F28
:10154000880F991F880F991F821B930B0B968C0F86
:101550009D1F099583E08F838F818530D1F48D8124
:101560009E81892BA1F0ED81FE81898121E030E00F
:10157000281B3109C901880F991F880F991F880FEF
:10158000991F821B930B0B968C0F9D1F099586E06C
:101590008F83DF91CF911F9108950F931F938C013B
:1015A00061E00E94750AF80121813327C901880F83
:1015B000991F880F991F880F991F821B930B0B96F9
:1015C000E80FF91F80818C3F19F020E030E00AC05D
:1015D0009481838120E0981708F421E081E082273C
:1015E000282F332780E090E0232B11F481E090E056
:1015F0001F910F910895CF93DF93EC0161E00E945A
:10160000750A49818F818330B9F4898199279C01BA
:10161000220F331F220F331F220F331F281B390BBA
:10162000255F3F4FFE01E20FF31F80818C3FE9F4FD
:10163000948183819817C8F029813327C901880FC5
:10164000991F880F991F880F991F821B930B0B9668
:10165000FE01E80FF91F84818F5F84839481838169
:1016600020E0981740F421E006C061E0641BCE0141
:101670000E945209E1CF822F9927DF91CF910895DF
:101680000F931F93CF93DF938C0161E00E94750A43
:10169000E80129813327C901880F991F880F991FF5
:1016A000880F991F821B930B0B96080F191FE801D7
:1016B000E981FA818C81E80FF11D80819927DF9102
:1016C000CF911F910F91089561E00E94750A0895CE
:1016D0000E94D909009719F061E00E94750A0895E7
:1016E0000F931F93CF93DF93182F0E94D909EC011A
:1016F0008985882339F438C00E94670D86E69EE00C
:101700000197F1F789858130B9F729813327C9011C
:10171000880F991F880F991F880F991F821B930BA1
:101720000B96BE01680F791FFB018381992787FD06
:1017300090952CEF2083168383831482AB81BC8128
:10174000FD01A281B3812DE43AE0AB01812FFD01BF
:10175000099506E61EE005C00E94670DC8010197C5
:10176000F1F789858130C1F360E0CE010E94190A4A
:10177000DF91CF911F910F910895CF92DF92EF9259
:10178000FF920F931F93CF93DF937C01EC01898528
:10179000882311F481E08987F70170812181332743
:1017A000C901880F991F880F991F880F991F821BE5
:1017B000930B0B968701080F191FE801E981FA8145
:1017C0008B81E80FF11D60838F5F8B839B818D81FF
:1017D000981711F0452BD9F1F8018381992787FDDE
:1017E0009095C72E2EEF2083768383831482C6E6DE
:1017F000DEE005C00E94670DCE010197F1F7F70109
:10180000D184F1E0DF16B1F782E0E7018987EB814F
:10181000FC810280F381E02D2DE43AE0A801B801BB
:101820008C2D09958981D81AD98229813327C9013C
:10183000880F991F880F991F880F991F821B930B80
:101840000B96F701E80FF91F14821382C682C701B5
:10185000DF91CF911F910F91FF90EF90DF90CF908C
:1018600008951F93CF93DF93EC0119818981992704
:101870009C01220F331F220F331F220F331F281BFF
:10188000390B255F3F4FFE01E20FF31F80818C3F34
:1018900059F494818381981738F056C00E94670DDF
:1018A00086E69EE00197F1F78F818430B9F38F814E
:1018B0008530D1F48D819E81892BA1F0ED81FE814F
:1018C000898121E030E0281B3109C901880F991F67
:1018D000880F991F880F991F821B930B0B968C0FF3
:1018E0009D1F099586E08F8381E0482F411B242F9F
:1018F0003327C901880F991F880F991F880F991FD7
:10190000821B930B0B96FE01E80FF91F94818381D4
:101910009817D0F4498383E08F8329813327C90145
:10192000880F991F880F991F880F991F821B930B8F
:101930000B96FE01E80FF91F80818C3F61F49481C2
:101940008381981740F00CC060E0CE010E94190A14
:10195000C0E0D0E005C061E0641BCE010E945209E6
:10196000CE01DF91CF911F910895DC01FB018081B1
:101970008823C1F0813410F499270FC08B3518F4F7
:10198000805899270AC0813610F4992706C08B37F2
:1019900018F48052992701C099278D933196808140
:1019A000882341F71D92CD010895109281058FEF94
:1019B00080939A05809395058093900580938B057D
:1019C00010929F0584E080938A0508950E9461101B
:1019D0008823E1F38FE70E94891008951F93CF9326
:1019E000DF9314E067C0A0918205B09183058091D8
:1019F0008A05813099F082301CF4882341F004C0BC
:101A00008230B1F0833011F12FEF3FEF30C081E031
:101A100080938A058C91282F332729C082E08093F8
:101A20008A05ED018B8199279C012D5F3F4F1FC0D7
:101A3000FD018681282F33278381882319F4109391
:101A40008A0515C083E080938A0511C0ED01E98104
:101A5000FA818C81E80FF11D90818F5F8C83292F93
:101A600033279C818B81981710F010938A053323BC
:101A700024F0822F0E9489101DC080918105815021
:101A80008093810580918105882391F020E042E8D0
:101A900055E0E22FFF27EE0FFF1FE40FF51F8281B5
:101AA0009381918380832F5F80918105281788F32C
:101AB00010928A0580918105882329F00E94611087
:101AC000882309F090CFDF91CF911F9108950E9454
:101AD0006F1099230CF4DAC0482F20919F05223013
:101AE00011F1233034F4222359F0213009F0C9C018
:101AF00013C0233009F487C0243009F0C2C08FC05E
:101B00008D5F823018F04C3F09F0BBC04093A505B3
:101B100081E080939F05B5C083508093A40582E047
:101B200080939F05AEC08093A00584E080939F05BD
:101B300020E030E06BE875E0F901EE0FFF1FEE0FDB
:101B4000FF1FE20FF31FE60FF71F8081481721F5F3
:101B50002093A105822F992787FD9095FC01EE0F18
:101B6000FF1FEE0FFF1FE80FF91FE60FF71F0180A1
:101B7000F281E02DF093A305E093A2052091A50545
:101B800095818091A405981760F020834683138285
:101B900083E080939F0505C02F5F3F4F24303105C0
:101BA00059F68091A405882309F06BC08091A105A6
:101BB000992787FD9095FC01EE0FFF1FEE0FFF1F89
:101BC000E80FF91FE557FA4F0380F481E02D80916B
:101BD0009F05843011F46FEF01C060E0842F0995F8
:101BE0008091A105992787FD9095FC01EE0FFF1FBD
:101BF000EE0FFF1FE80FF91FE557FA4F8FEF8083B5
:101C000010929F053EC0E091A205F091A305A1812D
:101C1000B2818381A80FB11D4C938F5F8383809124
:101C2000A40581508093A40518165CF18091A1054C
:101C3000992787FD9095FC01EE0FFF1FEE0FFF1F08
:101C4000E80FF91FE557FA4F0380F481E02D2430A7
:101C500011F46FEF01C060E08091A00509958091BB
:101C6000A105992787FD9095FC01EE0FFF1FEE0F50
:101C7000FF1FE80FF91FE557FA4F8FEF808310928F
:101C80009F050E946F1099230CF026CF0E94EE0C46
:101C90000895CF93DF93EC0180918105833030F07C
:101CA0000E94670D809181058330D0F7E091810516
:101CB000FF27EE0FFF1FEE57FA4FD183C0838091AD
:101CC00081058F5F8093810580918105813021F4AA
:101CD00010928A050E94EE0CDF91CF910895CF9269
:101CE000DF92EF92FF920F931F93CF93DF93082F12
:101CF000EB017A01690188237CF4992787FD90958F
:101D00009F938F938BE294E09F938F930E945A0846
:101D10000F900F900F900F908E8188237CF499275D
:101D200087FD90959F938F938AE494E09F938F9380
:101D30000E945A080F900F900F900F901FEF17C03E
:101D4000122F11C0F901EE0FFF1FEE0FFF1FE20F60
:101D5000F31FE557FA4F8081882394F32F5F3F4F9D
:101D60002430310579F70E94670D11231CF420E01F
:101D700030E0E8CF812F992787FD9095FC01EE0F89
:101D8000FF1FEE0FFF1FE80FF91FE557FA4F008303
:101D9000F282E182D482C382CE010E94490EDF9199
:101DA000CF911F910F91FF90EF90DF90CF9008950A
:101DB00080918105882331F00E94670D8091810513
:101DC0008823D1F70895EF92FF920F931F93CF933B
:101DD000DF937C01009739F48CE694E00E940B08B5
:101DE0008FEF9FEF08C1EC0149815A81FA016285AA
:101DF000613019F0A6EAB5E008C081E08093A6053D
:101E000084E08093A705A8EAB5E081E0FD01819315
:101E1000ED018983EF012196FA018381882309F07E
:101E2000DDC0DA01129682818A3F08F0D7C0828134
:101E3000893F39F481818F3F21F48081882309F023
:101E4000CDC0FA0181812C9199273327322F222787
:101E5000282B392B8081882311F02F5F3F4FDE0123
:101E60002D93832F99278983FD0131962A303105DF
:101E700020F480E2ED0189833196613019F482E12A
:101E8000819315C0623009F45BC02436310518F423
:101E900080E2819304C083E0283E380718F480E292
:101EA000819303C02051374210F480E2819382E293
:101EB00081938A01055F1F4FEA018B85882309F40E
:101EC00096C0DA011C962BE0E8018881813410F479
:101ED00099270FC08B3518F4805899270AC081368E
:101EE00010F4992706C08B3718F48052992701C047
:101EF000992781932F5F8D018C91882329F482E2A9
:101F000081932C3130F00AC011962B31E9F682E230
:101F1000819380E281932F5F2C31D8F3613039F4C3
:101F200067E774E0CF010E94B50CFC011EC063306E
:101F300039F46EE774E0CF010E94B50CFC0115C0C6
:101F4000662339F462E874E0CF010E94B50CFC010D
:101F50000CC0623051F466E874E0CF010E94B50C09
:101F6000FC011192EC011982319686EA95E00E2F60
:101F7000081BC02FDD27F7018581992787FD9095E4
:101F80008C179D07F4F482E994E00E940B08802FDF
:101F900082958F7003EB14E0F801E80FF11D80814A
:101FA0000E94D807FE01EF70F070E00FF11F8081F2
:101FB0000E94D8070E94FE070E94D5078FEF9FEF6F
:101FC0001AC0E70189819A81402F552766EA75E09A
:101FD0000E94E7100B8380E090E00DC0FE018FEFC0
:101FE000819389EF898331962FEF39EF46CF82E2D3
:101FF00081932BE08ECFDF91CF911F910F91FF90B6
:10200000EF900895FC01218132818381992787FD1A
:102010009095882329F1F901282F8081813410F4CB
:10202000992719C08B3518F4805E992714C0813622
:1020300010F4992710C08B3718F4805299270BC0E1
:10204000813C10F4992707C08B3D20F499278F77A6
:10205000907001C099278083215011F03196DDCF17
:1020600080E090E008951F920F920FB60F92112416
:102070008F939F938091B60A9091B70A019690939F
:10208000B70A8093B60A9F918F910F900FBE0F9061
:102090001F90189582E085BD8FEF98E0909389009E
:1020A0008093880010928500109284001092800026
:1020B0008BE080938100EFE6F0E080818260808396
:1020C00008958091390B90913A0B20E030E08F5FBA
:1020D0008F77891711F021E030E0C90108959091C0
:1020E000380B8091BC0B981719F42FEF3FEF0FC0FE
:1020F0008091BC0BE8EBFAE0E80FF11D8081282FFE
:1021000033278091BC0B8F5F8F778093BC0BC90105
:1021100008959091390BEBE3FBE0E90FF11D80830B
:102120008091390B8F5F8F778093390BE1ECF0E072
:1021300080818062808308951092390B10923A0B4F
:102140001092380B1092BC0BE1ECF0E088E0808339
:1021500080818061808387E08093C4001092C500F5
:1021600080818068808308951092E60511B88FEF12
:1021700082B93E98469AF8944B9B02C03D98459A86
:10218000789481E08093E805F8944B9B02C03C98DA
:10219000449A789481E08093E7053F98479A0895A0
:1021A0000F931F9303E710E0F8018081877F8083FE
:1021B0000E94B410DB9AF801808188608083E8E691
:1021C000F0E08081886080831F910F910895FB016A
:1021D000DC0102C001900D9241505040D8F70895A3
:1021E000AEE0B0E0E6EFF0E10C94CD138C0186E0B8
:1021F0008C831A8309838FEF9FE79E838D83CE01A3
:1022000001960E940C11EF81F885E00FF11F1082FA
:10221000E4E02E960C94E913ABE0B0E0E2E1F1E1EA
:102220000C94C1134C013B016A01FC011782168218
:10223000838181FD03C08FEF9FEFDCC1F401238117
:10224000F30123FD859123FF81913F01882309F448
:10225000CEC1853239F423FD859123FF81913F0161
:10226000853229F4B40199270E941413E7CF00E0C6
:10227000442455243AE00032B0F48B3269F08C32B9
:1022800028F4803251F0833271F40BC08D3239F072
:10229000803349F4016028C00260046025C00860F2
:1022A00023C0006121C007FD2BC0282F20532A30F6
:1022B00078F406FF06C0539EC0011124522E580E1A
:1022C00013C0439EC0011124422E480E00620CC070
:1022D0008E3221F406FD8BC1006406C08C3611F4E9
:1022E000006802C0883661F4F4018381F30183FD44
:1022F000859183FF81913F01882309F46FC0BBCF93
:10230000982F8554833018F08052833038F424E0BD
:1023100030E0C20ED31E8FE389830FC0933631F0B5
:10232000933799F0933509F05BC023C0F6018081A3
:10233000898322E030E0C20ED31E7E010894E11CA6
:10234000F11C51E0A52EB12C12C0F601E080F18005
:1023500006FD03C06FEF7FEF02C0652D772722E0F7
:1023600030E0C20ED31EC7010E9409135C010F7733
:1023700013C0F601E080F18006FD03C06FEF7FEF30
:1023800002C0652D772722E030E0C20ED31EC701C0
:102390000E94FE125C01006803FF07C01BC0B4016D
:1023A00080E290E00E9414134A94842D9927A81685
:1023B000B906A8F30FC0F70107FD859107FF8191CA
:1023C0007F01B40199270E94141341104A94089484
:1023D000A108B108A114B10471F706C190E03EC094
:1023E000943611F0993691F507FF0AC0F601608125
:1023F00071818281938124E030E0C20ED31E0DC032
:10240000F601808191819C01B901882777FD809533
:10241000982F42E050E0C40ED51E4FE6B42EB022F5
:1024200097FF09C090958095709561957F4F8F4F6C
:102430009F4F50E8B52A8E010F5F1F4F2AE030E012
:10244000A8010E944113A82EA01A4DC0953731F45F
:102450003FEEF32EF0222AE030E023C029EFF22EE7
:10246000F0229F3661F0903720F4983509F0BFC014
:1024700012C0903739F0983709F0B9C005C028E08C
:1024800030E00FC080E1F82AF4FE02C094E0F92A9F
:1024900020E130E006C0F4FE02C0E6E0FE2A20E1C2
:1024A00032E0F7FE0AC0F60160817181828193817A
:1024B00044E050E0C40ED51E0BC0F601808191812E
:1024C000AC01BA0188279927E2E0F0E0CE0EDF1ECA
:1024D0008E010F5F1F4FA8010E944113A82EA01A62
:1024E0008FE7B82EBF20B6FE10C0FEEFBF22A514A6
:1024F00060F42B2D332724FF1AC022FF02C0052DC4
:1025000009C02FEEB222052D01C00A2D2B2D332735
:1025100024FF0EC0FE01EA0DF11D8081803319F405
:1025200039EEB32209C00F5F22FF06C004C0052D9B
:10253000822F867809F00F5FEB2CFF24E3FC14C098
:10254000E0FE0FC0041510F05A2C0BC0542C501A8A
:102550005A0C042D06C0B40180E290E00E941413CE
:102560000F5F0415C0F304C0041510F4401A01C035
:102570004424E4FE10C0B40180E390E00E941413F0
:10258000E2FE1EC0E1FE03C088E590E002C088E7DD
:1025900090E0B4010CC08E2D867891F0E1FE02C06F
:1025A0008BE201C080E2B7FC8DE2B40199270E9462
:1025B000141306C0B40180E390E00E9414135A94EF
:1025C000A514C0F3AA94FE01EA0DF11D8181B401A6
:1025D00099270E941413AA2039F0F4CFB40180E2A5
:1025E00090E00E9414134A944420C1F727CEF401CE
:1025F00086819781E0E12B960C94DD13FC01059018
:10260000615070400110D8F7809590958E0F9F1FF4
:102610000895FC016150704001900110D8F7809539
:1026200090958E0F9F1F08950F931F93CF93DF9365
:102630008C01EB018B81992781FF1BC082FF0DC0AC
:102640002E813F818C819D812817390764F4E881B0
:10265000F9810193F983E88306C0E885F985802F25
:102660000995892B31F48E819F8101969F838E83FA
:1026700002C00FEF1FEFC801DF91CF911F910F91A3
:102680000895FA01AA27283051F1203181F1E89408
:102690006F936E7F6E5F7F4F8F4F9F4FAF4FB1E055
:1026A0003ED0B4E03CD0670F781F891F9A1FA11D50
:1026B000680F791F8A1F911DA11D6A0F711D811D51
:1026C000911DA11D20D009F468943F912AE0269F16
:1026D00011243019305D3193DEF6CF010895462F75
:1026E0004770405D4193B3E00FD0C9F7F6CF462F56
:1026F0004F70405D4A3318F0495D31FD40524193BF
:1027000002D0A9F7EACFB4E0A6959795879577957B
:102710006795BA95C9F700976105710508959B0102
:10272000AC010A2E06945795479537952795BA958B
:10273000C9F7620F731F841F951FA01D0895991B71
:1027400079E004C0991F961708F0961B881F7A95A8
:10275000C9F78095089585FD0FC0806291110CC066
:1027600081568A51E0F708959111089581568A5152
:1027700008F48052855808959927882708952F9244
:102780003F924F925F926F927F928F929F92AF9201
:10279000BF92CF92DF92EF92FF920F931F93CF934E
:1027A000DF93CDB7DEB7CA1BDB0B0FB6F894DEBFE5
:1027B0000FBECDBF09942A88398848885F846E840B
:1027C0007D848C849B84AA84B984C884DF80EE8055
:1027D000FD800C811B81AA81B981CE0FD11D0FB65E
:0E27E000F894DEBF0FBECDBFED010895FFCF10
:1027EE00454F46210A00446964206E6F7420666965
:1027FE006E64206368616E6E656C210A00556E6BA7
:10280E006E6F776E20636F6D6D616E642025303252
:10281E00580A0A000000000000000000000000003E
:10282E00000000000000000000000000000000009A
:10283E00000000000000000000000000000000008A
:10284E00000000000000000000000000000000007A
:10285E00000000000000000000000000000000006A
:10286E00000000000000000000000000000000005A
:10287E00000000000000000000000000000000004A
:10288E00000000000000000000000000000000B189
:10289E00018B02000000000000000000000000009C
:1028AE00000000000000000000000000000000001A
:1028BE00000000000000000000000000000000000A
:1028CE00002323232058532D313534312F584432D1
:1028DE003033312076302E312023232300202575EE
:1028EE002042797465732066726565002C2025641C
:1028FE00206B487A0080204F4B8100532053435267
:10290E0041544348454482080994959697989B01F3
:10291E0003999C02039A022050524F54454354206F
:10292E004F4E9D054944204D49534D415443489EB9
:10293E009FA0A1A253594E54415803A7BE0004466E
:10294E004F554E44B2070450524553454E54B34F63
:10295E00564552464C4F5720494E2007B4000B4C5B
:10296E0041524745BC0220002006BD000406BF00B0
:10297E0020455849535453C0002054595045204DBA
:10298E0049534D41544348C10C424C4F434BC2C373
:10299E000A20545241434B204F5220534543544F2B
:1029AE0052C60C4348414E4E454CC744495203C88B
:1029BE000546554C4CCA4452495645040159CD0959
:1029CE0020080ACE4255464645520B534D414C4CBB
:1029DE00CF494D414745200020494E56414C494470
:1029EE00E3434C4F434B20554E535441424C45FF0D
:1029FE008046494C4581524541448257524954457F
:102A0E0083204552524F5284204E4F5420854449C4
:102A1E00534B20864F50454E875245434F52448864
:102A2E00504152544954494F4E208953454C4543C9
:102A3E005445448A494C4C4547414C8B20544F4F8A
:102A4E00208C4E4F20FF434F4D4D414E443A2000B7
:102A5E004E4F20434F525245435420434D443A204B
:102A6E0000494C4C4547414C2044524956453A206A
:102A7E0000554E4B4F574E2046494C452054595009
:102A8E00453A2000554E4B4F574E2046494C452057
:102A9E004143434553532054595045200057524902
:102AAE00544520544F204449524543544F525921C6
:102ABE00004E4F204F50454E20534C4F5420464F02
:102ACE0052204F50454E21004E414D4520434F4E12
:102ADE0056455253494F4E20455843454544532081
:102AEE00425546464552210046494C45204F5045D9
:102AFE004E204552524F5200453D00303132333454
:102B0E0035363738396162636465662121212120AB
:102B1E007375626D69742077697468206368616E7D
:102B2E006E656C6E6F3D25640A0021212121207394
:102B3E0075626D69742077697468207061636B6566
:102B4E00742D3E6368616E3D25640A005020495322
:102B5E00204E554C4C21007864323033310064697C
:102B6E00720070726700626C6F636B7320667265C1
:102B7E006500434F4E56455253494F4E204E4F54CB
:102B8E0020504F535349424C452100490E6F0EE3DE
:102B9E000E021030313233343536373839616263D4
:042BAE0064656600F4
:00000001FF
