:100000000C94F4000C9411010C9411010C94110146
:100010000C9411010C9411010C9411010C945D01CC
:100020000C9411010C9411010C9411010C94110108
:100030000C9411010C943C150C9411010C941101B9
:100040000C9411010C9411010C9411010C941101E8
:100050000C9413010C9439010C9411010C941101AE
:100060000C9411010C9411010C9411010C941101C8
:100070000C9411010C9411010C94110158532D3161
:100080003534312F5844323033312056302E310040
:100090002042455441350080204F4B81005320536E
:1000A0004352415443484544820809949596979891
:1000B0009B0103999C02039A022050524F544543DE
:1000C00054204F4E9D054944204D49534D415443C2
:1000D000489E9FA0A1A253594E54415803A7BE0069
:1000E00004464F554E44B2070450524553454E54B2
:1000F000B34F564552464C4F5720494E2007B40047
:100100000B4C41524745BC0220002006BD000406AE
:10011000BF0020455849535453C0002054595045FE
:10012000204D49534D41544348C10C424C4F434B21
:10013000C2C30A20545241434B204F5220534543DF
:10014000544F52C60C4348414E4E454CC744495249
:1001500003C80546554C4CCA4452495645040159FA
:10016000CD0920080ACE4255464645520B534D4113
:100170004C4CCF494D414745200020494E56414CFB
:100180004944E3434C4F434B20554E535441424C5A
:1001900045FF8046494C458152454144825752496A
:1001A000544583204552524F5284204E4F5420854F
:1001B0004449534B20864F50454E875245434F523A
:1001C0004488504152544954494F4E208953454C1C
:1001D00045435445448A494C4C4547414C8B205437
:1001E0004F4F208C4E4F20FF11241FBECFEFD0E188
:1001F000DEBFCDBF14E0A0E0B1E0E2E5F2E302C073
:1002000005900D92A236B107D9F71CE0A2E6B4E042
:1002100001C01D92A932B107E1F70E9419060C94A2
:1002200028190C9400002F922FB60F930091C6004E
:1002300078941F93CF93DF931091A40BC4E2DBE07B
:10024000C10F08F4D3950883DF91CF9113951F77E1
:100250000091280C101719F01093A40B29F40091A9
:10026000270C03950093270C1F910F912FBE2F9001
:1002700018952F922FB60F93CF93DF930091A60B73
:10028000C091A50B0C1771F0C7EADBE0C00F08F4B2
:10029000D395C881C093C60003950F770093A60B32
:1002A000789405C00091C1000F7D0093C100DF91DB
:1002B000CF910F912FBE2F9018952F922FB60F939D
:1002C00000912900087051F4009128000F7C0093E0
:1002D0002800009127000063009327000F912FBE94
:1002E0002F901895FC01F8944B9904C080914F060B
:1002F000882311F03D98459A789481E080935106C7
:100300004B9B28C03699FCCF45983D9A10925106D8
:10031000379903C022E030E002C020E030E080B135
:100320008095992791838083F8944B9904C080919C
:100330004F06882311F03C98449A789481E080938A
:1003400050064B9B07C0369BFCCF44983C9A1092BA
:10035000500602C021E030E0C90108950E94BD1599
:1003600084E694E00E9439030895EF92FF920F9380
:100370001F93CF93DF93CDB7DEB722970FB6F894D4
:10038000DEBF0FBECDBF8E010F5F1F4F0F2EF4E6F5
:10039000EF2EF4E0FF2EF02D0AC0482F4270698145
:1003A000C7010E9463059093630480936204C801AF
:1003B0000E94720180FFF1CF0197F1F0F8944B9900
:1003C00004C080914F06882311F03D98459A789497
:1003D00081E080935106F8944B9904C080914F06B8
:1003E000882311F03C98449A789481E080935006D9
:1003F0003E98469A3F98479A22960FB6F894DEBFE9
:100400000FBECDBFDF91CF911F910F91FF90EF9065
:100410000895EF92FF920F931F93CF93DF93CDB781
:10042000DEB721970FB6F894DEBF0FBECDBFF894AC
:100430004B9904C080914F06882311F03D98459A4E
:10044000789481E080935106F8944B9904C0809190
:100450004F06882311F03C98449A789481E0809369
:1004600050063E98469A3F98479A04E614E04B9B04
:1004700069C0359BFCCF41E0BE016F5F7F4FC80173
:100480000E945C03909363048093620486FD03C022
:10049000EE24FF2406C047983F9AEE24FF24689478
:1004A000E1F8898181B9809582B946983E9A4B9B43
:1004B00049C0349B0AC0359B08C03F98479A3E9874
:1004C000469AF8944B9947C042C03599F0CF4B9B60
:1004D00039C0349BFCCF3E98469A3F98479A40E0FB
:1004E000BE016F5F7F4FC8010E945C03909363045D
:1004F00080936204882339F44B9B24C03499FCCF49
:10050000EF2809F4B4CFF8944B9904C080914F06BA
:10051000882311F03D98459A789481E080935106A4
:10052000F8944B9904C080914F06882311F03C98B1
:10053000449A789481E0809350063E98469A3F987A
:10054000479A20C03E98469A3F98479A1BC0809190
:100550004F06882311F03D98459A789481E0809366
:100560005106F8944B9904C080914F06882311F0EE
:100570003C98449A789481E0809350063E98469A3D
:100580003F98479A21960FB6F894DEBF0FBECDBFB5
:10059000DF91CF911F910F91FF90EF9008951F93DE
:1005A0004B9965C03E98469A3F98479A10926304CB
:1005B0001092620411E044983C9A10925006809187
:1005C0005106882321F445983D9A1092510644988B
:1005D0003C9A1092500610934F06F89489B13D98BA
:1005E000459A7894109351064B991BC03699FCCFCD
:1005F00045983D9A1092510660B1F89489B13C98A3
:10060000449A7894109350066095772784E694E096
:100610000E94F9049093630480936204369BFECF9A
:10062000CACF80916204909163049C012070307F56
:1006300080E22030380749F445983D9A10925106DF
:1006400010924F060E94B50110C010924F06F89408
:100650004B9B02C03D98459A789481E08093510667
:100660002050304411F40E9409020E94BD151F91D0
:100670000895FC018091E8048183805F8093E80401
:1006800088E080831186138212820895CF93DF93CE
:10069000E091E904F091EA048783813041F4611527
:1006A000710521F0EB018981808701C0108681E00E
:1006B0008683DF91CF910895CF92DF92EF92FF92E0
:1006C0000F931F93CF93DF938C017B01C42EFC010A
:1006D00085810F2EFFE0DF2EF02DD822C281D3813D
:1006E000209729F5FFE0DF16A9F4F801818120E0C9
:1006F00030E042EC51E060E0815F0E940B0DF801B8
:100700008181815F0E944A0DEC01F801938382830D
:10071000892B69F420E040E06DE382E991E00E94DA
:10072000DE060F2EF3E8EF2EFF24F02D41C0CE01A0
:100730000E949F0ECE010E94800EF7018083898166
:1007400027E0829FC00111240B96FE01E80FF91FDC
:1007500080818C3F71F4248133272F5F3F4F838149
:100760009927281739072CF0EE24FF246894E6F81F
:1007700002C0EE24FF24CC20D9F4CE010E94AB0E9F
:100780008823B1F4CE010E94580E882321F0CE01B7
:100790000E94580F0DC0FFE0DF1611F0DD2041F47C
:1007A000F80181818D0D0E94DF0FF8011382128202
:1007B000F80184819927982F88278E0D9F1DDF913E
:1007C000CF911F910F91FF90EF90DF90CF90089500
:1007D000EF92FF920F931F93CF93DF93CDB7DEB7C6
:1007E00021970FB6F894DEBF0FBECDBF7C01FC0190
:1007F0008481208199278F70907033278217930707
:1008000019F000E810E0E7C0F7018581382F3F704C
:100810009927807F9070803E9105E9F1803F910596
:1008200009F44DC08036910509F0C4C08181830F61
:100830000E944A0DF70193838283892B19F000E00F
:1008400010E00AC080E091E09F938F930E94900B8C
:1008500000E410E00F900F90F7018481807F8034D6
:1008600009F0B9C00115110559F441E0BE016F5FEF
:100870007F4FC7010E945C038C010F7B1070ABC0DF
:1008800087E191E09F938F930E94900BF701148270
:100890000F900F90A0C03F3051F4F7018181682F75
:1008A000615F77270E94BE0D00E010E094C0F70161
:1008B0008181830F0E94DF0F00E010E08CC0F70100
:1008C00016828581182F1F70F092EA04E092E904E5
:1008D00016821F3061F4B701675F7F4F818126E484
:1008E00033E042E951E0815F0E94D30710C0B701B5
:1008F000675F7F4FF701818100E0113009F401E06B
:1009000026E433E042E951E0810F0E94290A88235E
:1009100044F0E091E904F091EA0486818823D1F063
:1009200022C0992787FD90959F938F9387E291E04E
:100930009F938F930E94900B20E040E06AE482E94D
:1009400091E00E94DE0602E010E00F900F900F9001
:100950000F902DC00E94F410E091E904F091EA0498
:1009600086818823B9F387818823D1F087818130FC
:1009700041F44085678120E082E991E00E94DE0633
:1009800007C0678120E040E082E991E00E94DE0636
:10099000F7018181810F0E94DF0F00E010E007C0A6
:1009A000F7018181810F0E94A30E00E010E0F701A2
:1009B000118611C0F701858199279F938F9381E557
:1009C00091E09F938F930E94900B00E010E00F90B6
:1009D0000F900F900F90C80121960FB6F894DEBFCC
:1009E0000FBECDBFDF91CF911F910F91FF90EF9080
:1009F00008951F93CF93DF93EC01162F6F33B1F45B
:100A00008D81282F3327C901807F9070803F910509
:100A100041F0C9018F7090700F9719F040E050E0DD
:100A200037C0CE010E94E803AC0132C0262F332725
:100A3000C901807F907080369105E1F08136910583
:100A40003CF48032910559F080349105E9F407C0F7
:100A5000803E910579F0803F9105B1F411C02F706F
:100A60003070888199272817390701F51C8340E0E9
:100A700050E00CC01D83CE010E94E803AC0106C00B
:100A80006D8340E050E002C040E050E01F3519F4B3
:100A90001C821D820EC0288133278C8199278F707C
:100AA00090702817390729F0406803C040E050E0F3
:100AB000EDCF8C819927982F8827842B952BDF9158
:100AC000CF911F910895CF93DF93EC018D81282F53
:100AD0003327C9018F7090700F9731F0C901807F63
:100AE0009070803F910561F489858837A8F4FE01F4
:100AF000E80FF11D62878F5F898720E030E00EC02C
:100B000055278A819B810E94E00E9B838A83892BD3
:100B100019F423E830E002C020E030E08C8199270E
:100B2000982F8827820F931FDF91CF9108958F927E
:100B30009F92BF92CF92DF92EF92FF920F931F93FB
:100B4000CF93DF93B62EFA01E901480180818F3FF0
:100B5000A1F0992787FD90959F938F9388E691E068
:100B60009F938F930E94900B66E48B2DF80109955B
:100B70000F900F900F900F902BC0E980FA800D819D
:100B800011270F2EF4E9CF2EF1E0DF2EF02DA80172
:100B9000B601C7010E940B16F701E00FF11F319754
:100BA0001082F70101900020E9F73197EE19FF0953
:100BB0008CEF8883BE82EB831C8220E040E060E003
:100BC000C60102970E94DE0660E08B2DF4010995B4
:100BD000DF91CF911F910F91FF90EF90DF90CF9019
:100BE000BF909F908F90089520E040E060E082E900
:100BF00091E00E94DE0608951092E80420E040E0B3
:100C000069E482E991E00E94DE0608958DB79EB7FF
:100C100089529C4008950E94290B8EE20E94FE0A90
:100C20000E94290B82ED91E00E94360B0E94290B55
:100C300008950F931F93389A40980E94E8130E94DA
:100C4000A5150E94D7108C01DC01ED91FC9180E08C
:100C500090E009951093EC040093EB049093EE045C
:100C60008093ED04BC01C8010E94DF138BEE94E079
:100C70000E94E40A0E94A8080E949A0D0E94FC05A6
:100C80000E94D91588E00E94AE0178940E9451100C
:100C90000E940B060E9406069F938F938EEE91E0B2
:100CA0009F938F930E94900B89E999E3A0E0B0E0B5
:100CB000BF93AF939F938F938DEF91E09F938F930B
:100CC0000E94900B0E94290B0E94290B8DB79EB7A2
:100CD0000A960FB6F8949EBF0FBE8DBF0E94F41007
:100CE0000E94CF02FBCF0F931F93CF93DF93DC01C2
:100CF000EB0100E0552740585F4FFE01E00FF11D6A
:100D00000F5FC895202D822F99278417950719F01A
:100D10002F3F59F0F2CF2F3F41F0FE01E00FF11DC0
:100D2000C895E02DEE2324F00BC08FE38D931EC0F9
:100D30000F5FFE01E00FF11DC895E02DEE23C4F317
:100D4000FE01E00FF11D0F5FC895102D103250F419
:100D5000412F62E971E0CD010E947306DC0111238D
:100D60007CF704C0112314F01D93EACFCD01DF916D
:100D7000CF911F910F910895CF93DF93DC01262F20
:100D8000643650F0862F64E60E94C918805D8D930A
:100D9000822F0E94C918292F822F6AE00E94C91849
:100DA000805DFD018193822F0E94C918905DED0145
:100DB0009983CF010196DF91CF910895CF92DF9271
:100DC000EF92FF920F931F93CF93DF93162FC42EB2
:100DD000D22EEE24FF246894E1F8E80EF91E8EE28C
:100DE000E70119928A95E9F7C7010E94BC069C01A8
:100DF000FC018CE28193133059F481E0D81629F07C
:100E000085E4E9018983319636C084E4819333C057
:100E1000193011F4D90103C0193431F5FBCF8A2FF1
:100E2000821BECE7F0E0E80FF11DC895E02DED0125
:100E3000E9831196EE2399F7ED012196193089F493
:100E4000ED018D01CE01801BE82FFF27E057FF4FFA
:100E5000C895E02D8E2F99270E94E6188993882344
:100E600089F7FE01319707C0412F67E970E0CF0194
:100E70000E947306FC011CE211936C2DCF010E94AD
:100E8000BC06FC0111936D2DCF010E94BC06FC0134
:100E90008DE080831182FF92EF9286E092E09F9333
:100EA0008F930E94900B0F900F900F900F90DF91F7
:100EB000CF911F910F91FF90EF90DF90CF90089509
:100EC000FC0180818934B1F08A3438F4813461F0D6
:100ED0008334F9F0843249F50AC0823571F08335E4
:100EE000A9F08D3411F51BC089E090E0089582E0EF
:100EF00090E0089583E090E0089581818D3419F4A5
:100F000088E090E0089584E090E0089585E090E026
:100F100008958181843431F0883439F403C087E046
:100F200090E0089586E090E0089581E090E00895D3
:100F3000843051F1853048F4813001F18130C0F0C6
:100F40008230C9F0833089F41CC0873031F1883099
:100F500028F48530E1F0863041F41CC0883001F17E
:100F6000893019F489E192E0089580E292E00895D1
:100F700081E292E0089583E292E0089585E292E0B2
:100F8000089587E292E0089582E392E0089589E36C
:100F900092E0089581E492E0089584E492E0089557
:100FA0008AE492E00895DF92EF92FF920F931F93ED
:100FB000CF93DF93D82E8B01EA01790180E592E08F
:100FC0000E94360BC80101960E94360B0E94290B25
:100FD0000E94FB0A41E062E576E0C8010E94BA0B7C
:100FE00080915306882319F481E292E002C00E94A6
:100FF00098079F938F938AE592E09F938F930E9427
:10100000900B809152060F900F900F900F908F3F92
:1010100019F48DE290E002C09927C0969F938F93B8
:1010200082E692E09F938F930E94900B80915606E8
:10103000909157069F938F938CE692E09F938F93A6
:101040000E94900B85E792E00E94360B00915506B6
:10105000802F99270E94E0182DB73EB7285F3F4F99
:101060000FB6F8943EBF0FBE2DBF892B11F0802F15
:1010700001C08DE20E94FE0A0E94290B0E94FB0A19
:101080008DE792E00E94360B00915406802F99273D
:101090000E94E018892B11F0802F01C08DE20E9480
:1010A000FE0A0E94290B0E94FB0A90915306892F89
:1010B0008450853068F5963081F0973028F494306C
:1010C00041F0953071F407C0973049F0983049F4F9
:1010D00015C067E014C068E012C06EE010C06DE09B
:1010E0000EC083E892E00E94360B20E040E06EE103
:1010F000CE010E94DE068FEF9FEF22C06CE09701C9
:10110000AE018D2D0E940A09992787FD909518C080
:101110009930A1F46091560670915706809152065D
:101120000E944914882354F49701AE016FE08D2D7D
:101130000E940A09992787FD909502C08FEF9FEFC3
:10114000DF91CF911F910F91FF90EF90DF90089565
:101150008FEF8093EF04809302050895CF93DF9380
:10116000982F8091EF04891719F4C0E0D0E007C0F0
:1011700080910205891709F04AC0C1E0D0E06623DA
:10118000C4F4FE01EE0FFF1FCF01880F991F880FD7
:10119000991F880F991FE80FF91FEC0FFD1FE151F0
:1011A000FB4F0188F289E02D60E070E08AE4099548
:1011B0001CC02FEE34E0BE01660F771FCB01880FF5
:1011C000991F880F991F880F991F680F791F6C0F3F
:1011D0007D1FFB01E20FF31F41895289615F7F4F41
:1011E000620F731F8785FA010995FE01EE0FFF1F3D
:1011F000CF01880F991F880F991F880F991FE80F3B
:10120000F91FEC0FFD1FE151FB4F8FEF8083DF9142
:10121000CF9108952F923F924F925F927F928F923B
:101220009F92AF92BF92CF92DF92EF92FF920F9375
:101230001F93CF93DF93082F162F7A0169018091B6
:1012400052068F3F39F410925206E0915606F09103
:1012500057061082809152060E94B913EC01892B27
:10126000B1F484E992E00E94360B80915206805DD1
:101270000E94FE0A0E94290B0E94FB0A20E040E027
:101280006AE4C7010E94DE068FEF90E0D0C088803C
:1012900099808091EF0488230CF4C2C080910205EC
:1012A00088232CF48FEE94E0DC01539611C084EA7D
:1012B00092E00E94360B0E94290B0E94FB0A20E05C
:1012C00040E066E4C7010E94DE068FEF90E0AFC009
:1012D0002D01209158065D010894A11CB11C80913C
:1012E000560690915706F501928381832583702ECF
:1012F000FD011183F501068323831482F401228505
:10130000338521153105B1F0C501F901099588230F
:101310008CF48BEB92E00E94360B0E94290B0E940A
:10132000FB0A20E040E062E2C7010E94DE068FEF88
:1013300090E07DC0123009F476C0153009F473C016
:1013400022243324163021F4F4010085118502C0D3
:1013500000E010E0872D0E944A0D892BA1F08BED53
:1013600092E00E94360B0E94290B0E94FB0A20E0AB
:1013700040E066E4C7010E94DE06872D0E94DF0F71
:101380008FEF90E054C09801AE01622D872D0E942E
:101390000B0D382E882324F58BEE92E00E94360B3D
:1013A000832D82958F700FE313E0F801E80FF11D94
:1013B00080810E94FE0A832D8F70080F111DF80195
:1013C00080810E94FE0A0E94290B0E94FB0A20E0F5
:1013D00040E066E4C7010E94DE068FEF90E027C080
:1013E000F201D28AC18A70829201285F3F4FC20106
:1013F0000F96F9019283818382E085838DEF868346
:1014000014821382F401A681B7810EEA18E0A501C7
:10141000672D8A819B81FD01099580E090E007C0DE
:10142000AFEEB4E055CF22243324239491CFDF9143
:10143000CF911F910F91FF90EF90DF90CF90BF90D1
:10144000AF909F908F907F905F904F903F902F90A4
:101450000895EF92FF920F931F93CF93DF93182F6E
:10146000CB01EA01790140E062E576E00E94BA0B27
:1014700080915306882391F0823081F08EEE92E0C5
:101480000E94360B809153060E9498070E94360BEB
:101490000E94290B0E94FB0A109253068091540669
:1014A0008823C9F08335B9F08035A9F08FEF92E039
:1014B0000E94360B809154060E94FE0A0E94290B5E
:1014C0000E94FB0A20E040E060E4CE010E94DE06BC
:1014D0008FEF9FEF50C0809155068823D9F0873554
:1014E000C9F08235B9F08134A9F082E193E00E941D
:1014F000360B809155060E94FE0A0E94290B0E941D
:10150000FB0A20E040E06EE1CE010E94DE068FEF94
:101510009FEF31C0909153069230A9F48823A9F02F
:10152000823599F08BE293E00E94360B0E94290BE2
:101530000E94FB0A20E040E06FE3CE010E94DE063D
:101540008FEF9FEF18C08735A1F0002311F062E004
:1015500001C061E0813409F465E0923009F466E08D
:101560009701AE01812F0E940A09992787FD909566
:1015700002C062E0F2CFDF91CF911F910F91FF90F7
:10158000EF900895CF93DF9390919605109299056F
:101590008EEF80939F0590939C0510929D05A091DE
:1015A0009705B0919805ED91FC9111970480F58114
:1015B000E02D69E975E0ED018A819B810995109222
:1015C0009605DF91CF9108959093980580939705A4
:1015D0001092960585E195E090939B0580939A057E
:1015E00081E880939E058DEF80939F0510929D0565
:1015F00010929C0508950E945B1208951F93CF934B
:10160000DF93182F90919D0580919C05981769F0A4
:10161000C6E6DEE00E94F410CE010197F1F790914A
:101620009C0580919D059817A9F7809196058138B2
:1016300050F4E5E1F5E0E80FF11D10838F5F809332
:101640009605813810F00E94C20ADF91CF911F9158
:1016500008958DE00E94FE0A8AE00E94FE0A8091B1
:101660009605882311F00E94C20A0895FF920F93F5
:101670001F93CF93DF938C0190919C0580919D05E2
:10168000981769F0C6E6DEE00E94F410CE010197DB
:10169000F1F790919C0580919D059817A9F7F801A5
:1016A00001900020E9F73197FE2EF01A80919605FF
:1016B0008F0D912D911D8138910514F00E94C20A61
:1016C00090919D0580919C05981769F0C6E6DEE033
:1016D0000E94F410CE010197F1F790919C05809142
:1016E0009D059817A9F780E88F1520F40F2EF1E8D3
:1016F000FF2EF02D209196054F2D5527B80185E13D
:1017000095E0820F911D0E94F015809196058F0D36
:1017100080939605DF91CF911F910F91FF900895CF
:101720000F931F93CF93DF93CDB7DEB7C358D0404D
:101730000FB6F894DEBF0FBECDBFFE01E657FF4FD8
:1017400061917191FA83E9838E010D5F1F4FAF01A3
:10175000C8010E941A16C8010E94360BCD57DF4FF0
:101760000FB6F894DEBF0FBECDBFDF91CF911F91B2
:101770000F9108956F927F929F92AF92BF92CF92F6
:10178000DF92EF92FF920F931F93CF93DF93CDB72A
:10179000DEB721970FB6F894DEBF0FBECDBFFC01B8
:1017A0003B01C42E5C010894A11CB11C90818FEFF9
:1017B000FB0180831182128282E58383442331F00E
:1017C000158214821682F4E0F98306C0FB01B5820B
:1017D000A4829683F6E0F983992309F497C0D92E61
:1017E000DA9475010894E11CF11C85019924898122
:1017F000833009F479C0843038F4813009F455C05D
:10180000823008F062C03BC099819530B9F09530C4
:1018100020F0963009F070C028C0F3018181882340
:1018200069F4F801808199270E94D718892B31F03B
:10183000C8010E946007F30181831682F8012081AC
:10184000822F9927C0970A9720F4822F8053F301A3
:101850008083F80180818A3309F04EC0F301F5825C
:10186000E482D682F1E0F98347C0F80180818432B6
:1018700031F482E0F30181831682F5E0F983F80107
:101880002081822F9927C0970A9728F40F2EF0ED18
:101890009F2EF02D920E2A3341F4F3019082F582AF
:1018A000E482D682F1E0F98327C0CC2029F5F80143
:1018B00080818C3209F5F3018481F02FF81B8F2F82
:1018C000F3018683F2E0F98317C0F3018281882354
:1018D00021F4F8018081F3018283F80180818C3248
:1018E00059F4F3E0F98308C0F3018381882321F4DC
:1018F000F8018081F3018383DA940894E11CF11CE0
:10190000FFEFDF1619F00F5F1F4F71CFF3018481D6
:101910009581A816B90661F446815527B501C50120
:1019200001960E94F915F30186818F5F868309C0B5
:10193000F30186818F5F86838481958101979583EA
:101940008483F301A481B58180818C9321960FB6A5
:10195000F894DEBF0FBECDBFDF91CF911F910F91E5
:10196000FF90EF90DF90CF90BF90AF909F907F90CF
:101970006F900895CF92DF92EF92FF920F931F9393
:10198000CF93DF93EC0187E0689FB0011124655F7E
:101990007F4FDE01A60FB71F98818FEF8C93FD015B
:1019A000968313821482EB80FC808F81882399F4C4
:1019B00081E08F83F70180819181FC01C680D7800F
:1019C0000AE61DE09D01AD016881E7018A819B81E6
:1019D000F601099517C08330A9F48A81882391F410
:1019E00084E08F83F70180819181FC01C680D780DC
:1019F0000AE61DE09D01AD016881E7018A819B81B6
:101A0000F6010995DF91CF911F910F91FF90EF9013
:101A1000DF90CF9008950F931F93182F062FB901D1
:101A2000A7E0B0E0E8E8FAE029E536E08081882325
:101A30002CF589E990E0FD01E89FD001E99FB00D08
:101A4000F89FB00D1124FD01E20FF31F10831182E6
:101A500002835483438376836583FD013B96E20FC3
:101A6000F31F1482138216835296A20FB31FFD0137
:101A700014821382168380E090E009C01197E9591F
:101A8000F0408FEFAF3FB80789F68FEF9FEF1F91C0
:101A90000F910895282F97E0E8E8FAE080818217F7
:101AA00089F4892F992787FD909529E930E0AC01C9
:101AB000429FC001439F900D529F900D1124875A61
:101AC000994F08959150E959F0409F3F39F780E0D0
:101AD00090E008951F93162F0E944A0DFC01892B58
:101AE00059F010878781813019F482E0878304C020
:101AF000843011F485E087831F910895DC018FEF16
:101B00008C93FD01178211863B96CD0149969283F5
:101B1000818390E495838DEF868314821382FD0187
:101B20007296A75ABF4FB283A1839583868314828E
:101B300013820895CF93DF93C8E8DAE061E0CE0125
:101B40000E947E0DC959D04085E0C03CD807B1F74E
:101B5000DF91CF9108951F93162F0E944A0DFC012B
:101B6000892B51F012878185823019F481E08187B9
:101B700003C0813009F411861F9108950F931F93BC
:101B8000062F681760F0182F812F0E944A0D0097CA
:101B900019F061E00E947E0D1F5F0117A8F71F91E9
:101BA0000F910895EF92FF920F931F93CF93DF93BE
:101BB0008C01F62EEC018A81882309F072C00F2E69
:101BC000F3E0EF2EF02DF8018781882329F41182AC
:101BD00060E0C8010E94BA0CFF2079F0E8018F8113
:101BE000813059F4C6E6DEE00E94F410CE01019780
:101BF000F1F7F80187818130B9F3E8018F818230F4
:101C0000F9F4898127E0829FC00111240B96F80125
:101C1000E80FF91F94818381981730F080818C3F01
:101C200019F0F801178238C0E8012D813E81211595
:101C3000310519F0CF01F9010995F801E7822CC0AF
:101C4000853051F5E801898121E030E0281B310918
:101C5000C901880F991F880F991F880F991F821B30
:101C6000930B0B96F801E80FF91F94818381981765
:101C700030F080818C3F19F0F801E78212C0E80152
:101C80002D813E812115310519F0CF01F90109950A
:101C900086E0F801878305C0E8018F81882309F475
:101CA00092CFDF91CF911F910F91FF90EF90089508
:101CB0000F931F938C0161E00E94D20DF801818186
:101CC00027E0829FC00111240B96E80FF91F808145
:101CD0008C3F19F020E030E00AC020E0948183813D
:101CE000981708F421E081E08227282F332780E02D
:101CF00090E0232B11F481E090E01F910F91089563
:101D00000F931F93CF93DF938C0161E00E94D20D5C
:101D1000E801898127E0829FC00111240B96080FFA
:101D2000191FF80184810180F281E02DE80FF11D77
:101D300080819927DF91CF911F910F91089561E0E4
:101D40000E94D20D08950E944A0D009719F061E09B
:101D50000E94D20D0895CF93DF93EC0161E00E94C1
:101D6000D20D29818F818330A9F4822F9927FC011C
:101D7000EE0FFF1FEE0FFF1FEE0FFF1FE81BF90B0B
:101D8000EC0FFD1F83858C3F29F061E0621BCE01C3
:101D90000E94BA0C898127E0829FC00111240B9612
:101DA000FE01E80FF91F84818F5F848320E0938117
:101DB000891708F421E0822F9927DF91CF910895A8
:101DC0008F929F92BF92CF92DF92EF92FF920F93EA
:101DD0001F93CF93DF937C01EC018985882311F455
:101DE00081E08987F70130810F2EFBE08F2E992447
:101DF000F02D8E0C9F1C818127E0829FC001112451
:101E00006401C80ED91EE6018B81E981FA81E80FD1
:101E1000F11D6083982F9F5F9B838D81981711F030
:101E2000452BC9F1B32E8EEFF60180833683938361
:101E30001482E7018985823059F4C6E6DEE00E940B
:101E4000F410CE010197F1F7F70181858230B9F3E3
:101E500082E0E7018987AB81BC81ED91FC9111970C
:101E60000680F781E02D0BEA1DE09601A6016B2D9F
:101E7000ED018A819B810995F701218181E0821B17
:101E8000818327E0829FC0011124F401E80FF91F2C
:101E900014821382B682C701DF91CF911F910F91F7
:101EA000FF90EF90DF90CF90BF909F908F9008951C
:101EB000BF92CF92DF92EF92FF920F931F93CF9337
:101EC000DF938C01EC0129810F2EFBE0EF2EFF2424
:101ED000F02DE80EF91E822F9927FC01EE0FFF1F4F
:101EE000EE0FFF1FEE0FFF1FE81BF90BEE0DFF1D9E
:101EF00080818C3F09F452C081E0B82EB21A87E08D
:101F0000B89EC00111246701C80ED91E8F8184308C
:101F100059F4C6E6DEE00E94F410CE010197F1F715
:101F2000F80187818430B9F38530C9F4E801ED8187
:101F3000FE81309789F0898121E030E0281B31094A
:101F4000C901880F991F880F991F880F991F821B3D
:101F5000930B8E0D9F1D099586E0F8018783E6019E
:101F60009C818B819817D0F4F801B18283E087833C
:101F70008B2D9927FC01EE0FFF1FEE0FFF1FEE0FB9
:101F8000FF1FE81BF90BEE0DFF1D80818C3F61F0F8
:101F900061E06B19C8010E94BA0C06C060E0C8017C
:101FA0000E947E0D00E010E0C801DF91CF911F91EB
:101FB0000F91FF90EF90DF90CF90BF900895FF9228
:101FC0000F931F93CF93DF93F82E0E944A0DEC01DD
:101FD00089858823C1F1813051F006E61EE00E9418
:101FE000F410C8010197F1F789858130C1F7898123
:101FF00027E0829FC00111240B96AE01480F591FA4
:10200000FA018CEF8083F68214828B819C81DC0143
:102010002D913C91F901A681B7810BEA1DE09A014F
:102020006F2DFC0182819381FD01099589858130A5
:1020300051F406E61EE00E94F410C8010197F1F782
:1020400089858130C1F360E0CE010E947E0DDF9171
:10205000CF911F910F91FF90089580E090E0089537
:102060000895DC01FB0180818823C1F0813410F4E4
:1020700099270FC08B3518F4805899270AC08136EC
:1020800010F4992706C08B3718F48052992701C0A5
:1020900099278D9331968081882341F71D92CD0138
:1020A00008951F9310E80E946A158823E1F38FE7D3
:1020B0000E9492151150B9F71F9108951F93CF9365
:1020C000DF9314E067C0A091A105B091A2058091B3
:1020D000A905813099F082301CF4882341F004C0B6
:1020E0008230B1F0833011F12FEF3FEF2FC081E04C
:1020F0008093A9058C91282F332728C082E08093F4
:10210000A905ED018B8199279C012D5F3F4F1EC0D2
:10211000FD018681282F33278381882319F41093AA
:10212000A90514C083E08093A90510C0ED019C812E
:10213000E981FA81E90FF11D80819F5F9C83282F3F
:1021400033278B81981710F01093A905332324F0BF
:10215000822F0E9492151EC05091A005852F81509C
:102160008093A0058823A1F020E030E041E061EAFF
:1021700075E0E22FFF27EE0FFF1FE60FF71F8281AA
:102180009381918380832F5F3F4F4F5F541789F76F
:102190001092A9058091A005882329F00E946A1554
:1021A000882309F090CFDF91CF911F9108950F936D
:1021B0001F931092A0058FEF8093B9058093B4050B
:1021C0008093AF058093AA051092BE0584E08093AA
:1021D000A90502ED13E0B8018FE493E00E94011419
:1021E000C8011F910F9108950E94781599230CF44E
:1021F000D2C0482F2091BE05223011F1233034F493
:10220000222359F0213009F0C1C013C0233009F452
:102210007FC0243009F0BAC087C08D5F823018F0CB
:102220004C3F09F0B3C04093C40581E08093BE05E4
:10223000ADC083508093C30582E08093BE05A6C0E5
:102240008093BF0584E08093BE0520E030E0EAEA99
:10225000F5E08081481721F52093C005822F99274A
:1022600087FD9095FC01EE0FFF1FEE0FFF1FE80F9B
:10227000F91FE655FA4F0180F281E02DF093C20577
:10228000E093C1052091C4059091C305858189170C
:1022900068F020834683138283E08093BE0506C0E6
:1022A0002F5F3F4F35962430310599F68091C30555
:1022B000882309F06BC08091C005992787FD909510
:1022C000FC01EE0FFF1FEE0FFF1FE80FF91FE65591
:1022D000FA4F0380F481E02D8091BE05843011F423
:1022E0006FEF01C060E0842F09958091C0059927A8
:1022F00087FD9095FC01EE0FFF1FEE0FFF1FE80F0B
:10230000F91FE655FA4F8FEF80831092BE053EC04D
:10231000E091C105F091C2058381A181B281A80F2E
:10232000B11D4C938F5F83838091C305815080934F
:10233000C30518165CF18091C005992787FD90951B
:10234000FC01EE0FFF1FEE0FFF1FE80FF91FE65510
:10235000FA4F0380F481E02D243011F46FEF01C0B7
:1023600060E08091BF0509958091C005992787FDA0
:102370009095FC01EE0FFF1FEE0FFF1FE80FF91FF6
:10238000E655FA4F8FEF80831092BE050E947815B4
:1023900099230CF02ECF0E945E100895CF93DF9307
:1023A000EB018091A005833030F00E94F410809101
:1023B000A0058330D0F7E82FFF27EE0FFF1FEF5562
:1023C000FA4FD183C0838F5F8093A005813021F4C1
:1023D0001092A9050E945E10DF91CF9108958F920F
:1023E0009F92AF92BF92CF92DF92FF920F931F9373
:1023F000CF93DF934C01F62EEA0169015801662361
:1024000084F4862F992787FD90959F938F9382E57B
:1024100093E09F938F930E94900B0F900F900F90DB
:102420000F908E8188237CF4992787FD90959F9348
:102430008F9381E793E09F938F930E94900B0F906F
:102440000F900F900F901FEF0FC0122F09C08081C7
:102450008823DCF32F5F3F4F359624303105B9F7E1
:102460000E94F41011232CF420E030E0EAEAF5E0B9
:10247000EECF812F992787FD9095FC01EE0FFF1F6E
:10248000EE0FFF1FE80FF91FE655FA4FF082D282D8
:10249000C182B482A382BE01C4010E94CE11DF9129
:1024A000CF911F910F91FF90DF90CF90BF90AF9091
:1024B0009F908F9008958091A005882331F00E940D
:1024C000F4108091A0058823D1F70895EF92FF9230
:1024D0000F931F93CF93DF937C01009739F483E927
:1024E00093E00E94360B8FEF9FEF0CC1EC01098146
:1024F0001A81F8016285613019F0A5ECB5E008C0D9
:1025000081E08093C50584E08093C605A7ECB5E023
:1025100081E0ED018993FD018183AE014F5F5F4F43
:10252000E8018B81882309F0DFC02A812A3F08F067
:10253000DBC0293F41F489818F3F29F488818823BA
:1025400009F0D2C0C7C0F801818199273327322F03
:102550002227282B392B8081882311F02F5F3F4FB2
:10256000DA012D93832F9927EA018983FD013196A2
:102570002A30310520F480E2ED0189833196613003
:1025800019F482E1819315C0623009F455C02436F4
:10259000310518F480E2819304C083E0283E3807B7
:1025A00018F480E2819303C02051374210F480E296
:1025B000819382E28193E8018B85882309F49EC090
:1025C000D8012BE0813410F499270FC08B3518F413
:1025D000805899270AC0813610F4992706C08B3796
:1025E00018F48052992701C0992781932F5FED013C
:1025F0008C85882329F482E281932C3130F00AC043
:1026000011962B31F9F682E2819380E281932F5F5C
:102610002C31D8F3613039F46EE973E0CF010E94B8
:102620003110FC011EC0633039F465EA73E0CF015C
:102630000E943110FC0115C0662339F469EA73E089
:10264000CF010E943110FC010CC0623051F46DEAE0
:1026500073E0CF010E943110FC011192EC0119824C
:10266000319685EC95E00E2F081BC02FDD27F70172
:102670008581992787FD90958C179D07F4F489EB48
:1026800093E00E94360B802F82958F700EED13E041
:10269000F801E80FF11D80810E94FE0AFE01EF7033
:1026A000F070E00FF11F80810E94FE0A0E94290B4A
:1026B0000E94FB0A8FEF9FEF25C0402F552765EC46
:1026C00075E0E70189819A810E94F0150B8380E013
:1026D00090E018C0FA018FEF819389EFEA018983B6
:1026E00031962FEF39EF4BCFFA018FEF819389EFBE
:1026F000EA01898331962FEF39EF41CF82E281934E
:102700002BE083CFDF91CF911F910F91FF90EF903E
:102710000895FC01A181B2818381992787FD90955D
:10272000882321F1282F8C91813410F4992719C026
:102730008B3518F4805E992714C0813610F49927E0
:1027400010C08B3718F4805299270BC0813C10F4CD
:10275000992707C08B3D20F499278F77907001C08F
:1027600099278C93215011F01196DDCF80E090E0F5
:102770000895EAE4F6E029E030E0482F552780810B
:10278000992787FD90958417950779F48181928127
:10279000892B59F0C901880F991F880F991F820F43
:1027A000931F0196835E994F0895359721503040CD
:1027B0008FEF2F3F380719F785E096E00895909343
:1027C0000606809305067093080660930706089531
:1027D000E9E0F6E085EF95E0128A118A108A178603
:1027E0003597E817F907C1F7EAE4F6E02FEF88E13B
:1027F00096E01282118220833597E817F907C9F70E
:1028000008950F931F93CF93DF93EC018B019F9358
:102810008F937F936F938EEE93E09F938F930E949D
:10282000900B23E030E0E8E1F6E08DB79EB7069626
:102830000FB6F8949EBF0FBE8DBF80819181892B0A
:10284000D1F4F901EE0FFF1FEE0FFF1FE20FF31F90
:10285000E75FF94FD183C083138302833F932F93A4
:102860008DE094E09F938F930E94900B0F900F90B8
:102870000F900F9007C02150304035979FEF2F3FAA
:102880003907D9F680E090E0DF91CF911F910F9149
:1028900008959F92AF92BF92CF92DF92EF92FF92F4
:1028A0000F931F93CF93DF93982E8B01A82EBB24F9
:1028B0007F936F93BF92AF9284E294E09F938F9344
:1028C0000E94900BF801C0808DB79EB706960FB698
:1028D000F8949EBF0FBE8DBFCC2009F4B0C09AE320
:1028E000C91609F4AFC030E03F5F432F5527F80108
:1028F000E40FF51FE081EE2309F4A1C0EA3309F4E7
:10290000A4C0F2CF822F9927FC01EC0FFD1FD80144
:10291000A80FB91F90818C919817B1F52F5F3217CE
:1029200089F7632F7727CB01880F991F880F991F8D
:10293000860F971FEC01C75FD94F88819981FA01F3
:10294000E80FF91F80818823F9F48D2D992787FDE1
:1029500090959F938F937F936F938EE394E09F93D3
:102960008F930E94900B0A80DB81C02DE881F98152
:10297000C8010995AC01EDB7FEB736960FB6F894CD
:10298000FEBF0FBEEDBF34C0DA948BEF9FEFE80EB1
:10299000F91E9FEFD91641F1332319F2F701C081D7
:1029A000D18188818C1581F720E0B8CFF901EE0F35
:1029B000FF1FEE0FFF1FE20FF31FE35EF94F8FEFD4
:1029C00080831282118226C0F901EE0FFF1FEE0FE5
:1029D000FF1FE20FF31FE35EF94F9082D283C183A2
:1029E0005483438380E027C0C0E0D0E040E050E063
:1029F00029E030E0EAE4F6E08081992787FD9095B0
:102A0000A816B90699F22150304035978FEF2F3F25
:102A1000380791F7209771F029E030E0EAE4F6E01A
:102A200080818F3F89F22150304035979FEF2F3FB3
:102A30003907B1F78FEF992787FD909511C08AEE7E
:102A40009FEF0EC040E050E030E00F2EF3E0DF2EAD
:102A5000F02D0F2EF8E1EF2EF6E0FF2EF02D9CCF9B
:102A6000DF91CF911F910F91FF90EF90DF90CF906A
:102A7000BF90AF909F9008951F920F920FB60F9244
:102A800011248F939F938091220B9091230B019699
:102A90009093230B8093220B9F918F910F900FBEE9
:102AA0000F901F90189582E085BD8FEF98E090936E
:102AB0008900809388001092850010928400109203
:102AC00080008BE080938100EFE6F0E080818260FF
:102AD000808308958091A50B9091A60B20E030E0B3
:102AE0008F5F8F77891711F021E030E0C9010895D9
:102AF0009091A40B8091280C981719F42FEF3FEFB9
:102B00000FC08091280CE4E2FBE0E80FF11D80810A
:102B1000282F33278091280C8F5F8F778093280C84
:102B2000C90108959091A50BE7EAFBE0E90FF11DBB
:102B300080838091A50B8F5F8F778093A50BE1EC4D
:102B4000F0E080818062808308951092A50B10923E
:102B5000A60B1092A40B1092280CE1ECF0E088E098
:102B6000808380818061808387E08093C40010929D
:102B7000C500808180688083089510924F0611B847
:102B80008FEF82B93E98469AF8944B9B02C03D98CD
:102B9000459A789481E080935106F8944B9B02C04B
:102BA0003C98449A789481E0809350063F98479AE5
:102BB00008950F931F9303E710E0F8018081877F4A
:102BC00080830E94BD15DB9AF80180818860808334
:102BD000E8E6F0E08081886080831F910F9108957E
:102BE000FB01DC0102C001900D9241505040D8F72A
:102BF00008956817790768F4FB01DC01E40FF51FFD
:102C0000A40FB51F02C002900E9241505040D8F759
:102C100008950C94F015FB01DC014150504048F040
:102C200001900D920020C9F701C01D924150504003
:102C3000E0F70895AEE0B0E0E0E2F6E10C94FF18B2
:102C40008C0186E08C831A8309838FEF9FE79E8334
:102C50008D83CE0101960E943616EF81F885E00F34
:102C6000F11F1082E4E02E960C941B19ABE0B0E04B
:102C7000ECE3F6E10C94F3184C013B016A01FC0112
:102C800017821682838181FD03C08FEF9FEFDCC125
:102C9000F4012381F30123FD859123FF81913F01FD
:102CA000882309F4CEC1853239F423FD859123FFB1
:102CB00081913F01853229F4B40199270E943E1881
:102CC000E7CF00E0442455243AE00032B0F48B32E0
:102CD00069F08C3228F4803251F0833271F40BC0E9
:102CE0008D3239F0803349F4016028C002600460FD
:102CF00025C0086023C0006121C007FD2BC0282F1C
:102D000020532A3078F406FF06C0539EC0011124D8
:102D1000522E580E13C0439EC0011124422E480E5D
:102D200000620CC08E3221F406FD8BC1006406C027
:102D30008C3611F4006802C0883661F4F401838196
:102D4000F30183FD859183FF81913F01882309F47D
:102D50006FC0BBCF982F8554833018F080528330DA
:102D600038F424E030E0C20ED31E8FE389830FC015
:102D7000933631F0933799F0933509F05BC023C057
:102D8000F6018081898322E030E0C20ED31E7E01ED
:102D90000894E11CF11C51E0A52EB12C12C0F601E3
:102DA000E080F18006FD03C06FEF7FEF02C0652D6C
:102DB000772722E030E0C20ED31EC7010E943318ED
:102DC0005C010F7713C0F601E080F18006FD03C0BF
:102DD0006FEF7FEF02C0652D772722E030E0C20E53
:102DE000D31EC7010E9428185C01006803FF07C0BA
:102DF0001BC0B40180E290E00E943E184A94842DEA
:102E00009927A816B906A8F30FC0F70107FD859109
:102E100007FF81917F01B40199270E943E1841105C
:102E20004A940894A108B108A114B10471F706C12D
:102E300090E03EC0943611F0993691F507FF0AC034
:102E4000F601608171818281938124E030E0C20EBD
:102E5000D31E0DC0F601808191819C01B9018827A4
:102E600077FD8095982F42E050E0C40ED51E4FE6C6
:102E7000B42EB02297FF09C090958095709561950A
:102E80007F4F8F4F9F4F50E8B52A8E010F5F1F4F26
:102E90002AE030E0A8010E946B18A82EA01A4DC0AD
:102EA000953731F43FEEF32EF0222AE030E023C0D4
:102EB00029EFF22EF0229F3661F0903720F49835FA
:102EC00009F0BFC012C0903739F0983709F0B9C087
:102ED00005C028E030E00FC080E1F82AF4FE02C00F
:102EE00094E0F92A20E130E006C0F4FE02C0E6E0FA
:102EF000FE2A20E132E0F7FE0AC0F601608171810E
:102F00008281938144E050E0C40ED51E0BC0F601CF
:102F100080819181AC01BA0188279927E2E0F0E035
:102F2000CE0EDF1E8E010F5F1F4FA8010E946B188F
:102F3000A82EA01A8FE7B82EBF20B6FE10C0FEEF55
:102F4000BF22A51460F42B2D332724FF1AC022FFC3
:102F500002C0052D09C02FEEB222052D01C00A2D99
:102F60002B2D332724FF0EC0FE01EA0DF11D8081B9
:102F7000803319F439EEB32209C00F5F22FF06C077
:102F800004C0052D822F867809F00F5FEB2CFF24FB
:102F9000E3FC14C0E0FE0FC0041510F05A2C0BC067
:102FA000542C501A5A0C042D06C0B40180E290E053
:102FB0000E943E180F5F0415C0F304C0041510F4FE
:102FC000401A01C04424E4FE10C0B40180E390E044
:102FD0000E943E18E2FE1EC0E1FE03C088E590E0BC
:102FE00002C088E790E0B4010CC08E2D867891F085
:102FF000E1FE02C08BE201C080E2B7FC8DE2B401C9
:1030000099270E943E1806C0B40180E390E00E9418
:103010003E185A94A514C0F3AA94FE01EA0DF11DBE
:103020008181B40199270E943E18AA2039F0F4CF7B
:10303000B40180E290E00E943E184A944420C1F717
:1030400027CEF40186819781E0E12B960C940F192D
:10305000FC010590615070400110D8F78095909563
:103060008E0F9F1F0895FC01615070400190011068
:10307000D8F7809590958E0F9F1F08950F931F93FB
:10308000CF93DF938C01EB018B81992781FF1BC0CC
:1030900082FF0DC02E813F818C819D8128173907C9
:1030A00064F4E881F9810193F983E88306C0E88537
:1030B000F985802F0995892B31F48E819F810196A6
:1030C0009F838E8302C00FEF1FEFC801DF91CF9166
:1030D0001F910F910895FA01AA27283051F120314C
:1030E00081F1E8946F936E7F6E5F7F4F8F4F9F4F9C
:1030F000AF4FB1E03ED0B4E03CD0670F781F891FDE
:103100009A1FA11D680F791F8A1F911DA11D6A0FAB
:10311000711D811D911DA11D20D009F468943F915E
:103120002AE0269F11243019305D3193DEF6CF015D
:103130000895462F4770405D4193B3E00FD0C9F723
:10314000F6CF462F4F70405D4A3318F0495D31FD90
:103150004052419302D0A9F7EACFB4E0A6959795E3
:10316000879577956795BA95C9F7009761057105B9
:1031700008959B01AC010A2E069457954795379503
:103180002795BA95C9F7620F731F841F951FA01D5D
:103190000895991B79E004C0991F961708F0961BB3
:1031A000881F7A95C9F78095089585FD17C08062BC
:1031B000911114C081568A51E0F70895803209F0C8
:1031C00091110CC080528F55E0F708959111089528
:1031D00081568A5108F48052855808959927882786
:1031E00008952F923F924F925F926F927F928F92AB
:1031F0009F92AF92BF92CF92DF92EF92FF920F9386
:103200001F93CF93DF93CDB7DEB7CA1BDB0B0FB68F
:10321000F894DEBF0FBECDBF09942A88398848884C
:103220005F846E847D848C849B84AA84B984C884E2
:10323000DF80EE80FD800C811B81AA81B981CE0FD9
:10324000D11D0FB6F894DEBF0FBECDBFED010895BE
:02325000FFCFAE
:10325200446964206E6F742066696E6420636861DD
:103262006E6E656C210A0046494C45204E4F542033
:10327200464F554E440A005265636569766564207F
:10328200646972656374206572726F72206E756D07
:10329200626572206F6E206F70656E3A2025640A37
:1032A20000556E6B6E6F776E20636F6D6D616E642D
:1032B20020253032580A0A00534E483A2070616382
:1032C2006B65742074797065206973206E6F742049
:1032D20046535F524541442C206275743A2025645E
:1032E2000A00F405000000000000000000000000D9
:1032F20000000000000000000000000000000000CC
:1033020000000000000000000000000000000000BB
:103312000000C60100000000000000009705000048
:1033220000002323232058532D313534312F5844A4
:10333200323033312076302E3120232323002025D2
:10334200752042797465732066726565002C2025AC
:1033520064206B487A0053657420737461747573CA
:1033620020746F3A2025730A0041535349474E0097
:10337200002D0024003F00494E495449414C495A0E
:10338200450052454E414D45005343524154434836
:10339200004344004D4B44495200524D44495200AF
:1033A200434F4D4D414E443A2000434D443D257319
:1033B2000A0044524956453D25630A004E414D4597
:1033C2003D25730A004143434553533D0054595030
:1033D200453D00494C4C4547414C20434F4D4D41E2
:1033E2004E442100494C4C4547414C2044524956D9
:1033F200453A20004E4F204F50454E20534C4F54DB
:1034020020464F52204F50454E21004E414D4520FF
:10341200434F4E56455253494F4E2045584345451A
:10342200445320425546464552210046494C4520C8
:103432004F50454E204552524F5200453D004E4F8F
:1034420020434F525245435420434D443A200055A5
:103452004E4B4F574E2046494C4520545950453A01
:103462002000554E4B4F574E2046494C4520414374
:10347200434553532054595045200057524954450F
:1034820020544F204449524543544F525921003051
:103492003132333435363738396162636465666692
:1034A200730021212121207375626D69742077696F
:1034B2007468206368616E6E656C6E6F3D25640A88
:1034C2000021212121207375626D6974207769744E
:1034D20068207061636B65742D3E6368616E3D2583
:1034E200640A0050204953204E554C4C2100786408
:1034F20032303331006469720070726700626C6F3F
:10350200636B73206672656500434F4E5645525396
:10351200494F4E204E4F5420504F535349424C4531
:1035220021002D103010CE11EF11661289133031A7
:1035320032333435363738396162636465665265D1
:103542006769737465722070726F76696465722040
:10355200257020666F7220272573270A005265673F
:103562006973746572656420696E20736C6F742070
:1035720025640A0041535349474E3A2064726976E2
:103582006520256420746F20272573270A00466F63
:10359200756E64206E65772070726F7669646572ED
:1035A2003A20257020696E20736C6F742025640A9E
:0235B200000017
:00000001FF
